{
  "_format": "hh-sol-artifact-1",
  "contractName": "NexusEcosystemHub",
  "sourceName": "contracts/NexusEcosystemHub.sol",
  "abi": [
    {
      "inputs": [],
      "stateMutability": "nonpayable",
      "type": "constructor"
    },
    {
      "anonymous": false,
      "inputs": [
        {
          "indexed": true,
          "internalType": "address",
          "name": "previousOwner",
          "type": "address"
        },
        {
          "indexed": true,
          "internalType": "address",
          "name": "newOwner",
          "type": "address"
        }
      ],
      "name": "OwnershipTransferred",
      "type": "event"
    },
    {
      "anonymous": false,
      "inputs": [
        {
          "indexed": true,
          "internalType": "address",
          "name": "initiator",
          "type": "address"
        }
      ],
      "name": "SystemPaused",
      "type": "event"
    },
    {
      "anonymous": false,
      "inputs": [
        {
          "indexed": true,
          "internalType": "address",
          "name": "initiator",
          "type": "address"
        }
      ],
      "name": "SystemResumed",
      "type": "event"
    },
    {
      "inputs": [],
      "name": "TIMELOCK_PERIOD",
      "outputs": [
        {
          "internalType": "uint256",
          "name": "",
          "type": "uint256"
        }
      ],
      "stateMutability": "view",
      "type": "function"
    },
    {
      "inputs": [
        {
          "internalType": "address",
          "name": "managerAddress",
          "type": "address"
        }
      ],
      "name": "addManager",
      "outputs": [],
      "stateMutability": "nonpayable",
      "type": "function"
    },
    {
      "inputs": [
        {
          "internalType": "address",
          "name": "",
          "type": "address"
        }
      ],
      "name": "authorizedManagers",
      "outputs": [
        {
          "internalType": "bool",
          "name": "",
          "type": "bool"
        }
      ],
      "stateMutability": "view",
      "type": "function"
    },
    {
      "inputs": [],
      "name": "baseExchangeRate",
      "outputs": [
        {
          "internalType": "uint256",
          "name": "",
          "type": "uint256"
        }
      ],
      "stateMutability": "view",
      "type": "function"
    },
    {
      "inputs": [
        {
          "internalType": "address",
          "name": "_primaryToken",
          "type": "address"
        },
        {
          "internalType": "address",
          "name": "_secondaryToken",
          "type": "address"
        }
      ],
      "name": "configureTokens",
      "outputs": [],
      "stateMutability": "nonpayable",
      "type": "function"
    },
    {
      "inputs": [],
      "name": "dailyTransactionLimit",
      "outputs": [
        {
          "internalType": "uint256",
          "name": "",
          "type": "uint256"
        }
      ],
      "stateMutability": "view",
      "type": "function"
    },
    {
      "inputs": [
        {
          "internalType": "address",
          "name": "",
          "type": "address"
        }
      ],
      "name": "dailyTransactionVolume",
      "outputs": [
        {
          "internalType": "uint256",
          "name": "",
          "type": "uint256"
        }
      ],
      "stateMutability": "view",
      "type": "function"
    },
    {
      "inputs": [],
      "name": "getExchangeRate",
      "outputs": [
        {
          "internalType": "uint256",
          "name": "",
          "type": "uint256"
        }
      ],
      "stateMutability": "view",
      "type": "function"
    },
    {
      "inputs": [],
      "name": "getHederaService",
      "outputs": [
        {
          "internalType": "contract IHederaTokenService",
          "name": "",
          "type": "address"
        }
      ],
      "stateMutability": "view",
      "type": "function"
    },
    {
      "inputs": [],
      "name": "getPrimaryToken",
      "outputs": [
        {
          "internalType": "address",
          "name": "",
          "type": "address"
        }
      ],
      "stateMutability": "view",
      "type": "function"
    },
    {
      "inputs": [],
      "name": "getReserveWallet",
      "outputs": [
        {
          "internalType": "address",
          "name": "",
          "type": "address"
        }
      ],
      "stateMutability": "view",
      "type": "function"
    },
    {
      "inputs": [],
      "name": "getSecondaryToken",
      "outputs": [
        {
          "internalType": "address",
          "name": "",
          "type": "address"
        }
      ],
      "stateMutability": "view",
      "type": "function"
    },
    {
      "inputs": [],
      "name": "isActive",
      "outputs": [
        {
          "internalType": "bool",
          "name": "",
          "type": "bool"
        }
      ],
      "stateMutability": "view",
      "type": "function"
    },
    {
      "inputs": [
        {
          "internalType": "address",
          "name": "userAccount",
          "type": "address"
        }
      ],
      "name": "isManager",
      "outputs": [
        {
          "internalType": "bool",
          "name": "",
          "type": "bool"
        }
      ],
      "stateMutability": "view",
      "type": "function"
    },
    {
      "inputs": [
        {
          "internalType": "address",
          "name": "userAccount",
          "type": "address"
        }
      ],
      "name": "isOwner",
      "outputs": [
        {
          "internalType": "bool",
          "name": "",
          "type": "bool"
        }
      ],
      "stateMutability": "view",
      "type": "function"
    },
    {
      "inputs": [
        {
          "internalType": "address",
          "name": "",
          "type": "address"
        }
      ],
      "name": "lastTransactionDay",
      "outputs": [
        {
          "internalType": "uint256",
          "name": "",
          "type": "uint256"
        }
      ],
      "stateMutability": "view",
      "type": "function"
    },
    {
      "inputs": [],
      "name": "maxTransactionLimit",
      "outputs": [
        {
          "internalType": "uint256",
          "name": "",
          "type": "uint256"
        }
      ],
      "stateMutability": "view",
      "type": "function"
    },
    {
      "inputs": [],
      "name": "pauseSystem",
      "outputs": [],
      "stateMutability": "nonpayable",
      "type": "function"
    },
    {
      "inputs": [],
      "name": "platformOwner",
      "outputs": [
        {
          "internalType": "address",
          "name": "",
          "type": "address"
        }
      ],
      "stateMutability": "view",
      "type": "function"
    },
    {
      "inputs": [],
      "name": "primaryTokenAddress",
      "outputs": [
        {
          "internalType": "address",
          "name": "",
          "type": "address"
        }
      ],
      "stateMutability": "view",
      "type": "function"
    },
    {
      "inputs": [
        {
          "internalType": "address",
          "name": "userAccount",
          "type": "address"
        },
        {
          "internalType": "uint256",
          "name": "transactionAmount",
          "type": "uint256"
        }
      ],
      "name": "recordTransaction",
      "outputs": [],
      "stateMutability": "nonpayable",
      "type": "function"
    },
    {
      "inputs": [
        {
          "internalType": "address",
          "name": "managerAddress",
          "type": "address"
        }
      ],
      "name": "removeManager",
      "outputs": [],
      "stateMutability": "nonpayable",
      "type": "function"
    },
    {
      "inputs": [],
      "name": "reserveWallet",
      "outputs": [
        {
          "internalType": "address",
          "name": "",
          "type": "address"
        }
      ],
      "stateMutability": "view",
      "type": "function"
    },
    {
      "inputs": [],
      "name": "resumeSystem",
      "outputs": [],
      "stateMutability": "nonpayable",
      "type": "function"
    },
    {
      "inputs": [],
      "name": "secondaryTokenAddress",
      "outputs": [
        {
          "internalType": "address",
          "name": "",
          "type": "address"
        }
      ],
      "stateMutability": "view",
      "type": "function"
    },
    {
      "inputs": [],
      "name": "systemPaused",
      "outputs": [
        {
          "internalType": "bool",
          "name": "",
          "type": "bool"
        }
      ],
      "stateMutability": "view",
      "type": "function"
    },
    {
      "inputs": [],
      "name": "tokenExchangeRate",
      "outputs": [
        {
          "internalType": "uint256",
          "name": "",
          "type": "uint256"
        }
      ],
      "stateMutability": "view",
      "type": "function"
    },
    {
      "inputs": [
        {
          "internalType": "address",
          "name": "newOwner",
          "type": "address"
        }
      ],
      "name": "transferOwnership",
      "outputs": [],
      "stateMutability": "nonpayable",
      "type": "function"
    },
    {
      "inputs": [
        {
          "internalType": "address",
          "name": "userAccount",
          "type": "address"
        },
        {
          "internalType": "uint256",
          "name": "transactionAmount",
          "type": "uint256"
        }
      ],
      "name": "validateTransactionLimits",
      "outputs": [
        {
          "internalType": "bool",
          "name": "",
          "type": "bool"
        }
      ],
      "stateMutability": "nonpayable",
      "type": "function"
    }
  ],
  "bytecode": "0x608060405260646004556101f46005556402540be40060065564174876e80060075534801561002d57600080fd5b5060008054336001600160a01b03199182168117835560018054909216179055610a6490819061005d90396000f3fe608060405234801561001057600080fd5b50600436106101cf5760003560e01c8063764aa9c411610104578063cabf2038116100a2578063e6aa216c11610071578063e6aa216c146103d8578063f2fde38b146103e0578063f3ae2415146103f3578063f9cc69011461040657600080fd5b8063cabf20381461038a578063d72b11bd1461039d578063dc1d4fb7146103b0578063dda5f1ed146103b857600080fd5b8063a7427346116100de578063a742734614610333578063a775888314610346578063ac18de4314610357578063af59c95f1461036a57600080fd5b8063764aa9c4146102fb57806396a369261461030c5780639d2f83f01461031f57600080fd5b806336fdced9116101715780634df8ccb11161014b5780634df8ccb1146102ce578063580d164e146102e157806365676c9e146102e9578063676c8458146102f257600080fd5b806336fdced91461029c5780634172d080146102ad5780634a5bcbf8146102c457600080fd5b806317ca06ab116101ad57806317ca06ab1461024157806322f3e2d4146102545780632d06177a146102675780632f54bf6e1461027a57600080fd5b80630700b95a146101d45780630a3cb21b14610204578063157c51d314610237575b600080fd5b6002546101e7906001600160a01b031681565b6040516001600160a01b0390911681526020015b60405180910390f35b610227610212366004610922565b600a6020526000908152604090205460ff1681565b60405190151581526020016101fb565b61023f61040f565b005b61023f61024f366004610944565b61047c565b600154600160a01b900460ff1615610227565b61023f610275366004610922565b610507565b610227610288366004610922565b6000546001600160a01b0391821691161490565b6003546001600160a01b03166101e7565b6102b660055481565b6040519081526020016101fb565b6102b66201518081565b6000546101e7906001600160a01b031681565b6101676101e7565b6102b660045481565b6102b660065481565b6001546001600160a01b03166101e7565b6003546101e7906001600160a01b031681565b60015461022790600160a01b900460ff1681565b61023f61034136600461096e565b6105c2565b6002546001600160a01b03166101e7565b61023f610365366004610922565b610686565b6102b6610378366004610922565b60096020526000908152604090205481565b610227610398366004610944565b6106d1565b6001546101e7906001600160a01b031681565b61023f610771565b6102b66103c6366004610922565b60086020526000908152604090205481565b6005546102b6565b61023f6103ee366004610922565b6107db565b610227610401366004610922565b6108cf565b6102b660075481565b6000546001600160a01b031633146104425760405162461bcd60e51b8152600401610439906109a1565b60405180910390fd5b6001805460ff60a01b1916905560405133907f0ff819190843157e9b315cb14d812174d22ebb52fe2ea65296460fa86f0f1dd390600090a2565b600061048b62015180426109eb565b6001600160a01b0384166000908152600960205260409020549091508111156104d5576001600160a01b038316600090815260096020908152604080832084905560089091528120555b6001600160a01b038316600090815260086020526040812080548492906104fd908490610a0d565b9091555050505050565b6000546001600160a01b031633146105315760405162461bcd60e51b8152600401610439906109a1565b6001600160a01b03811661059e5760405162461bcd60e51b815260206004820152602e60248201527f4e6578757345636f73797374656d4875623a206d616e6167657220697320746860448201526d65207a65726f206164647265737360901b6064820152608401610439565b6001600160a01b03166000908152600a60205260409020805460ff19166001179055565b6000546001600160a01b031633146105ec5760405162461bcd60e51b8152600401610439906109a1565b6001600160a01b0382161580159061060c57506001600160a01b03811615155b6106585760405162461bcd60e51b815260206004820152601760248201527f496e76616c696420746f6b656e206164647265737365730000000000000000006044820152606401610439565b600280546001600160a01b039384166001600160a01b03199182161790915560038054929093169116179055565b6000546001600160a01b031633146106b05760405162461bcd60e51b8152600401610439906109a1565b6001600160a01b03166000908152600a60205260409020805460ff19169055565b60006006548211156106e55750600061076b565b60006106f462015180426109eb565b6001600160a01b03851660009081526009602052604090205490915081111561073e576001600160a01b038416600090815260096020908152604080832084905560089091528120555b6007546001600160a01b038516600090815260086020526040902054610765908590610a0d565b11159150505b92915050565b6000546001600160a01b0316331461079b5760405162461bcd60e51b8152600401610439906109a1565b6001805460ff60a01b1916600160a01b17905560405133907f0e453e53649b13b8c30ef82dd7bce6c745cfcc7a1dc95170b4750764194f19b290600090a2565b6000546001600160a01b031633146108055760405162461bcd60e51b8152600401610439906109a1565b6001600160a01b0381166108745760405162461bcd60e51b815260206004820152603060248201527f4e6578757345636f73797374656d4875623a206e6577206f776e65722069732060448201526f746865207a65726f206164647265737360801b6064820152608401610439565b600080546040516001600160a01b03808516939216917f8be0079c531659141344cd1fd0a4f28419497f9722a3daafe3b4186f6b6457e091a3600080546001600160a01b0319166001600160a01b0392909216919091179055565b600080546001600160a01b038381169116148061076b5750506001600160a01b03166000908152600a602052604090205460ff1690565b80356001600160a01b038116811461091d57600080fd5b919050565b60006020828403121561093457600080fd5b61093d82610906565b9392505050565b6000806040838503121561095757600080fd5b61096083610906565b946020939093013593505050565b6000806040838503121561098157600080fd5b61098a83610906565b915061099860208401610906565b90509250929050565b6020808252602a908201527f4e6578757345636f73797374656d4875623a2063616c6c6572206973206e6f74604082015269103a34329037bbb732b960b11b606082015260800190565b600082610a0857634e487b7160e01b600052601260045260246000fd5b500490565b8082018082111561076b57634e487b7160e01b600052601160045260246000fdfea26469706673582212205b9d261bc9a53021b059dddda5a31acecab35dbf0a302c6d752d9b6a0eadbb4f64736f6c63430008140033",
  "linkReferences": {},
  "deployedLinkReferences": {}
}