{
  "_format": "hh-sol-artifact-1",
  "contractName": "PlatformGateway",
  "sourceName": "contracts/PlatformGateway.sol",
  "abi": [
    {
      "inputs": [
        {
          "internalType": "address",
          "name": "_platformCore",
          "type": "address"
        }
      ],
      "stateMutability": "nonpayable",
      "type": "constructor"
    },
    {
      "anonymous": false,
      "inputs": [
        {
          "indexed": true,
          "internalType": "address",
          "name": "platformCore",
          "type": "address"
        }
      ],
      "name": "GatewayDeployed",
      "type": "event"
    },
    {
      "anonymous": false,
      "inputs": [
        {
          "indexed": false,
          "internalType": "address",
          "name": "serviceManager",
          "type": "address"
        },
        {
          "indexed": false,
          "internalType": "address",
          "name": "assetManager",
          "type": "address"
        },
        {
          "indexed": false,
          "internalType": "address",
          "name": "stakeManager",
          "type": "address"
        },
        {
          "indexed": false,
          "internalType": "address",
          "name": "creatorTokenManager",
          "type": "address"
        },
        {
          "indexed": false,
          "internalType": "address",
          "name": "securityModule",
          "type": "address"
        }
      ],
      "name": "ModulesLinked",
      "type": "event"
    },
    {
      "inputs": [
        {
          "internalType": "address",
          "name": "supervisor",
          "type": "address"
        }
      ],
      "name": "addSupervisor",
      "outputs": [],
      "stateMutability": "nonpayable",
      "type": "function"
    },
    {
      "inputs": [],
      "name": "assetManager",
      "outputs": [
        {
          "internalType": "address",
          "name": "",
          "type": "address"
        }
      ],
      "stateMutability": "view",
      "type": "function"
    },
    {
      "inputs": [
        {
          "internalType": "address",
          "name": "newController",
          "type": "address"
        }
      ],
      "name": "changeController",
      "outputs": [],
      "stateMutability": "nonpayable",
      "type": "function"
    },
    {
      "inputs": [
        {
          "internalType": "address",
          "name": "newOwner",
          "type": "address"
        }
      ],
      "name": "changeOwner",
      "outputs": [],
      "stateMutability": "nonpayable",
      "type": "function"
    },
    {
      "inputs": [],
      "name": "creatorTokenManager",
      "outputs": [
        {
          "internalType": "address",
          "name": "",
          "type": "address"
        }
      ],
      "stateMutability": "view",
      "type": "function"
    },
    {
      "inputs": [],
      "name": "emergencyResume",
      "outputs": [],
      "stateMutability": "nonpayable",
      "type": "function"
    },
    {
      "inputs": [],
      "name": "emergencyStop",
      "outputs": [],
      "stateMutability": "nonpayable",
      "type": "function"
    },
    {
      "inputs": [],
      "name": "getController",
      "outputs": [
        {
          "internalType": "address",
          "name": "",
          "type": "address"
        }
      ],
      "stateMutability": "view",
      "type": "function"
    },
    {
      "inputs": [
        {
          "internalType": "address",
          "name": "_serviceManager",
          "type": "address"
        },
        {
          "internalType": "address",
          "name": "_assetManager",
          "type": "address"
        },
        {
          "internalType": "address",
          "name": "_stakeManager",
          "type": "address"
        },
        {
          "internalType": "address",
          "name": "_creatorTokenManager",
          "type": "address"
        },
        {
          "internalType": "address",
          "name": "_securityModule",
          "type": "address"
        }
      ],
      "name": "linkModules",
      "outputs": [],
      "stateMutability": "nonpayable",
      "type": "function"
    },
    {
      "inputs": [],
      "name": "platformCore",
      "outputs": [
        {
          "internalType": "contract IQuantumPlatformCore",
          "name": "",
          "type": "address"
        }
      ],
      "stateMutability": "view",
      "type": "function"
    },
    {
      "inputs": [],
      "name": "securityModule",
      "outputs": [
        {
          "internalType": "address",
          "name": "",
          "type": "address"
        }
      ],
      "stateMutability": "view",
      "type": "function"
    },
    {
      "inputs": [],
      "name": "serviceManager",
      "outputs": [
        {
          "internalType": "address",
          "name": "",
          "type": "address"
        }
      ],
      "stateMutability": "view",
      "type": "function"
    },
    {
      "inputs": [],
      "name": "stakeManager",
      "outputs": [
        {
          "internalType": "address",
          "name": "",
          "type": "address"
        }
      ],
      "stateMutability": "view",
      "type": "function"
    }
  ],
  "bytecode": "0x608060405234801561001057600080fd5b50604051610a8e380380610a8e83398101604081905261002f91610132565b6001600160a01b0381166100a05760405162461bcd60e51b815260206004820152602e60248201527f506c6174666f726d476174657761793a20706c6174666f726d20636f7265206160448201526d646472657373206973207a65726f60901b606482015260840160405180910390fd5b600080546001600160a01b0319166001600160a01b0383161790556100c4336100fe565b6040516001600160a01b038216907fd99ac2fd385313ac20e8ac829f3132d44d8d73640e80390b2084f421c874e67790600090a250610189565b600061012b60017f1df41701f902ce3da6e2994536874193ca9cfb87b69b3d79cdd3c74499a15638610162565b9190915550565b60006020828403121561014457600080fd5b81516001600160a01b038116811461015b57600080fd5b9392505050565b8181038181111561018357634e487b7160e01b600052601160045260246000fd5b92915050565b6108f6806101986000396000f3fe608060405234801561001057600080fd5b50600436106100cf5760003560e01c806363a599a41161008c57806393c87f031161006657806393c87f031461018757806394217ad11461018f578063a6f9dae1146101a2578063bfa5020c146101b557600080fd5b806363a599a4146101595780637542ff9514610161578063813047ab1461017457600080fd5b806329d10b6e146100d45780632e10c86c146100e95780633018205f146100fc578063380ef3fe146101205780633998fdd3146101335780633cebb82314610146575b600080fd5b6100e76100e23660046107a3565b6101c8565b005b6100e76100f73660046107c5565b61026c565b6101046104f3565b6040516001600160a01b03909116815260200160405180910390f35b600554610104906001600160a01b031681565b600154610104906001600160a01b031681565b6100e76101543660046107a3565b610502565b6100e76105a8565b600354610104906001600160a01b031681565b600454610104906001600160a01b031681565b6100e761063b565b600254610104906001600160a01b031681565b6100e76101b03660046107a3565b6106b4565b600054610104906001600160a01b031681565b6101d061071e565b6001600160a01b0316336001600160a01b0316146102095760405162461bcd60e51b81526004016102009061082a565b60405180910390fd5b6000546040516314e885b760e11b81526001600160a01b038381166004830152909116906329d10b6e906024015b600060405180830381600087803b15801561025157600080fd5b505af1158015610265573d6000803e3d6000fd5b5050505050565b61027461071e565b6001600160a01b0316336001600160a01b0316146102a45760405162461bcd60e51b815260040161020090610850565b6001600160a01b0385166102fa5760405162461bcd60e51b815260206004820152601760248201527f496e76616c69642073657276696365206d616e616765720000000000000000006044820152606401610200565b6001600160a01b0384166103485760405162461bcd60e51b815260206004820152601560248201527424b73b30b634b21030b9b9b2ba1036b0b730b3b2b960591b6044820152606401610200565b6001600160a01b0383166103965760405162461bcd60e51b815260206004820152601560248201527424b73b30b634b21039ba30b5b29036b0b730b3b2b960591b6044820152606401610200565b6001600160a01b0382166103ec5760405162461bcd60e51b815260206004820152601d60248201527f496e76616c69642063726561746f7220746f6b656e206d616e616765720000006044820152606401610200565b6001600160a01b0381166104425760405162461bcd60e51b815260206004820152601760248201527f496e76616c6964207365637572697479206d6f64756c650000000000000000006044820152606401610200565b600180546001600160a01b038781166001600160a01b031992831681179093556002805488831690841681179091556003805488841690851681179091556004805488851690861681179091556005805494881694909516841790945560408051958652602086019290925290840152606083019190915260808201527f9b47e54d9b3abe46f0a97a08368148dcc1f8f0fd97118650d8350c5cf967f1689060a00160405180910390a15050505050565b60006104fd61071e565b905090565b61050a61071e565b6001600160a01b0316336001600160a01b03161461053a5760405162461bcd60e51b815260040161020090610850565b6001600160a01b03811661059c5760405162461bcd60e51b815260206004820152602360248201527f506c6174666f726d476174657761793a20696e76616c696420636f6e74726f6c6044820152623632b960e91b6064820152608401610200565b6105a581610753565b50565b6105b061071e565b6001600160a01b0316336001600160a01b0316146105e05760405162461bcd60e51b81526004016102009061082a565b60008054604080516318e9666960e21b815290516001600160a01b03909216926363a599a49260048084019382900301818387803b15801561062157600080fd5b505af1158015610635573d6000803e3d6000fd5b50505050565b61064361071e565b6001600160a01b0316336001600160a01b0316146106735760405162461bcd60e51b81526004016102009061082a565b60008054604080516393c87f0360e01b815290516001600160a01b03909216926393c87f039260048084019382900301818387803b15801561062157600080fd5b6106bc61071e565b6001600160a01b0316336001600160a01b0316146106ec5760405162461bcd60e51b81526004016102009061082a565b60005460405163a6f9dae160e01b81526001600160a01b0383811660048301529091169063a6f9dae190602401610237565b60008061074c60017f1df41701f902ce3da6e2994536874193ca9cfb87b69b3d79cdd3c74499a15638610899565b5492915050565b600061078060017f1df41701f902ce3da6e2994536874193ca9cfb87b69b3d79cdd3c74499a15638610899565b9190915550565b80356001600160a01b038116811461079e57600080fd5b919050565b6000602082840312156107b557600080fd5b6107be82610787565b9392505050565b600080600080600060a086880312156107dd57600080fd5b6107e686610787565b94506107f460208701610787565b935061080260408701610787565b925061081060608701610787565b915061081e60808701610787565b90509295509295909350565b6020808252600c908201526b155b985d5d1a1bdc9a5e995960a21b604082015260600190565b60208082526029908201527f506c6174666f726d476174657761793a2063616c6c6572206973206e6f74206360408201526837b73a3937b63632b960b91b606082015260800190565b818103818111156108ba57634e487b7160e01b600052601160045260246000fd5b9291505056fea2646970667358221220beea402f54bbab20a32588cb72267a015341a26c6fd6df385d9be13fa003244864736f6c63430008140033",
  "linkReferences": {},
  "deployedLinkReferences": {}
}