{
  "_format": "hh-sol-artifact-1",
  "contractName": "QuantumPlatformCore",
  "sourceName": "contracts/QuantumPlatformCore.sol",
  "abi": [
    {
      "inputs": [],
      "stateMutability": "nonpayable",
      "type": "constructor"
    },
    {
      "anonymous": false,
      "inputs": [
        {
          "indexed": true,
          "internalType": "address",
          "name": "oldOwner",
          "type": "address"
        },
        {
          "indexed": true,
          "internalType": "address",
          "name": "newOwner",
          "type": "address"
        }
      ],
      "name": "OwnershipChanged",
      "type": "event"
    },
    {
      "anonymous": false,
      "inputs": [],
      "name": "SystemStarted",
      "type": "event"
    },
    {
      "anonymous": false,
      "inputs": [],
      "name": "SystemStopped",
      "type": "event"
    },
    {
      "inputs": [
        {
          "internalType": "address",
          "name": "supervisor",
          "type": "address"
        }
      ],
      "name": "addSupervisor",
      "outputs": [],
      "stateMutability": "nonpayable",
      "type": "function"
    },
    {
      "inputs": [],
      "name": "baseTokenAddress",
      "outputs": [
        {
          "internalType": "address",
          "name": "",
          "type": "address"
        }
      ],
      "stateMutability": "view",
      "type": "function"
    },
    {
      "inputs": [
        {
          "internalType": "address",
          "name": "newOwner",
          "type": "address"
        }
      ],
      "name": "changeOwner",
      "outputs": [],
      "stateMutability": "nonpayable",
      "type": "function"
    },
    {
      "inputs": [
        {
          "internalType": "address",
          "name": "account",
          "type": "address"
        },
        {
          "internalType": "uint256",
          "name": "amount",
          "type": "uint256"
        }
      ],
      "name": "checkTransactionLimits",
      "outputs": [
        {
          "internalType": "bool",
          "name": "",
          "type": "bool"
        }
      ],
      "stateMutability": "nonpayable",
      "type": "function"
    },
    {
      "inputs": [],
      "name": "dailyTransactionCap",
      "outputs": [
        {
          "internalType": "uint256",
          "name": "",
          "type": "uint256"
        }
      ],
      "stateMutability": "view",
      "type": "function"
    },
    {
      "inputs": [
        {
          "internalType": "address",
          "name": "",
          "type": "address"
        }
      ],
      "name": "dailyTransactionTotals",
      "outputs": [
        {
          "internalType": "uint256",
          "name": "",
          "type": "uint256"
        }
      ],
      "stateMutability": "view",
      "type": "function"
    },
    {
      "inputs": [],
      "name": "emergencyResume",
      "outputs": [],
      "stateMutability": "nonpayable",
      "type": "function"
    },
    {
      "inputs": [],
      "name": "emergencyStop",
      "outputs": [],
      "stateMutability": "nonpayable",
      "type": "function"
    },
    {
      "inputs": [],
      "name": "getBaseToken",
      "outputs": [
        {
          "internalType": "address",
          "name": "",
          "type": "address"
        }
      ],
      "stateMutability": "view",
      "type": "function"
    },
    {
      "inputs": [],
      "name": "getHederaInterface",
      "outputs": [
        {
          "internalType": "contract IHederaTokenService",
          "name": "",
          "type": "address"
        }
      ],
      "stateMutability": "view",
      "type": "function"
    },
    {
      "inputs": [],
      "name": "getTreasuryWallet",
      "outputs": [
        {
          "internalType": "address",
          "name": "",
          "type": "address"
        }
      ],
      "stateMutability": "view",
      "type": "function"
    },
    {
      "inputs": [],
      "name": "getUtilityToken",
      "outputs": [
        {
          "internalType": "address",
          "name": "",
          "type": "address"
        }
      ],
      "stateMutability": "view",
      "type": "function"
    },
    {
      "inputs": [
        {
          "internalType": "address",
          "name": "account",
          "type": "address"
        }
      ],
      "name": "isOwner",
      "outputs": [
        {
          "internalType": "bool",
          "name": "",
          "type": "bool"
        }
      ],
      "stateMutability": "view",
      "type": "function"
    },
    {
      "inputs": [
        {
          "internalType": "address",
          "name": "account",
          "type": "address"
        }
      ],
      "name": "isSupervisor",
      "outputs": [
        {
          "internalType": "bool",
          "name": "",
          "type": "bool"
        }
      ],
      "stateMutability": "view",
      "type": "function"
    },
    {
      "inputs": [],
      "name": "isSystemActive",
      "outputs": [
        {
          "internalType": "bool",
          "name": "",
          "type": "bool"
        }
      ],
      "stateMutability": "view",
      "type": "function"
    },
    {
      "inputs": [
        {
          "internalType": "address",
          "name": "",
          "type": "address"
        }
      ],
      "name": "lastTransactionTimestamp",
      "outputs": [
        {
          "internalType": "uint256",
          "name": "",
          "type": "uint256"
        }
      ],
      "stateMutability": "view",
      "type": "function"
    },
    {
      "inputs": [],
      "name": "maxTransactionAmount",
      "outputs": [
        {
          "internalType": "uint256",
          "name": "",
          "type": "uint256"
        }
      ],
      "stateMutability": "view",
      "type": "function"
    },
    {
      "inputs": [],
      "name": "platformOwner",
      "outputs": [
        {
          "internalType": "address",
          "name": "",
          "type": "address"
        }
      ],
      "stateMutability": "view",
      "type": "function"
    },
    {
      "inputs": [
        {
          "internalType": "address",
          "name": "supervisor",
          "type": "address"
        }
      ],
      "name": "removeSupervisor",
      "outputs": [],
      "stateMutability": "nonpayable",
      "type": "function"
    },
    {
      "inputs": [
        {
          "internalType": "address",
          "name": "_baseToken",
          "type": "address"
        },
        {
          "internalType": "address",
          "name": "_utilityToken",
          "type": "address"
        }
      ],
      "name": "setTokenAddresses",
      "outputs": [],
      "stateMutability": "nonpayable",
      "type": "function"
    },
    {
      "inputs": [
        {
          "internalType": "address",
          "name": "",
          "type": "address"
        }
      ],
      "name": "supervisors",
      "outputs": [
        {
          "internalType": "bool",
          "name": "",
          "type": "bool"
        }
      ],
      "stateMutability": "view",
      "type": "function"
    },
    {
      "inputs": [],
      "name": "systemActive",
      "outputs": [
        {
          "internalType": "bool",
          "name": "",
          "type": "bool"
        }
      ],
      "stateMutability": "view",
      "type": "function"
    },
    {
      "inputs": [],
      "name": "treasuryWallet",
      "outputs": [
        {
          "internalType": "address",
          "name": "",
          "type": "address"
        }
      ],
      "stateMutability": "view",
      "type": "function"
    },
    {
      "inputs": [
        {
          "internalType": "address",
          "name": "account",
          "type": "address"
        },
        {
          "internalType": "uint256",
          "name": "amount",
          "type": "uint256"
        }
      ],
      "name": "updateTransactionRecord",
      "outputs": [],
      "stateMutability": "nonpayable",
      "type": "function"
    },
    {
      "inputs": [],
      "name": "utilityTokenAddress",
      "outputs": [
        {
          "internalType": "address",
          "name": "",
          "type": "address"
        }
      ],
      "stateMutability": "view",
      "type": "function"
    }
  ],
  "bytecode": "0x60806040526402540be40060045564174876e80060055534801561002257600080fd5b50600080546001600160a01b0319908116339081179092556001805490911690911790556003805460ff60a01b1916600160a01b1790556109a0806100686000396000f3fe608060405234801561001057600080fd5b50600436106101725760003560e01c806356cf37b7116100de5780638913299a11610097578063a6f9dae111610071578063a6f9dae114610337578063a89c8c5e1461034a578063c8c8ebe41461035d578063e548e3e71461036657600080fd5b80638913299a1461030b57806393c87f031461031e57806398acd7a61461032657600080fd5b806356cf37b7146102a257806363a599a4146102c25780637128defb146102ca57806379137f9d146102dd5780637cb374bd146102e557806381a24459146102f857600080fd5b80633431d5c9116101305780633431d5c91461023a578063351662261461024e5780634626402b1461026057806348b151db146102735780634d218dd11461027c5780634df8ccb11461028f57600080fd5b80626266791461017757806307874140146101a157806311a2d8ff146101c457806329d10b6e146101f25780632c035b74146102075780632f54bf6e14610218575b600080fd5b6003546001600160a01b03165b6040516001600160a01b0390911681526020015b60405180910390f35b6101b46101af366004610860565b610389565b6040519015158152602001610198565b6101e46101d236600461088a565b60076020526000908152604090205481565b604051908152602001610198565b61020561020036600461088a565b610429565b005b6001546001600160a01b0316610184565b6101b461022636600461088a565b6000546001600160a01b0391821691161490565b6003546101b490600160a01b900460ff1681565b600354600160a01b900460ff166101b4565b600154610184906001600160a01b031681565b6101e460055481565b61020561028a366004610860565b6104d6565b600054610184906001600160a01b031681565b6101e46102b036600461088a565b60086020526000908152604090205481565b610205610561565b6102056102d836600461088a565b6105c3565b610167610184565b600254610184906001600160a01b031681565b6101b461030636600461088a565b61060e565b600354610184906001600160a01b031681565b610205610645565b6002546001600160a01b0316610184565b61020561034536600461088a565b6106ad565b6102056103583660046108ac565b610780565b6101e460045481565b6101b461037436600461088a565b60066020526000908152604090205460ff1681565b600060045482111561039d57506000610423565b60006103ac62015180426108df565b6001600160a01b0385166000908152600860205260409020549091508111156103f6576001600160a01b038416600090815260086020908152604080832084905560079091528120555b6005546001600160a01b03851660009081526007602052604090205461041d908590610901565b11159150505b92915050565b6000546001600160a01b0316331461045c5760405162461bcd60e51b815260040161045390610922565b60405180910390fd5b6001600160a01b0381166104b25760405162461bcd60e51b815260206004820152601a60248201527f496e76616c69642073757065727669736f7220616464726573730000000000006044820152606401610453565b6001600160a01b03166000908152600660205260409020805460ff19166001179055565b60006104e562015180426108df565b6001600160a01b03841660009081526008602052604090205490915081111561052f576001600160a01b038316600090815260086020908152604080832084905560079091528120555b6001600160a01b03831660009081526007602052604081208054849290610557908490610901565b9091555050505050565b6000546001600160a01b0316331461058b5760405162461bcd60e51b815260040161045390610922565b6003805460ff60a01b191690556040517fc66a1d54c915c2c24c37d31721cf561f983ad26f744829065e08b4b788ff3fc690600090a1565b6000546001600160a01b031633146105ed5760405162461bcd60e51b815260040161045390610922565b6001600160a01b03166000908152600660205260409020805460ff19169055565b6001600160a01b03811660009081526006602052604081205460ff16806104235750506000546001600160a01b0390811691161490565b6000546001600160a01b0316331461066f5760405162461bcd60e51b815260040161045390610922565b6003805460ff60a01b1916600160a01b1790556040517fc470ffc4e249ee10ac24f5d2296f9de3ec7451f8d117fbb238e4d5c3fbea953590600090a1565b6000546001600160a01b031633146106d75760405162461bcd60e51b815260040161045390610922565b6001600160a01b0381166107255760405162461bcd60e51b8152602060048201526015602482015274496e76616c6964206f776e6572206164647265737360581b6044820152606401610453565b600080546040516001600160a01b03808516939216917f0384899bd253d83b23daa4d29aaa2efe0563d1132b43101e9ad667235aeb951b91a3600080546001600160a01b0319166001600160a01b0392909216919091179055565b6000546001600160a01b031633146107aa5760405162461bcd60e51b815260040161045390610922565b6001600160a01b038216158015906107ca57506001600160a01b03811615155b6108165760405162461bcd60e51b815260206004820152601760248201527f496e76616c696420746f6b656e206164647265737365730000000000000000006044820152606401610453565b600280546001600160a01b039384166001600160a01b03199182161790915560038054929093169116179055565b80356001600160a01b038116811461085b57600080fd5b919050565b6000806040838503121561087357600080fd5b61087c83610844565b946020939093013593505050565b60006020828403121561089c57600080fd5b6108a582610844565b9392505050565b600080604083850312156108bf57600080fd5b6108c883610844565b91506108d660208401610844565b90509250929050565b6000826108fc57634e487b7160e01b600052601260045260246000fd5b500490565b8082018082111561042357634e487b7160e01b600052601160045260246000fd5b60208082526028908201527f5175616e74756d506c6174666f726d436f72653a2063616c6c6572206973206e60408201526737ba1037bbb732b960c11b60608201526080019056fea2646970667358221220cae92689b72c04649def8e03bde6a665c4fe050914f17c65143a4b4370f8c56064736f6c63430008140033",
  "linkReferences": {},
  "deployedLinkReferences": {}
}