{
  "_format": "hh-sol-artifact-1",
  "contractName": "AssetManager",
  "sourceName": "contracts/AssetManager.sol",
  "abi": [
    {
      "inputs": [
        {
          "internalType": "address",
          "name": "_platformCore",
          "type": "address"
        }
      ],
      "stateMutability": "nonpayable",
      "type": "constructor"
    },
    {
      "anonymous": false,
      "inputs": [
        {
          "indexed": true,
          "internalType": "address",
          "name": "assetContract",
          "type": "address"
        },
        {
          "indexed": false,
          "internalType": "int64",
          "name": "assetId",
          "type": "int64"
        },
        {
          "indexed": true,
          "internalType": "address",
          "name": "owner",
          "type": "address"
        },
        {
          "indexed": false,
          "internalType": "uint256",
          "name": "price",
          "type": "uint256"
        }
      ],
      "name": "AssetListed",
      "type": "event"
    },
    {
      "anonymous": false,
      "inputs": [
        {
          "indexed": true,
          "internalType": "address",
          "name": "assetContract",
          "type": "address"
        },
        {
          "indexed": false,
          "internalType": "int64",
          "name": "assetId",
          "type": "int64"
        },
        {
          "indexed": true,
          "internalType": "address",
          "name": "seller",
          "type": "address"
        },
        {
          "indexed": true,
          "internalType": "address",
          "name": "buyer",
          "type": "address"
        },
        {
          "indexed": false,
          "internalType": "uint256",
          "name": "totalPrice",
          "type": "uint256"
        }
      ],
      "name": "AssetSold",
      "type": "event"
    },
    {
      "inputs": [],
      "name": "ASSET_FEE_BPS",
      "outputs": [
        {
          "internalType": "uint256",
          "name": "",
          "type": "uint256"
        }
      ],
      "stateMutability": "view",
      "type": "function"
    },
    {
      "inputs": [
        {
          "internalType": "address",
          "name": "assetContract",
          "type": "address"
        },
        {
          "internalType": "int64",
          "name": "assetId",
          "type": "int64"
        }
      ],
      "name": "getAssetRecord",
      "outputs": [
        {
          "components": [
            {
              "internalType": "address",
              "name": "assetOwner",
              "type": "address"
            },
            {
              "internalType": "string",
              "name": "assetDescription",
              "type": "string"
            },
            {
              "internalType": "uint256",
              "name": "assetPrice",
              "type": "uint256"
            },
            {
              "internalType": "bool",
              "name": "isAvailable",
              "type": "bool"
            }
          ],
          "internalType": "struct AssetManager.AssetRecord",
          "name": "",
          "type": "tuple"
        }
      ],
      "stateMutability": "view",
      "type": "function"
    },
    {
      "inputs": [
        {
          "internalType": "address",
          "name": "assetContract",
          "type": "address"
        },
        {
          "internalType": "int64",
          "name": "assetId",
          "type": "int64"
        },
        {
          "internalType": "string",
          "name": "assetDescription",
          "type": "string"
        },
        {
          "internalType": "uint256",
          "name": "assetPrice",
          "type": "uint256"
        }
      ],
      "name": "listAsset",
      "outputs": [],
      "stateMutability": "nonpayable",
      "type": "function"
    },
    {
      "inputs": [],
      "name": "platformCore",
      "outputs": [
        {
          "internalType": "contract IQuantumPlatformCore",
          "name": "",
          "type": "address"
        }
      ],
      "stateMutability": "view",
      "type": "function"
    },
    {
      "inputs": [
        {
          "internalType": "address",
          "name": "assetContract",
          "type": "address"
        },
        {
          "internalType": "int64",
          "name": "assetId",
          "type": "int64"
        }
      ],
      "name": "purchaseAsset",
      "outputs": [],
      "stateMutability": "nonpayable",
      "type": "function"
    }
  ],
  "bytecode": "0x608060405234801561001057600080fd5b5060405161140238038061140283398101604081905261002f916100c2565b6001600160a01b03811661009d5760405162461bcd60e51b815260206004820152602b60248201527f41737365744d616e616765723a20706c6174666f726d20636f7265206164647260448201526a657373206973207a65726f60a81b606482015260840160405180910390fd5b600080546001600160a01b0319166001600160a01b03929092169190911790556100f2565b6000602082840312156100d457600080fd5b81516001600160a01b03811681146100eb57600080fd5b9392505050565b611301806101016000396000f3fe608060405234801561001057600080fd5b50600436106100575760003560e01c806331f061401461005c578063508ce0f914610078578063b440f0b114610098578063bfa5020c146100ad578063f92b23d1146100d8575b600080fd5b6100656102bc81565b6040519081526020015b60405180910390f35b61008b610086366004610ee3565b6100eb565b60405161006f9190610f18565b6100ab6100a6366004610ee3565b610293565b005b6000546100c0906001600160a01b031681565b6040516001600160a01b03909116815260200161006f565b6100ab6100e6366004610f9e565b610b7c565b610121604051806080016040528060006001600160a01b0316815260200160608152602001600081526020016000151581525090565b6001600160a01b038084166000908152600160209081526040808320600787900b845290915290205484918491166101a05760405162461bcd60e51b815260206004820152601d60248201527f41737365744d616e616765723a206173736574206e6f7420666f756e6400000060448201526064015b60405180910390fd5b6001600160a01b03808616600090815260016020818152604080842060078a900b8552825292839020835160808101909452805490941683529083018054929392918401916101ee90611036565b80601f016020809104026020016040519081016040528092919081815260200182805461021a90611036565b80156102675780601f1061023c57610100808354040283529160200191610267565b820191906000526020600020905b81548152906001019060200180831161024a57829003601f168201915b50505091835250506002820154602082015260039091015460ff16151560409091015295945050505050565b60008054906101000a90046001600160a01b03166001600160a01b031663351662266040518163ffffffff1660e01b8152600401602060405180830381865afa1580156102e4573d6000803e3d6000fd5b505050506040513d601f19601f820116820180604052508101906103089190611070565b6103245760405162461bcd60e51b815260040161019790611099565b6001600160a01b038083166000908152600160209081526040808320600786900b8452909152902054839183911661039e5760405162461bcd60e51b815260206004820152601d60248201527f41737365744d616e616765723a206173736574206e6f7420666f756e640000006044820152606401610197565b6001600160a01b0384166000908152600160209081526040808320600787900b84529091529020600381015460ff166104235760405162461bcd60e51b815260206004820152602160248201527f41737365744d616e616765723a206173736574206e6f7420617661696c61626c6044820152606560f81b6064820152608401610197565b80546001600160a01b0316330361048c5760405162461bcd60e51b815260206004820152602760248201527f41737365744d616e616765723a2063616e6e6f74207075726368617365206f776044820152661b88185cdcd95d60ca1b6064820152608401610197565b6000546002820154604051621e1d0560e61b815233600482015260248101919091526001600160a01b03909116906307874140906044016020604051808303816000875af11580156104e2573d6000803e3d6000fd5b505050506040513d601f19601f820116820180604052508101906105069190611070565b6105635760405162461bcd60e51b815260206004820152602860248201527f41737365744d616e616765723a2065786365656473207472616e73616374696f6044820152676e206c696d69747360c01b6064820152608401610197565b6000546002820154604051634d218dd160e01b815233600482015260248101919091526001600160a01b0390911690634d218dd190604401600060405180830381600087803b1580156105b557600080fd5b505af11580156105c9573d6000803e3d6000fd5b5050505060006127106102bc83600201546105e491906110f1565b6105ee919061110e565b905060008183600201546106029190611130565b905060008060009054906101000a90046001600160a01b03166001600160a01b03166379137f9d6040518163ffffffff1660e01b8152600401602060405180830381865afa158015610658573d6000803e3d6000fd5b505050506040513d601f19601f8201168201806040525081019061067c9190611143565b905060008060009054906101000a90046001600160a01b03166001600160a01b03166398acd7a66040518163ffffffff1660e01b8152600401602060405180830381865afa1580156106d2573d6000803e3d6000fd5b505050506040513d601f19601f820116820180604052508101906106f69190611143565b905060008060009054906101000a90046001600160a01b03166001600160a01b0316632c035b746040518163ffffffff1660e01b8152600401602060405180830381865afa15801561074c573d6000803e3d6000fd5b505050506040513d601f19601f820116820180604052508101906107709190611143565b8654600288015460405163eca3691760e01b81529293506001600160a01b039182169260009287169163eca36917916107b191889133913091600401611160565b6020604051808303816000875af11580156107d0573d6000803e3d6000fd5b505050506040513d601f19601f820116820180604052508101906107f4919061118d565b9050601681146108545760405162461bcd60e51b815260206004820152602560248201527f41737365744d616e616765723a207061796d656e74207472616e736665722066604482015264185a5b195960da1b6064820152608401610197565b60405163eca3691760e01b81526001600160a01b0386169063eca3691790610886908790309087908c90600401611160565b6020604051808303816000875af11580156108a5573d6000803e3d6000fd5b505050506040513d601f19601f820116820180604052508101906108c9919061118d565b9050601681146109275760405162461bcd60e51b815260206004820152602360248201527f41737365744d616e616765723a2073656c6c6572207061796d656e74206661696044820152621b195960ea1b6064820152608401610197565b60405163eca3691760e01b81526001600160a01b0386169063eca3691790610959908790309088908d90600401611160565b6020604051808303816000875af1158015610978573d6000803e3d6000fd5b505050506040513d601f19601f8201168201806040525081019061099c919061118d565b9050601681146109ee5760405162461bcd60e51b815260206004820181905260248201527f41737365744d616e616765723a20666565207061796d656e74206661696c65646044820152606401610197565b846001600160a01b0316635cfc90118d84338f6040518563ffffffff1660e01b8152600401610a209493929190611160565b6020604051808303816000875af1158015610a3f573d6000803e3d6000fd5b505050506040513d601f19601f82011682018060405250810190610a63919061118d565b905060168114610abf5760405162461bcd60e51b815260206004820152602160248201527f41737365744d616e616765723a204e4654207472616e73666572206661696c656044820152601960fa1b6064820152608401610197565b338860000160006101000a8154816001600160a01b0302191690836001600160a01b0316021790555060008860030160006101000a81548160ff021916908315150217905550336001600160a01b0316826001600160a01b03168d6001600160a01b03167f495ddb65a5c1bb5aadf5ff5c5ce8e19d40a3ca581fa1a1bfc529c0b789dcf3a88e8c60020154604051610b6692919060079290920b8252602082015260400190565b60405180910390a4505050505050505050505050565b60008054906101000a90046001600160a01b03166001600160a01b031663351662266040518163ffffffff1660e01b8152600401602060405180830381865afa158015610bcd573d6000803e3d6000fd5b505050506040513d601f19601f82011682018060405250810190610bf19190611070565b610c0d5760405162461bcd60e51b815260040161019790611099565b6001600160a01b038516610c6f5760405162461bcd60e51b8152602060048201526024808201527f41737365744d616e616765723a20696e76616c696420617373657420636f6e746044820152631c9858dd60e21b6064820152608401610197565b60008460070b13610cc25760405162461bcd60e51b815260206004820152601e60248201527f41737365744d616e616765723a20696e76616c696420617373657420494400006044820152606401610197565b60008111610d125760405162461bcd60e51b815260206004820152601b60248201527f41737365744d616e616765723a20696e76616c696420707269636500000000006044820152606401610197565b6001600160a01b038581166000908152600160209081526040808320600789900b84529091529020541615610d945760405162461bcd60e51b815260206004820152602260248201527f41737365744d616e616765723a20617373657420616c7265616479206c697374604482015261195960f21b6064820152608401610197565b6040518060800160405280336001600160a01b0316815260200184848080601f01602080910402602001604051908101604052809392919081815260200183838082843760009201829052509385525050506020808301859052600160409384018190526001600160a01b038a8116845281835284842060078b900b8552835293909220845181546001600160a01b031916941693909317835583015190820190610e3f908261120b565b5060408281015160028301556060909201516003909101805460ff19169115159190911790558051600786900b81526020810183905233916001600160a01b038816917f96d782e474aa460e9ad0bad5e7e1dd46433bf548856e5ed45d6e61fa32a0205e910160405180910390a35050505050565b6001600160a01b0381168114610ec957600080fd5b50565b8035600781900b8114610ede57600080fd5b919050565b60008060408385031215610ef657600080fd5b8235610f0181610eb4565b9150610f0f60208401610ecc565b90509250929050565b6000602080835260018060a01b0384511681840152808401516080604085015280518060a086015260005b81811015610f5f5782810184015186820160c001528301610f43565b50600060c082870101526040860151606086015260608601519250610f88608086018415159052565b601f01601f19169390930160c001949350505050565b600080600080600060808688031215610fb657600080fd5b8535610fc181610eb4565b9450610fcf60208701610ecc565b9350604086013567ffffffffffffffff80821115610fec57600080fd5b818801915088601f83011261100057600080fd5b81358181111561100f57600080fd5b89602082850101111561102157600080fd5b96999598505060200195606001359392505050565b600181811c9082168061104a57607f821691505b60208210810361106a57634e487b7160e01b600052602260045260246000fd5b50919050565b60006020828403121561108257600080fd5b8151801515811461109257600080fd5b9392505050565b60208082526022908201527f41737365744d616e616765723a2073797374656d206973206e6f742061637469604082015261766560f01b606082015260800190565b634e487b7160e01b600052601160045260246000fd5b8082028115828204841417611108576111086110db565b92915050565b60008261112b57634e487b7160e01b600052601260045260246000fd5b500490565b81810381811115611108576111086110db565b60006020828403121561115557600080fd5b815161109281610eb4565b6001600160a01b03948516815292841660208401529216604082015260079190910b606082015260800190565b60006020828403121561119f57600080fd5b5051919050565b634e487b7160e01b600052604160045260246000fd5b601f82111561120657600081815260208120601f850160051c810160208610156111e35750805b601f850160051c820191505b81811015611202578281556001016111ef565b5050505b505050565b815167ffffffffffffffff811115611225576112256111a6565b611239816112338454611036565b846111bc565b602080601f83116001811461126e57600084156112565750858301515b600019600386901b1c1916600185901b178555611202565b600085815260208120601f198616915b8281101561129d5788860151825594840194600190910190840161127e565b50858210156112bb5787850151600019600388901b60f8161c191681555b5050505050600190811b0190555056fea2646970667358221220713268933f18777d16df26e59cc922879140f8c15cfcc4c5243baf6d3c2a6f0464736f6c63430008140033",
  "linkReferences": {},
  "deployedLinkReferences": {}
}