{
  "_format": "hh-sol-artifact-1",
  "contractName": "TokenExchangeProcessor",
  "sourceName": "contracts/TokenExchangeProcessor.sol",
  "abi": [
    {
      "inputs": [
        {
          "internalType": "address",
          "name": "_ecosystemCore",
          "type": "address"
        }
      ],
      "stateMutability": "nonpayable",
      "type": "constructor"
    },
    {
      "anonymous": false,
      "inputs": [
        {
          "indexed": true,
          "internalType": "address",
          "name": "buyer",
          "type": "address"
        },
        {
          "indexed": false,
          "internalType": "uint256",
          "name": "primaryTokenAmount",
          "type": "uint256"
        },
        {
          "indexed": false,
          "internalType": "uint256",
          "name": "secondaryTokenAmount",
          "type": "uint256"
        },
        {
          "indexed": false,
          "internalType": "uint256",
          "name": "processingFee",
          "type": "uint256"
        }
      ],
      "name": "TokensExchanged",
      "type": "event"
    },
    {
      "inputs": [],
      "name": "EXCHANGE_FEE_BPS",
      "outputs": [
        {
          "internalType": "uint256",
          "name": "",
          "type": "uint256"
        }
      ],
      "stateMutability": "view",
      "type": "function"
    },
    {
      "inputs": [],
      "name": "ecosystemCore",
      "outputs": [
        {
          "internalType": "contract INexusEcosystemCore",
          "name": "",
          "type": "address"
        }
      ],
      "stateMutability": "view",
      "type": "function"
    },
    {
      "inputs": [
        {
          "internalType": "uint256",
          "name": "primaryTokenAmount",
          "type": "uint256"
        }
      ],
      "name": "exchangeTokens",
      "outputs": [
        {
          "internalType": "uint256",
          "name": "",
          "type": "uint256"
        }
      ],
      "stateMutability": "nonpayable",
      "type": "function"
    }
  ],
  "bytecode": "0x608060405234801561001057600080fd5b50604051610f48380380610f4883398101604081905261002f916100d4565b6001600160a01b0381166100af5760405162461bcd60e51b815260206004820152603660248201527f546f6b656e45786368616e676550726f636573736f723a2065636f737973746560448201527f6d20636f72652061646472657373206973207a65726f00000000000000000000606482015260840160405180910390fd5b600080546001600160a01b0319166001600160a01b0392909216919091179055610104565b6000602082840312156100e657600080fd5b81516001600160a01b03811681146100fd57600080fd5b9392505050565b610e35806101136000396000f3fe608060405234801561001057600080fd5b50600436106100415760003560e01c8063088c37dc14610046578063404771261461007657806367cddb0814610097575b600080fd5b600054610059906001600160a01b031681565b6040516001600160a01b0390911681526020015b60405180910390f35b610089610084366004610b35565b61009f565b60405190815260200161006d565b61008960c881565b60008060009054906101000a90046001600160a01b03166001600160a01b03166322f3e2d46040518163ffffffff1660e01b8152600401602060405180830381865afa1580156100f3573d6000803e3d6000fd5b505050506040513d601f19601f820116820180604052508101906101179190610b4e565b61017d5760405162461bcd60e51b815260206004820152602c60248201527f546f6b656e45786368616e676550726f636573736f723a2073797374656d206960448201526b73206e6f742061637469766560a01b60648201526084015b60405180910390fd5b600082116101f35760405162461bcd60e51b815260206004820152603860248201527f546f6b656e45786368616e676550726f636573736f723a20616d6f756e74206d60448201527f7573742062652067726561746572207468616e207a65726f00000000000000006064820152608401610174565b600054604051631957e40760e31b8152336004820152602481018490526001600160a01b039091169063cabf2038906044016020604051808303816000875af1158015610244573d6000803e3d6000fd5b505050506040513d601f19601f820116820180604052508101906102689190610b4e565b6102cf5760405162461bcd60e51b815260206004820152603260248201527f546f6b656e45786368616e676550726f636573736f723a2065786365656473206044820152717472616e73616374696f6e206c696d69747360701b6064820152608401610174565b6000546040516317ca06ab60e01b8152336004820152602481018490526001600160a01b03909116906317ca06ab90604401600060405180830381600087803b15801561031b57600080fd5b505af115801561032f573d6000803e3d6000fd5b5050505060008060009054906101000a90046001600160a01b03166001600160a01b031663e6aa216c6040518163ffffffff1660e01b8152600401602060405180830381865afa158015610387573d6000803e3d6000fd5b505050506040513d601f19601f820116820180604052508101906103ab9190610b77565b90506000816103bd85620f4240610ba6565b6103c79190610bc3565b90506000811161042a5760405162461bcd60e51b815260206004820152602860248201527f546f6b656e45786368616e676550726f636573736f723a20616d6f756e7420746044820152671bdbc81cdb585b1b60c21b6064820152608401610174565b600061271061043a60c887610ba6565b6104449190610bc3565b905060006104528287610be5565b905060008060009054906101000a90046001600160a01b03166001600160a01b031663580d164e6040518163ffffffff1660e01b8152600401602060405180830381865afa1580156104a8573d6000803e3d6000fd5b505050506040513d601f19601f820116820180604052508101906104cc9190610c10565b905060008060009054906101000a90046001600160a01b03166001600160a01b031663a77588836040518163ffffffff1660e01b8152600401602060405180830381865afa158015610522573d6000803e3d6000fd5b505050506040513d601f19601f820116820180604052508101906105469190610c10565b905060008060009054906101000a90046001600160a01b03166001600160a01b03166336fdced96040518163ffffffff1660e01b8152600401602060405180830381865afa15801561059c573d6000803e3d6000fd5b505050506040513d601f19601f820116820180604052508101906105c09190610c10565b905060008060009054906101000a90046001600160a01b03166001600160a01b031663764aa9c46040518163ffffffff1660e01b8152600401602060405180830381865afa158015610616573d6000803e3d6000fd5b505050506040513d601f19601f8201168201806040525081019061063a9190610c10565b90506000846001600160a01b031663eca369178533308f6040518563ffffffff1660e01b81526004016106709493929190610c2d565b6020604051808303816000875af115801561068f573d6000803e3d6000fd5b505050506040513d601f19601f820116820180604052508101906106b39190610b77565b9050601681146107235760405162461bcd60e51b815260206004820152603560248201527f546f6b656e45786368616e676550726f636573736f723a207072696d617279206044820152741d1bdad95b881d1c985b9cd9995c8819985a5b1959605a1b6064820152608401610174565b60405163eca3691760e01b81526001600160a01b0386169063eca3691790610755908790309087908d90600401610c2d565b6020604051808303816000875af1158015610774573d6000803e3d6000fd5b505050506040513d601f19601f820116820180604052508101906107989190610b77565b9050601681146107fe5760405162461bcd60e51b815260206004820152602b60248201527f546f6b656e45786368616e676550726f636573736f723a20666565207472616e60448201526a1cd9995c8819985a5b195960aa1b6064820152608401610174565b604051631bdc8dff60e21b81526001600160a01b038581166004830152306024830152600788900b6044830152861690636f7237fc906064016020604051808303816000875af1158015610856573d6000803e3d6000fd5b505050506040513d601f19601f8201168201806040525081019061087a9190610b77565b9050601681146108de5760405162461bcd60e51b815260206004820152602960248201527f546f6b656e45786368616e676550726f636573736f723a20746f6b656e2062756044820152681c9b8819985a5b195960ba1b6064820152608401610174565b6040805160008082526020820190925281610909565b60608152602001906001900390816108f45790505b5060405163707a02cd60e11b81529091506001600160a01b0387169063e0f4059a9061093d9087908d908690600401610c70565b6000604051808303816000875af115801561095c573d6000803e3d6000fd5b505050506040513d6000823e601f3d908101601f191682016040526109849190810190610d2e565b509150601682146109f35760405162461bcd60e51b815260206004820152603360248201527f546f6b656e45786368616e676550726f636573736f723a207365636f6e6461726044820152721e481d1bdad95b881b5a5b9d0819985a5b1959606a1b6064820152608401610174565b60405163eca3691760e01b81526001600160a01b0387169063eca3691790610a25908790309033908f90600401610c2d565b6020604051808303816000875af1158015610a44573d6000803e3d6000fd5b505050506040513d601f19601f82011682018060405250810190610a689190610b77565b915060168214610ae05760405162461bcd60e51b815260206004820152603760248201527f546f6b656e45786368616e676550726f636573736f723a207365636f6e64617260448201527f7920746f6b656e207472616e73666572206661696c65640000000000000000006064820152608401610174565b604080518d8152602081018b905290810189905233907fe31f21ba76b9a4215c8d14080f85b68ccffc2ebfc377d8878c73a69d69300f909060600160405180910390a25096985050505050505050505b919050565b600060208284031215610b4757600080fd5b5035919050565b600060208284031215610b6057600080fd5b81518015158114610b7057600080fd5b9392505050565b600060208284031215610b8957600080fd5b5051919050565b634e487b7160e01b600052601160045260246000fd5b8082028115828204841417610bbd57610bbd610b90565b92915050565b600082610be057634e487b7160e01b600052601260045260246000fd5b500490565b81810381811115610bbd57610bbd610b90565b6001600160a01b0381168114610c0d57600080fd5b50565b600060208284031215610c2257600080fd5b8151610b7081610bf8565b6001600160a01b03948516815292841660208401529216604082015260079190910b606082015260800190565b634e487b7160e01b600052604160045260246000fd5b60006060820160018060a01b038616835260208560070b818501526060604085015281855180845260808601915060808160051b87010193508287016000805b83811015610d0c57888703607f1901855282518051808952835b81811015610ce5578281018901518a82018a01528801610cca565b508881018801849052601f01601f1916909701860196509385019391850191600101610cb0565b50949a9950505050505050505050565b8051600781900b8114610b3057600080fd5b60008060408385031215610d4157600080fd5b8251915060208084015167ffffffffffffffff80821115610d6157600080fd5b818601915086601f830112610d7557600080fd5b815181811115610d8757610d87610c5a565b8060051b604051601f19603f83011681018181108582111715610dac57610dac610c5a565b604052918252848201925083810185019189831115610dca57600080fd5b938501935b82851015610def57610de085610d1c565b84529385019392850192610dcf565b809650505050505050925092905056fea264697066735822122022d6885e8b1aa5b150039c9d6158bc932c0785e9b25b82258e9d78eca8c847f864736f6c63430008140033",
  "linkReferences": {},
  "deployedLinkReferences": {}
}