{
  "_format": "hh-sol-artifact-1",
  "contractName": "ModuleDeployer",
  "sourceName": "contracts/ModuleDeployer.sol",
  "abi": [
    {
      "anonymous": false,
      "inputs": [
        {
          "indexed": false,
          "internalType": "address",
          "name": "serviceManager",
          "type": "address"
        },
        {
          "indexed": false,
          "internalType": "address",
          "name": "assetManager",
          "type": "address"
        },
        {
          "indexed": false,
          "internalType": "address",
          "name": "stakeManager",
          "type": "address"
        },
        {
          "indexed": false,
          "internalType": "address",
          "name": "creatorTokenManager",
          "type": "address"
        },
        {
          "indexed": false,
          "internalType": "address",
          "name": "securityModule",
          "type": "address"
        }
      ],
      "name": "ModulesDeployed",
      "type": "event"
    },
    {
      "inputs": [
        {
          "internalType": "address",
          "name": "platformCore",
          "type": "address"
        }
      ],
      "name": "deployAllModules",
      "outputs": [
        {
          "internalType": "address",
          "name": "serviceManagerAddr",
          "type": "address"
        },
        {
          "internalType": "address",
          "name": "assetManagerAddr",
          "type": "address"
        },
        {
          "internalType": "address",
          "name": "stakeManagerAddr",
          "type": "address"
        },
        {
          "internalType": "address",
          "name": "creatorTokenManagerAddr",
          "type": "address"
        },
        {
          "internalType": "address",
          "name": "securityModuleAddr",
          "type": "address"
        }
      ],
      "stateMutability": "nonpayable",
      "type": "function"
    }
  ],
  "bytecode": "0x608060405234801561001057600080fd5b5061512f806100206000396000f3fe608060405234801561001057600080fd5b506004361061002b5760003560e01c8063796ec96e14610030575b600080fd5b61004361003e3660046102c8565b61007f565b604080516001600160a01b0396871681529486166020860152928516848401529084166060840152909216608082015290519081900360a00190f35b6000808080806001600160a01b0386166100f55760405162461bcd60e51b815260206004820152602d60248201527f4d6f64756c654465706c6f7965723a20706c6174666f726d20636f726520616460448201526c6472657373206973207a65726f60981b606482015260840160405180910390fd5b8560405161010290610287565b6001600160a01b039091168152602001604051809103906000f08015801561012e573d6000803e3d6000fd5b5094508560405161013e90610294565b6001600160a01b039091168152602001604051809103906000f08015801561016a573d6000803e3d6000fd5b5093508560405161017a906102a1565b6001600160a01b039091168152602001604051809103906000f0801580156101a6573d6000803e3d6000fd5b509250856040516101b6906102ae565b6001600160a01b039091168152602001604051809103906000f0801580156101e2573d6000803e3d6000fd5b509150856040516101f2906102bb565b6001600160a01b039091168152602001604051809103906000f08015801561021e573d6000803e3d6000fd5b50604080516001600160a01b03888116825287811660208301528681168284015285811660608301528316608082015290519192507f629a3c1dc8dae3d71d471d3050af1f7a881751e43edb24c7acbd9a75d2acde5e919081900360a00190a191939590929450565b61122c806102f983390190565b6114028061152583390190565b610e3a8061292783390190565b6110538061376183390190565b610946806147b483390190565b6000602082840312156102da57600080fd5b81356001600160a01b03811681146102f157600080fd5b939250505056fe608060405234801561001057600080fd5b5060405161122c38038061122c83398101604081905261002f916100c4565b6001600160a01b03811661009f5760405162461bcd60e51b815260206004820152602d60248201527f536572766963654d616e616765723a20706c6174666f726d20636f726520616460448201526c6472657373206973207a65726f60981b606482015260840160405180910390fd5b600080546001600160a01b0319166001600160a01b03929092169190911790556100f4565b6000602082840312156100d657600080fd5b81516001600160a01b03811681146100ed57600080fd5b9392505050565b611129806101036000396000f3fe608060405234801561001057600080fd5b50600436106100625760003560e01c806360c34ae6146100675780637defdd731461007c578063bdfdeb8714610098578063bfa5020c146100ab578063c2698c84146100d6578063ef7d87a3146100f6575b600080fd5b61007a610075366004610cac565b6100ff565b005b61008560025481565b6040519081526020015b60405180910390f35b6100856100a6366004610cc5565b61089d565b6000546100be906001600160a01b031681565b6040516001600160a01b03909116815260200161008f565b6100e96100e4366004610cac565b610b46565b60405161008f9190610d41565b6100856101f481565b60008054906101000a90046001600160a01b03166001600160a01b031663351662266040518163ffffffff1660e01b8152600401602060405180830381865afa158015610150573d6000803e3d6000fd5b505050506040513d601f19601f820116820180604052508101906101749190610dea565b6101995760405162461bcd60e51b815260040161019090610e13565b60405180910390fd5b600081815260016020526040902080546001600160a01b03166101ce5760405162461bcd60e51b815260040161019090610e57565b600281015460ff16156102355760405162461bcd60e51b815260206004820152602960248201527f536572766963654d616e616765723a207365727669636520616c72656164792060448201526818dbdb5c1b195d195960ba1b6064820152608401610190565b80546001600160a01b031633036102ab5760405162461bcd60e51b815260206004820152603460248201527f536572766963654d616e616765723a2070726f76696465722063616e6e6f74206044820152737075726368617365206f776e207365727669636560601b6064820152608401610190565b6000546001820154604051621e1d0560e61b815233600482015260248101919091526001600160a01b03909116906307874140906044016020604051808303816000875af1158015610301573d6000803e3d6000fd5b505050506040513d601f19601f820116820180604052508101906103259190610dea565b6103845760405162461bcd60e51b815260206004820152602a60248201527f536572766963654d616e616765723a2065786365656473207472616e73616374604482015269696f6e206c696d69747360b01b6064820152608401610190565b6000546001820154604051634d218dd160e01b815233600482015260248101919091526001600160a01b0390911690634d218dd190604401600060405180830381600087803b1580156103d657600080fd5b505af11580156103ea573d6000803e3d6000fd5b5050505060006127106101f483600101546104059190610eae565b61040f9190610ecb565b905060008183600101546104239190610eed565b905060008060009054906101000a90046001600160a01b03166001600160a01b03166379137f9d6040518163ffffffff1660e01b8152600401602060405180830381865afa158015610479573d6000803e3d6000fd5b505050506040513d601f19601f8201168201806040525081019061049d9190610f18565b905060008060009054906101000a90046001600160a01b03166001600160a01b03166398acd7a66040518163ffffffff1660e01b8152600401602060405180830381865afa1580156104f3573d6000803e3d6000fd5b505050506040513d601f19601f820116820180604052508101906105179190610f18565b905060008060009054906101000a90046001600160a01b03166001600160a01b0316632c035b746040518163ffffffff1660e01b8152600401602060405180830381865afa15801561056d573d6000803e3d6000fd5b505050506040513d601f19601f820116820180604052508101906105919190610f18565b600187015460405163eca3691760e01b81529192506000916001600160a01b0386169163eca36917916105cc91879133913091600401610f35565b6020604051808303816000875af11580156105eb573d6000803e3d6000fd5b505050506040513d601f19601f8201168201806040525081019061060f9190610f62565b90506016811461066f5760405162461bcd60e51b815260206004820152602560248201527f536572766963654d616e616765723a20746f6b656e207472616e736665722066604482015264185a5b195960da1b6064820152608401610190565b865460405163eca3691760e01b81526001600160a01b038087169263eca36917926106a592889230929116908b90600401610f35565b6020604051808303816000875af11580156106c4573d6000803e3d6000fd5b505050506040513d601f19601f820116820180604052508101906106e89190610f62565b90506016811461074a5760405162461bcd60e51b815260206004820152602760248201527f536572766963654d616e616765723a2070726f7669646572207061796d656e746044820152660819985a5b195960ca1b6064820152608401610190565b60405163eca3691760e01b81526001600160a01b0385169063eca369179061077c908690309087908c90600401610f35565b6020604051808303816000875af115801561079b573d6000803e3d6000fd5b505050506040513d601f19601f820116820180604052508101906107bf9190610f62565b90506016811461081c5760405162461bcd60e51b815260206004820152602260248201527f536572766963654d616e616765723a20666565207061796d656e74206661696c604482015261195960f21b6064820152608401610190565b60028701805460ff191660019081179091556004880180546001600160a01b031916339081179091558854918901546040516001600160a01b0393909316928b917f0d4a7936f89e13722727311f269700437c769fba2cf442558c53a0f53a322dfa9161088b91815260200190565b60405180910390a45050505050505050565b60008060009054906101000a90046001600160a01b03166001600160a01b031663351662266040518163ffffffff1660e01b8152600401602060405180830381865afa1580156108f1573d6000803e3d6000fd5b505050506040513d601f19601f820116820180604052508101906109159190610dea565b6109315760405162461bcd60e51b815260040161019090610e13565b600084116109985760405162461bcd60e51b815260206004820152602e60248201527f536572766963654d616e616765723a2072617465206d7573742062652067726560448201526d61746572207468616e207a65726f60901b6064820152608401610190565b816109ef5760405162461bcd60e51b815260206004820152602160248201527f536572766963654d616e616765723a20656d707479206465736372697074696f6044820152603760f91b6064820152608401610190565b6002805460009182610a0083610f7b565b9190505590506040518060c00160405280336001600160a01b0316815260200186815260200160001515815260200185858080601f0160208091040260200160405190810160405280939291908181526020018383808284376000920182905250938552505050602080830182905242604093840152848252600180825291839020845181546001600160a01b0319166001600160a01b0390911617815590840151918101919091559082015160028201805460ff191691151591909117905560608201516003820190610ad49082611033565b5060808201516004820180546001600160a01b0319166001600160a01b0390921691909117905560a090910151600590910155604051858152339082907fee09418e2c452193e2b5ab05d5443259213934d900e8152e09caa7d6dbb68b379060200160405180910390a3949350505050565b6040805160c0810182526000808252602082018190529181018290526060808201526080810182905260a08101919091526000828152600160205260409020546001600160a01b0316610bab5760405162461bcd60e51b815260040161019090610e57565b600082815260016020818152604092839020835160c08101855281546001600160a01b031681529281015491830191909152600281015460ff16151592820192909252600382018054919291606084019190610c0690610faa565b80601f0160208091040260200160405190810160405280929190818152602001828054610c3290610faa565b8015610c7f5780601f10610c5457610100808354040283529160200191610c7f565b820191906000526020600020905b815481529060010190602001808311610c6257829003601f168201915b505050918352505060048201546001600160a01b0316602082015260059091015460409091015292915050565b600060208284031215610cbe57600080fd5b5035919050565b600080600060408486031215610cda57600080fd5b83359250602084013567ffffffffffffffff80821115610cf957600080fd5b818601915086601f830112610d0d57600080fd5b813581811115610d1c57600080fd5b876020828501011115610d2e57600080fd5b6020830194508093505050509250925092565b6000602080835260018060a01b0384511681840152808401516040840152604084015115156060840152606084015160c0608085015280518060e086015260005b81811015610d9f5782810184015186820161010001528301610d82565b506101009250600083828701015260808601519150610dc960a08601836001600160a01b03169052565b60a086015160c086015282601f19601f830116860101935050505092915050565b600060208284031215610dfc57600080fd5b81518015158114610e0c57600080fd5b9392505050565b60208082526024908201527f536572766963654d616e616765723a2073797374656d206973206e6f742061636040820152637469766560e01b606082015260800190565b60208082526021908201527f536572766963654d616e616765723a2073657276696365206e6f7420666f756e6040820152601960fa1b606082015260800190565b634e487b7160e01b600052601160045260246000fd5b8082028115828204841417610ec557610ec5610e98565b92915050565b600082610ee857634e487b7160e01b600052601260045260246000fd5b500490565b81810381811115610ec557610ec5610e98565b6001600160a01b0381168114610f1557600080fd5b50565b600060208284031215610f2a57600080fd5b8151610e0c81610f00565b6001600160a01b03948516815292841660208401529216604082015260079190910b606082015260800190565b600060208284031215610f7457600080fd5b5051919050565b600060018201610f8d57610f8d610e98565b5060010190565b634e487b7160e01b600052604160045260246000fd5b600181811c90821680610fbe57607f821691505b602082108103610fde57634e487b7160e01b600052602260045260246000fd5b50919050565b601f82111561102e57600081815260208120601f850160051c8101602086101561100b5750805b601f850160051c820191505b8181101561102a57828155600101611017565b5050505b505050565b815167ffffffffffffffff81111561104d5761104d610f94565b6110618161105b8454610faa565b84610fe4565b602080601f831160018114611096576000841561107e5750858301515b600019600386901b1c1916600185901b17855561102a565b600085815260208120601f198616915b828110156110c5578886015182559484019460019091019084016110a6565b50858210156110e35787850151600019600388901b60f8161c191681555b5050505050600190811b0190555056fea264697066735822122055ea7c2b03b1fce5057f8fa94cbaa09fe71adc78d0eb294bb3452ee6e789cb5964736f6c63430008140033608060405234801561001057600080fd5b5060405161140238038061140283398101604081905261002f916100c2565b6001600160a01b03811661009d5760405162461bcd60e51b815260206004820152602b60248201527f41737365744d616e616765723a20706c6174666f726d20636f7265206164647260448201526a657373206973207a65726f60a81b606482015260840160405180910390fd5b600080546001600160a01b0319166001600160a01b03929092169190911790556100f2565b6000602082840312156100d457600080fd5b81516001600160a01b03811681146100eb57600080fd5b9392505050565b611301806101016000396000f3fe608060405234801561001057600080fd5b50600436106100575760003560e01c806331f061401461005c578063508ce0f914610078578063b440f0b114610098578063bfa5020c146100ad578063f92b23d1146100d8575b600080fd5b6100656102bc81565b6040519081526020015b60405180910390f35b61008b610086366004610ee3565b6100eb565b60405161006f9190610f18565b6100ab6100a6366004610ee3565b610293565b005b6000546100c0906001600160a01b031681565b6040516001600160a01b03909116815260200161006f565b6100ab6100e6366004610f9e565b610b7c565b610121604051806080016040528060006001600160a01b0316815260200160608152602001600081526020016000151581525090565b6001600160a01b038084166000908152600160209081526040808320600787900b845290915290205484918491166101a05760405162461bcd60e51b815260206004820152601d60248201527f41737365744d616e616765723a206173736574206e6f7420666f756e6400000060448201526064015b60405180910390fd5b6001600160a01b03808616600090815260016020818152604080842060078a900b8552825292839020835160808101909452805490941683529083018054929392918401916101ee90611036565b80601f016020809104026020016040519081016040528092919081815260200182805461021a90611036565b80156102675780601f1061023c57610100808354040283529160200191610267565b820191906000526020600020905b81548152906001019060200180831161024a57829003601f168201915b50505091835250506002820154602082015260039091015460ff16151560409091015295945050505050565b60008054906101000a90046001600160a01b03166001600160a01b031663351662266040518163ffffffff1660e01b8152600401602060405180830381865afa1580156102e4573d6000803e3d6000fd5b505050506040513d601f19601f820116820180604052508101906103089190611070565b6103245760405162461bcd60e51b815260040161019790611099565b6001600160a01b038083166000908152600160209081526040808320600786900b8452909152902054839183911661039e5760405162461bcd60e51b815260206004820152601d60248201527f41737365744d616e616765723a206173736574206e6f7420666f756e640000006044820152606401610197565b6001600160a01b0384166000908152600160209081526040808320600787900b84529091529020600381015460ff166104235760405162461bcd60e51b815260206004820152602160248201527f41737365744d616e616765723a206173736574206e6f7420617661696c61626c6044820152606560f81b6064820152608401610197565b80546001600160a01b0316330361048c5760405162461bcd60e51b815260206004820152602760248201527f41737365744d616e616765723a2063616e6e6f74207075726368617365206f776044820152661b88185cdcd95d60ca1b6064820152608401610197565b6000546002820154604051621e1d0560e61b815233600482015260248101919091526001600160a01b03909116906307874140906044016020604051808303816000875af11580156104e2573d6000803e3d6000fd5b505050506040513d601f19601f820116820180604052508101906105069190611070565b6105635760405162461bcd60e51b815260206004820152602860248201527f41737365744d616e616765723a2065786365656473207472616e73616374696f6044820152676e206c696d69747360c01b6064820152608401610197565b6000546002820154604051634d218dd160e01b815233600482015260248101919091526001600160a01b0390911690634d218dd190604401600060405180830381600087803b1580156105b557600080fd5b505af11580156105c9573d6000803e3d6000fd5b5050505060006127106102bc83600201546105e491906110f1565b6105ee919061110e565b905060008183600201546106029190611130565b905060008060009054906101000a90046001600160a01b03166001600160a01b03166379137f9d6040518163ffffffff1660e01b8152600401602060405180830381865afa158015610658573d6000803e3d6000fd5b505050506040513d601f19601f8201168201806040525081019061067c9190611143565b905060008060009054906101000a90046001600160a01b03166001600160a01b03166398acd7a66040518163ffffffff1660e01b8152600401602060405180830381865afa1580156106d2573d6000803e3d6000fd5b505050506040513d601f19601f820116820180604052508101906106f69190611143565b905060008060009054906101000a90046001600160a01b03166001600160a01b0316632c035b746040518163ffffffff1660e01b8152600401602060405180830381865afa15801561074c573d6000803e3d6000fd5b505050506040513d601f19601f820116820180604052508101906107709190611143565b8654600288015460405163eca3691760e01b81529293506001600160a01b039182169260009287169163eca36917916107b191889133913091600401611160565b6020604051808303816000875af11580156107d0573d6000803e3d6000fd5b505050506040513d601f19601f820116820180604052508101906107f4919061118d565b9050601681146108545760405162461bcd60e51b815260206004820152602560248201527f41737365744d616e616765723a207061796d656e74207472616e736665722066604482015264185a5b195960da1b6064820152608401610197565b60405163eca3691760e01b81526001600160a01b0386169063eca3691790610886908790309087908c90600401611160565b6020604051808303816000875af11580156108a5573d6000803e3d6000fd5b505050506040513d601f19601f820116820180604052508101906108c9919061118d565b9050601681146109275760405162461bcd60e51b815260206004820152602360248201527f41737365744d616e616765723a2073656c6c6572207061796d656e74206661696044820152621b195960ea1b6064820152608401610197565b60405163eca3691760e01b81526001600160a01b0386169063eca3691790610959908790309088908d90600401611160565b6020604051808303816000875af1158015610978573d6000803e3d6000fd5b505050506040513d601f19601f8201168201806040525081019061099c919061118d565b9050601681146109ee5760405162461bcd60e51b815260206004820181905260248201527f41737365744d616e616765723a20666565207061796d656e74206661696c65646044820152606401610197565b846001600160a01b0316635cfc90118d84338f6040518563ffffffff1660e01b8152600401610a209493929190611160565b6020604051808303816000875af1158015610a3f573d6000803e3d6000fd5b505050506040513d601f19601f82011682018060405250810190610a63919061118d565b905060168114610abf5760405162461bcd60e51b815260206004820152602160248201527f41737365744d616e616765723a204e4654207472616e73666572206661696c656044820152601960fa1b6064820152608401610197565b338860000160006101000a8154816001600160a01b0302191690836001600160a01b0316021790555060008860030160006101000a81548160ff021916908315150217905550336001600160a01b0316826001600160a01b03168d6001600160a01b03167f495ddb65a5c1bb5aadf5ff5c5ce8e19d40a3ca581fa1a1bfc529c0b789dcf3a88e8c60020154604051610b6692919060079290920b8252602082015260400190565b60405180910390a4505050505050505050505050565b60008054906101000a90046001600160a01b03166001600160a01b031663351662266040518163ffffffff1660e01b8152600401602060405180830381865afa158015610bcd573d6000803e3d6000fd5b505050506040513d601f19601f82011682018060405250810190610bf19190611070565b610c0d5760405162461bcd60e51b815260040161019790611099565b6001600160a01b038516610c6f5760405162461bcd60e51b8152602060048201526024808201527f41737365744d616e616765723a20696e76616c696420617373657420636f6e746044820152631c9858dd60e21b6064820152608401610197565b60008460070b13610cc25760405162461bcd60e51b815260206004820152601e60248201527f41737365744d616e616765723a20696e76616c696420617373657420494400006044820152606401610197565b60008111610d125760405162461bcd60e51b815260206004820152601b60248201527f41737365744d616e616765723a20696e76616c696420707269636500000000006044820152606401610197565b6001600160a01b038581166000908152600160209081526040808320600789900b84529091529020541615610d945760405162461bcd60e51b815260206004820152602260248201527f41737365744d616e616765723a20617373657420616c7265616479206c697374604482015261195960f21b6064820152608401610197565b6040518060800160405280336001600160a01b0316815260200184848080601f01602080910402602001604051908101604052809392919081815260200183838082843760009201829052509385525050506020808301859052600160409384018190526001600160a01b038a8116845281835284842060078b900b8552835293909220845181546001600160a01b031916941693909317835583015190820190610e3f908261120b565b5060408281015160028301556060909201516003909101805460ff19169115159190911790558051600786900b81526020810183905233916001600160a01b038816917f96d782e474aa460e9ad0bad5e7e1dd46433bf548856e5ed45d6e61fa32a0205e910160405180910390a35050505050565b6001600160a01b0381168114610ec957600080fd5b50565b8035600781900b8114610ede57600080fd5b919050565b60008060408385031215610ef657600080fd5b8235610f0181610eb4565b9150610f0f60208401610ecc565b90509250929050565b6000602080835260018060a01b0384511681840152808401516080604085015280518060a086015260005b81811015610f5f5782810184015186820160c001528301610f43565b50600060c082870101526040860151606086015260608601519250610f88608086018415159052565b601f01601f19169390930160c001949350505050565b600080600080600060808688031215610fb657600080fd5b8535610fc181610eb4565b9450610fcf60208701610ecc565b9350604086013567ffffffffffffffff80821115610fec57600080fd5b818801915088601f83011261100057600080fd5b81358181111561100f57600080fd5b89602082850101111561102157600080fd5b96999598505060200195606001359392505050565b600181811c9082168061104a57607f821691505b60208210810361106a57634e487b7160e01b600052602260045260246000fd5b50919050565b60006020828403121561108257600080fd5b8151801515811461109257600080fd5b9392505050565b60208082526022908201527f41737365744d616e616765723a2073797374656d206973206e6f742061637469604082015261766560f01b606082015260800190565b634e487b7160e01b600052601160045260246000fd5b8082028115828204841417611108576111086110db565b92915050565b60008261112b57634e487b7160e01b600052601260045260246000fd5b500490565b81810381811115611108576111086110db565b60006020828403121561115557600080fd5b815161109281610eb4565b6001600160a01b03948516815292841660208401529216604082015260079190910b606082015260800190565b60006020828403121561119f57600080fd5b5051919050565b634e487b7160e01b600052604160045260246000fd5b601f82111561120657600081815260208120601f850160051c810160208610156111e35750805b601f850160051c820191505b81811015611202578281556001016111ef565b5050505b505050565b815167ffffffffffffffff811115611225576112256111a6565b611239816112338454611036565b846111bc565b602080601f83116001811461126e57600084156112565750858301515b600019600386901b1c1916600185901b178555611202565b600085815260208120601f198616915b8281101561129d5788860151825594840194600190910190840161127e565b50858210156112bb5787850151600019600388901b60f8161c191681555b5050505050600190811b0190555056fea2646970667358221220713268933f18777d16df26e59cc922879140f8c15cfcc4c5243baf6d3c2a6f0464736f6c63430008140033608060405234801561001057600080fd5b50604051610e3a380380610e3a83398101604081905261002f916100c2565b6001600160a01b03811661009d5760405162461bcd60e51b815260206004820152602b60248201527f5374616b654d616e616765723a20706c6174666f726d20636f7265206164647260448201526a657373206973207a65726f60a81b606482015260840160405180910390fd5b600080546001600160a01b0319166001600160a01b03929092169190911790556100f2565b6000602082840312156100d457600080fd5b81516001600160a01b03811681146100eb57600080fd5b9392505050565b610d39806101016000396000f3fe608060405234801561001057600080fd5b50600436106100415760003560e01c806374a5ffc4146100465780637547c7a314610061578063bfa5020c14610074575b600080fd5b61004e60c881565b6040519081526020015b60405180910390f35b61004e61006f366004610a39565b61009f565b600054610087906001600160a01b031681565b6040516001600160a01b039091168152602001610058565b60008060009054906101000a90046001600160a01b03166001600160a01b031663351662266040518163ffffffff1660e01b8152600401602060405180830381865afa1580156100f3573d6000803e3d6000fd5b505050506040513d601f19601f820116820180604052508101906101179190610a52565b6101735760405162461bcd60e51b815260206004820152602260248201527f5374616b654d616e616765723a2073797374656d206973206e6f742061637469604482015261766560f01b60648201526084015b60405180910390fd5b600082116101da5760405162461bcd60e51b815260206004820152602e60248201527f5374616b654d616e616765723a20616d6f756e74206d7573742062652067726560448201526d61746572207468616e207a65726f60901b606482015260840161016a565b600054604051621e1d0560e61b8152336004820152602481018490526001600160a01b03909116906307874140906044016020604051808303816000875af115801561022a573d6000803e3d6000fd5b505050506040513d601f19601f8201168201806040525081019061024e9190610a52565b6102ab5760405162461bcd60e51b815260206004820152602860248201527f5374616b654d616e616765723a2065786365656473207472616e73616374696f6044820152676e206c696d69747360c01b606482015260840161016a565b600054604051634d218dd160e01b8152336004820152602481018490526001600160a01b0390911690634d218dd190604401600060405180830381600087803b1580156102f757600080fd5b505af115801561030b573d6000803e3d6000fd5b5050505060006101f483620f42406103239190610a91565b61032d9190610aae565b90506000811161037f5760405162461bcd60e51b815260206004820152601e60248201527f5374616b654d616e616765723a20616d6f756e7420746f6f20736d616c6c0000604482015260640161016a565b600061271061038f60c886610a91565b6103999190610aae565b905060006103a78286610ad0565b905060008060009054906101000a90046001600160a01b03166001600160a01b03166379137f9d6040518163ffffffff1660e01b8152600401602060405180830381865afa1580156103fd573d6000803e3d6000fd5b505050506040513d601f19601f820116820180604052508101906104219190610afb565b905060008060009054906101000a90046001600160a01b03166001600160a01b03166398acd7a66040518163ffffffff1660e01b8152600401602060405180830381865afa158015610477573d6000803e3d6000fd5b505050506040513d601f19601f8201168201806040525081019061049b9190610afb565b905060008060009054906101000a90046001600160a01b03166001600160a01b0316626266796040518163ffffffff1660e01b8152600401602060405180830381865afa1580156104f0573d6000803e3d6000fd5b505050506040513d601f19601f820116820180604052508101906105149190610afb565b905060008060009054906101000a90046001600160a01b03166001600160a01b0316632c035b746040518163ffffffff1660e01b8152600401602060405180830381865afa15801561056a573d6000803e3d6000fd5b505050506040513d601f19601f8201168201806040525081019061058e9190610afb565b90506000846001600160a01b031663eca369178533308e6040518563ffffffff1660e01b81526004016105c49493929190610b18565b6020604051808303816000875af11580156105e3573d6000803e3d6000fd5b505050506040513d601f19601f820116820180604052508101906106079190610b45565b90506016811461066a5760405162461bcd60e51b815260206004820152602860248201527f5374616b654d616e616765723a206261736520746f6b656e207472616e7366656044820152671c8819985a5b195960c21b606482015260840161016a565b60405163eca3691760e01b81526001600160a01b0386169063eca369179061069c908790309087908d90600401610b18565b6020604051808303816000875af11580156106bb573d6000803e3d6000fd5b505050506040513d601f19601f820116820180604052508101906106df9190610b45565b90506016811461073b5760405162461bcd60e51b815260206004820152602160248201527f5374616b654d616e616765723a20666565207472616e73666572206661696c656044820152601960fa1b606482015260840161016a565b604051631bdc8dff60e21b81526001600160a01b038581166004830152306024830152600788900b6044830152861690636f7237fc906064016020604051808303816000875af1158015610793573d6000803e3d6000fd5b505050506040513d601f19601f820116820180604052508101906107b79190610b45565b9050601681146108095760405162461bcd60e51b815260206004820152601f60248201527f5374616b654d616e616765723a20746f6b656e206275726e206661696c656400604482015260640161016a565b6040805160008082526020820190925281610834565b606081526020019060019003908161081f5790505b5060405163707a02cd60e11b81529091506001600160a01b0387169063e0f4059a906108689087908d908690600401610b74565b6000604051808303816000875af1158015610887573d6000803e3d6000fd5b505050506040513d6000823e601f3d908101601f191682016040526108af9190810190610c32565b509150601682146109125760405162461bcd60e51b815260206004820152602760248201527f5374616b654d616e616765723a207574696c69747920746f6b656e206d696e746044820152660819985a5b195960ca1b606482015260840161016a565b60405163eca3691760e01b81526001600160a01b0387169063eca3691790610944908790309033908f90600401610b18565b6020604051808303816000875af1158015610963573d6000803e3d6000fd5b505050506040513d601f19601f820116820180604052508101906109879190610b45565b9150601682146109ed5760405162461bcd60e51b815260206004820152602b60248201527f5374616b654d616e616765723a207574696c69747920746f6b656e207472616e60448201526a1cd9995c8819985a5b195960aa1b606482015260840161016a565b604080518c8152602081018b905233917fdd2a19c3bdd089cbe77c04f5655f83de0504d6140d12c8667646f55d0557c4dc910160405180910390a250969750505050505050505b919050565b600060208284031215610a4b57600080fd5b5035919050565b600060208284031215610a6457600080fd5b81518015158114610a7457600080fd5b9392505050565b634e487b7160e01b600052601160045260246000fd5b8082028115828204841417610aa857610aa8610a7b565b92915050565b600082610acb57634e487b7160e01b600052601260045260246000fd5b500490565b81810381811115610aa857610aa8610a7b565b6001600160a01b0381168114610af857600080fd5b50565b600060208284031215610b0d57600080fd5b8151610a7481610ae3565b6001600160a01b03948516815292841660208401529216604082015260079190910b606082015260800190565b600060208284031215610b5757600080fd5b5051919050565b634e487b7160e01b600052604160045260246000fd5b60006060820160018060a01b038616835260208560070b818501526060604085015281855180845260808601915060808160051b87010193508287016000805b83811015610c1057888703607f1901855282518051808952835b81811015610be9578281018901518a82018a01528801610bce565b508881018801849052601f01601f1916909701860196509385019391850191600101610bb4565b50949a9950505050505050505050565b8051600781900b8114610a3457600080fd5b60008060408385031215610c4557600080fd5b8251915060208084015167ffffffffffffffff80821115610c6557600080fd5b818601915086601f830112610c7957600080fd5b815181811115610c8b57610c8b610b5e565b8060051b604051601f19603f83011681018181108582111715610cb057610cb0610b5e565b604052918252848201925083810185019189831115610cce57600080fd5b938501935b82851015610cf357610ce485610c20565b84529385019392850192610cd3565b809650505050505050925092905056fea2646970667358221220671490aedc1d0d7c2a3ce553a308be5680187e3d622cc468705c1946ab3ce7ce64736f6c63430008140033608060405234801561001057600080fd5b5060405161105338038061105383398101604081905261002f916100c9565b6001600160a01b0381166100a45760405162461bcd60e51b815260206004820152603260248201527f43726561746f72546f6b656e4d616e616765723a20706c6174666f726d20636f60448201527172652061646472657373206973207a65726f60701b606482015260840160405180910390fd5b600080546001600160a01b0319166001600160a01b03929092169190911790556100f9565b6000602082840312156100db57600080fd5b81516001600160a01b03811681146100f257600080fd5b9392505050565b610f4b806101086000396000f3fe608060405234801561001057600080fd5b50600436106100625760003560e01c806337f0eaa414610067578063a018a578146100a9578063a2ea2a6b146100ca578063bfa5020c1461010e578063cc3cbd2a14610121578063d5c2bf1b1461012a575b600080fd5b61007a610075366004610d0e565b61013f565b604080516001600160a01b03909516855260208501939093529183015260608201526080015b60405180910390f35b6100bc6100b7366004610d32565b6101c5565b6040519081526020016100a0565b6100f66100d8366004610d0e565b6001600160a01b039081166000908152600160205260409020541690565b6040516001600160a01b0390911681526020016100a0565b6000546100f6906001600160a01b031681565b6100bc6101f481565b61013d610138366004610d5e565b610a4e565b005b6001600160a01b0380821660009081526001602052604081205490918291829182918691166101895760405162461bcd60e51b815260040161018090610d93565b60405180910390fd5b505050506001600160a01b0391821660009081526002602081905260409091208054600182015492820154600390920154941694919390925090565b60008060009054906101000a90046001600160a01b03166001600160a01b031663351662266040518163ffffffff1660e01b8152600401602060405180830381865afa158015610219573d6000803e3d6000fd5b505050506040513d601f19601f8201168201806040525081019061023d9190610ddf565b6102595760405162461bcd60e51b815260040161018090610e01565b6001600160a01b038084166000908152600160205260409020548491166102925760405162461bcd60e51b815260040161018090610d93565b600083116103005760405162461bcd60e51b815260206004820152603560248201527f43726561746f72546f6b656e4d616e616765723a20616d6f756e74206d7573746044820152742062652067726561746572207468616e207a65726f60581b6064820152608401610180565b600054604051621e1d0560e61b8152336004820152602481018590526001600160a01b03909116906307874140906044016020604051808303816000875af1158015610350573d6000803e3d6000fd5b505050506040513d601f19601f820116820180604052508101906103749190610ddf565b6103d85760405162461bcd60e51b815260206004820152602f60248201527f43726561746f72546f6b656e4d616e616765723a20657863656564732074726160448201526e6e73616374696f6e206c696d69747360881b6064820152608401610180565b600054604051634d218dd160e01b8152336004820152602481018590526001600160a01b0390911690634d218dd190604401600060405180830381600087803b15801561042457600080fd5b505af1158015610438573d6000803e3d6000fd5b5050506001600160a01b038516600090815260026020819052604082209081015490925061046986620f4240610e60565b6104739190610e7d565b9050600081116104d35760405162461bcd60e51b815260206004820152602560248201527f43726561746f72546f6b656e4d616e616765723a20616d6f756e7420746f6f206044820152641cdb585b1b60da1b6064820152608401610180565b60006127106104e46101f488610e60565b6104ee9190610e7d565b905060006104fc8288610e9f565b905060008060009054906101000a90046001600160a01b03166001600160a01b03166379137f9d6040518163ffffffff1660e01b8152600401602060405180830381865afa158015610552573d6000803e3d6000fd5b505050506040513d601f19601f820116820180604052508101906105769190610eb2565b905060008060009054906101000a90046001600160a01b03166001600160a01b03166398acd7a66040518163ffffffff1660e01b8152600401602060405180830381865afa1580156105cc573d6000803e3d6000fd5b505050506040513d601f19601f820116820180604052508101906105f09190610eb2565b905060008060009054906101000a90046001600160a01b03166001600160a01b0316632c035b746040518163ffffffff1660e01b8152600401602060405180830381865afa158015610646573d6000803e3d6000fd5b505050506040513d601f19601f8201168201806040525081019061066a9190610eb2565b90506000836001600160a01b031663eca369178433308f6040518563ffffffff1660e01b81526004016106a09493929190610ecf565b6020604051808303816000875af11580156106bf573d6000803e3d6000fd5b505050506040513d601f19601f820116820180604052508101906106e39190610efc565b90506016811461074d5760405162461bcd60e51b815260206004820152602f60248201527f43726561746f72546f6b656e4d616e616765723a206261736520746f6b656e2060448201526e1d1c985b9cd9995c8819985a5b1959608a1b6064820152608401610180565b836001600160a01b031663eca3691784308f896040518563ffffffff1660e01b815260040161077f9493929190610ecf565b6020604051808303816000875af115801561079e573d6000803e3d6000fd5b505050506040513d601f19601f820116820180604052508101906107c29190610efc565b9050601681146108285760405162461bcd60e51b815260206004820152602b60248201527f43726561746f72546f6b656e4d616e616765723a2063726561746f722070617960448201526a1b595b9d0819985a5b195960aa1b6064820152608401610180565b60405163eca3691760e01b81526001600160a01b0385169063eca369179061085a908690309087908c90600401610ecf565b6020604051808303816000875af1158015610879573d6000803e3d6000fd5b505050506040513d601f19601f8201168201806040525081019061089d9190610efc565b9050601681146108ff5760405162461bcd60e51b815260206004820152602760248201527f43726561746f72546f6b656e4d616e616765723a20666565207061796d656e746044820152660819985a5b195960ca1b6064820152608401610180565b836001600160a01b031663eca369178960000160009054906101000a90046001600160a01b03168e338b6040518563ffffffff1660e01b81526004016109489493929190610ecf565b6020604051808303816000875af1158015610967573d6000803e3d6000fd5b505050506040513d601f19601f8201168201806040525081019061098b9190610efc565b9050601681146109f85760405162461bcd60e51b815260206004820152603260248201527f43726561746f72546f6b656e4d616e616765723a2063726561746f7220746f6b604482015271195b881d1c985b9cd9995c8819985a5b195960721b6064820152608401610180565b604080518c8152602081018990526001600160a01b038e169133917f7dc2311af61314f8790a9578d6c48fdb6c5586966980e72cca7438adf62b2531910160405180910390a350949a9950505050505050505050565b60008054906101000a90046001600160a01b03166001600160a01b031663351662266040518163ffffffff1660e01b8152600401602060405180830381865afa158015610a9f573d6000803e3d6000fd5b505050506040513d601f19601f82011682018060405250810190610ac39190610ddf565b610adf5760405162461bcd60e51b815260040161018090610e01565b6001600160a01b038316610b495760405162461bcd60e51b815260206004820152602b60248201527f43726561746f72546f6b656e4d616e616765723a20696e76616c696420746f6b60448201526a195b8818dbdb9d1c9858dd60aa1b6064820152608401610180565b336000908152600160205260409020546001600160a01b031615610bc65760405162461bcd60e51b815260206004820152602e60248201527f43726561746f72546f6b656e4d616e616765723a2063726561746f7220616c7260448201526d32b0b23c903430b9903a37b5b2b760911b6064820152608401610180565b600082118015610bd65750600081115b610c325760405162461bcd60e51b815260206004820152602760248201527f43726561746f72546f6b656e4d616e616765723a20696e76616c696420706172604482015266616d657465727360c81b6064820152608401610180565b33600081815260016020818152604080842080546001600160a01b038a81166001600160a01b0319928316811790935583516080810185528381528086018b81528186018b815242606084019081528b8b526002808a529a8890209351845495169490951693909317825551968101969096555195850195909555935160039093019290925581518681529081018590529192917fd9e012f902138af3abd104bd4f4bf48ec89a4976860b67ec6656e6e14cd5c1e2910160405180910390a3505050565b6001600160a01b0381168114610d0b57600080fd5b50565b600060208284031215610d2057600080fd5b8135610d2b81610cf6565b9392505050565b60008060408385031215610d4557600080fd5b8235610d5081610cf6565b946020939093013593505050565b600080600060608486031215610d7357600080fd5b8335610d7e81610cf6565b95602085013595506040909401359392505050565b6020808252602c908201527f43726561746f72546f6b656e4d616e616765723a2063726561746f7220746f6b60408201526b195b881b9bdd08199bdd5b9960a21b606082015260800190565b600060208284031215610df157600080fd5b81518015158114610d2b57600080fd5b60208082526029908201527f43726561746f72546f6b656e4d616e616765723a2073797374656d206973206e6040820152686f742061637469766560b81b606082015260800190565b634e487b7160e01b600052601160045260246000fd5b8082028115828204841417610e7757610e77610e4a565b92915050565b600082610e9a57634e487b7160e01b600052601260045260246000fd5b500490565b81810381811115610e7757610e77610e4a565b600060208284031215610ec457600080fd5b8151610d2b81610cf6565b6001600160a01b03948516815292841660208401529216604082015260079190910b606082015260800190565b600060208284031215610f0e57600080fd5b505191905056fea2646970667358221220e63ed6324b90e98e03f43abb74206a2874f75c2f1326831a95e55f03f173dc1664736f6c63430008140033608060405234801561001057600080fd5b5060405161094638038061094683398101604081905261002f916100c4565b6001600160a01b03811661009f5760405162461bcd60e51b815260206004820152602d60248201527f53656375726974794d6f64756c653a20706c6174666f726d20636f726520616460448201526c6472657373206973207a65726f60981b606482015260840160405180910390fd5b600080546001600160a01b0319166001600160a01b03929092169190911790556100f4565b6000602082840312156100d657600080fd5b81516001600160a01b03811681146100ed57600080fd5b9392505050565b610843806101036000396000f3fe608060405234801561001057600080fd5b50600436106100575760003560e01c806350ab3e931461005c57806363a599a4146100715780637e84adcb1461007957806393c87f031461008c578063bfa5020c14610094575b600080fd5b61006f61006a36600461069e565b6100c3565b005b61006f6103ca565b61006f6100873660046106ca565b6104ad565b61006f6105bd565b6000546100a7906001600160a01b031681565b6040516001600160a01b03909116815260200160405180910390f35b6000546040516317aa5fb760e11b81523360048201526001600160a01b0390911690632f54bf6e90602401602060405180830381865afa15801561010b573d6000803e3d6000fd5b505050506040513d601f19601f8201168201806040525081019061012f919061073c565b6101545760405162461bcd60e51b815260040161014b90610765565b60405180910390fd5b6001600160a01b0382166101b85760405162461bcd60e51b815260206004820152602560248201527f53656375726974794d6f64756c653a20696e76616c696420746f6b656e206164604482015264647265737360d81b606482015260840161014b565b600081116102215760405162461bcd60e51b815260206004820152603060248201527f53656375726974794d6f64756c653a20616d6f756e74206d757374206265206760448201526f726561746572207468616e207a65726f60801b606482015260840161014b565b60008060009054906101000a90046001600160a01b03166001600160a01b03166379137f9d6040518163ffffffff1660e01b8152600401602060405180830381865afa158015610275573d6000803e3d6000fd5b505050506040513d601f19601f8201168201806040525081019061029991906107a8565b60405163eca3691760e01b81526001600160a01b038581166004830152306024830152336044830152600785900b606483015291925060009183169063eca36917906084016020604051808303816000875af11580156102fd573d6000803e3d6000fd5b505050506040513d601f19601f8201168201806040525081019061032191906107c5565b9050601681146103815760405162461bcd60e51b815260206004820152602560248201527f53656375726974794d6f64756c653a206173736574207265636f766572792066604482015264185a5b195960da1b606482015260840161014b565b836001600160a01b03167f2efdc42bcf9bb8d3709fdf256a816377b073979f10f42a4b05ccdbf694db6da7846040516103bc91815260200190565b60405180910390a250505050565b6000546040516317aa5fb760e11b81523360048201526001600160a01b0390911690632f54bf6e90602401602060405180830381865afa158015610412573d6000803e3d6000fd5b505050506040513d601f19601f82011682018060405250810190610436919061073c565b6104525760405162461bcd60e51b815260040161014b90610765565b60008054604080516318e9666960e21b815290516001600160a01b03909216926363a599a49260048084019382900301818387803b15801561049357600080fd5b505af11580156104a7573d6000803e3d6000fd5b50505050565b6000546040516381a2445960e01b81523360048201526001600160a01b03909116906381a2445990602401602060405180830381865afa1580156104f5573d6000803e3d6000fd5b505050506040513d601f19601f82011682018060405250810190610519919061073c565b6105765760405162461bcd60e51b815260206004820152602860248201527f53656375726974794d6f64756c653a2063616c6c6572206973206e6f742073756044820152673832b93b34b9b7b960c11b606482015260840161014b565b336001600160a01b03167f5e07955a4663dd687d80320bdf1226865057ff5fdb70a3afa18734d7e370c70383836040516105b19291906107de565b60405180910390a25050565b6000546040516317aa5fb760e11b81523360048201526001600160a01b0390911690632f54bf6e90602401602060405180830381865afa158015610605573d6000803e3d6000fd5b505050506040513d601f19601f82011682018060405250810190610629919061073c565b6106455760405162461bcd60e51b815260040161014b90610765565b60008054604080516393c87f0360e01b815290516001600160a01b03909216926393c87f039260048084019382900301818387803b15801561049357600080fd5b6001600160a01b038116811461069b57600080fd5b50565b600080604083850312156106b157600080fd5b82356106bc81610686565b946020939093013593505050565b600080602083850312156106dd57600080fd5b823567ffffffffffffffff808211156106f557600080fd5b818501915085601f83011261070957600080fd5b81358181111561071857600080fd5b86602082850101111561072a57600080fd5b60209290920196919550909350505050565b60006020828403121561074e57600080fd5b8151801515811461075e57600080fd5b9392505050565b60208082526023908201527f53656375726974794d6f64756c653a2063616c6c6572206973206e6f74206f776040820152623732b960e91b606082015260800190565b6000602082840312156107ba57600080fd5b815161075e81610686565b6000602082840312156107d757600080fd5b5051919050565b60208152816020820152818360408301376000818301604090810191909152601f909201601f1916010191905056fea2646970667358221220777d23037e47626f7ca83509d42729631068a339247246e959e0fb4fce28096a64736f6c63430008140033a26469706673582212208e38c9a8964ed22ba5c71a29b101a114dbca2bae8a7758cc8441eca0a141781e64736f6c63430008140033",
  "linkReferences": {},
  "deployedLinkReferences": {}
}