{
  "_format": "hh-sol-artifact-1",
  "contractName": "SystemOrchestrator",
  "sourceName": "contracts/SystemOrchestrator.sol",
  "abi": [
    {
      "inputs": [],
      "stateMutability": "nonpayable",
      "type": "constructor"
    },
    {
      "anonymous": false,
      "inputs": [
        {
          "indexed": true,
          "internalType": "address",
          "name": "platformCore",
          "type": "address"
        },
        {
          "indexed": true,
          "internalType": "address",
          "name": "gateway",
          "type": "address"
        },
        {
          "indexed": false,
          "internalType": "address",
          "name": "serviceManager",
          "type": "address"
        },
        {
          "indexed": false,
          "internalType": "address",
          "name": "assetManager",
          "type": "address"
        },
        {
          "indexed": false,
          "internalType": "address",
          "name": "stakeManager",
          "type": "address"
        },
        {
          "indexed": false,
          "internalType": "address",
          "name": "creatorTokenManager",
          "type": "address"
        },
        {
          "indexed": false,
          "internalType": "address",
          "name": "securityModule",
          "type": "address"
        }
      ],
      "name": "PlatformConfigured",
      "type": "event"
    },
    {
      "inputs": [
        {
          "internalType": "address",
          "name": "_platformCore",
          "type": "address"
        },
        {
          "internalType": "address",
          "name": "_gateway",
          "type": "address"
        },
        {
          "internalType": "address",
          "name": "_serviceManager",
          "type": "address"
        },
        {
          "internalType": "address",
          "name": "_assetManager",
          "type": "address"
        },
        {
          "internalType": "address",
          "name": "_stakeManager",
          "type": "address"
        },
        {
          "internalType": "address",
          "name": "_creatorTokenManager",
          "type": "address"
        },
        {
          "internalType": "address",
          "name": "_securityModule",
          "type": "address"
        }
      ],
      "name": "configurePlatform",
      "outputs": [],
      "stateMutability": "nonpayable",
      "type": "function"
    },
    {
      "inputs": [],
      "name": "getPlatformAddresses",
      "outputs": [
        {
          "components": [
            {
              "internalType": "address",
              "name": "platformCore",
              "type": "address"
            },
            {
              "internalType": "address",
              "name": "gateway",
              "type": "address"
            },
            {
              "internalType": "address",
              "name": "serviceManager",
              "type": "address"
            },
            {
              "internalType": "address",
              "name": "assetManager",
              "type": "address"
            },
            {
              "internalType": "address",
              "name": "stakeManager",
              "type": "address"
            },
            {
              "internalType": "address",
              "name": "creatorTokenManager",
              "type": "address"
            },
            {
              "internalType": "address",
              "name": "securityModule",
              "type": "address"
            }
          ],
          "internalType": "struct SystemOrchestrator.PlatformAddresses",
          "name": "",
          "type": "tuple"
        }
      ],
      "stateMutability": "view",
      "type": "function"
    },
    {
      "inputs": [],
      "name": "owner",
      "outputs": [
        {
          "internalType": "address",
          "name": "",
          "type": "address"
        }
      ],
      "stateMutability": "view",
      "type": "function"
    },
    {
      "inputs": [],
      "name": "platformAddresses",
      "outputs": [
        {
          "internalType": "address",
          "name": "platformCore",
          "type": "address"
        },
        {
          "internalType": "address",
          "name": "gateway",
          "type": "address"
        },
        {
          "internalType": "address",
          "name": "serviceManager",
          "type": "address"
        },
        {
          "internalType": "address",
          "name": "assetManager",
          "type": "address"
        },
        {
          "internalType": "address",
          "name": "stakeManager",
          "type": "address"
        },
        {
          "internalType": "address",
          "name": "creatorTokenManager",
          "type": "address"
        },
        {
          "internalType": "address",
          "name": "securityModule",
          "type": "address"
        }
      ],
      "stateMutability": "view",
      "type": "function"
    }
  ],
  "bytecode": "0x608060405234801561001057600080fd5b50600080546001600160a01b031916331790556104f1806100326000396000f3fe608060405234801561001057600080fd5b506004361061004c5760003560e01c80634617ef5c146100515780638bfcec10146100665780638da5cb5b146100ec578063cca3e97f14610117575b600080fd5b61006461005f366004610435565b610217565b005b60015460025460035460045460055460065460075461009e966001600160a01b03908116968116958116948116938116928116911687565b604080516001600160a01b039889168152968816602088015294871694860194909452918516606085015284166080840152831660a083015290911660c082015260e0015b60405180910390f35b6000546100ff906001600160a01b031681565b6040516001600160a01b0390911681526020016100e3565b6101b06040805160e081018252600080825260208201819052918101829052606081018290526080810182905260a0810182905260c0810191909152506040805160e0810182526001546001600160a01b039081168252600254811660208301526003548116928201929092526004548216606082015260055482166080820152600654821660a082015260075490911660c082015290565b6040516100e3919081516001600160a01b03908116825260208084015182169083015260408084015182169083015260608084015182169083015260808084015182169083015260a08381015182169083015260c092830151169181019190915260e00190565b6000546001600160a01b031633146102865760405162461bcd60e51b815260206004820152602760248201527f53797374656d4f7263686573747261746f723a2063616c6c6572206973206e6f6044820152663a1037bbb732b960c91b60648201526084015b60405180910390fd5b6001600160a01b0387166102d45760405162461bcd60e51b8152602060048201526015602482015274496e76616c696420706c6174666f726d20636f726560581b604482015260640161027d565b6001600160a01b03861661031c5760405162461bcd60e51b815260206004820152600f60248201526e496e76616c6964206761746577617960881b604482015260640161027d565b6040805160e0810182526001600160a01b0389811680835289821660208085018290528a84168587018190528a851660608088018290528b87166080808a018290528c891660a0808c01829052998d1660c0909b018b9052600180546001600160a01b03199081168b179091556002805482168a17905560038054821688179055600480548216871790556005805482168517905560068054821683179055600780549091168c1790558b5195865295850193909352838a015282019290925290810194909452935190927fb2d72a63026e06e8471fb37e8d2e06cbaa869e5e8b90cb2d63171632ae5d83f292908290030190a350505050505050565b80356001600160a01b038116811461043057600080fd5b919050565b600080600080600080600060e0888a03121561045057600080fd5b61045988610419565b965061046760208901610419565b955061047560408901610419565b945061048360608901610419565b935061049160808901610419565b925061049f60a08901610419565b91506104ad60c08901610419565b90509295989194975092955056fea264697066735822122080703d1efbc5a15e55a91bb0378b0a4dcc421d3dceae146e29ba2a8758bc3ba564736f6c63430008140033",
  "linkReferences": {},
  "deployedLinkReferences": {}
}