{"contracts/NexusEcosystemHub.sol":{"NexusEcosystemHub":{"abi":[{"inputs":[],"stateMutability":"nonpayable","type":"constructor"},{"anonymous":false,"inputs":[{"indexed":true,"internalType":"address","name":"previousOwner","type":"address"},{"indexed":true,"internalType":"address","name":"newOwner","type":"address"}],"name":"OwnershipTransferred","type":"event"},{"anonymous":false,"inputs":[{"indexed":true,"internalType":"address","name":"initiator","type":"address"}],"name":"SystemPaused","type":"event"},{"anonymous":false,"inputs":[{"indexed":true,"internalType":"address","name":"initiator","type":"address"}],"name":"SystemResumed","type":"event"},{"inputs":[],"name":"TIMELOCK_PERIOD","outputs":[{"internalType":"uint256","name":"","type":"uint256"}],"stateMutability":"view","type":"function"},{"inputs":[{"internalType":"address","name":"managerAddress","type":"address"}],"name":"addManager","outputs":[],"stateMutability":"nonpayable","type":"function"},{"inputs":[{"internalType":"address","name":"","type":"address"}],"name":"authorizedManagers","outputs":[{"internalType":"bool","name":"","type":"bool"}],"stateMutability":"view","type":"function"},{"inputs":[],"name":"baseExchangeRate","outputs":[{"internalType":"uint256","name":"","type":"uint256"}],"stateMutability":"view","type":"function"},{"inputs":[{"internalType":"address","name":"_primaryToken","type":"address"},{"internalType":"address","name":"_secondaryToken","type":"address"}],"name":"configureTokens","outputs":[],"stateMutability":"nonpayable","type":"function"},{"inputs":[],"name":"dailyTransactionLimit","outputs":[{"internalType":"uint256","name":"","type":"uint256"}],"stateMutability":"view","type":"function"},{"inputs":[{"internalType":"address","name":"","type":"address"}],"name":"dailyTransactionVolume","outputs":[{"internalType":"uint256","name":"","type":"uint256"}],"stateMutability":"view","type":"function"},{"inputs":[],"name":"getExchangeRate","outputs":[{"internalType":"uint256","name":"","type":"uint256"}],"stateMutability":"view","type":"function"},{"inputs":[],"name":"getHederaService","outputs":[{"internalType":"contract IHederaTokenService","name":"","type":"address"}],"stateMutability":"view","type":"function"},{"inputs":[],"name":"getPrimaryToken","outputs":[{"internalType":"address","name":"","type":"address"}],"stateMutability":"view","type":"function"},{"inputs":[],"name":"getReserveWallet","outputs":[{"internalType":"address","name":"","type":"address"}],"stateMutability":"view","type":"function"},{"inputs":[],"name":"getSecondaryToken","outputs":[{"internalType":"address","name":"","type":"address"}],"stateMutability":"view","type":"function"},{"inputs":[],"name":"isActive","outputs":[{"internalType":"bool","name":"","type":"bool"}],"stateMutability":"view","type":"function"},{"inputs":[{"internalType":"address","name":"userAccount","type":"address"}],"name":"isManager","outputs":[{"internalType":"bool","name":"","type":"bool"}],"stateMutability":"view","type":"function"},{"inputs":[{"internalType":"address","name":"userAccount","type":"address"}],"name":"isOwner","outputs":[{"internalType":"bool","name":"","type":"bool"}],"stateMutability":"view","type":"function"},{"inputs":[{"internalType":"address","name":"","type":"address"}],"name":"lastTransactionDay","outputs":[{"internalType":"uint256","name":"","type":"uint256"}],"stateMutability":"view","type":"function"},{"inputs":[],"name":"maxTransactionLimit","outputs":[{"internalType":"uint256","name":"","type":"uint256"}],"stateMutability":"view","type":"function"},{"inputs":[],"name":"pauseSystem","outputs":[],"stateMutability":"nonpayable","type":"function"},{"inputs":[],"name":"platformOwner","outputs":[{"internalType":"address","name":"","type":"address"}],"stateMutability":"view","type":"function"},{"inputs":[],"name":"primaryTokenAddress","outputs":[{"internalType":"address","name":"","type":"address"}],"stateMutability":"view","type":"function"},{"inputs":[{"internalType":"address","name":"userAccount","type":"address"},{"internalType":"uint256","name":"transactionAmount","type":"uint256"}],"name":"recordTransaction","outputs":[],"stateMutability":"nonpayable","type":"function"},{"inputs":[{"internalType":"address","name":"managerAddress","type":"address"}],"name":"removeManager","outputs":[],"stateMutability":"nonpayable","type":"function"},{"inputs":[],"name":"reserveWallet","outputs":[{"internalType":"address","name":"","type":"address"}],"stateMutability":"view","type":"function"},{"inputs":[],"name":"resumeSystem","outputs":[],"stateMutability":"nonpayable","type":"function"},{"inputs":[],"name":"secondaryTokenAddress","outputs":[{"internalType":"address","name":"","type":"address"}],"stateMutability":"view","type":"function"},{"inputs":[],"name":"systemPaused","outputs":[{"internalType":"bool","name":"","type":"bool"}],"stateMutability":"view","type":"function"},{"inputs":[],"name":"tokenExchangeRate","outputs":[{"internalType":"uint256","name":"","type":"uint256"}],"stateMutability":"view","type":"function"},{"inputs":[{"internalType":"address","name":"newOwner","type":"address"}],"name":"transferOwnership","outputs":[],"stateMutability":"nonpayable","type":"function"},{"inputs":[{"internalType":"address","name":"userAccount","type":"address"},{"internalType":"uint256","name":"transactionAmount","type":"uint256"}],"name":"validateTransactionLimits","outputs":[{"internalType":"bool","name":"","type":"bool"}],"stateMutability":"nonpayable","type":"function"}],"evm":{"bytecode":{"linkReferences":{},"object":"608060405260646004556101f46005556402540be40060065564174876e80060075534801561002d57600080fd5b5060008054336001600160a01b03199182168117835560018054909216179055610a6490819061005d90396000f3fe608060405234801561001057600080fd5b50600436106101cf5760003560e01c8063764aa9c411610104578063cabf2038116100a2578063e6aa216c11610071578063e6aa216c146103d8578063f2fde38b146103e0578063f3ae2415146103f3578063f9cc69011461040657600080fd5b8063cabf20381461038a578063d72b11bd1461039d578063dc1d4fb7146103b0578063dda5f1ed146103b857600080fd5b8063a7427346116100de578063a742734614610333578063a775888314610346578063ac18de4314610357578063af59c95f1461036a57600080fd5b8063764aa9c4146102fb57806396a369261461030c5780639d2f83f01461031f57600080fd5b806336fdced9116101715780634df8ccb11161014b5780634df8ccb1146102ce578063580d164e146102e157806365676c9e146102e9578063676c8458146102f257600080fd5b806336fdced91461029c5780634172d080146102ad5780634a5bcbf8146102c457600080fd5b806317ca06ab116101ad57806317ca06ab1461024157806322f3e2d4146102545780632d06177a146102675780632f54bf6e1461027a57600080fd5b80630700b95a146101d45780630a3cb21b14610204578063157c51d314610237575b600080fd5b6002546101e7906001600160a01b031681565b6040516001600160a01b0390911681526020015b60405180910390f35b610227610212366004610922565b600a6020526000908152604090205460ff1681565b60405190151581526020016101fb565b61023f61040f565b005b61023f61024f366004610944565b61047c565b600154600160a01b900460ff1615610227565b61023f610275366004610922565b610507565b610227610288366004610922565b6000546001600160a01b0391821691161490565b6003546001600160a01b03166101e7565b6102b660055481565b6040519081526020016101fb565b6102b66201518081565b6000546101e7906001600160a01b031681565b6101676101e7565b6102b660045481565b6102b660065481565b6001546001600160a01b03166101e7565b6003546101e7906001600160a01b031681565b60015461022790600160a01b900460ff1681565b61023f61034136600461096e565b6105c2565b6002546001600160a01b03166101e7565b61023f610365366004610922565b610686565b6102b6610378366004610922565b60096020526000908152604090205481565b610227610398366004610944565b6106d1565b6001546101e7906001600160a01b031681565b61023f610771565b6102b66103c6366004610922565b60086020526000908152604090205481565b6005546102b6565b61023f6103ee366004610922565b6107db565b610227610401366004610922565b6108cf565b6102b660075481565b6000546001600160a01b031633146104425760405162461bcd60e51b8152600401610439906109a1565b60405180910390fd5b6001805460ff60a01b1916905560405133907f0ff819190843157e9b315cb14d812174d22ebb52fe2ea65296460fa86f0f1dd390600090a2565b600061048b62015180426109eb565b6001600160a01b0384166000908152600960205260409020549091508111156104d5576001600160a01b038316600090815260096020908152604080832084905560089091528120555b6001600160a01b038316600090815260086020526040812080548492906104fd908490610a0d565b9091555050505050565b6000546001600160a01b031633146105315760405162461bcd60e51b8152600401610439906109a1565b6001600160a01b03811661059e5760405162461bcd60e51b815260206004820152602e60248201527f4e6578757345636f73797374656d4875623a206d616e6167657220697320746860448201526d65207a65726f206164647265737360901b6064820152608401610439565b6001600160a01b03166000908152600a60205260409020805460ff19166001179055565b6000546001600160a01b031633146105ec5760405162461bcd60e51b8152600401610439906109a1565b6001600160a01b0382161580159061060c57506001600160a01b03811615155b6106585760405162461bcd60e51b815260206004820152601760248201527f496e76616c696420746f6b656e206164647265737365730000000000000000006044820152606401610439565b600280546001600160a01b039384166001600160a01b03199182161790915560038054929093169116179055565b6000546001600160a01b031633146106b05760405162461bcd60e51b8152600401610439906109a1565b6001600160a01b03166000908152600a60205260409020805460ff19169055565b60006006548211156106e55750600061076b565b60006106f462015180426109eb565b6001600160a01b03851660009081526009602052604090205490915081111561073e576001600160a01b038416600090815260096020908152604080832084905560089091528120555b6007546001600160a01b038516600090815260086020526040902054610765908590610a0d565b11159150505b92915050565b6000546001600160a01b0316331461079b5760405162461bcd60e51b8152600401610439906109a1565b6001805460ff60a01b1916600160a01b17905560405133907f0e453e53649b13b8c30ef82dd7bce6c745cfcc7a1dc95170b4750764194f19b290600090a2565b6000546001600160a01b031633146108055760405162461bcd60e51b8152600401610439906109a1565b6001600160a01b0381166108745760405162461bcd60e51b815260206004820152603060248201527f4e6578757345636f73797374656d4875623a206e6577206f776e65722069732060448201526f746865207a65726f206164647265737360801b6064820152608401610439565b600080546040516001600160a01b03808516939216917f8be0079c531659141344cd1fd0a4f28419497f9722a3daafe3b4186f6b6457e091a3600080546001600160a01b0319166001600160a01b0392909216919091179055565b600080546001600160a01b038381169116148061076b5750506001600160a01b03166000908152600a602052604090205460ff1690565b80356001600160a01b038116811461091d57600080fd5b919050565b60006020828403121561093457600080fd5b61093d82610906565b9392505050565b6000806040838503121561095757600080fd5b61096083610906565b946020939093013593505050565b6000806040838503121561098157600080fd5b61098a83610906565b915061099860208401610906565b90509250929050565b6020808252602a908201527f4e6578757345636f73797374656d4875623a2063616c6c6572206973206e6f74604082015269103a34329037bbb732b960b11b606082015260800190565b600082610a0857634e487b7160e01b600052601260045260246000fd5b500490565b8082018082111561076b57634e487b7160e01b600052601160045260246000fdfea26469706673582212205b9d261bc9a53021b059dddda5a31acecab35dbf0a302c6d752d9b6a0eadbb4f64736f6c63430008140033","opcodes":"PUSH1 0x80 PUSH1 0x40 MSTORE PUSH1 0x64 PUSH1 0x4 SSTORE PUSH2 0x1F4 PUSH1 0x5 SSTORE PUSH5 0x2540BE400 PUSH1 0x6 SSTORE PUSH5 0x174876E800 PUSH1 0x7 SSTORE CALLVALUE DUP1 ISZERO PUSH2 0x2D JUMPI PUSH1 0x0 DUP1 REVERT JUMPDEST POP PUSH1 0x0 DUP1 SLOAD CALLER PUSH1 0x1 PUSH1 0x1 PUSH1 0xA0 SHL SUB NOT SWAP2 DUP3 AND DUP2 OR DUP4 SSTORE PUSH1 0x1 DUP1 SLOAD SWAP1 SWAP3 AND OR SWAP1 SSTORE PUSH2 0xA64 SWAP1 DUP2 SWAP1 PUSH2 0x5D SWAP1 CODECOPY PUSH1 0x0 RETURN INVALID PUSH1 0x80 PUSH1 0x40 MSTORE CALLVALUE DUP1 ISZERO PUSH2 0x10 JUMPI PUSH1 0x0 DUP1 REVERT JUMPDEST POP PUSH1 0x4 CALLDATASIZE LT PUSH2 0x1CF JUMPI PUSH1 0x0 CALLDATALOAD PUSH1 0xE0 SHR DUP1 PUSH4 0x764AA9C4 GT PUSH2 0x104 JUMPI DUP1 PUSH4 0xCABF2038 GT PUSH2 0xA2 JUMPI DUP1 PUSH4 0xE6AA216C GT PUSH2 0x71 JUMPI DUP1 PUSH4 0xE6AA216C EQ PUSH2 0x3D8 JUMPI DUP1 PUSH4 0xF2FDE38B EQ PUSH2 0x3E0 JUMPI DUP1 PUSH4 0xF3AE2415 EQ PUSH2 0x3F3 JUMPI DUP1 PUSH4 0xF9CC6901 EQ PUSH2 0x406 JUMPI PUSH1 0x0 DUP1 REVERT JUMPDEST DUP1 PUSH4 0xCABF2038 EQ PUSH2 0x38A JUMPI DUP1 PUSH4 0xD72B11BD EQ PUSH2 0x39D JUMPI DUP1 PUSH4 0xDC1D4FB7 EQ PUSH2 0x3B0 JUMPI DUP1 PUSH4 0xDDA5F1ED EQ PUSH2 0x3B8 JUMPI PUSH1 0x0 DUP1 REVERT JUMPDEST DUP1 PUSH4 0xA7427346 GT PUSH2 0xDE JUMPI DUP1 PUSH4 0xA7427346 EQ PUSH2 0x333 JUMPI DUP1 PUSH4 0xA7758883 EQ PUSH2 0x346 JUMPI DUP1 PUSH4 0xAC18DE43 EQ PUSH2 0x357 JUMPI DUP1 PUSH4 0xAF59C95F EQ PUSH2 0x36A JUMPI PUSH1 0x0 DUP1 REVERT JUMPDEST DUP1 PUSH4 0x764AA9C4 EQ PUSH2 0x2FB JUMPI DUP1 PUSH4 0x96A36926 EQ PUSH2 0x30C JUMPI DUP1 PUSH4 0x9D2F83F0 EQ PUSH2 0x31F JUMPI PUSH1 0x0 DUP1 REVERT JUMPDEST DUP1 PUSH4 0x36FDCED9 GT PUSH2 0x171 JUMPI DUP1 PUSH4 0x4DF8CCB1 GT PUSH2 0x14B JUMPI DUP1 PUSH4 0x4DF8CCB1 EQ PUSH2 0x2CE JUMPI DUP1 PUSH4 0x580D164E EQ PUSH2 0x2E1 JUMPI DUP1 PUSH4 0x65676C9E EQ PUSH2 0x2E9 JUMPI DUP1 PUSH4 0x676C8458 EQ PUSH2 0x2F2 JUMPI PUSH1 0x0 DUP1 REVERT JUMPDEST DUP1 PUSH4 0x36FDCED9 EQ PUSH2 0x29C JUMPI DUP1 PUSH4 0x4172D080 EQ PUSH2 0x2AD JUMPI DUP1 PUSH4 0x4A5BCBF8 EQ PUSH2 0x2C4 JUMPI PUSH1 0x0 DUP1 REVERT JUMPDEST DUP1 PUSH4 0x17CA06AB GT PUSH2 0x1AD JUMPI DUP1 PUSH4 0x17CA06AB EQ PUSH2 0x241 JUMPI DUP1 PUSH4 0x22F3E2D4 EQ PUSH2 0x254 JUMPI DUP1 PUSH4 0x2D06177A EQ PUSH2 0x267 JUMPI DUP1 PUSH4 0x2F54BF6E EQ PUSH2 0x27A JUMPI PUSH1 0x0 DUP1 REVERT JUMPDEST DUP1 PUSH4 0x700B95A EQ PUSH2 0x1D4 JUMPI DUP1 PUSH4 0xA3CB21B EQ PUSH2 0x204 JUMPI DUP1 PUSH4 0x157C51D3 EQ PUSH2 0x237 JUMPI JUMPDEST PUSH1 0x0 DUP1 REVERT JUMPDEST PUSH1 0x2 SLOAD PUSH2 0x1E7 SWAP1 PUSH1 0x1 PUSH1 0x1 PUSH1 0xA0 SHL SUB AND DUP2 JUMP JUMPDEST PUSH1 0x40 MLOAD PUSH1 0x1 PUSH1 0x1 PUSH1 0xA0 SHL SUB SWAP1 SWAP2 AND DUP2 MSTORE PUSH1 0x20 ADD JUMPDEST PUSH1 0x40 MLOAD DUP1 SWAP2 SUB SWAP1 RETURN JUMPDEST PUSH2 0x227 PUSH2 0x212 CALLDATASIZE PUSH1 0x4 PUSH2 0x922 JUMP JUMPDEST PUSH1 0xA PUSH1 0x20 MSTORE PUSH1 0x0 SWAP1 DUP2 MSTORE PUSH1 0x40 SWAP1 KECCAK256 SLOAD PUSH1 0xFF AND DUP2 JUMP JUMPDEST PUSH1 0x40 MLOAD SWAP1 ISZERO ISZERO DUP2 MSTORE PUSH1 0x20 ADD PUSH2 0x1FB JUMP JUMPDEST PUSH2 0x23F PUSH2 0x40F JUMP JUMPDEST STOP JUMPDEST PUSH2 0x23F PUSH2 0x24F CALLDATASIZE PUSH1 0x4 PUSH2 0x944 JUMP JUMPDEST PUSH2 0x47C JUMP JUMPDEST PUSH1 0x1 SLOAD PUSH1 0x1 PUSH1 0xA0 SHL SWAP1 DIV PUSH1 0xFF AND ISZERO PUSH2 0x227 JUMP JUMPDEST PUSH2 0x23F PUSH2 0x275 CALLDATASIZE PUSH1 0x4 PUSH2 0x922 JUMP JUMPDEST PUSH2 0x507 JUMP JUMPDEST PUSH2 0x227 PUSH2 0x288 CALLDATASIZE PUSH1 0x4 PUSH2 0x922 JUMP JUMPDEST PUSH1 0x0 SLOAD PUSH1 0x1 PUSH1 0x1 PUSH1 0xA0 SHL SUB SWAP2 DUP3 AND SWAP2 AND EQ SWAP1 JUMP JUMPDEST PUSH1 0x3 SLOAD PUSH1 0x1 PUSH1 0x1 PUSH1 0xA0 SHL SUB AND PUSH2 0x1E7 JUMP JUMPDEST PUSH2 0x2B6 PUSH1 0x5 SLOAD DUP2 JUMP JUMPDEST PUSH1 0x40 MLOAD SWAP1 DUP2 MSTORE PUSH1 0x20 ADD PUSH2 0x1FB JUMP JUMPDEST PUSH2 0x2B6 PUSH3 0x15180 DUP2 JUMP JUMPDEST PUSH1 0x0 SLOAD PUSH2 0x1E7 SWAP1 PUSH1 0x1 PUSH1 0x1 PUSH1 0xA0 SHL SUB AND DUP2 JUMP JUMPDEST PUSH2 0x167 PUSH2 0x1E7 JUMP JUMPDEST PUSH2 0x2B6 PUSH1 0x4 SLOAD DUP2 JUMP JUMPDEST PUSH2 0x2B6 PUSH1 0x6 SLOAD DUP2 JUMP JUMPDEST PUSH1 0x1 SLOAD PUSH1 0x1 PUSH1 0x1 PUSH1 0xA0 SHL SUB AND PUSH2 0x1E7 JUMP JUMPDEST PUSH1 0x3 SLOAD PUSH2 0x1E7 SWAP1 PUSH1 0x1 PUSH1 0x1 PUSH1 0xA0 SHL SUB AND DUP2 JUMP JUMPDEST PUSH1 0x1 SLOAD PUSH2 0x227 SWAP1 PUSH1 0x1 PUSH1 0xA0 SHL SWAP1 DIV PUSH1 0xFF AND DUP2 JUMP JUMPDEST PUSH2 0x23F PUSH2 0x341 CALLDATASIZE PUSH1 0x4 PUSH2 0x96E JUMP JUMPDEST PUSH2 0x5C2 JUMP JUMPDEST PUSH1 0x2 SLOAD PUSH1 0x1 PUSH1 0x1 PUSH1 0xA0 SHL SUB AND PUSH2 0x1E7 JUMP JUMPDEST PUSH2 0x23F PUSH2 0x365 CALLDATASIZE PUSH1 0x4 PUSH2 0x922 JUMP JUMPDEST PUSH2 0x686 JUMP JUMPDEST PUSH2 0x2B6 PUSH2 0x378 CALLDATASIZE PUSH1 0x4 PUSH2 0x922 JUMP JUMPDEST PUSH1 0x9 PUSH1 0x20 MSTORE PUSH1 0x0 SWAP1 DUP2 MSTORE PUSH1 0x40 SWAP1 KECCAK256 SLOAD DUP2 JUMP JUMPDEST PUSH2 0x227 PUSH2 0x398 CALLDATASIZE PUSH1 0x4 PUSH2 0x944 JUMP JUMPDEST PUSH2 0x6D1 JUMP JUMPDEST PUSH1 0x1 SLOAD PUSH2 0x1E7 SWAP1 PUSH1 0x1 PUSH1 0x1 PUSH1 0xA0 SHL SUB AND DUP2 JUMP JUMPDEST PUSH2 0x23F PUSH2 0x771 JUMP JUMPDEST PUSH2 0x2B6 PUSH2 0x3C6 CALLDATASIZE PUSH1 0x4 PUSH2 0x922 JUMP JUMPDEST PUSH1 0x8 PUSH1 0x20 MSTORE PUSH1 0x0 SWAP1 DUP2 MSTORE PUSH1 0x40 SWAP1 KECCAK256 SLOAD DUP2 JUMP JUMPDEST PUSH1 0x5 SLOAD PUSH2 0x2B6 JUMP JUMPDEST PUSH2 0x23F PUSH2 0x3EE CALLDATASIZE PUSH1 0x4 PUSH2 0x922 JUMP JUMPDEST PUSH2 0x7DB JUMP JUMPDEST PUSH2 0x227 PUSH2 0x401 CALLDATASIZE PUSH1 0x4 PUSH2 0x922 JUMP JUMPDEST PUSH2 0x8CF JUMP JUMPDEST PUSH2 0x2B6 PUSH1 0x7 SLOAD DUP2 JUMP JUMPDEST PUSH1 0x0 SLOAD PUSH1 0x1 PUSH1 0x1 PUSH1 0xA0 SHL SUB AND CALLER EQ PUSH2 0x442 JUMPI PUSH1 0x40 MLOAD PUSH3 0x461BCD PUSH1 0xE5 SHL DUP2 MSTORE PUSH1 0x4 ADD PUSH2 0x439 SWAP1 PUSH2 0x9A1 JUMP JUMPDEST PUSH1 0x40 MLOAD DUP1 SWAP2 SUB SWAP1 REVERT JUMPDEST PUSH1 0x1 DUP1 SLOAD PUSH1 0xFF PUSH1 0xA0 SHL NOT AND SWAP1 SSTORE PUSH1 0x40 MLOAD CALLER SWAP1 PUSH32 0xFF819190843157E9B315CB14D812174D22EBB52FE2EA65296460FA86F0F1DD3 SWAP1 PUSH1 0x0 SWAP1 LOG2 JUMP JUMPDEST PUSH1 0x0 PUSH2 0x48B PUSH3 0x15180 TIMESTAMP PUSH2 0x9EB JUMP JUMPDEST PUSH1 0x1 PUSH1 0x1 PUSH1 0xA0 SHL SUB DUP5 AND PUSH1 0x0 SWAP1 DUP2 MSTORE PUSH1 0x9 PUSH1 0x20 MSTORE PUSH1 0x40 SWAP1 KECCAK256 SLOAD SWAP1 SWAP2 POP DUP2 GT ISZERO PUSH2 0x4D5 JUMPI PUSH1 0x1 PUSH1 0x1 PUSH1 0xA0 SHL SUB DUP4 AND PUSH1 0x0 SWAP1 DUP2 MSTORE PUSH1 0x9 PUSH1 0x20 SWAP1 DUP2 MSTORE PUSH1 0x40 DUP1 DUP4 KECCAK256 DUP5 SWAP1 SSTORE PUSH1 0x8 SWAP1 SWAP2 MSTORE DUP2 KECCAK256 SSTORE JUMPDEST PUSH1 0x1 PUSH1 0x1 PUSH1 0xA0 SHL SUB DUP4 AND PUSH1 0x0 SWAP1 DUP2 MSTORE PUSH1 0x8 PUSH1 0x20 MSTORE PUSH1 0x40 DUP2 KECCAK256 DUP1 SLOAD DUP5 SWAP3 SWAP1 PUSH2 0x4FD SWAP1 DUP5 SWAP1 PUSH2 0xA0D JUMP JUMPDEST SWAP1 SWAP2 SSTORE POP POP POP POP POP JUMP JUMPDEST PUSH1 0x0 SLOAD PUSH1 0x1 PUSH1 0x1 PUSH1 0xA0 SHL SUB AND CALLER EQ PUSH2 0x531 JUMPI PUSH1 0x40 MLOAD PUSH3 0x461BCD PUSH1 0xE5 SHL DUP2 MSTORE PUSH1 0x4 ADD PUSH2 0x439 SWAP1 PUSH2 0x9A1 JUMP JUMPDEST PUSH1 0x1 PUSH1 0x1 PUSH1 0xA0 SHL SUB DUP2 AND PUSH2 0x59E JUMPI PUSH1 0x40 MLOAD PUSH3 0x461BCD PUSH1 0xE5 SHL DUP2 MSTORE PUSH1 0x20 PUSH1 0x4 DUP3 ADD MSTORE PUSH1 0x2E PUSH1 0x24 DUP3 ADD MSTORE PUSH32 0x4E6578757345636F73797374656D4875623A206D616E61676572206973207468 PUSH1 0x44 DUP3 ADD MSTORE PUSH14 0x65207A65726F2061646472657373 PUSH1 0x90 SHL PUSH1 0x64 DUP3 ADD MSTORE PUSH1 0x84 ADD PUSH2 0x439 JUMP JUMPDEST PUSH1 0x1 PUSH1 0x1 PUSH1 0xA0 SHL SUB AND PUSH1 0x0 SWAP1 DUP2 MSTORE PUSH1 0xA PUSH1 0x20 MSTORE PUSH1 0x40 SWAP1 KECCAK256 DUP1 SLOAD PUSH1 0xFF NOT AND PUSH1 0x1 OR SWAP1 SSTORE JUMP JUMPDEST PUSH1 0x0 SLOAD PUSH1 0x1 PUSH1 0x1 PUSH1 0xA0 SHL SUB AND CALLER EQ PUSH2 0x5EC JUMPI PUSH1 0x40 MLOAD PUSH3 0x461BCD PUSH1 0xE5 SHL DUP2 MSTORE PUSH1 0x4 ADD PUSH2 0x439 SWAP1 PUSH2 0x9A1 JUMP JUMPDEST PUSH1 0x1 PUSH1 0x1 PUSH1 0xA0 SHL SUB DUP3 AND ISZERO DUP1 ISZERO SWAP1 PUSH2 0x60C JUMPI POP PUSH1 0x1 PUSH1 0x1 PUSH1 0xA0 SHL SUB DUP2 AND ISZERO ISZERO JUMPDEST PUSH2 0x658 JUMPI PUSH1 0x40 MLOAD PUSH3 0x461BCD PUSH1 0xE5 SHL DUP2 MSTORE PUSH1 0x20 PUSH1 0x4 DUP3 ADD MSTORE PUSH1 0x17 PUSH1 0x24 DUP3 ADD MSTORE PUSH32 0x496E76616C696420746F6B656E20616464726573736573000000000000000000 PUSH1 0x44 DUP3 ADD MSTORE PUSH1 0x64 ADD PUSH2 0x439 JUMP JUMPDEST PUSH1 0x2 DUP1 SLOAD PUSH1 0x1 PUSH1 0x1 PUSH1 0xA0 SHL SUB SWAP4 DUP5 AND PUSH1 0x1 PUSH1 0x1 PUSH1 0xA0 SHL SUB NOT SWAP2 DUP3 AND OR SWAP1 SWAP2 SSTORE PUSH1 0x3 DUP1 SLOAD SWAP3 SWAP1 SWAP4 AND SWAP2 AND OR SWAP1 SSTORE JUMP JUMPDEST PUSH1 0x0 SLOAD PUSH1 0x1 PUSH1 0x1 PUSH1 0xA0 SHL SUB AND CALLER EQ PUSH2 0x6B0 JUMPI PUSH1 0x40 MLOAD PUSH3 0x461BCD PUSH1 0xE5 SHL DUP2 MSTORE PUSH1 0x4 ADD PUSH2 0x439 SWAP1 PUSH2 0x9A1 JUMP JUMPDEST PUSH1 0x1 PUSH1 0x1 PUSH1 0xA0 SHL SUB AND PUSH1 0x0 SWAP1 DUP2 MSTORE PUSH1 0xA PUSH1 0x20 MSTORE PUSH1 0x40 SWAP1 KECCAK256 DUP1 SLOAD PUSH1 0xFF NOT AND SWAP1 SSTORE JUMP JUMPDEST PUSH1 0x0 PUSH1 0x6 SLOAD DUP3 GT ISZERO PUSH2 0x6E5 JUMPI POP PUSH1 0x0 PUSH2 0x76B JUMP JUMPDEST PUSH1 0x0 PUSH2 0x6F4 PUSH3 0x15180 TIMESTAMP PUSH2 0x9EB JUMP JUMPDEST PUSH1 0x1 PUSH1 0x1 PUSH1 0xA0 SHL SUB DUP6 AND PUSH1 0x0 SWAP1 DUP2 MSTORE PUSH1 0x9 PUSH1 0x20 MSTORE PUSH1 0x40 SWAP1 KECCAK256 SLOAD SWAP1 SWAP2 POP DUP2 GT ISZERO PUSH2 0x73E JUMPI PUSH1 0x1 PUSH1 0x1 PUSH1 0xA0 SHL SUB DUP5 AND PUSH1 0x0 SWAP1 DUP2 MSTORE PUSH1 0x9 PUSH1 0x20 SWAP1 DUP2 MSTORE PUSH1 0x40 DUP1 DUP4 KECCAK256 DUP5 SWAP1 SSTORE PUSH1 0x8 SWAP1 SWAP2 MSTORE DUP2 KECCAK256 SSTORE JUMPDEST PUSH1 0x7 SLOAD PUSH1 0x1 PUSH1 0x1 PUSH1 0xA0 SHL SUB DUP6 AND PUSH1 0x0 SWAP1 DUP2 MSTORE PUSH1 0x8 PUSH1 0x20 MSTORE PUSH1 0x40 SWAP1 KECCAK256 SLOAD PUSH2 0x765 SWAP1 DUP6 SWAP1 PUSH2 0xA0D JUMP JUMPDEST GT ISZERO SWAP2 POP POP JUMPDEST SWAP3 SWAP2 POP POP JUMP JUMPDEST PUSH1 0x0 SLOAD PUSH1 0x1 PUSH1 0x1 PUSH1 0xA0 SHL SUB AND CALLER EQ PUSH2 0x79B JUMPI PUSH1 0x40 MLOAD PUSH3 0x461BCD PUSH1 0xE5 SHL DUP2 MSTORE PUSH1 0x4 ADD PUSH2 0x439 SWAP1 PUSH2 0x9A1 JUMP JUMPDEST PUSH1 0x1 DUP1 SLOAD PUSH1 0xFF PUSH1 0xA0 SHL NOT AND PUSH1 0x1 PUSH1 0xA0 SHL OR SWAP1 SSTORE PUSH1 0x40 MLOAD CALLER SWAP1 PUSH32 0xE453E53649B13B8C30EF82DD7BCE6C745CFCC7A1DC95170B4750764194F19B2 SWAP1 PUSH1 0x0 SWAP1 LOG2 JUMP JUMPDEST PUSH1 0x0 SLOAD PUSH1 0x1 PUSH1 0x1 PUSH1 0xA0 SHL SUB AND CALLER EQ PUSH2 0x805 JUMPI PUSH1 0x40 MLOAD PUSH3 0x461BCD PUSH1 0xE5 SHL DUP2 MSTORE PUSH1 0x4 ADD PUSH2 0x439 SWAP1 PUSH2 0x9A1 JUMP JUMPDEST PUSH1 0x1 PUSH1 0x1 PUSH1 0xA0 SHL SUB DUP2 AND PUSH2 0x874 JUMPI PUSH1 0x40 MLOAD PUSH3 0x461BCD PUSH1 0xE5 SHL DUP2 MSTORE PUSH1 0x20 PUSH1 0x4 DUP3 ADD MSTORE PUSH1 0x30 PUSH1 0x24 DUP3 ADD MSTORE PUSH32 0x4E6578757345636F73797374656D4875623A206E6577206F776E657220697320 PUSH1 0x44 DUP3 ADD MSTORE PUSH16 0x746865207A65726F2061646472657373 PUSH1 0x80 SHL PUSH1 0x64 DUP3 ADD MSTORE PUSH1 0x84 ADD PUSH2 0x439 JUMP JUMPDEST PUSH1 0x0 DUP1 SLOAD PUSH1 0x40 MLOAD PUSH1 0x1 PUSH1 0x1 PUSH1 0xA0 SHL SUB DUP1 DUP6 AND SWAP4 SWAP3 AND SWAP2 PUSH32 0x8BE0079C531659141344CD1FD0A4F28419497F9722A3DAAFE3B4186F6B6457E0 SWAP2 LOG3 PUSH1 0x0 DUP1 SLOAD PUSH1 0x1 PUSH1 0x1 PUSH1 0xA0 SHL SUB NOT AND PUSH1 0x1 PUSH1 0x1 PUSH1 0xA0 SHL SUB SWAP3 SWAP1 SWAP3 AND SWAP2 SWAP1 SWAP2 OR SWAP1 SSTORE JUMP JUMPDEST PUSH1 0x0 DUP1 SLOAD PUSH1 0x1 PUSH1 0x1 PUSH1 0xA0 SHL SUB DUP4 DUP2 AND SWAP2 AND EQ DUP1 PUSH2 0x76B JUMPI POP POP PUSH1 0x1 PUSH1 0x1 PUSH1 0xA0 SHL SUB AND PUSH1 0x0 SWAP1 DUP2 MSTORE PUSH1 0xA PUSH1 0x20 MSTORE PUSH1 0x40 SWAP1 KECCAK256 SLOAD PUSH1 0xFF AND SWAP1 JUMP JUMPDEST DUP1 CALLDATALOAD PUSH1 0x1 PUSH1 0x1 PUSH1 0xA0 SHL SUB DUP2 AND DUP2 EQ PUSH2 0x91D JUMPI PUSH1 0x0 DUP1 REVERT JUMPDEST SWAP2 SWAP1 POP JUMP JUMPDEST PUSH1 0x0 PUSH1 0x20 DUP3 DUP5 SUB SLT ISZERO PUSH2 0x934 JUMPI PUSH1 0x0 DUP1 REVERT JUMPDEST PUSH2 0x93D DUP3 PUSH2 0x906 JUMP JUMPDEST SWAP4 SWAP3 POP POP POP JUMP JUMPDEST PUSH1 0x0 DUP1 PUSH1 0x40 DUP4 DUP6 SUB SLT ISZERO PUSH2 0x957 JUMPI PUSH1 0x0 DUP1 REVERT JUMPDEST PUSH2 0x960 DUP4 PUSH2 0x906 JUMP JUMPDEST SWAP5 PUSH1 0x20 SWAP4 SWAP1 SWAP4 ADD CALLDATALOAD SWAP4 POP POP POP JUMP JUMPDEST PUSH1 0x0 DUP1 PUSH1 0x40 DUP4 DUP6 SUB SLT ISZERO PUSH2 0x981 JUMPI PUSH1 0x0 DUP1 REVERT JUMPDEST PUSH2 0x98A DUP4 PUSH2 0x906 JUMP JUMPDEST SWAP2 POP PUSH2 0x998 PUSH1 0x20 DUP5 ADD PUSH2 0x906 JUMP JUMPDEST SWAP1 POP SWAP3 POP SWAP3 SWAP1 POP JUMP JUMPDEST PUSH1 0x20 DUP1 DUP3 MSTORE PUSH1 0x2A SWAP1 DUP3 ADD MSTORE PUSH32 0x4E6578757345636F73797374656D4875623A2063616C6C6572206973206E6F74 PUSH1 0x40 DUP3 ADD MSTORE PUSH10 0x103A34329037BBB732B9 PUSH1 0xB1 SHL PUSH1 0x60 DUP3 ADD MSTORE PUSH1 0x80 ADD SWAP1 JUMP JUMPDEST PUSH1 0x0 DUP3 PUSH2 0xA08 JUMPI PUSH4 0x4E487B71 PUSH1 0xE0 SHL PUSH1 0x0 MSTORE PUSH1 0x12 PUSH1 0x4 MSTORE PUSH1 0x24 PUSH1 0x0 REVERT JUMPDEST POP DIV SWAP1 JUMP JUMPDEST DUP1 DUP3 ADD DUP1 DUP3 GT ISZERO PUSH2 0x76B JUMPI PUSH4 0x4E487B71 PUSH1 0xE0 SHL PUSH1 0x0 MSTORE PUSH1 0x11 PUSH1 0x4 MSTORE PUSH1 0x24 PUSH1 0x0 REVERT INVALID LOG2 PUSH5 0x6970667358 0x22 SLT KECCAK256 JUMPDEST SWAP14 0x26 SHL 0xC9 0xA5 ADDRESS 0x21 0xB0 MSIZE 0xDD 0xDD 0xA5 LOG3 BYTE 0xCE 0xCA 0xB3 0x5D 0xBF EXP ADDRESS 0x2C PUSH14 0x752D9B6A0EADBB4F64736F6C6343 STOP ADDMOD EQ STOP CALLER "},"methodIdentifiers":{"TIMELOCK_PERIOD()":"4a5bcbf8","addManager(address)":"2d06177a","authorizedManagers(address)":"0a3cb21b","baseExchangeRate()":"65676c9e","configureTokens(address,address)":"a7427346","dailyTransactionLimit()":"f9cc6901","dailyTransactionVolume(address)":"dda5f1ed","getExchangeRate()":"e6aa216c","getHederaService()":"580d164e","getPrimaryToken()":"a7758883","getReserveWallet()":"764aa9c4","getSecondaryToken()":"36fdced9","isActive()":"22f3e2d4","isManager(address)":"f3ae2415","isOwner(address)":"2f54bf6e","lastTransactionDay(address)":"af59c95f","maxTransactionLimit()":"676c8458","pauseSystem()":"dc1d4fb7","platformOwner()":"4df8ccb1","primaryTokenAddress()":"0700b95a","recordTransaction(address,uint256)":"17ca06ab","removeManager(address)":"ac18de43","reserveWallet()":"d72b11bd","resumeSystem()":"157c51d3","secondaryTokenAddress()":"96a36926","systemPaused()":"9d2f83f0","tokenExchangeRate()":"4172d080","transferOwnership(address)":"f2fde38b","validateTransactionLimits(address,uint256)":"cabf2038"}}}}}