{"contracts/CreatorTokenManager.sol":{"CreatorTokenManager":{"abi":[{"inputs":[{"internalType":"address","name":"_platformCore","type":"address"}],"stateMutability":"nonpayable","type":"constructor"},{"anonymous":false,"inputs":[{"indexed":true,"internalType":"address","name":"creator","type":"address"},{"indexed":true,"internalType":"address","name":"tokenContract","type":"address"},{"indexed":false,"internalType":"uint256","name":"totalSupply","type":"uint256"},{"indexed":false,"internalType":"uint256","name":"tokenPrice","type":"uint256"}],"name":"CreatorTokenDeployed","type":"event"},{"anonymous":false,"inputs":[{"indexed":true,"internalType":"address","name":"buyer","type":"address"},{"indexed":true,"internalType":"address","name":"creator","type":"address"},{"indexed":false,"internalType":"uint256","name":"baseTokenSpent","type":"uint256"},{"indexed":false,"internalType":"uint256","name":"tokensReceived","type":"uint256"}],"name":"CreatorTokenPurchased","type":"event"},{"inputs":[],"name":"CREATOR_FEE_BPS","outputs":[{"internalType":"uint256","name":"","type":"uint256"}],"stateMutability":"view","type":"function"},{"inputs":[{"internalType":"address","name":"creator","type":"address"},{"internalType":"uint256","name":"baseTokenAmount","type":"uint256"}],"name":"buyCreatorToken","outputs":[{"internalType":"uint256","name":"","type":"uint256"}],"stateMutability":"nonpayable","type":"function"},{"inputs":[{"internalType":"address","name":"tokenContract","type":"address"},{"internalType":"uint256","name":"totalSupply","type":"uint256"},{"internalType":"uint256","name":"tokenPrice","type":"uint256"}],"name":"deployCreatorToken","outputs":[],"stateMutability":"nonpayable","type":"function"},{"inputs":[{"internalType":"address","name":"creator","type":"address"}],"name":"getCreatorTokenContract","outputs":[{"internalType":"address","name":"","type":"address"}],"stateMutability":"view","type":"function"},{"inputs":[{"internalType":"address","name":"creator","type":"address"}],"name":"getCreatorTokenInfo","outputs":[{"internalType":"address","name":"","type":"address"},{"internalType":"uint256","name":"","type":"uint256"},{"internalType":"uint256","name":"","type":"uint256"},{"internalType":"uint256","name":"","type":"uint256"}],"stateMutability":"view","type":"function"},{"inputs":[],"name":"platformCore","outputs":[{"internalType":"contract IQuantumPlatformCore","name":"","type":"address"}],"stateMutability":"view","type":"function"}],"evm":{"bytecode":{"linkReferences":{},"object":"608060405234801561001057600080fd5b5060405161105338038061105383398101604081905261002f916100c9565b6001600160a01b0381166100a45760405162461bcd60e51b815260206004820152603260248201527f43726561746f72546f6b656e4d616e616765723a20706c6174666f726d20636f60448201527172652061646472657373206973207a65726f60701b606482015260840160405180910390fd5b600080546001600160a01b0319166001600160a01b03929092169190911790556100f9565b6000602082840312156100db57600080fd5b81516001600160a01b03811681146100f257600080fd5b9392505050565b610f4b806101086000396000f3fe608060405234801561001057600080fd5b50600436106100625760003560e01c806337f0eaa414610067578063a018a578146100a9578063a2ea2a6b146100ca578063bfa5020c1461010e578063cc3cbd2a14610121578063d5c2bf1b1461012a575b600080fd5b61007a610075366004610d0e565b61013f565b604080516001600160a01b03909516855260208501939093529183015260608201526080015b60405180910390f35b6100bc6100b7366004610d32565b6101c5565b6040519081526020016100a0565b6100f66100d8366004610d0e565b6001600160a01b039081166000908152600160205260409020541690565b6040516001600160a01b0390911681526020016100a0565b6000546100f6906001600160a01b031681565b6100bc6101f481565b61013d610138366004610d5e565b610a4e565b005b6001600160a01b0380821660009081526001602052604081205490918291829182918691166101895760405162461bcd60e51b815260040161018090610d93565b60405180910390fd5b505050506001600160a01b0391821660009081526002602081905260409091208054600182015492820154600390920154941694919390925090565b60008060009054906101000a90046001600160a01b03166001600160a01b031663351662266040518163ffffffff1660e01b8152600401602060405180830381865afa158015610219573d6000803e3d6000fd5b505050506040513d601f19601f8201168201806040525081019061023d9190610ddf565b6102595760405162461bcd60e51b815260040161018090610e01565b6001600160a01b038084166000908152600160205260409020548491166102925760405162461bcd60e51b815260040161018090610d93565b600083116103005760405162461bcd60e51b815260206004820152603560248201527f43726561746f72546f6b656e4d616e616765723a20616d6f756e74206d7573746044820152742062652067726561746572207468616e207a65726f60581b6064820152608401610180565b600054604051621e1d0560e61b8152336004820152602481018590526001600160a01b03909116906307874140906044016020604051808303816000875af1158015610350573d6000803e3d6000fd5b505050506040513d601f19601f820116820180604052508101906103749190610ddf565b6103d85760405162461bcd60e51b815260206004820152602f60248201527f43726561746f72546f6b656e4d616e616765723a20657863656564732074726160448201526e6e73616374696f6e206c696d69747360881b6064820152608401610180565b600054604051634d218dd160e01b8152336004820152602481018590526001600160a01b0390911690634d218dd190604401600060405180830381600087803b15801561042457600080fd5b505af1158015610438573d6000803e3d6000fd5b5050506001600160a01b038516600090815260026020819052604082209081015490925061046986620f4240610e60565b6104739190610e7d565b9050600081116104d35760405162461bcd60e51b815260206004820152602560248201527f43726561746f72546f6b656e4d616e616765723a20616d6f756e7420746f6f206044820152641cdb585b1b60da1b6064820152608401610180565b60006127106104e46101f488610e60565b6104ee9190610e7d565b905060006104fc8288610e9f565b905060008060009054906101000a90046001600160a01b03166001600160a01b03166379137f9d6040518163ffffffff1660e01b8152600401602060405180830381865afa158015610552573d6000803e3d6000fd5b505050506040513d601f19601f820116820180604052508101906105769190610eb2565b905060008060009054906101000a90046001600160a01b03166001600160a01b03166398acd7a66040518163ffffffff1660e01b8152600401602060405180830381865afa1580156105cc573d6000803e3d6000fd5b505050506040513d601f19601f820116820180604052508101906105f09190610eb2565b905060008060009054906101000a90046001600160a01b03166001600160a01b0316632c035b746040518163ffffffff1660e01b8152600401602060405180830381865afa158015610646573d6000803e3d6000fd5b505050506040513d601f19601f8201168201806040525081019061066a9190610eb2565b90506000836001600160a01b031663eca369178433308f6040518563ffffffff1660e01b81526004016106a09493929190610ecf565b6020604051808303816000875af11580156106bf573d6000803e3d6000fd5b505050506040513d601f19601f820116820180604052508101906106e39190610efc565b90506016811461074d5760405162461bcd60e51b815260206004820152602f60248201527f43726561746f72546f6b656e4d616e616765723a206261736520746f6b656e2060448201526e1d1c985b9cd9995c8819985a5b1959608a1b6064820152608401610180565b836001600160a01b031663eca3691784308f896040518563ffffffff1660e01b815260040161077f9493929190610ecf565b6020604051808303816000875af115801561079e573d6000803e3d6000fd5b505050506040513d601f19601f820116820180604052508101906107c29190610efc565b9050601681146108285760405162461bcd60e51b815260206004820152602b60248201527f43726561746f72546f6b656e4d616e616765723a2063726561746f722070617960448201526a1b595b9d0819985a5b195960aa1b6064820152608401610180565b60405163eca3691760e01b81526001600160a01b0385169063eca369179061085a908690309087908c90600401610ecf565b6020604051808303816000875af1158015610879573d6000803e3d6000fd5b505050506040513d601f19601f8201168201806040525081019061089d9190610efc565b9050601681146108ff5760405162461bcd60e51b815260206004820152602760248201527f43726561746f72546f6b656e4d616e616765723a20666565207061796d656e746044820152660819985a5b195960ca1b6064820152608401610180565b836001600160a01b031663eca369178960000160009054906101000a90046001600160a01b03168e338b6040518563ffffffff1660e01b81526004016109489493929190610ecf565b6020604051808303816000875af1158015610967573d6000803e3d6000fd5b505050506040513d601f19601f8201168201806040525081019061098b9190610efc565b9050601681146109f85760405162461bcd60e51b815260206004820152603260248201527f43726561746f72546f6b656e4d616e616765723a2063726561746f7220746f6b604482015271195b881d1c985b9cd9995c8819985a5b195960721b6064820152608401610180565b604080518c8152602081018990526001600160a01b038e169133917f7dc2311af61314f8790a9578d6c48fdb6c5586966980e72cca7438adf62b2531910160405180910390a350949a9950505050505050505050565b60008054906101000a90046001600160a01b03166001600160a01b031663351662266040518163ffffffff1660e01b8152600401602060405180830381865afa158015610a9f573d6000803e3d6000fd5b505050506040513d601f19601f82011682018060405250810190610ac39190610ddf565b610adf5760405162461bcd60e51b815260040161018090610e01565b6001600160a01b038316610b495760405162461bcd60e51b815260206004820152602b60248201527f43726561746f72546f6b656e4d616e616765723a20696e76616c696420746f6b60448201526a195b8818dbdb9d1c9858dd60aa1b6064820152608401610180565b336000908152600160205260409020546001600160a01b031615610bc65760405162461bcd60e51b815260206004820152602e60248201527f43726561746f72546f6b656e4d616e616765723a2063726561746f7220616c7260448201526d32b0b23c903430b9903a37b5b2b760911b6064820152608401610180565b600082118015610bd65750600081115b610c325760405162461bcd60e51b815260206004820152602760248201527f43726561746f72546f6b656e4d616e616765723a20696e76616c696420706172604482015266616d657465727360c81b6064820152608401610180565b33600081815260016020818152604080842080546001600160a01b038a81166001600160a01b0319928316811790935583516080810185528381528086018b81528186018b815242606084019081528b8b526002808a529a8890209351845495169490951693909317825551968101969096555195850195909555935160039093019290925581518681529081018590529192917fd9e012f902138af3abd104bd4f4bf48ec89a4976860b67ec6656e6e14cd5c1e2910160405180910390a3505050565b6001600160a01b0381168114610d0b57600080fd5b50565b600060208284031215610d2057600080fd5b8135610d2b81610cf6565b9392505050565b60008060408385031215610d4557600080fd5b8235610d5081610cf6565b946020939093013593505050565b600080600060608486031215610d7357600080fd5b8335610d7e81610cf6565b95602085013595506040909401359392505050565b6020808252602c908201527f43726561746f72546f6b656e4d616e616765723a2063726561746f7220746f6b60408201526b195b881b9bdd08199bdd5b9960a21b606082015260800190565b600060208284031215610df157600080fd5b81518015158114610d2b57600080fd5b60208082526029908201527f43726561746f72546f6b656e4d616e616765723a2073797374656d206973206e6040820152686f742061637469766560b81b606082015260800190565b634e487b7160e01b600052601160045260246000fd5b8082028115828204841417610e7757610e77610e4a565b92915050565b600082610e9a57634e487b7160e01b600052601260045260246000fd5b500490565b81810381811115610e7757610e77610e4a565b600060208284031215610ec457600080fd5b8151610d2b81610cf6565b6001600160a01b03948516815292841660208401529216604082015260079190910b606082015260800190565b600060208284031215610f0e57600080fd5b505191905056fea2646970667358221220e63ed6324b90e98e03f43abb74206a2874f75c2f1326831a95e55f03f173dc1664736f6c63430008140033","opcodes":"PUSH1 0x80 PUSH1 0x40 MSTORE CALLVALUE DUP1 ISZERO PUSH2 0x10 JUMPI PUSH1 0x0 DUP1 REVERT JUMPDEST POP PUSH1 0x40 MLOAD PUSH2 0x1053 CODESIZE SUB DUP1 PUSH2 0x1053 DUP4 CODECOPY DUP2 ADD PUSH1 0x40 DUP2 SWAP1 MSTORE PUSH2 0x2F SWAP2 PUSH2 0xC9 JUMP JUMPDEST PUSH1 0x1 PUSH1 0x1 PUSH1 0xA0 SHL SUB DUP2 AND PUSH2 0xA4 JUMPI PUSH1 0x40 MLOAD PUSH3 0x461BCD PUSH1 0xE5 SHL DUP2 MSTORE PUSH1 0x20 PUSH1 0x4 DUP3 ADD MSTORE PUSH1 0x32 PUSH1 0x24 DUP3 ADD MSTORE PUSH32 0x43726561746F72546F6B656E4D616E616765723A20706C6174666F726D20636F PUSH1 0x44 DUP3 ADD MSTORE PUSH18 0x72652061646472657373206973207A65726F PUSH1 0x70 SHL PUSH1 0x64 DUP3 ADD MSTORE PUSH1 0x84 ADD PUSH1 0x40 MLOAD DUP1 SWAP2 SUB SWAP1 REVERT JUMPDEST PUSH1 0x0 DUP1 SLOAD PUSH1 0x1 PUSH1 0x1 PUSH1 0xA0 SHL SUB NOT AND PUSH1 0x1 PUSH1 0x1 PUSH1 0xA0 SHL SUB SWAP3 SWAP1 SWAP3 AND SWAP2 SWAP1 SWAP2 OR SWAP1 SSTORE PUSH2 0xF9 JUMP JUMPDEST PUSH1 0x0 PUSH1 0x20 DUP3 DUP5 SUB SLT ISZERO PUSH2 0xDB JUMPI PUSH1 0x0 DUP1 REVERT JUMPDEST DUP2 MLOAD PUSH1 0x1 PUSH1 0x1 PUSH1 0xA0 SHL SUB DUP2 AND DUP2 EQ PUSH2 0xF2 JUMPI PUSH1 0x0 DUP1 REVERT JUMPDEST SWAP4 SWAP3 POP POP POP JUMP JUMPDEST PUSH2 0xF4B DUP1 PUSH2 0x108 PUSH1 0x0 CODECOPY PUSH1 0x0 RETURN INVALID PUSH1 0x80 PUSH1 0x40 MSTORE CALLVALUE DUP1 ISZERO PUSH2 0x10 JUMPI PUSH1 0x0 DUP1 REVERT JUMPDEST POP PUSH1 0x4 CALLDATASIZE LT PUSH2 0x62 JUMPI PUSH1 0x0 CALLDATALOAD PUSH1 0xE0 SHR DUP1 PUSH4 0x37F0EAA4 EQ PUSH2 0x67 JUMPI DUP1 PUSH4 0xA018A578 EQ PUSH2 0xA9 JUMPI DUP1 PUSH4 0xA2EA2A6B EQ PUSH2 0xCA JUMPI DUP1 PUSH4 0xBFA5020C EQ PUSH2 0x10E JUMPI DUP1 PUSH4 0xCC3CBD2A EQ PUSH2 0x121 JUMPI DUP1 PUSH4 0xD5C2BF1B EQ PUSH2 0x12A JUMPI JUMPDEST PUSH1 0x0 DUP1 REVERT JUMPDEST PUSH2 0x7A PUSH2 0x75 CALLDATASIZE PUSH1 0x4 PUSH2 0xD0E JUMP JUMPDEST PUSH2 0x13F JUMP JUMPDEST PUSH1 0x40 DUP1 MLOAD PUSH1 0x1 PUSH1 0x1 PUSH1 0xA0 SHL SUB SWAP1 SWAP6 AND DUP6 MSTORE PUSH1 0x20 DUP6 ADD SWAP4 SWAP1 SWAP4 MSTORE SWAP2 DUP4 ADD MSTORE PUSH1 0x60 DUP3 ADD MSTORE PUSH1 0x80 ADD JUMPDEST PUSH1 0x40 MLOAD DUP1 SWAP2 SUB SWAP1 RETURN JUMPDEST PUSH2 0xBC PUSH2 0xB7 CALLDATASIZE PUSH1 0x4 PUSH2 0xD32 JUMP JUMPDEST PUSH2 0x1C5 JUMP JUMPDEST PUSH1 0x40 MLOAD SWAP1 DUP2 MSTORE PUSH1 0x20 ADD PUSH2 0xA0 JUMP JUMPDEST PUSH2 0xF6 PUSH2 0xD8 CALLDATASIZE PUSH1 0x4 PUSH2 0xD0E JUMP JUMPDEST PUSH1 0x1 PUSH1 0x1 PUSH1 0xA0 SHL SUB SWAP1 DUP2 AND PUSH1 0x0 SWAP1 DUP2 MSTORE PUSH1 0x1 PUSH1 0x20 MSTORE PUSH1 0x40 SWAP1 KECCAK256 SLOAD AND SWAP1 JUMP JUMPDEST PUSH1 0x40 MLOAD PUSH1 0x1 PUSH1 0x1 PUSH1 0xA0 SHL SUB SWAP1 SWAP2 AND DUP2 MSTORE PUSH1 0x20 ADD PUSH2 0xA0 JUMP JUMPDEST PUSH1 0x0 SLOAD PUSH2 0xF6 SWAP1 PUSH1 0x1 PUSH1 0x1 PUSH1 0xA0 SHL SUB AND DUP2 JUMP JUMPDEST PUSH2 0xBC PUSH2 0x1F4 DUP2 JUMP JUMPDEST PUSH2 0x13D PUSH2 0x138 CALLDATASIZE PUSH1 0x4 PUSH2 0xD5E JUMP JUMPDEST PUSH2 0xA4E JUMP JUMPDEST STOP JUMPDEST PUSH1 0x1 PUSH1 0x1 PUSH1 0xA0 SHL SUB DUP1 DUP3 AND PUSH1 0x0 SWAP1 DUP2 MSTORE PUSH1 0x1 PUSH1 0x20 MSTORE PUSH1 0x40 DUP2 KECCAK256 SLOAD SWAP1 SWAP2 DUP3 SWAP2 DUP3 SWAP2 DUP3 SWAP2 DUP7 SWAP2 AND PUSH2 0x189 JUMPI PUSH1 0x40 MLOAD PUSH3 0x461BCD PUSH1 0xE5 SHL DUP2 MSTORE PUSH1 0x4 ADD PUSH2 0x180 SWAP1 PUSH2 0xD93 JUMP JUMPDEST PUSH1 0x40 MLOAD DUP1 SWAP2 SUB SWAP1 REVERT JUMPDEST POP POP POP POP PUSH1 0x1 PUSH1 0x1 PUSH1 0xA0 SHL SUB SWAP2 DUP3 AND PUSH1 0x0 SWAP1 DUP2 MSTORE PUSH1 0x2 PUSH1 0x20 DUP2 SWAP1 MSTORE PUSH1 0x40 SWAP1 SWAP2 KECCAK256 DUP1 SLOAD PUSH1 0x1 DUP3 ADD SLOAD SWAP3 DUP3 ADD SLOAD PUSH1 0x3 SWAP1 SWAP3 ADD SLOAD SWAP5 AND SWAP5 SWAP2 SWAP4 SWAP1 SWAP3 POP SWAP1 JUMP JUMPDEST PUSH1 0x0 DUP1 PUSH1 0x0 SWAP1 SLOAD SWAP1 PUSH2 0x100 EXP SWAP1 DIV PUSH1 0x1 PUSH1 0x1 PUSH1 0xA0 SHL SUB AND PUSH1 0x1 PUSH1 0x1 PUSH1 0xA0 SHL SUB AND PUSH4 0x35166226 PUSH1 0x40 MLOAD DUP2 PUSH4 0xFFFFFFFF AND PUSH1 0xE0 SHL DUP2 MSTORE PUSH1 0x4 ADD PUSH1 0x20 PUSH1 0x40 MLOAD DUP1 DUP4 SUB DUP2 DUP7 GAS STATICCALL ISZERO DUP1 ISZERO PUSH2 0x219 JUMPI RETURNDATASIZE PUSH1 0x0 DUP1 RETURNDATACOPY RETURNDATASIZE PUSH1 0x0 REVERT JUMPDEST POP POP POP POP PUSH1 0x40 MLOAD RETURNDATASIZE PUSH1 0x1F NOT PUSH1 0x1F DUP3 ADD AND DUP3 ADD DUP1 PUSH1 0x40 MSTORE POP DUP2 ADD SWAP1 PUSH2 0x23D SWAP2 SWAP1 PUSH2 0xDDF JUMP JUMPDEST PUSH2 0x259 JUMPI PUSH1 0x40 MLOAD PUSH3 0x461BCD PUSH1 0xE5 SHL DUP2 MSTORE PUSH1 0x4 ADD PUSH2 0x180 SWAP1 PUSH2 0xE01 JUMP JUMPDEST PUSH1 0x1 PUSH1 0x1 PUSH1 0xA0 SHL SUB DUP1 DUP5 AND PUSH1 0x0 SWAP1 DUP2 MSTORE PUSH1 0x1 PUSH1 0x20 MSTORE PUSH1 0x40 SWAP1 KECCAK256 SLOAD DUP5 SWAP2 AND PUSH2 0x292 JUMPI PUSH1 0x40 MLOAD PUSH3 0x461BCD PUSH1 0xE5 SHL DUP2 MSTORE PUSH1 0x4 ADD PUSH2 0x180 SWAP1 PUSH2 0xD93 JUMP JUMPDEST PUSH1 0x0 DUP4 GT PUSH2 0x300 JUMPI PUSH1 0x40 MLOAD PUSH3 0x461BCD PUSH1 0xE5 SHL DUP2 MSTORE PUSH1 0x20 PUSH1 0x4 DUP3 ADD MSTORE PUSH1 0x35 PUSH1 0x24 DUP3 ADD MSTORE PUSH32 0x43726561746F72546F6B656E4D616E616765723A20616D6F756E74206D757374 PUSH1 0x44 DUP3 ADD MSTORE PUSH21 0x2062652067726561746572207468616E207A65726F PUSH1 0x58 SHL PUSH1 0x64 DUP3 ADD MSTORE PUSH1 0x84 ADD PUSH2 0x180 JUMP JUMPDEST PUSH1 0x0 SLOAD PUSH1 0x40 MLOAD PUSH3 0x1E1D05 PUSH1 0xE6 SHL DUP2 MSTORE CALLER PUSH1 0x4 DUP3 ADD MSTORE PUSH1 0x24 DUP2 ADD DUP6 SWAP1 MSTORE PUSH1 0x1 PUSH1 0x1 PUSH1 0xA0 SHL SUB SWAP1 SWAP2 AND SWAP1 PUSH4 0x7874140 SWAP1 PUSH1 0x44 ADD PUSH1 0x20 PUSH1 0x40 MLOAD DUP1 DUP4 SUB DUP2 PUSH1 0x0 DUP8 GAS CALL ISZERO DUP1 ISZERO PUSH2 0x350 JUMPI RETURNDATASIZE PUSH1 0x0 DUP1 RETURNDATACOPY RETURNDATASIZE PUSH1 0x0 REVERT JUMPDEST POP POP POP POP PUSH1 0x40 MLOAD RETURNDATASIZE PUSH1 0x1F NOT PUSH1 0x1F DUP3 ADD AND DUP3 ADD DUP1 PUSH1 0x40 MSTORE POP DUP2 ADD SWAP1 PUSH2 0x374 SWAP2 SWAP1 PUSH2 0xDDF JUMP JUMPDEST PUSH2 0x3D8 JUMPI PUSH1 0x40 MLOAD PUSH3 0x461BCD PUSH1 0xE5 SHL DUP2 MSTORE PUSH1 0x20 PUSH1 0x4 DUP3 ADD MSTORE PUSH1 0x2F PUSH1 0x24 DUP3 ADD MSTORE PUSH32 0x43726561746F72546F6B656E4D616E616765723A206578636565647320747261 PUSH1 0x44 DUP3 ADD MSTORE PUSH15 0x6E73616374696F6E206C696D697473 PUSH1 0x88 SHL PUSH1 0x64 DUP3 ADD MSTORE PUSH1 0x84 ADD PUSH2 0x180 JUMP JUMPDEST PUSH1 0x0 SLOAD PUSH1 0x40 MLOAD PUSH4 0x4D218DD1 PUSH1 0xE0 SHL DUP2 MSTORE CALLER PUSH1 0x4 DUP3 ADD MSTORE PUSH1 0x24 DUP2 ADD DUP6 SWAP1 MSTORE PUSH1 0x1 PUSH1 0x1 PUSH1 0xA0 SHL SUB SWAP1 SWAP2 AND SWAP1 PUSH4 0x4D218DD1 SWAP1 PUSH1 0x44 ADD PUSH1 0x0 PUSH1 0x40 MLOAD DUP1 DUP4 SUB DUP2 PUSH1 0x0 DUP8 DUP1 EXTCODESIZE ISZERO DUP1 ISZERO PUSH2 0x424 JUMPI PUSH1 0x0 DUP1 REVERT JUMPDEST POP GAS CALL ISZERO DUP1 ISZERO PUSH2 0x438 JUMPI RETURNDATASIZE PUSH1 0x0 DUP1 RETURNDATACOPY RETURNDATASIZE PUSH1 0x0 REVERT JUMPDEST POP POP POP PUSH1 0x1 PUSH1 0x1 PUSH1 0xA0 SHL SUB DUP6 AND PUSH1 0x0 SWAP1 DUP2 MSTORE PUSH1 0x2 PUSH1 0x20 DUP2 SWAP1 MSTORE PUSH1 0x40 DUP3 KECCAK256 SWAP1 DUP2 ADD SLOAD SWAP1 SWAP3 POP PUSH2 0x469 DUP7 PUSH3 0xF4240 PUSH2 0xE60 JUMP JUMPDEST PUSH2 0x473 SWAP2 SWAP1 PUSH2 0xE7D JUMP JUMPDEST SWAP1 POP PUSH1 0x0 DUP2 GT PUSH2 0x4D3 JUMPI PUSH1 0x40 MLOAD PUSH3 0x461BCD PUSH1 0xE5 SHL DUP2 MSTORE PUSH1 0x20 PUSH1 0x4 DUP3 ADD MSTORE PUSH1 0x25 PUSH1 0x24 DUP3 ADD MSTORE PUSH32 0x43726561746F72546F6B656E4D616E616765723A20616D6F756E7420746F6F20 PUSH1 0x44 DUP3 ADD MSTORE PUSH5 0x1CDB585B1B PUSH1 0xDA SHL PUSH1 0x64 DUP3 ADD MSTORE PUSH1 0x84 ADD PUSH2 0x180 JUMP JUMPDEST PUSH1 0x0 PUSH2 0x2710 PUSH2 0x4E4 PUSH2 0x1F4 DUP9 PUSH2 0xE60 JUMP JUMPDEST PUSH2 0x4EE SWAP2 SWAP1 PUSH2 0xE7D JUMP JUMPDEST SWAP1 POP PUSH1 0x0 PUSH2 0x4FC DUP3 DUP9 PUSH2 0xE9F JUMP JUMPDEST SWAP1 POP PUSH1 0x0 DUP1 PUSH1 0x0 SWAP1 SLOAD SWAP1 PUSH2 0x100 EXP SWAP1 DIV PUSH1 0x1 PUSH1 0x1 PUSH1 0xA0 SHL SUB AND PUSH1 0x1 PUSH1 0x1 PUSH1 0xA0 SHL SUB AND PUSH4 0x79137F9D PUSH1 0x40 MLOAD DUP2 PUSH4 0xFFFFFFFF AND PUSH1 0xE0 SHL DUP2 MSTORE PUSH1 0x4 ADD PUSH1 0x20 PUSH1 0x40 MLOAD DUP1 DUP4 SUB DUP2 DUP7 GAS STATICCALL ISZERO DUP1 ISZERO PUSH2 0x552 JUMPI RETURNDATASIZE PUSH1 0x0 DUP1 RETURNDATACOPY RETURNDATASIZE PUSH1 0x0 REVERT JUMPDEST POP POP POP POP PUSH1 0x40 MLOAD RETURNDATASIZE PUSH1 0x1F NOT PUSH1 0x1F DUP3 ADD AND DUP3 ADD DUP1 PUSH1 0x40 MSTORE POP DUP2 ADD SWAP1 PUSH2 0x576 SWAP2 SWAP1 PUSH2 0xEB2 JUMP JUMPDEST SWAP1 POP PUSH1 0x0 DUP1 PUSH1 0x0 SWAP1 SLOAD SWAP1 PUSH2 0x100 EXP SWAP1 DIV PUSH1 0x1 PUSH1 0x1 PUSH1 0xA0 SHL SUB AND PUSH1 0x1 PUSH1 0x1 PUSH1 0xA0 SHL SUB AND PUSH4 0x98ACD7A6 PUSH1 0x40 MLOAD DUP2 PUSH4 0xFFFFFFFF AND PUSH1 0xE0 SHL DUP2 MSTORE PUSH1 0x4 ADD PUSH1 0x20 PUSH1 0x40 MLOAD DUP1 DUP4 SUB DUP2 DUP7 GAS STATICCALL ISZERO DUP1 ISZERO PUSH2 0x5CC JUMPI RETURNDATASIZE PUSH1 0x0 DUP1 RETURNDATACOPY RETURNDATASIZE PUSH1 0x0 REVERT JUMPDEST POP POP POP POP PUSH1 0x40 MLOAD RETURNDATASIZE PUSH1 0x1F NOT PUSH1 0x1F DUP3 ADD AND DUP3 ADD DUP1 PUSH1 0x40 MSTORE POP DUP2 ADD SWAP1 PUSH2 0x5F0 SWAP2 SWAP1 PUSH2 0xEB2 JUMP JUMPDEST SWAP1 POP PUSH1 0x0 DUP1 PUSH1 0x0 SWAP1 SLOAD SWAP1 PUSH2 0x100 EXP SWAP1 DIV PUSH1 0x1 PUSH1 0x1 PUSH1 0xA0 SHL SUB AND PUSH1 0x1 PUSH1 0x1 PUSH1 0xA0 SHL SUB AND PUSH4 0x2C035B74 PUSH1 0x40 MLOAD DUP2 PUSH4 0xFFFFFFFF AND PUSH1 0xE0 SHL DUP2 MSTORE PUSH1 0x4 ADD PUSH1 0x20 PUSH1 0x40 MLOAD DUP1 DUP4 SUB DUP2 DUP7 GAS STATICCALL ISZERO DUP1 ISZERO PUSH2 0x646 JUMPI RETURNDATASIZE PUSH1 0x0 DUP1 RETURNDATACOPY RETURNDATASIZE PUSH1 0x0 REVERT JUMPDEST POP POP POP POP PUSH1 0x40 MLOAD RETURNDATASIZE PUSH1 0x1F NOT PUSH1 0x1F DUP3 ADD AND DUP3 ADD DUP1 PUSH1 0x40 MSTORE POP DUP2 ADD SWAP1 PUSH2 0x66A SWAP2 SWAP1 PUSH2 0xEB2 JUMP JUMPDEST SWAP1 POP PUSH1 0x0 DUP4 PUSH1 0x1 PUSH1 0x1 PUSH1 0xA0 SHL SUB AND PUSH4 0xECA36917 DUP5 CALLER ADDRESS DUP16 PUSH1 0x40 MLOAD DUP6 PUSH4 0xFFFFFFFF AND PUSH1 0xE0 SHL DUP2 MSTORE PUSH1 0x4 ADD PUSH2 0x6A0 SWAP5 SWAP4 SWAP3 SWAP2 SWAP1 PUSH2 0xECF JUMP JUMPDEST PUSH1 0x20 PUSH1 0x40 MLOAD DUP1 DUP4 SUB DUP2 PUSH1 0x0 DUP8 GAS CALL ISZERO DUP1 ISZERO PUSH2 0x6BF JUMPI RETURNDATASIZE PUSH1 0x0 DUP1 RETURNDATACOPY RETURNDATASIZE PUSH1 0x0 REVERT JUMPDEST POP POP POP POP PUSH1 0x40 MLOAD RETURNDATASIZE PUSH1 0x1F NOT PUSH1 0x1F DUP3 ADD AND DUP3 ADD DUP1 PUSH1 0x40 MSTORE POP DUP2 ADD SWAP1 PUSH2 0x6E3 SWAP2 SWAP1 PUSH2 0xEFC JUMP JUMPDEST SWAP1 POP PUSH1 0x16 DUP2 EQ PUSH2 0x74D JUMPI PUSH1 0x40 MLOAD PUSH3 0x461BCD PUSH1 0xE5 SHL DUP2 MSTORE PUSH1 0x20 PUSH1 0x4 DUP3 ADD MSTORE PUSH1 0x2F PUSH1 0x24 DUP3 ADD MSTORE PUSH32 0x43726561746F72546F6B656E4D616E616765723A206261736520746F6B656E20 PUSH1 0x44 DUP3 ADD MSTORE PUSH15 0x1D1C985B9CD9995C8819985A5B1959 PUSH1 0x8A SHL PUSH1 0x64 DUP3 ADD MSTORE PUSH1 0x84 ADD PUSH2 0x180 JUMP JUMPDEST DUP4 PUSH1 0x1 PUSH1 0x1 PUSH1 0xA0 SHL SUB AND PUSH4 0xECA36917 DUP5 ADDRESS DUP16 DUP10 PUSH1 0x40 MLOAD DUP6 PUSH4 0xFFFFFFFF AND PUSH1 0xE0 SHL DUP2 MSTORE PUSH1 0x4 ADD PUSH2 0x77F SWAP5 SWAP4 SWAP3 SWAP2 SWAP1 PUSH2 0xECF JUMP JUMPDEST PUSH1 0x20 PUSH1 0x40 MLOAD DUP1 DUP4 SUB DUP2 PUSH1 0x0 DUP8 GAS CALL ISZERO DUP1 ISZERO PUSH2 0x79E JUMPI RETURNDATASIZE PUSH1 0x0 DUP1 RETURNDATACOPY RETURNDATASIZE PUSH1 0x0 REVERT JUMPDEST POP POP POP POP PUSH1 0x40 MLOAD RETURNDATASIZE PUSH1 0x1F NOT PUSH1 0x1F DUP3 ADD AND DUP3 ADD DUP1 PUSH1 0x40 MSTORE POP DUP2 ADD SWAP1 PUSH2 0x7C2 SWAP2 SWAP1 PUSH2 0xEFC JUMP JUMPDEST SWAP1 POP PUSH1 0x16 DUP2 EQ PUSH2 0x828 JUMPI PUSH1 0x40 MLOAD PUSH3 0x461BCD PUSH1 0xE5 SHL DUP2 MSTORE PUSH1 0x20 PUSH1 0x4 DUP3 ADD MSTORE PUSH1 0x2B PUSH1 0x24 DUP3 ADD MSTORE PUSH32 0x43726561746F72546F6B656E4D616E616765723A2063726561746F7220706179 PUSH1 0x44 DUP3 ADD MSTORE PUSH11 0x1B595B9D0819985A5B1959 PUSH1 0xAA SHL PUSH1 0x64 DUP3 ADD MSTORE PUSH1 0x84 ADD PUSH2 0x180 JUMP JUMPDEST PUSH1 0x40 MLOAD PUSH4 0xECA36917 PUSH1 0xE0 SHL DUP2 MSTORE PUSH1 0x1 PUSH1 0x1 PUSH1 0xA0 SHL SUB DUP6 AND SWAP1 PUSH4 0xECA36917 SWAP1 PUSH2 0x85A SWAP1 DUP7 SWAP1 ADDRESS SWAP1 DUP8 SWAP1 DUP13 SWAP1 PUSH1 0x4 ADD PUSH2 0xECF JUMP JUMPDEST PUSH1 0x20 PUSH1 0x40 MLOAD DUP1 DUP4 SUB DUP2 PUSH1 0x0 DUP8 GAS CALL ISZERO DUP1 ISZERO PUSH2 0x879 JUMPI RETURNDATASIZE PUSH1 0x0 DUP1 RETURNDATACOPY RETURNDATASIZE PUSH1 0x0 REVERT JUMPDEST POP POP POP POP PUSH1 0x40 MLOAD RETURNDATASIZE PUSH1 0x1F NOT PUSH1 0x1F DUP3 ADD AND DUP3 ADD DUP1 PUSH1 0x40 MSTORE POP DUP2 ADD SWAP1 PUSH2 0x89D SWAP2 SWAP1 PUSH2 0xEFC JUMP JUMPDEST SWAP1 POP PUSH1 0x16 DUP2 EQ PUSH2 0x8FF JUMPI PUSH1 0x40 MLOAD PUSH3 0x461BCD PUSH1 0xE5 SHL DUP2 MSTORE PUSH1 0x20 PUSH1 0x4 DUP3 ADD MSTORE PUSH1 0x27 PUSH1 0x24 DUP3 ADD MSTORE PUSH32 0x43726561746F72546F6B656E4D616E616765723A20666565207061796D656E74 PUSH1 0x44 DUP3 ADD MSTORE PUSH7 0x819985A5B1959 PUSH1 0xCA SHL PUSH1 0x64 DUP3 ADD MSTORE PUSH1 0x84 ADD PUSH2 0x180 JUMP JUMPDEST DUP4 PUSH1 0x1 PUSH1 0x1 PUSH1 0xA0 SHL SUB AND PUSH4 0xECA36917 DUP10 PUSH1 0x0 ADD PUSH1 0x0 SWAP1 SLOAD SWAP1 PUSH2 0x100 EXP SWAP1 DIV PUSH1 0x1 PUSH1 0x1 PUSH1 0xA0 SHL SUB AND DUP15 CALLER DUP12 PUSH1 0x40 MLOAD DUP6 PUSH4 0xFFFFFFFF AND PUSH1 0xE0 SHL DUP2 MSTORE PUSH1 0x4 ADD PUSH2 0x948 SWAP5 SWAP4 SWAP3 SWAP2 SWAP1 PUSH2 0xECF JUMP JUMPDEST PUSH1 0x20 PUSH1 0x40 MLOAD DUP1 DUP4 SUB DUP2 PUSH1 0x0 DUP8 GAS CALL ISZERO DUP1 ISZERO PUSH2 0x967 JUMPI RETURNDATASIZE PUSH1 0x0 DUP1 RETURNDATACOPY RETURNDATASIZE PUSH1 0x0 REVERT JUMPDEST POP POP POP POP PUSH1 0x40 MLOAD RETURNDATASIZE PUSH1 0x1F NOT PUSH1 0x1F DUP3 ADD AND DUP3 ADD DUP1 PUSH1 0x40 MSTORE POP DUP2 ADD SWAP1 PUSH2 0x98B SWAP2 SWAP1 PUSH2 0xEFC JUMP JUMPDEST SWAP1 POP PUSH1 0x16 DUP2 EQ PUSH2 0x9F8 JUMPI PUSH1 0x40 MLOAD PUSH3 0x461BCD PUSH1 0xE5 SHL DUP2 MSTORE PUSH1 0x20 PUSH1 0x4 DUP3 ADD MSTORE PUSH1 0x32 PUSH1 0x24 DUP3 ADD MSTORE PUSH32 0x43726561746F72546F6B656E4D616E616765723A2063726561746F7220746F6B PUSH1 0x44 DUP3 ADD MSTORE PUSH18 0x195B881D1C985B9CD9995C8819985A5B1959 PUSH1 0x72 SHL PUSH1 0x64 DUP3 ADD MSTORE PUSH1 0x84 ADD PUSH2 0x180 JUMP JUMPDEST PUSH1 0x40 DUP1 MLOAD DUP13 DUP2 MSTORE PUSH1 0x20 DUP2 ADD DUP10 SWAP1 MSTORE PUSH1 0x1 PUSH1 0x1 PUSH1 0xA0 SHL SUB DUP15 AND SWAP2 CALLER SWAP2 PUSH32 0x7DC2311AF61314F8790A9578D6C48FDB6C5586966980E72CCA7438ADF62B2531 SWAP2 ADD PUSH1 0x40 MLOAD DUP1 SWAP2 SUB SWAP1 LOG3 POP SWAP5 SWAP11 SWAP10 POP POP POP POP POP POP POP POP POP POP JUMP JUMPDEST PUSH1 0x0 DUP1 SLOAD SWAP1 PUSH2 0x100 EXP SWAP1 DIV PUSH1 0x1 PUSH1 0x1 PUSH1 0xA0 SHL SUB AND PUSH1 0x1 PUSH1 0x1 PUSH1 0xA0 SHL SUB AND PUSH4 0x35166226 PUSH1 0x40 MLOAD DUP2 PUSH4 0xFFFFFFFF AND PUSH1 0xE0 SHL DUP2 MSTORE PUSH1 0x4 ADD PUSH1 0x20 PUSH1 0x40 MLOAD DUP1 DUP4 SUB DUP2 DUP7 GAS STATICCALL ISZERO DUP1 ISZERO PUSH2 0xA9F JUMPI RETURNDATASIZE PUSH1 0x0 DUP1 RETURNDATACOPY RETURNDATASIZE PUSH1 0x0 REVERT JUMPDEST POP POP POP POP PUSH1 0x40 MLOAD RETURNDATASIZE PUSH1 0x1F NOT PUSH1 0x1F DUP3 ADD AND DUP3 ADD DUP1 PUSH1 0x40 MSTORE POP DUP2 ADD SWAP1 PUSH2 0xAC3 SWAP2 SWAP1 PUSH2 0xDDF JUMP JUMPDEST PUSH2 0xADF JUMPI PUSH1 0x40 MLOAD PUSH3 0x461BCD PUSH1 0xE5 SHL DUP2 MSTORE PUSH1 0x4 ADD PUSH2 0x180 SWAP1 PUSH2 0xE01 JUMP JUMPDEST PUSH1 0x1 PUSH1 0x1 PUSH1 0xA0 SHL SUB DUP4 AND PUSH2 0xB49 JUMPI PUSH1 0x40 MLOAD PUSH3 0x461BCD PUSH1 0xE5 SHL DUP2 MSTORE PUSH1 0x20 PUSH1 0x4 DUP3 ADD MSTORE PUSH1 0x2B PUSH1 0x24 DUP3 ADD MSTORE PUSH32 0x43726561746F72546F6B656E4D616E616765723A20696E76616C696420746F6B PUSH1 0x44 DUP3 ADD MSTORE PUSH11 0x195B8818DBDB9D1C9858DD PUSH1 0xAA SHL PUSH1 0x64 DUP3 ADD MSTORE PUSH1 0x84 ADD PUSH2 0x180 JUMP JUMPDEST CALLER PUSH1 0x0 SWAP1 DUP2 MSTORE PUSH1 0x1 PUSH1 0x20 MSTORE PUSH1 0x40 SWAP1 KECCAK256 SLOAD PUSH1 0x1 PUSH1 0x1 PUSH1 0xA0 SHL SUB AND ISZERO PUSH2 0xBC6 JUMPI PUSH1 0x40 MLOAD PUSH3 0x461BCD PUSH1 0xE5 SHL DUP2 MSTORE PUSH1 0x20 PUSH1 0x4 DUP3 ADD MSTORE PUSH1 0x2E PUSH1 0x24 DUP3 ADD MSTORE PUSH32 0x43726561746F72546F6B656E4D616E616765723A2063726561746F7220616C72 PUSH1 0x44 DUP3 ADD MSTORE PUSH14 0x32B0B23C903430B9903A37B5B2B7 PUSH1 0x91 SHL PUSH1 0x64 DUP3 ADD MSTORE PUSH1 0x84 ADD PUSH2 0x180 JUMP JUMPDEST PUSH1 0x0 DUP3 GT DUP1 ISZERO PUSH2 0xBD6 JUMPI POP PUSH1 0x0 DUP2 GT JUMPDEST PUSH2 0xC32 JUMPI PUSH1 0x40 MLOAD PUSH3 0x461BCD PUSH1 0xE5 SHL DUP2 MSTORE PUSH1 0x20 PUSH1 0x4 DUP3 ADD MSTORE PUSH1 0x27 PUSH1 0x24 DUP3 ADD MSTORE PUSH32 0x43726561746F72546F6B656E4D616E616765723A20696E76616C696420706172 PUSH1 0x44 DUP3 ADD MSTORE PUSH7 0x616D6574657273 PUSH1 0xC8 SHL PUSH1 0x64 DUP3 ADD MSTORE PUSH1 0x84 ADD PUSH2 0x180 JUMP JUMPDEST CALLER PUSH1 0x0 DUP2 DUP2 MSTORE PUSH1 0x1 PUSH1 0x20 DUP2 DUP2 MSTORE PUSH1 0x40 DUP1 DUP5 KECCAK256 DUP1 SLOAD PUSH1 0x1 PUSH1 0x1 PUSH1 0xA0 SHL SUB DUP11 DUP2 AND PUSH1 0x1 PUSH1 0x1 PUSH1 0xA0 SHL SUB NOT SWAP3 DUP4 AND DUP2 OR SWAP1 SWAP4 SSTORE DUP4 MLOAD PUSH1 0x80 DUP2 ADD DUP6 MSTORE DUP4 DUP2 MSTORE DUP1 DUP7 ADD DUP12 DUP2 MSTORE DUP2 DUP7 ADD DUP12 DUP2 MSTORE TIMESTAMP PUSH1 0x60 DUP5 ADD SWAP1 DUP2 MSTORE DUP12 DUP12 MSTORE PUSH1 0x2 DUP1 DUP11 MSTORE SWAP11 DUP9 SWAP1 KECCAK256 SWAP4 MLOAD DUP5 SLOAD SWAP6 AND SWAP5 SWAP1 SWAP6 AND SWAP4 SWAP1 SWAP4 OR DUP3 SSTORE MLOAD SWAP7 DUP2 ADD SWAP7 SWAP1 SWAP7 SSTORE MLOAD SWAP6 DUP6 ADD SWAP6 SWAP1 SWAP6 SSTORE SWAP4 MLOAD PUSH1 0x3 SWAP1 SWAP4 ADD SWAP3 SWAP1 SWAP3 SSTORE DUP2 MLOAD DUP7 DUP2 MSTORE SWAP1 DUP2 ADD DUP6 SWAP1 MSTORE SWAP2 SWAP3 SWAP2 PUSH32 0xD9E012F902138AF3ABD104BD4F4BF48EC89A4976860B67EC6656E6E14CD5C1E2 SWAP2 ADD PUSH1 0x40 MLOAD DUP1 SWAP2 SUB SWAP1 LOG3 POP POP POP JUMP JUMPDEST PUSH1 0x1 PUSH1 0x1 PUSH1 0xA0 SHL SUB DUP2 AND DUP2 EQ PUSH2 0xD0B JUMPI PUSH1 0x0 DUP1 REVERT JUMPDEST POP JUMP JUMPDEST PUSH1 0x0 PUSH1 0x20 DUP3 DUP5 SUB SLT ISZERO PUSH2 0xD20 JUMPI PUSH1 0x0 DUP1 REVERT JUMPDEST DUP2 CALLDATALOAD PUSH2 0xD2B DUP2 PUSH2 0xCF6 JUMP JUMPDEST SWAP4 SWAP3 POP POP POP JUMP JUMPDEST PUSH1 0x0 DUP1 PUSH1 0x40 DUP4 DUP6 SUB SLT ISZERO PUSH2 0xD45 JUMPI PUSH1 0x0 DUP1 REVERT JUMPDEST DUP3 CALLDATALOAD PUSH2 0xD50 DUP2 PUSH2 0xCF6 JUMP JUMPDEST SWAP5 PUSH1 0x20 SWAP4 SWAP1 SWAP4 ADD CALLDATALOAD SWAP4 POP POP POP JUMP JUMPDEST PUSH1 0x0 DUP1 PUSH1 0x0 PUSH1 0x60 DUP5 DUP7 SUB SLT ISZERO PUSH2 0xD73 JUMPI PUSH1 0x0 DUP1 REVERT JUMPDEST DUP4 CALLDATALOAD PUSH2 0xD7E DUP2 PUSH2 0xCF6 JUMP JUMPDEST SWAP6 PUSH1 0x20 DUP6 ADD CALLDATALOAD SWAP6 POP PUSH1 0x40 SWAP1 SWAP5 ADD CALLDATALOAD SWAP4 SWAP3 POP POP POP JUMP JUMPDEST PUSH1 0x20 DUP1 DUP3 MSTORE PUSH1 0x2C SWAP1 DUP3 ADD MSTORE PUSH32 0x43726561746F72546F6B656E4D616E616765723A2063726561746F7220746F6B PUSH1 0x40 DUP3 ADD MSTORE PUSH12 0x195B881B9BDD08199BDD5B99 PUSH1 0xA2 SHL PUSH1 0x60 DUP3 ADD MSTORE PUSH1 0x80 ADD SWAP1 JUMP JUMPDEST PUSH1 0x0 PUSH1 0x20 DUP3 DUP5 SUB SLT ISZERO PUSH2 0xDF1 JUMPI PUSH1 0x0 DUP1 REVERT JUMPDEST DUP2 MLOAD DUP1 ISZERO ISZERO DUP2 EQ PUSH2 0xD2B JUMPI PUSH1 0x0 DUP1 REVERT JUMPDEST PUSH1 0x20 DUP1 DUP3 MSTORE PUSH1 0x29 SWAP1 DUP3 ADD MSTORE PUSH32 0x43726561746F72546F6B656E4D616E616765723A2073797374656D206973206E PUSH1 0x40 DUP3 ADD MSTORE PUSH9 0x6F7420616374697665 PUSH1 0xB8 SHL PUSH1 0x60 DUP3 ADD MSTORE PUSH1 0x80 ADD SWAP1 JUMP JUMPDEST PUSH4 0x4E487B71 PUSH1 0xE0 SHL PUSH1 0x0 MSTORE PUSH1 0x11 PUSH1 0x4 MSTORE PUSH1 0x24 PUSH1 0x0 REVERT JUMPDEST DUP1 DUP3 MUL DUP2 ISZERO DUP3 DUP3 DIV DUP5 EQ OR PUSH2 0xE77 JUMPI PUSH2 0xE77 PUSH2 0xE4A JUMP JUMPDEST SWAP3 SWAP2 POP POP JUMP JUMPDEST PUSH1 0x0 DUP3 PUSH2 0xE9A JUMPI PUSH4 0x4E487B71 PUSH1 0xE0 SHL PUSH1 0x0 MSTORE PUSH1 0x12 PUSH1 0x4 MSTORE PUSH1 0x24 PUSH1 0x0 REVERT JUMPDEST POP DIV SWAP1 JUMP JUMPDEST DUP2 DUP2 SUB DUP2 DUP2 GT ISZERO PUSH2 0xE77 JUMPI PUSH2 0xE77 PUSH2 0xE4A JUMP JUMPDEST PUSH1 0x0 PUSH1 0x20 DUP3 DUP5 SUB SLT ISZERO PUSH2 0xEC4 JUMPI PUSH1 0x0 DUP1 REVERT JUMPDEST DUP2 MLOAD PUSH2 0xD2B DUP2 PUSH2 0xCF6 JUMP JUMPDEST PUSH1 0x1 PUSH1 0x1 PUSH1 0xA0 SHL SUB SWAP5 DUP6 AND DUP2 MSTORE SWAP3 DUP5 AND PUSH1 0x20 DUP5 ADD MSTORE SWAP3 AND PUSH1 0x40 DUP3 ADD MSTORE PUSH1 0x7 SWAP2 SWAP1 SWAP2 SIGNEXTEND PUSH1 0x60 DUP3 ADD MSTORE PUSH1 0x80 ADD SWAP1 JUMP JUMPDEST PUSH1 0x0 PUSH1 0x20 DUP3 DUP5 SUB SLT ISZERO PUSH2 0xF0E JUMPI PUSH1 0x0 DUP1 REVERT JUMPDEST POP MLOAD SWAP2 SWAP1 POP JUMP INVALID LOG2 PUSH5 0x6970667358 0x22 SLT KECCAK256 0xE6 RETURNDATACOPY 0xD6 ORIGIN 0x4B SWAP1 0xE9 DUP15 SUB DELEGATECALL GASPRICE 0xBB PUSH21 0x206A2874F75C2F1326831A95E55F03F173DC166473 PUSH16 0x6C634300081400330000000000000000 "},"methodIdentifiers":{"CREATOR_FEE_BPS()":"cc3cbd2a","buyCreatorToken(address,uint256)":"a018a578","deployCreatorToken(address,uint256,uint256)":"d5c2bf1b","getCreatorTokenContract(address)":"a2ea2a6b","getCreatorTokenInfo(address)":"37f0eaa4","platformCore()":"bfa5020c"}}}}}