{"contracts/TokenExchangeProcessor.sol":{"TokenExchangeProcessor":{"abi":[{"inputs":[{"internalType":"address","name":"_ecosystemCore","type":"address"}],"stateMutability":"nonpayable","type":"constructor"},{"anonymous":false,"inputs":[{"indexed":true,"internalType":"address","name":"buyer","type":"address"},{"indexed":false,"internalType":"uint256","name":"primaryTokenAmount","type":"uint256"},{"indexed":false,"internalType":"uint256","name":"secondaryTokenAmount","type":"uint256"},{"indexed":false,"internalType":"uint256","name":"processingFee","type":"uint256"}],"name":"TokensExchanged","type":"event"},{"inputs":[],"name":"EXCHANGE_FEE_BPS","outputs":[{"internalType":"uint256","name":"","type":"uint256"}],"stateMutability":"view","type":"function"},{"inputs":[],"name":"ecosystemCore","outputs":[{"internalType":"contract INexusEcosystemCore","name":"","type":"address"}],"stateMutability":"view","type":"function"},{"inputs":[{"internalType":"uint256","name":"primaryTokenAmount","type":"uint256"}],"name":"exchangeTokens","outputs":[{"internalType":"uint256","name":"","type":"uint256"}],"stateMutability":"nonpayable","type":"function"}],"evm":{"bytecode":{"linkReferences":{},"object":"608060405234801561001057600080fd5b50604051610f48380380610f4883398101604081905261002f916100d4565b6001600160a01b0381166100af5760405162461bcd60e51b815260206004820152603660248201527f546f6b656e45786368616e676550726f636573736f723a2065636f737973746560448201527f6d20636f72652061646472657373206973207a65726f00000000000000000000606482015260840160405180910390fd5b600080546001600160a01b0319166001600160a01b0392909216919091179055610104565b6000602082840312156100e657600080fd5b81516001600160a01b03811681146100fd57600080fd5b9392505050565b610e35806101136000396000f3fe608060405234801561001057600080fd5b50600436106100415760003560e01c8063088c37dc14610046578063404771261461007657806367cddb0814610097575b600080fd5b600054610059906001600160a01b031681565b6040516001600160a01b0390911681526020015b60405180910390f35b610089610084366004610b35565b61009f565b60405190815260200161006d565b61008960c881565b60008060009054906101000a90046001600160a01b03166001600160a01b03166322f3e2d46040518163ffffffff1660e01b8152600401602060405180830381865afa1580156100f3573d6000803e3d6000fd5b505050506040513d601f19601f820116820180604052508101906101179190610b4e565b61017d5760405162461bcd60e51b815260206004820152602c60248201527f546f6b656e45786368616e676550726f636573736f723a2073797374656d206960448201526b73206e6f742061637469766560a01b60648201526084015b60405180910390fd5b600082116101f35760405162461bcd60e51b815260206004820152603860248201527f546f6b656e45786368616e676550726f636573736f723a20616d6f756e74206d60448201527f7573742062652067726561746572207468616e207a65726f00000000000000006064820152608401610174565b600054604051631957e40760e31b8152336004820152602481018490526001600160a01b039091169063cabf2038906044016020604051808303816000875af1158015610244573d6000803e3d6000fd5b505050506040513d601f19601f820116820180604052508101906102689190610b4e565b6102cf5760405162461bcd60e51b815260206004820152603260248201527f546f6b656e45786368616e676550726f636573736f723a2065786365656473206044820152717472616e73616374696f6e206c696d69747360701b6064820152608401610174565b6000546040516317ca06ab60e01b8152336004820152602481018490526001600160a01b03909116906317ca06ab90604401600060405180830381600087803b15801561031b57600080fd5b505af115801561032f573d6000803e3d6000fd5b5050505060008060009054906101000a90046001600160a01b03166001600160a01b031663e6aa216c6040518163ffffffff1660e01b8152600401602060405180830381865afa158015610387573d6000803e3d6000fd5b505050506040513d601f19601f820116820180604052508101906103ab9190610b77565b90506000816103bd85620f4240610ba6565b6103c79190610bc3565b90506000811161042a5760405162461bcd60e51b815260206004820152602860248201527f546f6b656e45786368616e676550726f636573736f723a20616d6f756e7420746044820152671bdbc81cdb585b1b60c21b6064820152608401610174565b600061271061043a60c887610ba6565b6104449190610bc3565b905060006104528287610be5565b905060008060009054906101000a90046001600160a01b03166001600160a01b031663580d164e6040518163ffffffff1660e01b8152600401602060405180830381865afa1580156104a8573d6000803e3d6000fd5b505050506040513d601f19601f820116820180604052508101906104cc9190610c10565b905060008060009054906101000a90046001600160a01b03166001600160a01b031663a77588836040518163ffffffff1660e01b8152600401602060405180830381865afa158015610522573d6000803e3d6000fd5b505050506040513d601f19601f820116820180604052508101906105469190610c10565b905060008060009054906101000a90046001600160a01b03166001600160a01b03166336fdced96040518163ffffffff1660e01b8152600401602060405180830381865afa15801561059c573d6000803e3d6000fd5b505050506040513d601f19601f820116820180604052508101906105c09190610c10565b905060008060009054906101000a90046001600160a01b03166001600160a01b031663764aa9c46040518163ffffffff1660e01b8152600401602060405180830381865afa158015610616573d6000803e3d6000fd5b505050506040513d601f19601f8201168201806040525081019061063a9190610c10565b90506000846001600160a01b031663eca369178533308f6040518563ffffffff1660e01b81526004016106709493929190610c2d565b6020604051808303816000875af115801561068f573d6000803e3d6000fd5b505050506040513d601f19601f820116820180604052508101906106b39190610b77565b9050601681146107235760405162461bcd60e51b815260206004820152603560248201527f546f6b656e45786368616e676550726f636573736f723a207072696d617279206044820152741d1bdad95b881d1c985b9cd9995c8819985a5b1959605a1b6064820152608401610174565b60405163eca3691760e01b81526001600160a01b0386169063eca3691790610755908790309087908d90600401610c2d565b6020604051808303816000875af1158015610774573d6000803e3d6000fd5b505050506040513d601f19601f820116820180604052508101906107989190610b77565b9050601681146107fe5760405162461bcd60e51b815260206004820152602b60248201527f546f6b656e45786368616e676550726f636573736f723a20666565207472616e60448201526a1cd9995c8819985a5b195960aa1b6064820152608401610174565b604051631bdc8dff60e21b81526001600160a01b038581166004830152306024830152600788900b6044830152861690636f7237fc906064016020604051808303816000875af1158015610856573d6000803e3d6000fd5b505050506040513d601f19601f8201168201806040525081019061087a9190610b77565b9050601681146108de5760405162461bcd60e51b815260206004820152602960248201527f546f6b656e45786368616e676550726f636573736f723a20746f6b656e2062756044820152681c9b8819985a5b195960ba1b6064820152608401610174565b6040805160008082526020820190925281610909565b60608152602001906001900390816108f45790505b5060405163707a02cd60e11b81529091506001600160a01b0387169063e0f4059a9061093d9087908d908690600401610c70565b6000604051808303816000875af115801561095c573d6000803e3d6000fd5b505050506040513d6000823e601f3d908101601f191682016040526109849190810190610d2e565b509150601682146109f35760405162461bcd60e51b815260206004820152603360248201527f546f6b656e45786368616e676550726f636573736f723a207365636f6e6461726044820152721e481d1bdad95b881b5a5b9d0819985a5b1959606a1b6064820152608401610174565b60405163eca3691760e01b81526001600160a01b0387169063eca3691790610a25908790309033908f90600401610c2d565b6020604051808303816000875af1158015610a44573d6000803e3d6000fd5b505050506040513d601f19601f82011682018060405250810190610a689190610b77565b915060168214610ae05760405162461bcd60e51b815260206004820152603760248201527f546f6b656e45786368616e676550726f636573736f723a207365636f6e64617260448201527f7920746f6b656e207472616e73666572206661696c65640000000000000000006064820152608401610174565b604080518d8152602081018b905290810189905233907fe31f21ba76b9a4215c8d14080f85b68ccffc2ebfc377d8878c73a69d69300f909060600160405180910390a25096985050505050505050505b919050565b600060208284031215610b4757600080fd5b5035919050565b600060208284031215610b6057600080fd5b81518015158114610b7057600080fd5b9392505050565b600060208284031215610b8957600080fd5b5051919050565b634e487b7160e01b600052601160045260246000fd5b8082028115828204841417610bbd57610bbd610b90565b92915050565b600082610be057634e487b7160e01b600052601260045260246000fd5b500490565b81810381811115610bbd57610bbd610b90565b6001600160a01b0381168114610c0d57600080fd5b50565b600060208284031215610c2257600080fd5b8151610b7081610bf8565b6001600160a01b03948516815292841660208401529216604082015260079190910b606082015260800190565b634e487b7160e01b600052604160045260246000fd5b60006060820160018060a01b038616835260208560070b818501526060604085015281855180845260808601915060808160051b87010193508287016000805b83811015610d0c57888703607f1901855282518051808952835b81811015610ce5578281018901518a82018a01528801610cca565b508881018801849052601f01601f1916909701860196509385019391850191600101610cb0565b50949a9950505050505050505050565b8051600781900b8114610b3057600080fd5b60008060408385031215610d4157600080fd5b8251915060208084015167ffffffffffffffff80821115610d6157600080fd5b818601915086601f830112610d7557600080fd5b815181811115610d8757610d87610c5a565b8060051b604051601f19603f83011681018181108582111715610dac57610dac610c5a565b604052918252848201925083810185019189831115610dca57600080fd5b938501935b82851015610def57610de085610d1c565b84529385019392850192610dcf565b809650505050505050925092905056fea264697066735822122022d6885e8b1aa5b150039c9d6158bc932c0785e9b25b82258e9d78eca8c847f864736f6c63430008140033","opcodes":"PUSH1 0x80 PUSH1 0x40 MSTORE CALLVALUE DUP1 ISZERO PUSH2 0x10 JUMPI PUSH1 0x0 DUP1 REVERT JUMPDEST POP PUSH1 0x40 MLOAD PUSH2 0xF48 CODESIZE SUB DUP1 PUSH2 0xF48 DUP4 CODECOPY DUP2 ADD PUSH1 0x40 DUP2 SWAP1 MSTORE PUSH2 0x2F SWAP2 PUSH2 0xD4 JUMP JUMPDEST PUSH1 0x1 PUSH1 0x1 PUSH1 0xA0 SHL SUB DUP2 AND PUSH2 0xAF JUMPI PUSH1 0x40 MLOAD PUSH3 0x461BCD PUSH1 0xE5 SHL DUP2 MSTORE PUSH1 0x20 PUSH1 0x4 DUP3 ADD MSTORE PUSH1 0x36 PUSH1 0x24 DUP3 ADD MSTORE PUSH32 0x546F6B656E45786368616E676550726F636573736F723A2065636F7379737465 PUSH1 0x44 DUP3 ADD MSTORE PUSH32 0x6D20636F72652061646472657373206973207A65726F00000000000000000000 PUSH1 0x64 DUP3 ADD MSTORE PUSH1 0x84 ADD PUSH1 0x40 MLOAD DUP1 SWAP2 SUB SWAP1 REVERT JUMPDEST PUSH1 0x0 DUP1 SLOAD PUSH1 0x1 PUSH1 0x1 PUSH1 0xA0 SHL SUB NOT AND PUSH1 0x1 PUSH1 0x1 PUSH1 0xA0 SHL SUB SWAP3 SWAP1 SWAP3 AND SWAP2 SWAP1 SWAP2 OR SWAP1 SSTORE PUSH2 0x104 JUMP JUMPDEST PUSH1 0x0 PUSH1 0x20 DUP3 DUP5 SUB SLT ISZERO PUSH2 0xE6 JUMPI PUSH1 0x0 DUP1 REVERT JUMPDEST DUP2 MLOAD PUSH1 0x1 PUSH1 0x1 PUSH1 0xA0 SHL SUB DUP2 AND DUP2 EQ PUSH2 0xFD JUMPI PUSH1 0x0 DUP1 REVERT JUMPDEST SWAP4 SWAP3 POP POP POP JUMP JUMPDEST PUSH2 0xE35 DUP1 PUSH2 0x113 PUSH1 0x0 CODECOPY PUSH1 0x0 RETURN INVALID PUSH1 0x80 PUSH1 0x40 MSTORE CALLVALUE DUP1 ISZERO PUSH2 0x10 JUMPI PUSH1 0x0 DUP1 REVERT JUMPDEST POP PUSH1 0x4 CALLDATASIZE LT PUSH2 0x41 JUMPI PUSH1 0x0 CALLDATALOAD PUSH1 0xE0 SHR DUP1 PUSH4 0x88C37DC EQ PUSH2 0x46 JUMPI DUP1 PUSH4 0x40477126 EQ PUSH2 0x76 JUMPI DUP1 PUSH4 0x67CDDB08 EQ PUSH2 0x97 JUMPI JUMPDEST PUSH1 0x0 DUP1 REVERT JUMPDEST PUSH1 0x0 SLOAD PUSH2 0x59 SWAP1 PUSH1 0x1 PUSH1 0x1 PUSH1 0xA0 SHL SUB AND DUP2 JUMP JUMPDEST PUSH1 0x40 MLOAD PUSH1 0x1 PUSH1 0x1 PUSH1 0xA0 SHL SUB SWAP1 SWAP2 AND DUP2 MSTORE PUSH1 0x20 ADD JUMPDEST PUSH1 0x40 MLOAD DUP1 SWAP2 SUB SWAP1 RETURN JUMPDEST PUSH2 0x89 PUSH2 0x84 CALLDATASIZE PUSH1 0x4 PUSH2 0xB35 JUMP JUMPDEST PUSH2 0x9F JUMP JUMPDEST PUSH1 0x40 MLOAD SWAP1 DUP2 MSTORE PUSH1 0x20 ADD PUSH2 0x6D JUMP JUMPDEST PUSH2 0x89 PUSH1 0xC8 DUP2 JUMP JUMPDEST PUSH1 0x0 DUP1 PUSH1 0x0 SWAP1 SLOAD SWAP1 PUSH2 0x100 EXP SWAP1 DIV PUSH1 0x1 PUSH1 0x1 PUSH1 0xA0 SHL SUB AND PUSH1 0x1 PUSH1 0x1 PUSH1 0xA0 SHL SUB AND PUSH4 0x22F3E2D4 PUSH1 0x40 MLOAD DUP2 PUSH4 0xFFFFFFFF AND PUSH1 0xE0 SHL DUP2 MSTORE PUSH1 0x4 ADD PUSH1 0x20 PUSH1 0x40 MLOAD DUP1 DUP4 SUB DUP2 DUP7 GAS STATICCALL ISZERO DUP1 ISZERO PUSH2 0xF3 JUMPI RETURNDATASIZE PUSH1 0x0 DUP1 RETURNDATACOPY RETURNDATASIZE PUSH1 0x0 REVERT JUMPDEST POP POP POP POP PUSH1 0x40 MLOAD RETURNDATASIZE PUSH1 0x1F NOT PUSH1 0x1F DUP3 ADD AND DUP3 ADD DUP1 PUSH1 0x40 MSTORE POP DUP2 ADD SWAP1 PUSH2 0x117 SWAP2 SWAP1 PUSH2 0xB4E JUMP JUMPDEST PUSH2 0x17D JUMPI PUSH1 0x40 MLOAD PUSH3 0x461BCD PUSH1 0xE5 SHL DUP2 MSTORE PUSH1 0x20 PUSH1 0x4 DUP3 ADD MSTORE PUSH1 0x2C PUSH1 0x24 DUP3 ADD MSTORE PUSH32 0x546F6B656E45786368616E676550726F636573736F723A2073797374656D2069 PUSH1 0x44 DUP3 ADD MSTORE PUSH12 0x73206E6F7420616374697665 PUSH1 0xA0 SHL PUSH1 0x64 DUP3 ADD MSTORE PUSH1 0x84 ADD JUMPDEST PUSH1 0x40 MLOAD DUP1 SWAP2 SUB SWAP1 REVERT JUMPDEST PUSH1 0x0 DUP3 GT PUSH2 0x1F3 JUMPI PUSH1 0x40 MLOAD PUSH3 0x461BCD PUSH1 0xE5 SHL DUP2 MSTORE PUSH1 0x20 PUSH1 0x4 DUP3 ADD MSTORE PUSH1 0x38 PUSH1 0x24 DUP3 ADD MSTORE PUSH32 0x546F6B656E45786368616E676550726F636573736F723A20616D6F756E74206D PUSH1 0x44 DUP3 ADD MSTORE PUSH32 0x7573742062652067726561746572207468616E207A65726F0000000000000000 PUSH1 0x64 DUP3 ADD MSTORE PUSH1 0x84 ADD PUSH2 0x174 JUMP JUMPDEST PUSH1 0x0 SLOAD PUSH1 0x40 MLOAD PUSH4 0x1957E407 PUSH1 0xE3 SHL DUP2 MSTORE CALLER PUSH1 0x4 DUP3 ADD MSTORE PUSH1 0x24 DUP2 ADD DUP5 SWAP1 MSTORE PUSH1 0x1 PUSH1 0x1 PUSH1 0xA0 SHL SUB SWAP1 SWAP2 AND SWAP1 PUSH4 0xCABF2038 SWAP1 PUSH1 0x44 ADD PUSH1 0x20 PUSH1 0x40 MLOAD DUP1 DUP4 SUB DUP2 PUSH1 0x0 DUP8 GAS CALL ISZERO DUP1 ISZERO PUSH2 0x244 JUMPI RETURNDATASIZE PUSH1 0x0 DUP1 RETURNDATACOPY RETURNDATASIZE PUSH1 0x0 REVERT JUMPDEST POP POP POP POP PUSH1 0x40 MLOAD RETURNDATASIZE PUSH1 0x1F NOT PUSH1 0x1F DUP3 ADD AND DUP3 ADD DUP1 PUSH1 0x40 MSTORE POP DUP2 ADD SWAP1 PUSH2 0x268 SWAP2 SWAP1 PUSH2 0xB4E JUMP JUMPDEST PUSH2 0x2CF JUMPI PUSH1 0x40 MLOAD PUSH3 0x461BCD PUSH1 0xE5 SHL DUP2 MSTORE PUSH1 0x20 PUSH1 0x4 DUP3 ADD MSTORE PUSH1 0x32 PUSH1 0x24 DUP3 ADD MSTORE PUSH32 0x546F6B656E45786368616E676550726F636573736F723A206578636565647320 PUSH1 0x44 DUP3 ADD MSTORE PUSH18 0x7472616E73616374696F6E206C696D697473 PUSH1 0x70 SHL PUSH1 0x64 DUP3 ADD MSTORE PUSH1 0x84 ADD PUSH2 0x174 JUMP JUMPDEST PUSH1 0x0 SLOAD PUSH1 0x40 MLOAD PUSH4 0x17CA06AB PUSH1 0xE0 SHL DUP2 MSTORE CALLER PUSH1 0x4 DUP3 ADD MSTORE PUSH1 0x24 DUP2 ADD DUP5 SWAP1 MSTORE PUSH1 0x1 PUSH1 0x1 PUSH1 0xA0 SHL SUB SWAP1 SWAP2 AND SWAP1 PUSH4 0x17CA06AB SWAP1 PUSH1 0x44 ADD PUSH1 0x0 PUSH1 0x40 MLOAD DUP1 DUP4 SUB DUP2 PUSH1 0x0 DUP8 DUP1 EXTCODESIZE ISZERO DUP1 ISZERO PUSH2 0x31B JUMPI PUSH1 0x0 DUP1 REVERT JUMPDEST POP GAS CALL ISZERO DUP1 ISZERO PUSH2 0x32F JUMPI RETURNDATASIZE PUSH1 0x0 DUP1 RETURNDATACOPY RETURNDATASIZE PUSH1 0x0 REVERT JUMPDEST POP POP POP POP PUSH1 0x0 DUP1 PUSH1 0x0 SWAP1 SLOAD SWAP1 PUSH2 0x100 EXP SWAP1 DIV PUSH1 0x1 PUSH1 0x1 PUSH1 0xA0 SHL SUB AND PUSH1 0x1 PUSH1 0x1 PUSH1 0xA0 SHL SUB AND PUSH4 0xE6AA216C PUSH1 0x40 MLOAD DUP2 PUSH4 0xFFFFFFFF AND PUSH1 0xE0 SHL DUP2 MSTORE PUSH1 0x4 ADD PUSH1 0x20 PUSH1 0x40 MLOAD DUP1 DUP4 SUB DUP2 DUP7 GAS STATICCALL ISZERO DUP1 ISZERO PUSH2 0x387 JUMPI RETURNDATASIZE PUSH1 0x0 DUP1 RETURNDATACOPY RETURNDATASIZE PUSH1 0x0 REVERT JUMPDEST POP POP POP POP PUSH1 0x40 MLOAD RETURNDATASIZE PUSH1 0x1F NOT PUSH1 0x1F DUP3 ADD AND DUP3 ADD DUP1 PUSH1 0x40 MSTORE POP DUP2 ADD SWAP1 PUSH2 0x3AB SWAP2 SWAP1 PUSH2 0xB77 JUMP JUMPDEST SWAP1 POP PUSH1 0x0 DUP2 PUSH2 0x3BD DUP6 PUSH3 0xF4240 PUSH2 0xBA6 JUMP JUMPDEST PUSH2 0x3C7 SWAP2 SWAP1 PUSH2 0xBC3 JUMP JUMPDEST SWAP1 POP PUSH1 0x0 DUP2 GT PUSH2 0x42A JUMPI PUSH1 0x40 MLOAD PUSH3 0x461BCD PUSH1 0xE5 SHL DUP2 MSTORE PUSH1 0x20 PUSH1 0x4 DUP3 ADD MSTORE PUSH1 0x28 PUSH1 0x24 DUP3 ADD MSTORE PUSH32 0x546F6B656E45786368616E676550726F636573736F723A20616D6F756E742074 PUSH1 0x44 DUP3 ADD MSTORE PUSH8 0x1BDBC81CDB585B1B PUSH1 0xC2 SHL PUSH1 0x64 DUP3 ADD MSTORE PUSH1 0x84 ADD PUSH2 0x174 JUMP JUMPDEST PUSH1 0x0 PUSH2 0x2710 PUSH2 0x43A PUSH1 0xC8 DUP8 PUSH2 0xBA6 JUMP JUMPDEST PUSH2 0x444 SWAP2 SWAP1 PUSH2 0xBC3 JUMP JUMPDEST SWAP1 POP PUSH1 0x0 PUSH2 0x452 DUP3 DUP8 PUSH2 0xBE5 JUMP JUMPDEST SWAP1 POP PUSH1 0x0 DUP1 PUSH1 0x0 SWAP1 SLOAD SWAP1 PUSH2 0x100 EXP SWAP1 DIV PUSH1 0x1 PUSH1 0x1 PUSH1 0xA0 SHL SUB AND PUSH1 0x1 PUSH1 0x1 PUSH1 0xA0 SHL SUB AND PUSH4 0x580D164E PUSH1 0x40 MLOAD DUP2 PUSH4 0xFFFFFFFF AND PUSH1 0xE0 SHL DUP2 MSTORE PUSH1 0x4 ADD PUSH1 0x20 PUSH1 0x40 MLOAD DUP1 DUP4 SUB DUP2 DUP7 GAS STATICCALL ISZERO DUP1 ISZERO PUSH2 0x4A8 JUMPI RETURNDATASIZE PUSH1 0x0 DUP1 RETURNDATACOPY RETURNDATASIZE PUSH1 0x0 REVERT JUMPDEST POP POP POP POP PUSH1 0x40 MLOAD RETURNDATASIZE PUSH1 0x1F NOT PUSH1 0x1F DUP3 ADD AND DUP3 ADD DUP1 PUSH1 0x40 MSTORE POP DUP2 ADD SWAP1 PUSH2 0x4CC SWAP2 SWAP1 PUSH2 0xC10 JUMP JUMPDEST SWAP1 POP PUSH1 0x0 DUP1 PUSH1 0x0 SWAP1 SLOAD SWAP1 PUSH2 0x100 EXP SWAP1 DIV PUSH1 0x1 PUSH1 0x1 PUSH1 0xA0 SHL SUB AND PUSH1 0x1 PUSH1 0x1 PUSH1 0xA0 SHL SUB AND PUSH4 0xA7758883 PUSH1 0x40 MLOAD DUP2 PUSH4 0xFFFFFFFF AND PUSH1 0xE0 SHL DUP2 MSTORE PUSH1 0x4 ADD PUSH1 0x20 PUSH1 0x40 MLOAD DUP1 DUP4 SUB DUP2 DUP7 GAS STATICCALL ISZERO DUP1 ISZERO PUSH2 0x522 JUMPI RETURNDATASIZE PUSH1 0x0 DUP1 RETURNDATACOPY RETURNDATASIZE PUSH1 0x0 REVERT JUMPDEST POP POP POP POP PUSH1 0x40 MLOAD RETURNDATASIZE PUSH1 0x1F NOT PUSH1 0x1F DUP3 ADD AND DUP3 ADD DUP1 PUSH1 0x40 MSTORE POP DUP2 ADD SWAP1 PUSH2 0x546 SWAP2 SWAP1 PUSH2 0xC10 JUMP JUMPDEST SWAP1 POP PUSH1 0x0 DUP1 PUSH1 0x0 SWAP1 SLOAD SWAP1 PUSH2 0x100 EXP SWAP1 DIV PUSH1 0x1 PUSH1 0x1 PUSH1 0xA0 SHL SUB AND PUSH1 0x1 PUSH1 0x1 PUSH1 0xA0 SHL SUB AND PUSH4 0x36FDCED9 PUSH1 0x40 MLOAD DUP2 PUSH4 0xFFFFFFFF AND PUSH1 0xE0 SHL DUP2 MSTORE PUSH1 0x4 ADD PUSH1 0x20 PUSH1 0x40 MLOAD DUP1 DUP4 SUB DUP2 DUP7 GAS STATICCALL ISZERO DUP1 ISZERO PUSH2 0x59C JUMPI RETURNDATASIZE PUSH1 0x0 DUP1 RETURNDATACOPY RETURNDATASIZE PUSH1 0x0 REVERT JUMPDEST POP POP POP POP PUSH1 0x40 MLOAD RETURNDATASIZE PUSH1 0x1F NOT PUSH1 0x1F DUP3 ADD AND DUP3 ADD DUP1 PUSH1 0x40 MSTORE POP DUP2 ADD SWAP1 PUSH2 0x5C0 SWAP2 SWAP1 PUSH2 0xC10 JUMP JUMPDEST SWAP1 POP PUSH1 0x0 DUP1 PUSH1 0x0 SWAP1 SLOAD SWAP1 PUSH2 0x100 EXP SWAP1 DIV PUSH1 0x1 PUSH1 0x1 PUSH1 0xA0 SHL SUB AND PUSH1 0x1 PUSH1 0x1 PUSH1 0xA0 SHL SUB AND PUSH4 0x764AA9C4 PUSH1 0x40 MLOAD DUP2 PUSH4 0xFFFFFFFF AND PUSH1 0xE0 SHL DUP2 MSTORE PUSH1 0x4 ADD PUSH1 0x20 PUSH1 0x40 MLOAD DUP1 DUP4 SUB DUP2 DUP7 GAS STATICCALL ISZERO DUP1 ISZERO PUSH2 0x616 JUMPI RETURNDATASIZE PUSH1 0x0 DUP1 RETURNDATACOPY RETURNDATASIZE PUSH1 0x0 REVERT JUMPDEST POP POP POP POP PUSH1 0x40 MLOAD RETURNDATASIZE PUSH1 0x1F NOT PUSH1 0x1F DUP3 ADD AND DUP3 ADD DUP1 PUSH1 0x40 MSTORE POP DUP2 ADD SWAP1 PUSH2 0x63A SWAP2 SWAP1 PUSH2 0xC10 JUMP JUMPDEST SWAP1 POP PUSH1 0x0 DUP5 PUSH1 0x1 PUSH1 0x1 PUSH1 0xA0 SHL SUB AND PUSH4 0xECA36917 DUP6 CALLER ADDRESS DUP16 PUSH1 0x40 MLOAD DUP6 PUSH4 0xFFFFFFFF AND PUSH1 0xE0 SHL DUP2 MSTORE PUSH1 0x4 ADD PUSH2 0x670 SWAP5 SWAP4 SWAP3 SWAP2 SWAP1 PUSH2 0xC2D JUMP JUMPDEST PUSH1 0x20 PUSH1 0x40 MLOAD DUP1 DUP4 SUB DUP2 PUSH1 0x0 DUP8 GAS CALL ISZERO DUP1 ISZERO PUSH2 0x68F JUMPI RETURNDATASIZE PUSH1 0x0 DUP1 RETURNDATACOPY RETURNDATASIZE PUSH1 0x0 REVERT JUMPDEST POP POP POP POP PUSH1 0x40 MLOAD RETURNDATASIZE PUSH1 0x1F NOT PUSH1 0x1F DUP3 ADD AND DUP3 ADD DUP1 PUSH1 0x40 MSTORE POP DUP2 ADD SWAP1 PUSH2 0x6B3 SWAP2 SWAP1 PUSH2 0xB77 JUMP JUMPDEST SWAP1 POP PUSH1 0x16 DUP2 EQ PUSH2 0x723 JUMPI PUSH1 0x40 MLOAD PUSH3 0x461BCD PUSH1 0xE5 SHL DUP2 MSTORE PUSH1 0x20 PUSH1 0x4 DUP3 ADD MSTORE PUSH1 0x35 PUSH1 0x24 DUP3 ADD MSTORE PUSH32 0x546F6B656E45786368616E676550726F636573736F723A207072696D61727920 PUSH1 0x44 DUP3 ADD MSTORE PUSH21 0x1D1BDAD95B881D1C985B9CD9995C8819985A5B1959 PUSH1 0x5A SHL PUSH1 0x64 DUP3 ADD MSTORE PUSH1 0x84 ADD PUSH2 0x174 JUMP JUMPDEST PUSH1 0x40 MLOAD PUSH4 0xECA36917 PUSH1 0xE0 SHL DUP2 MSTORE PUSH1 0x1 PUSH1 0x1 PUSH1 0xA0 SHL SUB DUP7 AND SWAP1 PUSH4 0xECA36917 SWAP1 PUSH2 0x755 SWAP1 DUP8 SWAP1 ADDRESS SWAP1 DUP8 SWAP1 DUP14 SWAP1 PUSH1 0x4 ADD PUSH2 0xC2D JUMP JUMPDEST PUSH1 0x20 PUSH1 0x40 MLOAD DUP1 DUP4 SUB DUP2 PUSH1 0x0 DUP8 GAS CALL ISZERO DUP1 ISZERO PUSH2 0x774 JUMPI RETURNDATASIZE PUSH1 0x0 DUP1 RETURNDATACOPY RETURNDATASIZE PUSH1 0x0 REVERT JUMPDEST POP POP POP POP PUSH1 0x40 MLOAD RETURNDATASIZE PUSH1 0x1F NOT PUSH1 0x1F DUP3 ADD AND DUP3 ADD DUP1 PUSH1 0x40 MSTORE POP DUP2 ADD SWAP1 PUSH2 0x798 SWAP2 SWAP1 PUSH2 0xB77 JUMP JUMPDEST SWAP1 POP PUSH1 0x16 DUP2 EQ PUSH2 0x7FE JUMPI PUSH1 0x40 MLOAD PUSH3 0x461BCD PUSH1 0xE5 SHL DUP2 MSTORE PUSH1 0x20 PUSH1 0x4 DUP3 ADD MSTORE PUSH1 0x2B PUSH1 0x24 DUP3 ADD MSTORE PUSH32 0x546F6B656E45786368616E676550726F636573736F723A20666565207472616E PUSH1 0x44 DUP3 ADD MSTORE PUSH11 0x1CD9995C8819985A5B1959 PUSH1 0xAA SHL PUSH1 0x64 DUP3 ADD MSTORE PUSH1 0x84 ADD PUSH2 0x174 JUMP JUMPDEST PUSH1 0x40 MLOAD PUSH4 0x1BDC8DFF PUSH1 0xE2 SHL DUP2 MSTORE PUSH1 0x1 PUSH1 0x1 PUSH1 0xA0 SHL SUB DUP6 DUP2 AND PUSH1 0x4 DUP4 ADD MSTORE ADDRESS PUSH1 0x24 DUP4 ADD MSTORE PUSH1 0x7 DUP9 SWAP1 SIGNEXTEND PUSH1 0x44 DUP4 ADD MSTORE DUP7 AND SWAP1 PUSH4 0x6F7237FC SWAP1 PUSH1 0x64 ADD PUSH1 0x20 PUSH1 0x40 MLOAD DUP1 DUP4 SUB DUP2 PUSH1 0x0 DUP8 GAS CALL ISZERO DUP1 ISZERO PUSH2 0x856 JUMPI RETURNDATASIZE PUSH1 0x0 DUP1 RETURNDATACOPY RETURNDATASIZE PUSH1 0x0 REVERT JUMPDEST POP POP POP POP PUSH1 0x40 MLOAD RETURNDATASIZE PUSH1 0x1F NOT PUSH1 0x1F DUP3 ADD AND DUP3 ADD DUP1 PUSH1 0x40 MSTORE POP DUP2 ADD SWAP1 PUSH2 0x87A SWAP2 SWAP1 PUSH2 0xB77 JUMP JUMPDEST SWAP1 POP PUSH1 0x16 DUP2 EQ PUSH2 0x8DE JUMPI PUSH1 0x40 MLOAD PUSH3 0x461BCD PUSH1 0xE5 SHL DUP2 MSTORE PUSH1 0x20 PUSH1 0x4 DUP3 ADD MSTORE PUSH1 0x29 PUSH1 0x24 DUP3 ADD MSTORE PUSH32 0x546F6B656E45786368616E676550726F636573736F723A20746F6B656E206275 PUSH1 0x44 DUP3 ADD MSTORE PUSH9 0x1C9B8819985A5B1959 PUSH1 0xBA SHL PUSH1 0x64 DUP3 ADD MSTORE PUSH1 0x84 ADD PUSH2 0x174 JUMP JUMPDEST PUSH1 0x40 DUP1 MLOAD PUSH1 0x0 DUP1 DUP3 MSTORE PUSH1 0x20 DUP3 ADD SWAP1 SWAP3 MSTORE DUP2 PUSH2 0x909 JUMP JUMPDEST PUSH1 0x60 DUP2 MSTORE PUSH1 0x20 ADD SWAP1 PUSH1 0x1 SWAP1 SUB SWAP1 DUP2 PUSH2 0x8F4 JUMPI SWAP1 POP JUMPDEST POP PUSH1 0x40 MLOAD PUSH4 0x707A02CD PUSH1 0xE1 SHL DUP2 MSTORE SWAP1 SWAP2 POP PUSH1 0x1 PUSH1 0x1 PUSH1 0xA0 SHL SUB DUP8 AND SWAP1 PUSH4 0xE0F4059A SWAP1 PUSH2 0x93D SWAP1 DUP8 SWAP1 DUP14 SWAP1 DUP7 SWAP1 PUSH1 0x4 ADD PUSH2 0xC70 JUMP JUMPDEST PUSH1 0x0 PUSH1 0x40 MLOAD DUP1 DUP4 SUB DUP2 PUSH1 0x0 DUP8 GAS CALL ISZERO DUP1 ISZERO PUSH2 0x95C JUMPI RETURNDATASIZE PUSH1 0x0 DUP1 RETURNDATACOPY RETURNDATASIZE PUSH1 0x0 REVERT JUMPDEST POP POP POP POP PUSH1 0x40 MLOAD RETURNDATASIZE PUSH1 0x0 DUP3 RETURNDATACOPY PUSH1 0x1F RETURNDATASIZE SWAP1 DUP2 ADD PUSH1 0x1F NOT AND DUP3 ADD PUSH1 0x40 MSTORE PUSH2 0x984 SWAP2 SWAP1 DUP2 ADD SWAP1 PUSH2 0xD2E JUMP JUMPDEST POP SWAP2 POP PUSH1 0x16 DUP3 EQ PUSH2 0x9F3 JUMPI PUSH1 0x40 MLOAD PUSH3 0x461BCD PUSH1 0xE5 SHL DUP2 MSTORE PUSH1 0x20 PUSH1 0x4 DUP3 ADD MSTORE PUSH1 0x33 PUSH1 0x24 DUP3 ADD MSTORE PUSH32 0x546F6B656E45786368616E676550726F636573736F723A207365636F6E646172 PUSH1 0x44 DUP3 ADD MSTORE PUSH19 0x1E481D1BDAD95B881B5A5B9D0819985A5B1959 PUSH1 0x6A SHL PUSH1 0x64 DUP3 ADD MSTORE PUSH1 0x84 ADD PUSH2 0x174 JUMP JUMPDEST PUSH1 0x40 MLOAD PUSH4 0xECA36917 PUSH1 0xE0 SHL DUP2 MSTORE PUSH1 0x1 PUSH1 0x1 PUSH1 0xA0 SHL SUB DUP8 AND SWAP1 PUSH4 0xECA36917 SWAP1 PUSH2 0xA25 SWAP1 DUP8 SWAP1 ADDRESS SWAP1 CALLER SWAP1 DUP16 SWAP1 PUSH1 0x4 ADD PUSH2 0xC2D JUMP JUMPDEST PUSH1 0x20 PUSH1 0x40 MLOAD DUP1 DUP4 SUB DUP2 PUSH1 0x0 DUP8 GAS CALL ISZERO DUP1 ISZERO PUSH2 0xA44 JUMPI RETURNDATASIZE PUSH1 0x0 DUP1 RETURNDATACOPY RETURNDATASIZE PUSH1 0x0 REVERT JUMPDEST POP POP POP POP PUSH1 0x40 MLOAD RETURNDATASIZE PUSH1 0x1F NOT PUSH1 0x1F DUP3 ADD AND DUP3 ADD DUP1 PUSH1 0x40 MSTORE POP DUP2 ADD SWAP1 PUSH2 0xA68 SWAP2 SWAP1 PUSH2 0xB77 JUMP JUMPDEST SWAP2 POP PUSH1 0x16 DUP3 EQ PUSH2 0xAE0 JUMPI PUSH1 0x40 MLOAD PUSH3 0x461BCD PUSH1 0xE5 SHL DUP2 MSTORE PUSH1 0x20 PUSH1 0x4 DUP3 ADD MSTORE PUSH1 0x37 PUSH1 0x24 DUP3 ADD MSTORE PUSH32 0x546F6B656E45786368616E676550726F636573736F723A207365636F6E646172 PUSH1 0x44 DUP3 ADD MSTORE PUSH32 0x7920746F6B656E207472616E73666572206661696C6564000000000000000000 PUSH1 0x64 DUP3 ADD MSTORE PUSH1 0x84 ADD PUSH2 0x174 JUMP JUMPDEST PUSH1 0x40 DUP1 MLOAD DUP14 DUP2 MSTORE PUSH1 0x20 DUP2 ADD DUP12 SWAP1 MSTORE SWAP1 DUP2 ADD DUP10 SWAP1 MSTORE CALLER SWAP1 PUSH32 0xE31F21BA76B9A4215C8D14080F85B68CCFFC2EBFC377D8878C73A69D69300F90 SWAP1 PUSH1 0x60 ADD PUSH1 0x40 MLOAD DUP1 SWAP2 SUB SWAP1 LOG2 POP SWAP7 SWAP9 POP POP POP POP POP POP POP POP POP JUMPDEST SWAP2 SWAP1 POP JUMP JUMPDEST PUSH1 0x0 PUSH1 0x20 DUP3 DUP5 SUB SLT ISZERO PUSH2 0xB47 JUMPI PUSH1 0x0 DUP1 REVERT JUMPDEST POP CALLDATALOAD SWAP2 SWAP1 POP JUMP JUMPDEST PUSH1 0x0 PUSH1 0x20 DUP3 DUP5 SUB SLT ISZERO PUSH2 0xB60 JUMPI PUSH1 0x0 DUP1 REVERT JUMPDEST DUP2 MLOAD DUP1 ISZERO ISZERO DUP2 EQ PUSH2 0xB70 JUMPI PUSH1 0x0 DUP1 REVERT JUMPDEST SWAP4 SWAP3 POP POP POP JUMP JUMPDEST PUSH1 0x0 PUSH1 0x20 DUP3 DUP5 SUB SLT ISZERO PUSH2 0xB89 JUMPI PUSH1 0x0 DUP1 REVERT JUMPDEST POP MLOAD SWAP2 SWAP1 POP JUMP JUMPDEST PUSH4 0x4E487B71 PUSH1 0xE0 SHL PUSH1 0x0 MSTORE PUSH1 0x11 PUSH1 0x4 MSTORE PUSH1 0x24 PUSH1 0x0 REVERT JUMPDEST DUP1 DUP3 MUL DUP2 ISZERO DUP3 DUP3 DIV DUP5 EQ OR PUSH2 0xBBD JUMPI PUSH2 0xBBD PUSH2 0xB90 JUMP JUMPDEST SWAP3 SWAP2 POP POP JUMP JUMPDEST PUSH1 0x0 DUP3 PUSH2 0xBE0 JUMPI PUSH4 0x4E487B71 PUSH1 0xE0 SHL PUSH1 0x0 MSTORE PUSH1 0x12 PUSH1 0x4 MSTORE PUSH1 0x24 PUSH1 0x0 REVERT JUMPDEST POP DIV SWAP1 JUMP JUMPDEST DUP2 DUP2 SUB DUP2 DUP2 GT ISZERO PUSH2 0xBBD JUMPI PUSH2 0xBBD PUSH2 0xB90 JUMP JUMPDEST PUSH1 0x1 PUSH1 0x1 PUSH1 0xA0 SHL SUB DUP2 AND DUP2 EQ PUSH2 0xC0D JUMPI PUSH1 0x0 DUP1 REVERT JUMPDEST POP JUMP JUMPDEST PUSH1 0x0 PUSH1 0x20 DUP3 DUP5 SUB SLT ISZERO PUSH2 0xC22 JUMPI PUSH1 0x0 DUP1 REVERT JUMPDEST DUP2 MLOAD PUSH2 0xB70 DUP2 PUSH2 0xBF8 JUMP JUMPDEST PUSH1 0x1 PUSH1 0x1 PUSH1 0xA0 SHL SUB SWAP5 DUP6 AND DUP2 MSTORE SWAP3 DUP5 AND PUSH1 0x20 DUP5 ADD MSTORE SWAP3 AND PUSH1 0x40 DUP3 ADD MSTORE PUSH1 0x7 SWAP2 SWAP1 SWAP2 SIGNEXTEND PUSH1 0x60 DUP3 ADD MSTORE PUSH1 0x80 ADD SWAP1 JUMP JUMPDEST PUSH4 0x4E487B71 PUSH1 0xE0 SHL PUSH1 0x0 MSTORE PUSH1 0x41 PUSH1 0x4 MSTORE PUSH1 0x24 PUSH1 0x0 REVERT JUMPDEST PUSH1 0x0 PUSH1 0x60 DUP3 ADD PUSH1 0x1 DUP1 PUSH1 0xA0 SHL SUB DUP7 AND DUP4 MSTORE PUSH1 0x20 DUP6 PUSH1 0x7 SIGNEXTEND DUP2 DUP6 ADD MSTORE PUSH1 0x60 PUSH1 0x40 DUP6 ADD MSTORE DUP2 DUP6 MLOAD DUP1 DUP5 MSTORE PUSH1 0x80 DUP7 ADD SWAP2 POP PUSH1 0x80 DUP2 PUSH1 0x5 SHL DUP8 ADD ADD SWAP4 POP DUP3 DUP8 ADD PUSH1 0x0 DUP1 JUMPDEST DUP4 DUP2 LT ISZERO PUSH2 0xD0C JUMPI DUP9 DUP8 SUB PUSH1 0x7F NOT ADD DUP6 MSTORE DUP3 MLOAD DUP1 MLOAD DUP1 DUP10 MSTORE DUP4 JUMPDEST DUP2 DUP2 LT ISZERO PUSH2 0xCE5 JUMPI DUP3 DUP2 ADD DUP10 ADD MLOAD DUP11 DUP3 ADD DUP11 ADD MSTORE DUP9 ADD PUSH2 0xCCA JUMP JUMPDEST POP DUP9 DUP2 ADD DUP9 ADD DUP5 SWAP1 MSTORE PUSH1 0x1F ADD PUSH1 0x1F NOT AND SWAP1 SWAP8 ADD DUP7 ADD SWAP7 POP SWAP4 DUP6 ADD SWAP4 SWAP2 DUP6 ADD SWAP2 PUSH1 0x1 ADD PUSH2 0xCB0 JUMP JUMPDEST POP SWAP5 SWAP11 SWAP10 POP POP POP POP POP POP POP POP POP POP JUMP JUMPDEST DUP1 MLOAD PUSH1 0x7 DUP2 SWAP1 SIGNEXTEND DUP2 EQ PUSH2 0xB30 JUMPI PUSH1 0x0 DUP1 REVERT JUMPDEST PUSH1 0x0 DUP1 PUSH1 0x40 DUP4 DUP6 SUB SLT ISZERO PUSH2 0xD41 JUMPI PUSH1 0x0 DUP1 REVERT JUMPDEST DUP3 MLOAD SWAP2 POP PUSH1 0x20 DUP1 DUP5 ADD MLOAD PUSH8 0xFFFFFFFFFFFFFFFF DUP1 DUP3 GT ISZERO PUSH2 0xD61 JUMPI PUSH1 0x0 DUP1 REVERT JUMPDEST DUP2 DUP7 ADD SWAP2 POP DUP7 PUSH1 0x1F DUP4 ADD SLT PUSH2 0xD75 JUMPI PUSH1 0x0 DUP1 REVERT JUMPDEST DUP2 MLOAD DUP2 DUP2 GT ISZERO PUSH2 0xD87 JUMPI PUSH2 0xD87 PUSH2 0xC5A JUMP JUMPDEST DUP1 PUSH1 0x5 SHL PUSH1 0x40 MLOAD PUSH1 0x1F NOT PUSH1 0x3F DUP4 ADD AND DUP2 ADD DUP2 DUP2 LT DUP6 DUP3 GT OR ISZERO PUSH2 0xDAC JUMPI PUSH2 0xDAC PUSH2 0xC5A JUMP JUMPDEST PUSH1 0x40 MSTORE SWAP2 DUP3 MSTORE DUP5 DUP3 ADD SWAP3 POP DUP4 DUP2 ADD DUP6 ADD SWAP2 DUP10 DUP4 GT ISZERO PUSH2 0xDCA JUMPI PUSH1 0x0 DUP1 REVERT JUMPDEST SWAP4 DUP6 ADD SWAP4 JUMPDEST DUP3 DUP6 LT ISZERO PUSH2 0xDEF JUMPI PUSH2 0xDE0 DUP6 PUSH2 0xD1C JUMP JUMPDEST DUP5 MSTORE SWAP4 DUP6 ADD SWAP4 SWAP3 DUP6 ADD SWAP3 PUSH2 0xDCF JUMP JUMPDEST DUP1 SWAP7 POP POP POP POP POP POP POP SWAP3 POP SWAP3 SWAP1 POP JUMP INVALID LOG2 PUSH5 0x6970667358 0x22 SLT KECCAK256 0x22 0xD6 DUP9 0x5E DUP12 BYTE 0xA5 0xB1 POP SUB SWAP13 SWAP14 PUSH2 0x58BC SWAP4 0x2C SMOD DUP6 0xE9 0xB2 JUMPDEST DUP3 0x25 DUP15 SWAP14 PUSH25 0xECA8C847F864736F6C63430008140033000000000000000000 "},"methodIdentifiers":{"EXCHANGE_FEE_BPS()":"67cddb08","ecosystemCore()":"088c37dc","exchangeTokens(uint256)":"40477126"}}}}}