{"contracts/QuantumPlatformCore.sol":{"QuantumPlatformCore":{"abi":[{"inputs":[],"stateMutability":"nonpayable","type":"constructor"},{"anonymous":false,"inputs":[{"indexed":true,"internalType":"address","name":"oldOwner","type":"address"},{"indexed":true,"internalType":"address","name":"newOwner","type":"address"}],"name":"OwnershipChanged","type":"event"},{"anonymous":false,"inputs":[],"name":"SystemStarted","type":"event"},{"anonymous":false,"inputs":[],"name":"SystemStopped","type":"event"},{"inputs":[{"internalType":"address","name":"supervisor","type":"address"}],"name":"addSupervisor","outputs":[],"stateMutability":"nonpayable","type":"function"},{"inputs":[],"name":"baseTokenAddress","outputs":[{"internalType":"address","name":"","type":"address"}],"stateMutability":"view","type":"function"},{"inputs":[{"internalType":"address","name":"newOwner","type":"address"}],"name":"changeOwner","outputs":[],"stateMutability":"nonpayable","type":"function"},{"inputs":[{"internalType":"address","name":"account","type":"address"},{"internalType":"uint256","name":"amount","type":"uint256"}],"name":"checkTransactionLimits","outputs":[{"internalType":"bool","name":"","type":"bool"}],"stateMutability":"nonpayable","type":"function"},{"inputs":[],"name":"dailyTransactionCap","outputs":[{"internalType":"uint256","name":"","type":"uint256"}],"stateMutability":"view","type":"function"},{"inputs":[{"internalType":"address","name":"","type":"address"}],"name":"dailyTransactionTotals","outputs":[{"internalType":"uint256","name":"","type":"uint256"}],"stateMutability":"view","type":"function"},{"inputs":[],"name":"emergencyResume","outputs":[],"stateMutability":"nonpayable","type":"function"},{"inputs":[],"name":"emergencyStop","outputs":[],"stateMutability":"nonpayable","type":"function"},{"inputs":[],"name":"getBaseToken","outputs":[{"internalType":"address","name":"","type":"address"}],"stateMutability":"view","type":"function"},{"inputs":[],"name":"getHederaInterface","outputs":[{"internalType":"contract IHederaTokenService","name":"","type":"address"}],"stateMutability":"view","type":"function"},{"inputs":[],"name":"getTreasuryWallet","outputs":[{"internalType":"address","name":"","type":"address"}],"stateMutability":"view","type":"function"},{"inputs":[],"name":"getUtilityToken","outputs":[{"internalType":"address","name":"","type":"address"}],"stateMutability":"view","type":"function"},{"inputs":[{"internalType":"address","name":"account","type":"address"}],"name":"isOwner","outputs":[{"internalType":"bool","name":"","type":"bool"}],"stateMutability":"view","type":"function"},{"inputs":[{"internalType":"address","name":"account","type":"address"}],"name":"isSupervisor","outputs":[{"internalType":"bool","name":"","type":"bool"}],"stateMutability":"view","type":"function"},{"inputs":[],"name":"isSystemActive","outputs":[{"internalType":"bool","name":"","type":"bool"}],"stateMutability":"view","type":"function"},{"inputs":[{"internalType":"address","name":"","type":"address"}],"name":"lastTransactionTimestamp","outputs":[{"internalType":"uint256","name":"","type":"uint256"}],"stateMutability":"view","type":"function"},{"inputs":[],"name":"maxTransactionAmount","outputs":[{"internalType":"uint256","name":"","type":"uint256"}],"stateMutability":"view","type":"function"},{"inputs":[],"name":"platformOwner","outputs":[{"internalType":"address","name":"","type":"address"}],"stateMutability":"view","type":"function"},{"inputs":[{"internalType":"address","name":"supervisor","type":"address"}],"name":"removeSupervisor","outputs":[],"stateMutability":"nonpayable","type":"function"},{"inputs":[{"internalType":"address","name":"_baseToken","type":"address"},{"internalType":"address","name":"_utilityToken","type":"address"}],"name":"setTokenAddresses","outputs":[],"stateMutability":"nonpayable","type":"function"},{"inputs":[{"internalType":"address","name":"","type":"address"}],"name":"supervisors","outputs":[{"internalType":"bool","name":"","type":"bool"}],"stateMutability":"view","type":"function"},{"inputs":[],"name":"systemActive","outputs":[{"internalType":"bool","name":"","type":"bool"}],"stateMutability":"view","type":"function"},{"inputs":[],"name":"treasuryWallet","outputs":[{"internalType":"address","name":"","type":"address"}],"stateMutability":"view","type":"function"},{"inputs":[{"internalType":"address","name":"account","type":"address"},{"internalType":"uint256","name":"amount","type":"uint256"}],"name":"updateTransactionRecord","outputs":[],"stateMutability":"nonpayable","type":"function"},{"inputs":[],"name":"utilityTokenAddress","outputs":[{"internalType":"address","name":"","type":"address"}],"stateMutability":"view","type":"function"}],"evm":{"bytecode":{"linkReferences":{},"object":"60806040526402540be40060045564174876e80060055534801561002257600080fd5b50600080546001600160a01b0319908116339081179092556001805490911690911790556003805460ff60a01b1916600160a01b1790556109a0806100686000396000f3fe608060405234801561001057600080fd5b50600436106101725760003560e01c806356cf37b7116100de5780638913299a11610097578063a6f9dae111610071578063a6f9dae114610337578063a89c8c5e1461034a578063c8c8ebe41461035d578063e548e3e71461036657600080fd5b80638913299a1461030b57806393c87f031461031e57806398acd7a61461032657600080fd5b806356cf37b7146102a257806363a599a4146102c25780637128defb146102ca57806379137f9d146102dd5780637cb374bd146102e557806381a24459146102f857600080fd5b80633431d5c9116101305780633431d5c91461023a578063351662261461024e5780634626402b1461026057806348b151db146102735780634d218dd11461027c5780634df8ccb11461028f57600080fd5b80626266791461017757806307874140146101a157806311a2d8ff146101c457806329d10b6e146101f25780632c035b74146102075780632f54bf6e14610218575b600080fd5b6003546001600160a01b03165b6040516001600160a01b0390911681526020015b60405180910390f35b6101b46101af366004610860565b610389565b6040519015158152602001610198565b6101e46101d236600461088a565b60076020526000908152604090205481565b604051908152602001610198565b61020561020036600461088a565b610429565b005b6001546001600160a01b0316610184565b6101b461022636600461088a565b6000546001600160a01b0391821691161490565b6003546101b490600160a01b900460ff1681565b600354600160a01b900460ff166101b4565b600154610184906001600160a01b031681565b6101e460055481565b61020561028a366004610860565b6104d6565b600054610184906001600160a01b031681565b6101e46102b036600461088a565b60086020526000908152604090205481565b610205610561565b6102056102d836600461088a565b6105c3565b610167610184565b600254610184906001600160a01b031681565b6101b461030636600461088a565b61060e565b600354610184906001600160a01b031681565b610205610645565b6002546001600160a01b0316610184565b61020561034536600461088a565b6106ad565b6102056103583660046108ac565b610780565b6101e460045481565b6101b461037436600461088a565b60066020526000908152604090205460ff1681565b600060045482111561039d57506000610423565b60006103ac62015180426108df565b6001600160a01b0385166000908152600860205260409020549091508111156103f6576001600160a01b038416600090815260086020908152604080832084905560079091528120555b6005546001600160a01b03851660009081526007602052604090205461041d908590610901565b11159150505b92915050565b6000546001600160a01b0316331461045c5760405162461bcd60e51b815260040161045390610922565b60405180910390fd5b6001600160a01b0381166104b25760405162461bcd60e51b815260206004820152601a60248201527f496e76616c69642073757065727669736f7220616464726573730000000000006044820152606401610453565b6001600160a01b03166000908152600660205260409020805460ff19166001179055565b60006104e562015180426108df565b6001600160a01b03841660009081526008602052604090205490915081111561052f576001600160a01b038316600090815260086020908152604080832084905560079091528120555b6001600160a01b03831660009081526007602052604081208054849290610557908490610901565b9091555050505050565b6000546001600160a01b0316331461058b5760405162461bcd60e51b815260040161045390610922565b6003805460ff60a01b191690556040517fc66a1d54c915c2c24c37d31721cf561f983ad26f744829065e08b4b788ff3fc690600090a1565b6000546001600160a01b031633146105ed5760405162461bcd60e51b815260040161045390610922565b6001600160a01b03166000908152600660205260409020805460ff19169055565b6001600160a01b03811660009081526006602052604081205460ff16806104235750506000546001600160a01b0390811691161490565b6000546001600160a01b0316331461066f5760405162461bcd60e51b815260040161045390610922565b6003805460ff60a01b1916600160a01b1790556040517fc470ffc4e249ee10ac24f5d2296f9de3ec7451f8d117fbb238e4d5c3fbea953590600090a1565b6000546001600160a01b031633146106d75760405162461bcd60e51b815260040161045390610922565b6001600160a01b0381166107255760405162461bcd60e51b8152602060048201526015602482015274496e76616c6964206f776e6572206164647265737360581b6044820152606401610453565b600080546040516001600160a01b03808516939216917f0384899bd253d83b23daa4d29aaa2efe0563d1132b43101e9ad667235aeb951b91a3600080546001600160a01b0319166001600160a01b0392909216919091179055565b6000546001600160a01b031633146107aa5760405162461bcd60e51b815260040161045390610922565b6001600160a01b038216158015906107ca57506001600160a01b03811615155b6108165760405162461bcd60e51b815260206004820152601760248201527f496e76616c696420746f6b656e206164647265737365730000000000000000006044820152606401610453565b600280546001600160a01b039384166001600160a01b03199182161790915560038054929093169116179055565b80356001600160a01b038116811461085b57600080fd5b919050565b6000806040838503121561087357600080fd5b61087c83610844565b946020939093013593505050565b60006020828403121561089c57600080fd5b6108a582610844565b9392505050565b600080604083850312156108bf57600080fd5b6108c883610844565b91506108d660208401610844565b90509250929050565b6000826108fc57634e487b7160e01b600052601260045260246000fd5b500490565b8082018082111561042357634e487b7160e01b600052601160045260246000fd5b60208082526028908201527f5175616e74756d506c6174666f726d436f72653a2063616c6c6572206973206e60408201526737ba1037bbb732b960c11b60608201526080019056fea2646970667358221220cae92689b72c04649def8e03bde6a665c4fe050914f17c65143a4b4370f8c56064736f6c63430008140033","opcodes":"PUSH1 0x80 PUSH1 0x40 MSTORE PUSH5 0x2540BE400 PUSH1 0x4 SSTORE PUSH5 0x174876E800 PUSH1 0x5 SSTORE CALLVALUE DUP1 ISZERO PUSH2 0x22 JUMPI PUSH1 0x0 DUP1 REVERT JUMPDEST POP PUSH1 0x0 DUP1 SLOAD PUSH1 0x1 PUSH1 0x1 PUSH1 0xA0 SHL SUB NOT SWAP1 DUP2 AND CALLER SWAP1 DUP2 OR SWAP1 SWAP3 SSTORE PUSH1 0x1 DUP1 SLOAD SWAP1 SWAP2 AND SWAP1 SWAP2 OR SWAP1 SSTORE PUSH1 0x3 DUP1 SLOAD PUSH1 0xFF PUSH1 0xA0 SHL NOT AND PUSH1 0x1 PUSH1 0xA0 SHL OR SWAP1 SSTORE PUSH2 0x9A0 DUP1 PUSH2 0x68 PUSH1 0x0 CODECOPY PUSH1 0x0 RETURN INVALID PUSH1 0x80 PUSH1 0x40 MSTORE CALLVALUE DUP1 ISZERO PUSH2 0x10 JUMPI PUSH1 0x0 DUP1 REVERT JUMPDEST POP PUSH1 0x4 CALLDATASIZE LT PUSH2 0x172 JUMPI PUSH1 0x0 CALLDATALOAD PUSH1 0xE0 SHR DUP1 PUSH4 0x56CF37B7 GT PUSH2 0xDE JUMPI DUP1 PUSH4 0x8913299A GT PUSH2 0x97 JUMPI DUP1 PUSH4 0xA6F9DAE1 GT PUSH2 0x71 JUMPI DUP1 PUSH4 0xA6F9DAE1 EQ PUSH2 0x337 JUMPI DUP1 PUSH4 0xA89C8C5E EQ PUSH2 0x34A JUMPI DUP1 PUSH4 0xC8C8EBE4 EQ PUSH2 0x35D JUMPI DUP1 PUSH4 0xE548E3E7 EQ PUSH2 0x366 JUMPI PUSH1 0x0 DUP1 REVERT JUMPDEST DUP1 PUSH4 0x8913299A EQ PUSH2 0x30B JUMPI DUP1 PUSH4 0x93C87F03 EQ PUSH2 0x31E JUMPI DUP1 PUSH4 0x98ACD7A6 EQ PUSH2 0x326 JUMPI PUSH1 0x0 DUP1 REVERT JUMPDEST DUP1 PUSH4 0x56CF37B7 EQ PUSH2 0x2A2 JUMPI DUP1 PUSH4 0x63A599A4 EQ PUSH2 0x2C2 JUMPI DUP1 PUSH4 0x7128DEFB EQ PUSH2 0x2CA JUMPI DUP1 PUSH4 0x79137F9D EQ PUSH2 0x2DD JUMPI DUP1 PUSH4 0x7CB374BD EQ PUSH2 0x2E5 JUMPI DUP1 PUSH4 0x81A24459 EQ PUSH2 0x2F8 JUMPI PUSH1 0x0 DUP1 REVERT JUMPDEST DUP1 PUSH4 0x3431D5C9 GT PUSH2 0x130 JUMPI DUP1 PUSH4 0x3431D5C9 EQ PUSH2 0x23A JUMPI DUP1 PUSH4 0x35166226 EQ PUSH2 0x24E JUMPI DUP1 PUSH4 0x4626402B EQ PUSH2 0x260 JUMPI DUP1 PUSH4 0x48B151DB EQ PUSH2 0x273 JUMPI DUP1 PUSH4 0x4D218DD1 EQ PUSH2 0x27C JUMPI DUP1 PUSH4 0x4DF8CCB1 EQ PUSH2 0x28F JUMPI PUSH1 0x0 DUP1 REVERT JUMPDEST DUP1 PUSH3 0x626679 EQ PUSH2 0x177 JUMPI DUP1 PUSH4 0x7874140 EQ PUSH2 0x1A1 JUMPI DUP1 PUSH4 0x11A2D8FF EQ PUSH2 0x1C4 JUMPI DUP1 PUSH4 0x29D10B6E EQ PUSH2 0x1F2 JUMPI DUP1 PUSH4 0x2C035B74 EQ PUSH2 0x207 JUMPI DUP1 PUSH4 0x2F54BF6E EQ PUSH2 0x218 JUMPI JUMPDEST PUSH1 0x0 DUP1 REVERT JUMPDEST PUSH1 0x3 SLOAD PUSH1 0x1 PUSH1 0x1 PUSH1 0xA0 SHL SUB AND JUMPDEST PUSH1 0x40 MLOAD PUSH1 0x1 PUSH1 0x1 PUSH1 0xA0 SHL SUB SWAP1 SWAP2 AND DUP2 MSTORE PUSH1 0x20 ADD JUMPDEST PUSH1 0x40 MLOAD DUP1 SWAP2 SUB SWAP1 RETURN JUMPDEST PUSH2 0x1B4 PUSH2 0x1AF CALLDATASIZE PUSH1 0x4 PUSH2 0x860 JUMP JUMPDEST PUSH2 0x389 JUMP JUMPDEST PUSH1 0x40 MLOAD SWAP1 ISZERO ISZERO DUP2 MSTORE PUSH1 0x20 ADD PUSH2 0x198 JUMP JUMPDEST PUSH2 0x1E4 PUSH2 0x1D2 CALLDATASIZE PUSH1 0x4 PUSH2 0x88A JUMP JUMPDEST PUSH1 0x7 PUSH1 0x20 MSTORE PUSH1 0x0 SWAP1 DUP2 MSTORE PUSH1 0x40 SWAP1 KECCAK256 SLOAD DUP2 JUMP JUMPDEST PUSH1 0x40 MLOAD SWAP1 DUP2 MSTORE PUSH1 0x20 ADD PUSH2 0x198 JUMP JUMPDEST PUSH2 0x205 PUSH2 0x200 CALLDATASIZE PUSH1 0x4 PUSH2 0x88A JUMP JUMPDEST PUSH2 0x429 JUMP JUMPDEST STOP JUMPDEST PUSH1 0x1 SLOAD PUSH1 0x1 PUSH1 0x1 PUSH1 0xA0 SHL SUB AND PUSH2 0x184 JUMP JUMPDEST PUSH2 0x1B4 PUSH2 0x226 CALLDATASIZE PUSH1 0x4 PUSH2 0x88A JUMP JUMPDEST PUSH1 0x0 SLOAD PUSH1 0x1 PUSH1 0x1 PUSH1 0xA0 SHL SUB SWAP2 DUP3 AND SWAP2 AND EQ SWAP1 JUMP JUMPDEST PUSH1 0x3 SLOAD PUSH2 0x1B4 SWAP1 PUSH1 0x1 PUSH1 0xA0 SHL SWAP1 DIV PUSH1 0xFF AND DUP2 JUMP JUMPDEST PUSH1 0x3 SLOAD PUSH1 0x1 PUSH1 0xA0 SHL SWAP1 DIV PUSH1 0xFF AND PUSH2 0x1B4 JUMP JUMPDEST PUSH1 0x1 SLOAD PUSH2 0x184 SWAP1 PUSH1 0x1 PUSH1 0x1 PUSH1 0xA0 SHL SUB AND DUP2 JUMP JUMPDEST PUSH2 0x1E4 PUSH1 0x5 SLOAD DUP2 JUMP JUMPDEST PUSH2 0x205 PUSH2 0x28A CALLDATASIZE PUSH1 0x4 PUSH2 0x860 JUMP JUMPDEST PUSH2 0x4D6 JUMP JUMPDEST PUSH1 0x0 SLOAD PUSH2 0x184 SWAP1 PUSH1 0x1 PUSH1 0x1 PUSH1 0xA0 SHL SUB AND DUP2 JUMP JUMPDEST PUSH2 0x1E4 PUSH2 0x2B0 CALLDATASIZE PUSH1 0x4 PUSH2 0x88A JUMP JUMPDEST PUSH1 0x8 PUSH1 0x20 MSTORE PUSH1 0x0 SWAP1 DUP2 MSTORE PUSH1 0x40 SWAP1 KECCAK256 SLOAD DUP2 JUMP JUMPDEST PUSH2 0x205 PUSH2 0x561 JUMP JUMPDEST PUSH2 0x205 PUSH2 0x2D8 CALLDATASIZE PUSH1 0x4 PUSH2 0x88A JUMP JUMPDEST PUSH2 0x5C3 JUMP JUMPDEST PUSH2 0x167 PUSH2 0x184 JUMP JUMPDEST PUSH1 0x2 SLOAD PUSH2 0x184 SWAP1 PUSH1 0x1 PUSH1 0x1 PUSH1 0xA0 SHL SUB AND DUP2 JUMP JUMPDEST PUSH2 0x1B4 PUSH2 0x306 CALLDATASIZE PUSH1 0x4 PUSH2 0x88A JUMP JUMPDEST PUSH2 0x60E JUMP JUMPDEST PUSH1 0x3 SLOAD PUSH2 0x184 SWAP1 PUSH1 0x1 PUSH1 0x1 PUSH1 0xA0 SHL SUB AND DUP2 JUMP JUMPDEST PUSH2 0x205 PUSH2 0x645 JUMP JUMPDEST PUSH1 0x2 SLOAD PUSH1 0x1 PUSH1 0x1 PUSH1 0xA0 SHL SUB AND PUSH2 0x184 JUMP JUMPDEST PUSH2 0x205 PUSH2 0x345 CALLDATASIZE PUSH1 0x4 PUSH2 0x88A JUMP JUMPDEST PUSH2 0x6AD JUMP JUMPDEST PUSH2 0x205 PUSH2 0x358 CALLDATASIZE PUSH1 0x4 PUSH2 0x8AC JUMP JUMPDEST PUSH2 0x780 JUMP JUMPDEST PUSH2 0x1E4 PUSH1 0x4 SLOAD DUP2 JUMP JUMPDEST PUSH2 0x1B4 PUSH2 0x374 CALLDATASIZE PUSH1 0x4 PUSH2 0x88A JUMP JUMPDEST PUSH1 0x6 PUSH1 0x20 MSTORE PUSH1 0x0 SWAP1 DUP2 MSTORE PUSH1 0x40 SWAP1 KECCAK256 SLOAD PUSH1 0xFF AND DUP2 JUMP JUMPDEST PUSH1 0x0 PUSH1 0x4 SLOAD DUP3 GT ISZERO PUSH2 0x39D JUMPI POP PUSH1 0x0 PUSH2 0x423 JUMP JUMPDEST PUSH1 0x0 PUSH2 0x3AC PUSH3 0x15180 TIMESTAMP PUSH2 0x8DF JUMP JUMPDEST PUSH1 0x1 PUSH1 0x1 PUSH1 0xA0 SHL SUB DUP6 AND PUSH1 0x0 SWAP1 DUP2 MSTORE PUSH1 0x8 PUSH1 0x20 MSTORE PUSH1 0x40 SWAP1 KECCAK256 SLOAD SWAP1 SWAP2 POP DUP2 GT ISZERO PUSH2 0x3F6 JUMPI PUSH1 0x1 PUSH1 0x1 PUSH1 0xA0 SHL SUB DUP5 AND PUSH1 0x0 SWAP1 DUP2 MSTORE PUSH1 0x8 PUSH1 0x20 SWAP1 DUP2 MSTORE PUSH1 0x40 DUP1 DUP4 KECCAK256 DUP5 SWAP1 SSTORE PUSH1 0x7 SWAP1 SWAP2 MSTORE DUP2 KECCAK256 SSTORE JUMPDEST PUSH1 0x5 SLOAD PUSH1 0x1 PUSH1 0x1 PUSH1 0xA0 SHL SUB DUP6 AND PUSH1 0x0 SWAP1 DUP2 MSTORE PUSH1 0x7 PUSH1 0x20 MSTORE PUSH1 0x40 SWAP1 KECCAK256 SLOAD PUSH2 0x41D SWAP1 DUP6 SWAP1 PUSH2 0x901 JUMP JUMPDEST GT ISZERO SWAP2 POP POP JUMPDEST SWAP3 SWAP2 POP POP JUMP JUMPDEST PUSH1 0x0 SLOAD PUSH1 0x1 PUSH1 0x1 PUSH1 0xA0 SHL SUB AND CALLER EQ PUSH2 0x45C JUMPI PUSH1 0x40 MLOAD PUSH3 0x461BCD PUSH1 0xE5 SHL DUP2 MSTORE PUSH1 0x4 ADD PUSH2 0x453 SWAP1 PUSH2 0x922 JUMP JUMPDEST PUSH1 0x40 MLOAD DUP1 SWAP2 SUB SWAP1 REVERT JUMPDEST PUSH1 0x1 PUSH1 0x1 PUSH1 0xA0 SHL SUB DUP2 AND PUSH2 0x4B2 JUMPI PUSH1 0x40 MLOAD PUSH3 0x461BCD PUSH1 0xE5 SHL DUP2 MSTORE PUSH1 0x20 PUSH1 0x4 DUP3 ADD MSTORE PUSH1 0x1A PUSH1 0x24 DUP3 ADD MSTORE PUSH32 0x496E76616C69642073757065727669736F722061646472657373000000000000 PUSH1 0x44 DUP3 ADD MSTORE PUSH1 0x64 ADD PUSH2 0x453 JUMP JUMPDEST PUSH1 0x1 PUSH1 0x1 PUSH1 0xA0 SHL SUB AND PUSH1 0x0 SWAP1 DUP2 MSTORE PUSH1 0x6 PUSH1 0x20 MSTORE PUSH1 0x40 SWAP1 KECCAK256 DUP1 SLOAD PUSH1 0xFF NOT AND PUSH1 0x1 OR SWAP1 SSTORE JUMP JUMPDEST PUSH1 0x0 PUSH2 0x4E5 PUSH3 0x15180 TIMESTAMP PUSH2 0x8DF JUMP JUMPDEST PUSH1 0x1 PUSH1 0x1 PUSH1 0xA0 SHL SUB DUP5 AND PUSH1 0x0 SWAP1 DUP2 MSTORE PUSH1 0x8 PUSH1 0x20 MSTORE PUSH1 0x40 SWAP1 KECCAK256 SLOAD SWAP1 SWAP2 POP DUP2 GT ISZERO PUSH2 0x52F JUMPI PUSH1 0x1 PUSH1 0x1 PUSH1 0xA0 SHL SUB DUP4 AND PUSH1 0x0 SWAP1 DUP2 MSTORE PUSH1 0x8 PUSH1 0x20 SWAP1 DUP2 MSTORE PUSH1 0x40 DUP1 DUP4 KECCAK256 DUP5 SWAP1 SSTORE PUSH1 0x7 SWAP1 SWAP2 MSTORE DUP2 KECCAK256 SSTORE JUMPDEST PUSH1 0x1 PUSH1 0x1 PUSH1 0xA0 SHL SUB DUP4 AND PUSH1 0x0 SWAP1 DUP2 MSTORE PUSH1 0x7 PUSH1 0x20 MSTORE PUSH1 0x40 DUP2 KECCAK256 DUP1 SLOAD DUP5 SWAP3 SWAP1 PUSH2 0x557 SWAP1 DUP5 SWAP1 PUSH2 0x901 JUMP JUMPDEST SWAP1 SWAP2 SSTORE POP POP POP POP POP JUMP JUMPDEST PUSH1 0x0 SLOAD PUSH1 0x1 PUSH1 0x1 PUSH1 0xA0 SHL SUB AND CALLER EQ PUSH2 0x58B JUMPI PUSH1 0x40 MLOAD PUSH3 0x461BCD PUSH1 0xE5 SHL DUP2 MSTORE PUSH1 0x4 ADD PUSH2 0x453 SWAP1 PUSH2 0x922 JUMP JUMPDEST PUSH1 0x3 DUP1 SLOAD PUSH1 0xFF PUSH1 0xA0 SHL NOT AND SWAP1 SSTORE PUSH1 0x40 MLOAD PUSH32 0xC66A1D54C915C2C24C37D31721CF561F983AD26F744829065E08B4B788FF3FC6 SWAP1 PUSH1 0x0 SWAP1 LOG1 JUMP JUMPDEST PUSH1 0x0 SLOAD PUSH1 0x1 PUSH1 0x1 PUSH1 0xA0 SHL SUB AND CALLER EQ PUSH2 0x5ED JUMPI PUSH1 0x40 MLOAD PUSH3 0x461BCD PUSH1 0xE5 SHL DUP2 MSTORE PUSH1 0x4 ADD PUSH2 0x453 SWAP1 PUSH2 0x922 JUMP JUMPDEST PUSH1 0x1 PUSH1 0x1 PUSH1 0xA0 SHL SUB AND PUSH1 0x0 SWAP1 DUP2 MSTORE PUSH1 0x6 PUSH1 0x20 MSTORE PUSH1 0x40 SWAP1 KECCAK256 DUP1 SLOAD PUSH1 0xFF NOT AND SWAP1 SSTORE JUMP JUMPDEST PUSH1 0x1 PUSH1 0x1 PUSH1 0xA0 SHL SUB DUP2 AND PUSH1 0x0 SWAP1 DUP2 MSTORE PUSH1 0x6 PUSH1 0x20 MSTORE PUSH1 0x40 DUP2 KECCAK256 SLOAD PUSH1 0xFF AND DUP1 PUSH2 0x423 JUMPI POP POP PUSH1 0x0 SLOAD PUSH1 0x1 PUSH1 0x1 PUSH1 0xA0 SHL SUB SWAP1 DUP2 AND SWAP2 AND EQ SWAP1 JUMP JUMPDEST PUSH1 0x0 SLOAD PUSH1 0x1 PUSH1 0x1 PUSH1 0xA0 SHL SUB AND CALLER EQ PUSH2 0x66F JUMPI PUSH1 0x40 MLOAD PUSH3 0x461BCD PUSH1 0xE5 SHL DUP2 MSTORE PUSH1 0x4 ADD PUSH2 0x453 SWAP1 PUSH2 0x922 JUMP JUMPDEST PUSH1 0x3 DUP1 SLOAD PUSH1 0xFF PUSH1 0xA0 SHL NOT AND PUSH1 0x1 PUSH1 0xA0 SHL OR SWAP1 SSTORE PUSH1 0x40 MLOAD PUSH32 0xC470FFC4E249EE10AC24F5D2296F9DE3EC7451F8D117FBB238E4D5C3FBEA9535 SWAP1 PUSH1 0x0 SWAP1 LOG1 JUMP JUMPDEST PUSH1 0x0 SLOAD PUSH1 0x1 PUSH1 0x1 PUSH1 0xA0 SHL SUB AND CALLER EQ PUSH2 0x6D7 JUMPI PUSH1 0x40 MLOAD PUSH3 0x461BCD PUSH1 0xE5 SHL DUP2 MSTORE PUSH1 0x4 ADD PUSH2 0x453 SWAP1 PUSH2 0x922 JUMP JUMPDEST PUSH1 0x1 PUSH1 0x1 PUSH1 0xA0 SHL SUB DUP2 AND PUSH2 0x725 JUMPI PUSH1 0x40 MLOAD PUSH3 0x461BCD PUSH1 0xE5 SHL DUP2 MSTORE PUSH1 0x20 PUSH1 0x4 DUP3 ADD MSTORE PUSH1 0x15 PUSH1 0x24 DUP3 ADD MSTORE PUSH21 0x496E76616C6964206F776E65722061646472657373 PUSH1 0x58 SHL PUSH1 0x44 DUP3 ADD MSTORE PUSH1 0x64 ADD PUSH2 0x453 JUMP JUMPDEST PUSH1 0x0 DUP1 SLOAD PUSH1 0x40 MLOAD PUSH1 0x1 PUSH1 0x1 PUSH1 0xA0 SHL SUB DUP1 DUP6 AND SWAP4 SWAP3 AND SWAP2 PUSH32 0x384899BD253D83B23DAA4D29AAA2EFE0563D1132B43101E9AD667235AEB951B SWAP2 LOG3 PUSH1 0x0 DUP1 SLOAD PUSH1 0x1 PUSH1 0x1 PUSH1 0xA0 SHL SUB NOT AND PUSH1 0x1 PUSH1 0x1 PUSH1 0xA0 SHL SUB SWAP3 SWAP1 SWAP3 AND SWAP2 SWAP1 SWAP2 OR SWAP1 SSTORE JUMP JUMPDEST PUSH1 0x0 SLOAD PUSH1 0x1 PUSH1 0x1 PUSH1 0xA0 SHL SUB AND CALLER EQ PUSH2 0x7AA JUMPI PUSH1 0x40 MLOAD PUSH3 0x461BCD PUSH1 0xE5 SHL DUP2 MSTORE PUSH1 0x4 ADD PUSH2 0x453 SWAP1 PUSH2 0x922 JUMP JUMPDEST PUSH1 0x1 PUSH1 0x1 PUSH1 0xA0 SHL SUB DUP3 AND ISZERO DUP1 ISZERO SWAP1 PUSH2 0x7CA JUMPI POP PUSH1 0x1 PUSH1 0x1 PUSH1 0xA0 SHL SUB DUP2 AND ISZERO ISZERO JUMPDEST PUSH2 0x816 JUMPI PUSH1 0x40 MLOAD PUSH3 0x461BCD PUSH1 0xE5 SHL DUP2 MSTORE PUSH1 0x20 PUSH1 0x4 DUP3 ADD MSTORE PUSH1 0x17 PUSH1 0x24 DUP3 ADD MSTORE PUSH32 0x496E76616C696420746F6B656E20616464726573736573000000000000000000 PUSH1 0x44 DUP3 ADD MSTORE PUSH1 0x64 ADD PUSH2 0x453 JUMP JUMPDEST PUSH1 0x2 DUP1 SLOAD PUSH1 0x1 PUSH1 0x1 PUSH1 0xA0 SHL SUB SWAP4 DUP5 AND PUSH1 0x1 PUSH1 0x1 PUSH1 0xA0 SHL SUB NOT SWAP2 DUP3 AND OR SWAP1 SWAP2 SSTORE PUSH1 0x3 DUP1 SLOAD SWAP3 SWAP1 SWAP4 AND SWAP2 AND OR SWAP1 SSTORE JUMP JUMPDEST DUP1 CALLDATALOAD PUSH1 0x1 PUSH1 0x1 PUSH1 0xA0 SHL SUB DUP2 AND DUP2 EQ PUSH2 0x85B JUMPI PUSH1 0x0 DUP1 REVERT JUMPDEST SWAP2 SWAP1 POP JUMP JUMPDEST PUSH1 0x0 DUP1 PUSH1 0x40 DUP4 DUP6 SUB SLT ISZERO PUSH2 0x873 JUMPI PUSH1 0x0 DUP1 REVERT JUMPDEST PUSH2 0x87C DUP4 PUSH2 0x844 JUMP JUMPDEST SWAP5 PUSH1 0x20 SWAP4 SWAP1 SWAP4 ADD CALLDATALOAD SWAP4 POP POP POP JUMP JUMPDEST PUSH1 0x0 PUSH1 0x20 DUP3 DUP5 SUB SLT ISZERO PUSH2 0x89C JUMPI PUSH1 0x0 DUP1 REVERT JUMPDEST PUSH2 0x8A5 DUP3 PUSH2 0x844 JUMP JUMPDEST SWAP4 SWAP3 POP POP POP JUMP JUMPDEST PUSH1 0x0 DUP1 PUSH1 0x40 DUP4 DUP6 SUB SLT ISZERO PUSH2 0x8BF JUMPI PUSH1 0x0 DUP1 REVERT JUMPDEST PUSH2 0x8C8 DUP4 PUSH2 0x844 JUMP JUMPDEST SWAP2 POP PUSH2 0x8D6 PUSH1 0x20 DUP5 ADD PUSH2 0x844 JUMP JUMPDEST SWAP1 POP SWAP3 POP SWAP3 SWAP1 POP JUMP JUMPDEST PUSH1 0x0 DUP3 PUSH2 0x8FC JUMPI PUSH4 0x4E487B71 PUSH1 0xE0 SHL PUSH1 0x0 MSTORE PUSH1 0x12 PUSH1 0x4 MSTORE PUSH1 0x24 PUSH1 0x0 REVERT JUMPDEST POP DIV SWAP1 JUMP JUMPDEST DUP1 DUP3 ADD DUP1 DUP3 GT ISZERO PUSH2 0x423 JUMPI PUSH4 0x4E487B71 PUSH1 0xE0 SHL PUSH1 0x0 MSTORE PUSH1 0x11 PUSH1 0x4 MSTORE PUSH1 0x24 PUSH1 0x0 REVERT JUMPDEST PUSH1 0x20 DUP1 DUP3 MSTORE PUSH1 0x28 SWAP1 DUP3 ADD MSTORE PUSH32 0x5175616E74756D506C6174666F726D436F72653A2063616C6C6572206973206E PUSH1 0x40 DUP3 ADD MSTORE PUSH8 0x37BA1037BBB732B9 PUSH1 0xC1 SHL PUSH1 0x60 DUP3 ADD MSTORE PUSH1 0x80 ADD SWAP1 JUMP INVALID LOG2 PUSH5 0x6970667358 0x22 SLT KECCAK256 0xCA 0xE9 0x26 DUP10 0xB7 0x2C DIV PUSH5 0x9DEF8E03BD 0xE6 0xA6 PUSH6 0xC4FE050914F1 PUSH29 0x65143A4B4370F8C56064736F6C63430008140033000000000000000000 "},"methodIdentifiers":{"addSupervisor(address)":"29d10b6e","baseTokenAddress()":"7cb374bd","changeOwner(address)":"a6f9dae1","checkTransactionLimits(address,uint256)":"07874140","dailyTransactionCap()":"48b151db","dailyTransactionTotals(address)":"11a2d8ff","emergencyResume()":"93c87f03","emergencyStop()":"63a599a4","getBaseToken()":"98acd7a6","getHederaInterface()":"79137f9d","getTreasuryWallet()":"2c035b74","getUtilityToken()":"00626679","isOwner(address)":"2f54bf6e","isSupervisor(address)":"81a24459","isSystemActive()":"35166226","lastTransactionTimestamp(address)":"56cf37b7","maxTransactionAmount()":"c8c8ebe4","platformOwner()":"4df8ccb1","removeSupervisor(address)":"7128defb","setTokenAddresses(address,address)":"a89c8c5e","supervisors(address)":"e548e3e7","systemActive()":"3431d5c9","treasuryWallet()":"4626402b","updateTransactionRecord(address,uint256)":"4d218dd1","utilityTokenAddress()":"8913299a"}}}}}