{"contracts/StakeManager.sol":{"StakeManager":{"abi":[{"inputs":[{"internalType":"address","name":"_platformCore","type":"address"}],"stateMutability":"nonpayable","type":"constructor"},{"anonymous":false,"inputs":[{"indexed":true,"internalType":"address","name":"staker","type":"address"},{"indexed":false,"internalType":"uint256","name":"baseTokenAmount","type":"uint256"},{"indexed":false,"internalType":"uint256","name":"utilityTokenAmount","type":"uint256"}],"name":"TokensStaked","type":"event"},{"inputs":[],"name":"STAKE_FEE_BPS","outputs":[{"internalType":"uint256","name":"","type":"uint256"}],"stateMutability":"view","type":"function"},{"inputs":[],"name":"platformCore","outputs":[{"internalType":"contract IQuantumPlatformCore","name":"","type":"address"}],"stateMutability":"view","type":"function"},{"inputs":[{"internalType":"uint256","name":"baseTokenAmount","type":"uint256"}],"name":"stakeTokens","outputs":[{"internalType":"uint256","name":"","type":"uint256"}],"stateMutability":"nonpayable","type":"function"}],"evm":{"bytecode":{"linkReferences":{},"object":"608060405234801561001057600080fd5b50604051610e3a380380610e3a83398101604081905261002f916100c2565b6001600160a01b03811661009d5760405162461bcd60e51b815260206004820152602b60248201527f5374616b654d616e616765723a20706c6174666f726d20636f7265206164647260448201526a657373206973207a65726f60a81b606482015260840160405180910390fd5b600080546001600160a01b0319166001600160a01b03929092169190911790556100f2565b6000602082840312156100d457600080fd5b81516001600160a01b03811681146100eb57600080fd5b9392505050565b610d39806101016000396000f3fe608060405234801561001057600080fd5b50600436106100415760003560e01c806374a5ffc4146100465780637547c7a314610061578063bfa5020c14610074575b600080fd5b61004e60c881565b6040519081526020015b60405180910390f35b61004e61006f366004610a39565b61009f565b600054610087906001600160a01b031681565b6040516001600160a01b039091168152602001610058565b60008060009054906101000a90046001600160a01b03166001600160a01b031663351662266040518163ffffffff1660e01b8152600401602060405180830381865afa1580156100f3573d6000803e3d6000fd5b505050506040513d601f19601f820116820180604052508101906101179190610a52565b6101735760405162461bcd60e51b815260206004820152602260248201527f5374616b654d616e616765723a2073797374656d206973206e6f742061637469604482015261766560f01b60648201526084015b60405180910390fd5b600082116101da5760405162461bcd60e51b815260206004820152602e60248201527f5374616b654d616e616765723a20616d6f756e74206d7573742062652067726560448201526d61746572207468616e207a65726f60901b606482015260840161016a565b600054604051621e1d0560e61b8152336004820152602481018490526001600160a01b03909116906307874140906044016020604051808303816000875af115801561022a573d6000803e3d6000fd5b505050506040513d601f19601f8201168201806040525081019061024e9190610a52565b6102ab5760405162461bcd60e51b815260206004820152602860248201527f5374616b654d616e616765723a2065786365656473207472616e73616374696f6044820152676e206c696d69747360c01b606482015260840161016a565b600054604051634d218dd160e01b8152336004820152602481018490526001600160a01b0390911690634d218dd190604401600060405180830381600087803b1580156102f757600080fd5b505af115801561030b573d6000803e3d6000fd5b5050505060006101f483620f42406103239190610a91565b61032d9190610aae565b90506000811161037f5760405162461bcd60e51b815260206004820152601e60248201527f5374616b654d616e616765723a20616d6f756e7420746f6f20736d616c6c0000604482015260640161016a565b600061271061038f60c886610a91565b6103999190610aae565b905060006103a78286610ad0565b905060008060009054906101000a90046001600160a01b03166001600160a01b03166379137f9d6040518163ffffffff1660e01b8152600401602060405180830381865afa1580156103fd573d6000803e3d6000fd5b505050506040513d601f19601f820116820180604052508101906104219190610afb565b905060008060009054906101000a90046001600160a01b03166001600160a01b03166398acd7a66040518163ffffffff1660e01b8152600401602060405180830381865afa158015610477573d6000803e3d6000fd5b505050506040513d601f19601f8201168201806040525081019061049b9190610afb565b905060008060009054906101000a90046001600160a01b03166001600160a01b0316626266796040518163ffffffff1660e01b8152600401602060405180830381865afa1580156104f0573d6000803e3d6000fd5b505050506040513d601f19601f820116820180604052508101906105149190610afb565b905060008060009054906101000a90046001600160a01b03166001600160a01b0316632c035b746040518163ffffffff1660e01b8152600401602060405180830381865afa15801561056a573d6000803e3d6000fd5b505050506040513d601f19601f8201168201806040525081019061058e9190610afb565b90506000846001600160a01b031663eca369178533308e6040518563ffffffff1660e01b81526004016105c49493929190610b18565b6020604051808303816000875af11580156105e3573d6000803e3d6000fd5b505050506040513d601f19601f820116820180604052508101906106079190610b45565b90506016811461066a5760405162461bcd60e51b815260206004820152602860248201527f5374616b654d616e616765723a206261736520746f6b656e207472616e7366656044820152671c8819985a5b195960c21b606482015260840161016a565b60405163eca3691760e01b81526001600160a01b0386169063eca369179061069c908790309087908d90600401610b18565b6020604051808303816000875af11580156106bb573d6000803e3d6000fd5b505050506040513d601f19601f820116820180604052508101906106df9190610b45565b90506016811461073b5760405162461bcd60e51b815260206004820152602160248201527f5374616b654d616e616765723a20666565207472616e73666572206661696c656044820152601960fa1b606482015260840161016a565b604051631bdc8dff60e21b81526001600160a01b038581166004830152306024830152600788900b6044830152861690636f7237fc906064016020604051808303816000875af1158015610793573d6000803e3d6000fd5b505050506040513d601f19601f820116820180604052508101906107b79190610b45565b9050601681146108095760405162461bcd60e51b815260206004820152601f60248201527f5374616b654d616e616765723a20746f6b656e206275726e206661696c656400604482015260640161016a565b6040805160008082526020820190925281610834565b606081526020019060019003908161081f5790505b5060405163707a02cd60e11b81529091506001600160a01b0387169063e0f4059a906108689087908d908690600401610b74565b6000604051808303816000875af1158015610887573d6000803e3d6000fd5b505050506040513d6000823e601f3d908101601f191682016040526108af9190810190610c32565b509150601682146109125760405162461bcd60e51b815260206004820152602760248201527f5374616b654d616e616765723a207574696c69747920746f6b656e206d696e746044820152660819985a5b195960ca1b606482015260840161016a565b60405163eca3691760e01b81526001600160a01b0387169063eca3691790610944908790309033908f90600401610b18565b6020604051808303816000875af1158015610963573d6000803e3d6000fd5b505050506040513d601f19601f820116820180604052508101906109879190610b45565b9150601682146109ed5760405162461bcd60e51b815260206004820152602b60248201527f5374616b654d616e616765723a207574696c69747920746f6b656e207472616e60448201526a1cd9995c8819985a5b195960aa1b606482015260840161016a565b604080518c8152602081018b905233917fdd2a19c3bdd089cbe77c04f5655f83de0504d6140d12c8667646f55d0557c4dc910160405180910390a250969750505050505050505b919050565b600060208284031215610a4b57600080fd5b5035919050565b600060208284031215610a6457600080fd5b81518015158114610a7457600080fd5b9392505050565b634e487b7160e01b600052601160045260246000fd5b8082028115828204841417610aa857610aa8610a7b565b92915050565b600082610acb57634e487b7160e01b600052601260045260246000fd5b500490565b81810381811115610aa857610aa8610a7b565b6001600160a01b0381168114610af857600080fd5b50565b600060208284031215610b0d57600080fd5b8151610a7481610ae3565b6001600160a01b03948516815292841660208401529216604082015260079190910b606082015260800190565b600060208284031215610b5757600080fd5b5051919050565b634e487b7160e01b600052604160045260246000fd5b60006060820160018060a01b038616835260208560070b818501526060604085015281855180845260808601915060808160051b87010193508287016000805b83811015610c1057888703607f1901855282518051808952835b81811015610be9578281018901518a82018a01528801610bce565b508881018801849052601f01601f1916909701860196509385019391850191600101610bb4565b50949a9950505050505050505050565b8051600781900b8114610a3457600080fd5b60008060408385031215610c4557600080fd5b8251915060208084015167ffffffffffffffff80821115610c6557600080fd5b818601915086601f830112610c7957600080fd5b815181811115610c8b57610c8b610b5e565b8060051b604051601f19603f83011681018181108582111715610cb057610cb0610b5e565b604052918252848201925083810185019189831115610cce57600080fd5b938501935b82851015610cf357610ce485610c20565b84529385019392850192610cd3565b809650505050505050925092905056fea2646970667358221220671490aedc1d0d7c2a3ce553a308be5680187e3d622cc468705c1946ab3ce7ce64736f6c63430008140033","opcodes":"PUSH1 0x80 PUSH1 0x40 MSTORE CALLVALUE DUP1 ISZERO PUSH2 0x10 JUMPI PUSH1 0x0 DUP1 REVERT JUMPDEST POP PUSH1 0x40 MLOAD PUSH2 0xE3A CODESIZE SUB DUP1 PUSH2 0xE3A DUP4 CODECOPY DUP2 ADD PUSH1 0x40 DUP2 SWAP1 MSTORE PUSH2 0x2F SWAP2 PUSH2 0xC2 JUMP JUMPDEST PUSH1 0x1 PUSH1 0x1 PUSH1 0xA0 SHL SUB DUP2 AND PUSH2 0x9D JUMPI PUSH1 0x40 MLOAD PUSH3 0x461BCD PUSH1 0xE5 SHL DUP2 MSTORE PUSH1 0x20 PUSH1 0x4 DUP3 ADD MSTORE PUSH1 0x2B PUSH1 0x24 DUP3 ADD MSTORE PUSH32 0x5374616B654D616E616765723A20706C6174666F726D20636F72652061646472 PUSH1 0x44 DUP3 ADD MSTORE PUSH11 0x657373206973207A65726F PUSH1 0xA8 SHL PUSH1 0x64 DUP3 ADD MSTORE PUSH1 0x84 ADD PUSH1 0x40 MLOAD DUP1 SWAP2 SUB SWAP1 REVERT JUMPDEST PUSH1 0x0 DUP1 SLOAD PUSH1 0x1 PUSH1 0x1 PUSH1 0xA0 SHL SUB NOT AND PUSH1 0x1 PUSH1 0x1 PUSH1 0xA0 SHL SUB SWAP3 SWAP1 SWAP3 AND SWAP2 SWAP1 SWAP2 OR SWAP1 SSTORE PUSH2 0xF2 JUMP JUMPDEST PUSH1 0x0 PUSH1 0x20 DUP3 DUP5 SUB SLT ISZERO PUSH2 0xD4 JUMPI PUSH1 0x0 DUP1 REVERT JUMPDEST DUP2 MLOAD PUSH1 0x1 PUSH1 0x1 PUSH1 0xA0 SHL SUB DUP2 AND DUP2 EQ PUSH2 0xEB JUMPI PUSH1 0x0 DUP1 REVERT JUMPDEST SWAP4 SWAP3 POP POP POP JUMP JUMPDEST PUSH2 0xD39 DUP1 PUSH2 0x101 PUSH1 0x0 CODECOPY PUSH1 0x0 RETURN INVALID PUSH1 0x80 PUSH1 0x40 MSTORE CALLVALUE DUP1 ISZERO PUSH2 0x10 JUMPI PUSH1 0x0 DUP1 REVERT JUMPDEST POP PUSH1 0x4 CALLDATASIZE LT PUSH2 0x41 JUMPI PUSH1 0x0 CALLDATALOAD PUSH1 0xE0 SHR DUP1 PUSH4 0x74A5FFC4 EQ PUSH2 0x46 JUMPI DUP1 PUSH4 0x7547C7A3 EQ PUSH2 0x61 JUMPI DUP1 PUSH4 0xBFA5020C EQ PUSH2 0x74 JUMPI JUMPDEST PUSH1 0x0 DUP1 REVERT JUMPDEST PUSH2 0x4E PUSH1 0xC8 DUP2 JUMP JUMPDEST PUSH1 0x40 MLOAD SWAP1 DUP2 MSTORE PUSH1 0x20 ADD JUMPDEST PUSH1 0x40 MLOAD DUP1 SWAP2 SUB SWAP1 RETURN JUMPDEST PUSH2 0x4E PUSH2 0x6F CALLDATASIZE PUSH1 0x4 PUSH2 0xA39 JUMP JUMPDEST PUSH2 0x9F JUMP JUMPDEST PUSH1 0x0 SLOAD PUSH2 0x87 SWAP1 PUSH1 0x1 PUSH1 0x1 PUSH1 0xA0 SHL SUB AND DUP2 JUMP JUMPDEST PUSH1 0x40 MLOAD PUSH1 0x1 PUSH1 0x1 PUSH1 0xA0 SHL SUB SWAP1 SWAP2 AND DUP2 MSTORE PUSH1 0x20 ADD PUSH2 0x58 JUMP JUMPDEST PUSH1 0x0 DUP1 PUSH1 0x0 SWAP1 SLOAD SWAP1 PUSH2 0x100 EXP SWAP1 DIV PUSH1 0x1 PUSH1 0x1 PUSH1 0xA0 SHL SUB AND PUSH1 0x1 PUSH1 0x1 PUSH1 0xA0 SHL SUB AND PUSH4 0x35166226 PUSH1 0x40 MLOAD DUP2 PUSH4 0xFFFFFFFF AND PUSH1 0xE0 SHL DUP2 MSTORE PUSH1 0x4 ADD PUSH1 0x20 PUSH1 0x40 MLOAD DUP1 DUP4 SUB DUP2 DUP7 GAS STATICCALL ISZERO DUP1 ISZERO PUSH2 0xF3 JUMPI RETURNDATASIZE PUSH1 0x0 DUP1 RETURNDATACOPY RETURNDATASIZE PUSH1 0x0 REVERT JUMPDEST POP POP POP POP PUSH1 0x40 MLOAD RETURNDATASIZE PUSH1 0x1F NOT PUSH1 0x1F DUP3 ADD AND DUP3 ADD DUP1 PUSH1 0x40 MSTORE POP DUP2 ADD SWAP1 PUSH2 0x117 SWAP2 SWAP1 PUSH2 0xA52 JUMP JUMPDEST PUSH2 0x173 JUMPI PUSH1 0x40 MLOAD PUSH3 0x461BCD PUSH1 0xE5 SHL DUP2 MSTORE PUSH1 0x20 PUSH1 0x4 DUP3 ADD MSTORE PUSH1 0x22 PUSH1 0x24 DUP3 ADD MSTORE PUSH32 0x5374616B654D616E616765723A2073797374656D206973206E6F742061637469 PUSH1 0x44 DUP3 ADD MSTORE PUSH2 0x7665 PUSH1 0xF0 SHL PUSH1 0x64 DUP3 ADD MSTORE PUSH1 0x84 ADD JUMPDEST PUSH1 0x40 MLOAD DUP1 SWAP2 SUB SWAP1 REVERT JUMPDEST PUSH1 0x0 DUP3 GT PUSH2 0x1DA JUMPI PUSH1 0x40 MLOAD PUSH3 0x461BCD PUSH1 0xE5 SHL DUP2 MSTORE PUSH1 0x20 PUSH1 0x4 DUP3 ADD MSTORE PUSH1 0x2E PUSH1 0x24 DUP3 ADD MSTORE PUSH32 0x5374616B654D616E616765723A20616D6F756E74206D75737420626520677265 PUSH1 0x44 DUP3 ADD MSTORE PUSH14 0x61746572207468616E207A65726F PUSH1 0x90 SHL PUSH1 0x64 DUP3 ADD MSTORE PUSH1 0x84 ADD PUSH2 0x16A JUMP JUMPDEST PUSH1 0x0 SLOAD PUSH1 0x40 MLOAD PUSH3 0x1E1D05 PUSH1 0xE6 SHL DUP2 MSTORE CALLER PUSH1 0x4 DUP3 ADD MSTORE PUSH1 0x24 DUP2 ADD DUP5 SWAP1 MSTORE PUSH1 0x1 PUSH1 0x1 PUSH1 0xA0 SHL SUB SWAP1 SWAP2 AND SWAP1 PUSH4 0x7874140 SWAP1 PUSH1 0x44 ADD PUSH1 0x20 PUSH1 0x40 MLOAD DUP1 DUP4 SUB DUP2 PUSH1 0x0 DUP8 GAS CALL ISZERO DUP1 ISZERO PUSH2 0x22A JUMPI RETURNDATASIZE PUSH1 0x0 DUP1 RETURNDATACOPY RETURNDATASIZE PUSH1 0x0 REVERT JUMPDEST POP POP POP POP PUSH1 0x40 MLOAD RETURNDATASIZE PUSH1 0x1F NOT PUSH1 0x1F DUP3 ADD AND DUP3 ADD DUP1 PUSH1 0x40 MSTORE POP DUP2 ADD SWAP1 PUSH2 0x24E SWAP2 SWAP1 PUSH2 0xA52 JUMP JUMPDEST PUSH2 0x2AB JUMPI PUSH1 0x40 MLOAD PUSH3 0x461BCD PUSH1 0xE5 SHL DUP2 MSTORE PUSH1 0x20 PUSH1 0x4 DUP3 ADD MSTORE PUSH1 0x28 PUSH1 0x24 DUP3 ADD MSTORE PUSH32 0x5374616B654D616E616765723A2065786365656473207472616E73616374696F PUSH1 0x44 DUP3 ADD MSTORE PUSH8 0x6E206C696D697473 PUSH1 0xC0 SHL PUSH1 0x64 DUP3 ADD MSTORE PUSH1 0x84 ADD PUSH2 0x16A JUMP JUMPDEST PUSH1 0x0 SLOAD PUSH1 0x40 MLOAD PUSH4 0x4D218DD1 PUSH1 0xE0 SHL DUP2 MSTORE CALLER PUSH1 0x4 DUP3 ADD MSTORE PUSH1 0x24 DUP2 ADD DUP5 SWAP1 MSTORE PUSH1 0x1 PUSH1 0x1 PUSH1 0xA0 SHL SUB SWAP1 SWAP2 AND SWAP1 PUSH4 0x4D218DD1 SWAP1 PUSH1 0x44 ADD PUSH1 0x0 PUSH1 0x40 MLOAD DUP1 DUP4 SUB DUP2 PUSH1 0x0 DUP8 DUP1 EXTCODESIZE ISZERO DUP1 ISZERO PUSH2 0x2F7 JUMPI PUSH1 0x0 DUP1 REVERT JUMPDEST POP GAS CALL ISZERO DUP1 ISZERO PUSH2 0x30B JUMPI RETURNDATASIZE PUSH1 0x0 DUP1 RETURNDATACOPY RETURNDATASIZE PUSH1 0x0 REVERT JUMPDEST POP POP POP POP PUSH1 0x0 PUSH2 0x1F4 DUP4 PUSH3 0xF4240 PUSH2 0x323 SWAP2 SWAP1 PUSH2 0xA91 JUMP JUMPDEST PUSH2 0x32D SWAP2 SWAP1 PUSH2 0xAAE JUMP JUMPDEST SWAP1 POP PUSH1 0x0 DUP2 GT PUSH2 0x37F JUMPI PUSH1 0x40 MLOAD PUSH3 0x461BCD PUSH1 0xE5 SHL DUP2 MSTORE PUSH1 0x20 PUSH1 0x4 DUP3 ADD MSTORE PUSH1 0x1E PUSH1 0x24 DUP3 ADD MSTORE PUSH32 0x5374616B654D616E616765723A20616D6F756E7420746F6F20736D616C6C0000 PUSH1 0x44 DUP3 ADD MSTORE PUSH1 0x64 ADD PUSH2 0x16A JUMP JUMPDEST PUSH1 0x0 PUSH2 0x2710 PUSH2 0x38F PUSH1 0xC8 DUP7 PUSH2 0xA91 JUMP JUMPDEST PUSH2 0x399 SWAP2 SWAP1 PUSH2 0xAAE JUMP JUMPDEST SWAP1 POP PUSH1 0x0 PUSH2 0x3A7 DUP3 DUP7 PUSH2 0xAD0 JUMP JUMPDEST SWAP1 POP PUSH1 0x0 DUP1 PUSH1 0x0 SWAP1 SLOAD SWAP1 PUSH2 0x100 EXP SWAP1 DIV PUSH1 0x1 PUSH1 0x1 PUSH1 0xA0 SHL SUB AND PUSH1 0x1 PUSH1 0x1 PUSH1 0xA0 SHL SUB AND PUSH4 0x79137F9D PUSH1 0x40 MLOAD DUP2 PUSH4 0xFFFFFFFF AND PUSH1 0xE0 SHL DUP2 MSTORE PUSH1 0x4 ADD PUSH1 0x20 PUSH1 0x40 MLOAD DUP1 DUP4 SUB DUP2 DUP7 GAS STATICCALL ISZERO DUP1 ISZERO PUSH2 0x3FD JUMPI RETURNDATASIZE PUSH1 0x0 DUP1 RETURNDATACOPY RETURNDATASIZE PUSH1 0x0 REVERT JUMPDEST POP POP POP POP PUSH1 0x40 MLOAD RETURNDATASIZE PUSH1 0x1F NOT PUSH1 0x1F DUP3 ADD AND DUP3 ADD DUP1 PUSH1 0x40 MSTORE POP DUP2 ADD SWAP1 PUSH2 0x421 SWAP2 SWAP1 PUSH2 0xAFB JUMP JUMPDEST SWAP1 POP PUSH1 0x0 DUP1 PUSH1 0x0 SWAP1 SLOAD SWAP1 PUSH2 0x100 EXP SWAP1 DIV PUSH1 0x1 PUSH1 0x1 PUSH1 0xA0 SHL SUB AND PUSH1 0x1 PUSH1 0x1 PUSH1 0xA0 SHL SUB AND PUSH4 0x98ACD7A6 PUSH1 0x40 MLOAD DUP2 PUSH4 0xFFFFFFFF AND PUSH1 0xE0 SHL DUP2 MSTORE PUSH1 0x4 ADD PUSH1 0x20 PUSH1 0x40 MLOAD DUP1 DUP4 SUB DUP2 DUP7 GAS STATICCALL ISZERO DUP1 ISZERO PUSH2 0x477 JUMPI RETURNDATASIZE PUSH1 0x0 DUP1 RETURNDATACOPY RETURNDATASIZE PUSH1 0x0 REVERT JUMPDEST POP POP POP POP PUSH1 0x40 MLOAD RETURNDATASIZE PUSH1 0x1F NOT PUSH1 0x1F DUP3 ADD AND DUP3 ADD DUP1 PUSH1 0x40 MSTORE POP DUP2 ADD SWAP1 PUSH2 0x49B SWAP2 SWAP1 PUSH2 0xAFB JUMP JUMPDEST SWAP1 POP PUSH1 0x0 DUP1 PUSH1 0x0 SWAP1 SLOAD SWAP1 PUSH2 0x100 EXP SWAP1 DIV PUSH1 0x1 PUSH1 0x1 PUSH1 0xA0 SHL SUB AND PUSH1 0x1 PUSH1 0x1 PUSH1 0xA0 SHL SUB AND PUSH3 0x626679 PUSH1 0x40 MLOAD DUP2 PUSH4 0xFFFFFFFF AND PUSH1 0xE0 SHL DUP2 MSTORE PUSH1 0x4 ADD PUSH1 0x20 PUSH1 0x40 MLOAD DUP1 DUP4 SUB DUP2 DUP7 GAS STATICCALL ISZERO DUP1 ISZERO PUSH2 0x4F0 JUMPI RETURNDATASIZE PUSH1 0x0 DUP1 RETURNDATACOPY RETURNDATASIZE PUSH1 0x0 REVERT JUMPDEST POP POP POP POP PUSH1 0x40 MLOAD RETURNDATASIZE PUSH1 0x1F NOT PUSH1 0x1F DUP3 ADD AND DUP3 ADD DUP1 PUSH1 0x40 MSTORE POP DUP2 ADD SWAP1 PUSH2 0x514 SWAP2 SWAP1 PUSH2 0xAFB JUMP JUMPDEST SWAP1 POP PUSH1 0x0 DUP1 PUSH1 0x0 SWAP1 SLOAD SWAP1 PUSH2 0x100 EXP SWAP1 DIV PUSH1 0x1 PUSH1 0x1 PUSH1 0xA0 SHL SUB AND PUSH1 0x1 PUSH1 0x1 PUSH1 0xA0 SHL SUB AND PUSH4 0x2C035B74 PUSH1 0x40 MLOAD DUP2 PUSH4 0xFFFFFFFF AND PUSH1 0xE0 SHL DUP2 MSTORE PUSH1 0x4 ADD PUSH1 0x20 PUSH1 0x40 MLOAD DUP1 DUP4 SUB DUP2 DUP7 GAS STATICCALL ISZERO DUP1 ISZERO PUSH2 0x56A JUMPI RETURNDATASIZE PUSH1 0x0 DUP1 RETURNDATACOPY RETURNDATASIZE PUSH1 0x0 REVERT JUMPDEST POP POP POP POP PUSH1 0x40 MLOAD RETURNDATASIZE PUSH1 0x1F NOT PUSH1 0x1F DUP3 ADD AND DUP3 ADD DUP1 PUSH1 0x40 MSTORE POP DUP2 ADD SWAP1 PUSH2 0x58E SWAP2 SWAP1 PUSH2 0xAFB JUMP JUMPDEST SWAP1 POP PUSH1 0x0 DUP5 PUSH1 0x1 PUSH1 0x1 PUSH1 0xA0 SHL SUB AND PUSH4 0xECA36917 DUP6 CALLER ADDRESS DUP15 PUSH1 0x40 MLOAD DUP6 PUSH4 0xFFFFFFFF AND PUSH1 0xE0 SHL DUP2 MSTORE PUSH1 0x4 ADD PUSH2 0x5C4 SWAP5 SWAP4 SWAP3 SWAP2 SWAP1 PUSH2 0xB18 JUMP JUMPDEST PUSH1 0x20 PUSH1 0x40 MLOAD DUP1 DUP4 SUB DUP2 PUSH1 0x0 DUP8 GAS CALL ISZERO DUP1 ISZERO PUSH2 0x5E3 JUMPI RETURNDATASIZE PUSH1 0x0 DUP1 RETURNDATACOPY RETURNDATASIZE PUSH1 0x0 REVERT JUMPDEST POP POP POP POP PUSH1 0x40 MLOAD RETURNDATASIZE PUSH1 0x1F NOT PUSH1 0x1F DUP3 ADD AND DUP3 ADD DUP1 PUSH1 0x40 MSTORE POP DUP2 ADD SWAP1 PUSH2 0x607 SWAP2 SWAP1 PUSH2 0xB45 JUMP JUMPDEST SWAP1 POP PUSH1 0x16 DUP2 EQ PUSH2 0x66A JUMPI PUSH1 0x40 MLOAD PUSH3 0x461BCD PUSH1 0xE5 SHL DUP2 MSTORE PUSH1 0x20 PUSH1 0x4 DUP3 ADD MSTORE PUSH1 0x28 PUSH1 0x24 DUP3 ADD MSTORE PUSH32 0x5374616B654D616E616765723A206261736520746F6B656E207472616E736665 PUSH1 0x44 DUP3 ADD MSTORE PUSH8 0x1C8819985A5B1959 PUSH1 0xC2 SHL PUSH1 0x64 DUP3 ADD MSTORE PUSH1 0x84 ADD PUSH2 0x16A JUMP JUMPDEST PUSH1 0x40 MLOAD PUSH4 0xECA36917 PUSH1 0xE0 SHL DUP2 MSTORE PUSH1 0x1 PUSH1 0x1 PUSH1 0xA0 SHL SUB DUP7 AND SWAP1 PUSH4 0xECA36917 SWAP1 PUSH2 0x69C SWAP1 DUP8 SWAP1 ADDRESS SWAP1 DUP8 SWAP1 DUP14 SWAP1 PUSH1 0x4 ADD PUSH2 0xB18 JUMP JUMPDEST PUSH1 0x20 PUSH1 0x40 MLOAD DUP1 DUP4 SUB DUP2 PUSH1 0x0 DUP8 GAS CALL ISZERO DUP1 ISZERO PUSH2 0x6BB JUMPI RETURNDATASIZE PUSH1 0x0 DUP1 RETURNDATACOPY RETURNDATASIZE PUSH1 0x0 REVERT JUMPDEST POP POP POP POP PUSH1 0x40 MLOAD RETURNDATASIZE PUSH1 0x1F NOT PUSH1 0x1F DUP3 ADD AND DUP3 ADD DUP1 PUSH1 0x40 MSTORE POP DUP2 ADD SWAP1 PUSH2 0x6DF SWAP2 SWAP1 PUSH2 0xB45 JUMP JUMPDEST SWAP1 POP PUSH1 0x16 DUP2 EQ PUSH2 0x73B JUMPI PUSH1 0x40 MLOAD PUSH3 0x461BCD PUSH1 0xE5 SHL DUP2 MSTORE PUSH1 0x20 PUSH1 0x4 DUP3 ADD MSTORE PUSH1 0x21 PUSH1 0x24 DUP3 ADD MSTORE PUSH32 0x5374616B654D616E616765723A20666565207472616E73666572206661696C65 PUSH1 0x44 DUP3 ADD MSTORE PUSH1 0x19 PUSH1 0xFA SHL PUSH1 0x64 DUP3 ADD MSTORE PUSH1 0x84 ADD PUSH2 0x16A JUMP JUMPDEST PUSH1 0x40 MLOAD PUSH4 0x1BDC8DFF PUSH1 0xE2 SHL DUP2 MSTORE PUSH1 0x1 PUSH1 0x1 PUSH1 0xA0 SHL SUB DUP6 DUP2 AND PUSH1 0x4 DUP4 ADD MSTORE ADDRESS PUSH1 0x24 DUP4 ADD MSTORE PUSH1 0x7 DUP9 SWAP1 SIGNEXTEND PUSH1 0x44 DUP4 ADD MSTORE DUP7 AND SWAP1 PUSH4 0x6F7237FC SWAP1 PUSH1 0x64 ADD PUSH1 0x20 PUSH1 0x40 MLOAD DUP1 DUP4 SUB DUP2 PUSH1 0x0 DUP8 GAS CALL ISZERO DUP1 ISZERO PUSH2 0x793 JUMPI RETURNDATASIZE PUSH1 0x0 DUP1 RETURNDATACOPY RETURNDATASIZE PUSH1 0x0 REVERT JUMPDEST POP POP POP POP PUSH1 0x40 MLOAD RETURNDATASIZE PUSH1 0x1F NOT PUSH1 0x1F DUP3 ADD AND DUP3 ADD DUP1 PUSH1 0x40 MSTORE POP DUP2 ADD SWAP1 PUSH2 0x7B7 SWAP2 SWAP1 PUSH2 0xB45 JUMP JUMPDEST SWAP1 POP PUSH1 0x16 DUP2 EQ PUSH2 0x809 JUMPI PUSH1 0x40 MLOAD PUSH3 0x461BCD PUSH1 0xE5 SHL DUP2 MSTORE PUSH1 0x20 PUSH1 0x4 DUP3 ADD MSTORE PUSH1 0x1F PUSH1 0x24 DUP3 ADD MSTORE PUSH32 0x5374616B654D616E616765723A20746F6B656E206275726E206661696C656400 PUSH1 0x44 DUP3 ADD MSTORE PUSH1 0x64 ADD PUSH2 0x16A JUMP JUMPDEST PUSH1 0x40 DUP1 MLOAD PUSH1 0x0 DUP1 DUP3 MSTORE PUSH1 0x20 DUP3 ADD SWAP1 SWAP3 MSTORE DUP2 PUSH2 0x834 JUMP JUMPDEST PUSH1 0x60 DUP2 MSTORE PUSH1 0x20 ADD SWAP1 PUSH1 0x1 SWAP1 SUB SWAP1 DUP2 PUSH2 0x81F JUMPI SWAP1 POP JUMPDEST POP PUSH1 0x40 MLOAD PUSH4 0x707A02CD PUSH1 0xE1 SHL DUP2 MSTORE SWAP1 SWAP2 POP PUSH1 0x1 PUSH1 0x1 PUSH1 0xA0 SHL SUB DUP8 AND SWAP1 PUSH4 0xE0F4059A SWAP1 PUSH2 0x868 SWAP1 DUP8 SWAP1 DUP14 SWAP1 DUP7 SWAP1 PUSH1 0x4 ADD PUSH2 0xB74 JUMP JUMPDEST PUSH1 0x0 PUSH1 0x40 MLOAD DUP1 DUP4 SUB DUP2 PUSH1 0x0 DUP8 GAS CALL ISZERO DUP1 ISZERO PUSH2 0x887 JUMPI RETURNDATASIZE PUSH1 0x0 DUP1 RETURNDATACOPY RETURNDATASIZE PUSH1 0x0 REVERT JUMPDEST POP POP POP POP PUSH1 0x40 MLOAD RETURNDATASIZE PUSH1 0x0 DUP3 RETURNDATACOPY PUSH1 0x1F RETURNDATASIZE SWAP1 DUP2 ADD PUSH1 0x1F NOT AND DUP3 ADD PUSH1 0x40 MSTORE PUSH2 0x8AF SWAP2 SWAP1 DUP2 ADD SWAP1 PUSH2 0xC32 JUMP JUMPDEST POP SWAP2 POP PUSH1 0x16 DUP3 EQ PUSH2 0x912 JUMPI PUSH1 0x40 MLOAD PUSH3 0x461BCD PUSH1 0xE5 SHL DUP2 MSTORE PUSH1 0x20 PUSH1 0x4 DUP3 ADD MSTORE PUSH1 0x27 PUSH1 0x24 DUP3 ADD MSTORE PUSH32 0x5374616B654D616E616765723A207574696C69747920746F6B656E206D696E74 PUSH1 0x44 DUP3 ADD MSTORE PUSH7 0x819985A5B1959 PUSH1 0xCA SHL PUSH1 0x64 DUP3 ADD MSTORE PUSH1 0x84 ADD PUSH2 0x16A JUMP JUMPDEST PUSH1 0x40 MLOAD PUSH4 0xECA36917 PUSH1 0xE0 SHL DUP2 MSTORE PUSH1 0x1 PUSH1 0x1 PUSH1 0xA0 SHL SUB DUP8 AND SWAP1 PUSH4 0xECA36917 SWAP1 PUSH2 0x944 SWAP1 DUP8 SWAP1 ADDRESS SWAP1 CALLER SWAP1 DUP16 SWAP1 PUSH1 0x4 ADD PUSH2 0xB18 JUMP JUMPDEST PUSH1 0x20 PUSH1 0x40 MLOAD DUP1 DUP4 SUB DUP2 PUSH1 0x0 DUP8 GAS CALL ISZERO DUP1 ISZERO PUSH2 0x963 JUMPI RETURNDATASIZE PUSH1 0x0 DUP1 RETURNDATACOPY RETURNDATASIZE PUSH1 0x0 REVERT JUMPDEST POP POP POP POP PUSH1 0x40 MLOAD RETURNDATASIZE PUSH1 0x1F NOT PUSH1 0x1F DUP3 ADD AND DUP3 ADD DUP1 PUSH1 0x40 MSTORE POP DUP2 ADD SWAP1 PUSH2 0x987 SWAP2 SWAP1 PUSH2 0xB45 JUMP JUMPDEST SWAP2 POP PUSH1 0x16 DUP3 EQ PUSH2 0x9ED JUMPI PUSH1 0x40 MLOAD PUSH3 0x461BCD PUSH1 0xE5 SHL DUP2 MSTORE PUSH1 0x20 PUSH1 0x4 DUP3 ADD MSTORE PUSH1 0x2B PUSH1 0x24 DUP3 ADD MSTORE PUSH32 0x5374616B654D616E616765723A207574696C69747920746F6B656E207472616E PUSH1 0x44 DUP3 ADD MSTORE PUSH11 0x1CD9995C8819985A5B1959 PUSH1 0xAA SHL PUSH1 0x64 DUP3 ADD MSTORE PUSH1 0x84 ADD PUSH2 0x16A JUMP JUMPDEST PUSH1 0x40 DUP1 MLOAD DUP13 DUP2 MSTORE PUSH1 0x20 DUP2 ADD DUP12 SWAP1 MSTORE CALLER SWAP2 PUSH32 0xDD2A19C3BDD089CBE77C04F5655F83DE0504D6140D12C8667646F55D0557C4DC SWAP2 ADD PUSH1 0x40 MLOAD DUP1 SWAP2 SUB SWAP1 LOG2 POP SWAP7 SWAP8 POP POP POP POP POP POP POP POP JUMPDEST SWAP2 SWAP1 POP JUMP JUMPDEST PUSH1 0x0 PUSH1 0x20 DUP3 DUP5 SUB SLT ISZERO PUSH2 0xA4B JUMPI PUSH1 0x0 DUP1 REVERT JUMPDEST POP CALLDATALOAD SWAP2 SWAP1 POP JUMP JUMPDEST PUSH1 0x0 PUSH1 0x20 DUP3 DUP5 SUB SLT ISZERO PUSH2 0xA64 JUMPI PUSH1 0x0 DUP1 REVERT JUMPDEST DUP2 MLOAD DUP1 ISZERO ISZERO DUP2 EQ PUSH2 0xA74 JUMPI PUSH1 0x0 DUP1 REVERT JUMPDEST SWAP4 SWAP3 POP POP POP JUMP JUMPDEST PUSH4 0x4E487B71 PUSH1 0xE0 SHL PUSH1 0x0 MSTORE PUSH1 0x11 PUSH1 0x4 MSTORE PUSH1 0x24 PUSH1 0x0 REVERT JUMPDEST DUP1 DUP3 MUL DUP2 ISZERO DUP3 DUP3 DIV DUP5 EQ OR PUSH2 0xAA8 JUMPI PUSH2 0xAA8 PUSH2 0xA7B JUMP JUMPDEST SWAP3 SWAP2 POP POP JUMP JUMPDEST PUSH1 0x0 DUP3 PUSH2 0xACB JUMPI PUSH4 0x4E487B71 PUSH1 0xE0 SHL PUSH1 0x0 MSTORE PUSH1 0x12 PUSH1 0x4 MSTORE PUSH1 0x24 PUSH1 0x0 REVERT JUMPDEST POP DIV SWAP1 JUMP JUMPDEST DUP2 DUP2 SUB DUP2 DUP2 GT ISZERO PUSH2 0xAA8 JUMPI PUSH2 0xAA8 PUSH2 0xA7B JUMP JUMPDEST PUSH1 0x1 PUSH1 0x1 PUSH1 0xA0 SHL SUB DUP2 AND DUP2 EQ PUSH2 0xAF8 JUMPI PUSH1 0x0 DUP1 REVERT JUMPDEST POP JUMP JUMPDEST PUSH1 0x0 PUSH1 0x20 DUP3 DUP5 SUB SLT ISZERO PUSH2 0xB0D JUMPI PUSH1 0x0 DUP1 REVERT JUMPDEST DUP2 MLOAD PUSH2 0xA74 DUP2 PUSH2 0xAE3 JUMP JUMPDEST PUSH1 0x1 PUSH1 0x1 PUSH1 0xA0 SHL SUB SWAP5 DUP6 AND DUP2 MSTORE SWAP3 DUP5 AND PUSH1 0x20 DUP5 ADD MSTORE SWAP3 AND PUSH1 0x40 DUP3 ADD MSTORE PUSH1 0x7 SWAP2 SWAP1 SWAP2 SIGNEXTEND PUSH1 0x60 DUP3 ADD MSTORE PUSH1 0x80 ADD SWAP1 JUMP JUMPDEST PUSH1 0x0 PUSH1 0x20 DUP3 DUP5 SUB SLT ISZERO PUSH2 0xB57 JUMPI PUSH1 0x0 DUP1 REVERT JUMPDEST POP MLOAD SWAP2 SWAP1 POP JUMP JUMPDEST PUSH4 0x4E487B71 PUSH1 0xE0 SHL PUSH1 0x0 MSTORE PUSH1 0x41 PUSH1 0x4 MSTORE PUSH1 0x24 PUSH1 0x0 REVERT JUMPDEST PUSH1 0x0 PUSH1 0x60 DUP3 ADD PUSH1 0x1 DUP1 PUSH1 0xA0 SHL SUB DUP7 AND DUP4 MSTORE PUSH1 0x20 DUP6 PUSH1 0x7 SIGNEXTEND DUP2 DUP6 ADD MSTORE PUSH1 0x60 PUSH1 0x40 DUP6 ADD MSTORE DUP2 DUP6 MLOAD DUP1 DUP5 MSTORE PUSH1 0x80 DUP7 ADD SWAP2 POP PUSH1 0x80 DUP2 PUSH1 0x5 SHL DUP8 ADD ADD SWAP4 POP DUP3 DUP8 ADD PUSH1 0x0 DUP1 JUMPDEST DUP4 DUP2 LT ISZERO PUSH2 0xC10 JUMPI DUP9 DUP8 SUB PUSH1 0x7F NOT ADD DUP6 MSTORE DUP3 MLOAD DUP1 MLOAD DUP1 DUP10 MSTORE DUP4 JUMPDEST DUP2 DUP2 LT ISZERO PUSH2 0xBE9 JUMPI DUP3 DUP2 ADD DUP10 ADD MLOAD DUP11 DUP3 ADD DUP11 ADD MSTORE DUP9 ADD PUSH2 0xBCE JUMP JUMPDEST POP DUP9 DUP2 ADD DUP9 ADD DUP5 SWAP1 MSTORE PUSH1 0x1F ADD PUSH1 0x1F NOT AND SWAP1 SWAP8 ADD DUP7 ADD SWAP7 POP SWAP4 DUP6 ADD SWAP4 SWAP2 DUP6 ADD SWAP2 PUSH1 0x1 ADD PUSH2 0xBB4 JUMP JUMPDEST POP SWAP5 SWAP11 SWAP10 POP POP POP POP POP POP POP POP POP POP JUMP JUMPDEST DUP1 MLOAD PUSH1 0x7 DUP2 SWAP1 SIGNEXTEND DUP2 EQ PUSH2 0xA34 JUMPI PUSH1 0x0 DUP1 REVERT JUMPDEST PUSH1 0x0 DUP1 PUSH1 0x40 DUP4 DUP6 SUB SLT ISZERO PUSH2 0xC45 JUMPI PUSH1 0x0 DUP1 REVERT JUMPDEST DUP3 MLOAD SWAP2 POP PUSH1 0x20 DUP1 DUP5 ADD MLOAD PUSH8 0xFFFFFFFFFFFFFFFF DUP1 DUP3 GT ISZERO PUSH2 0xC65 JUMPI PUSH1 0x0 DUP1 REVERT JUMPDEST DUP2 DUP7 ADD SWAP2 POP DUP7 PUSH1 0x1F DUP4 ADD SLT PUSH2 0xC79 JUMPI PUSH1 0x0 DUP1 REVERT JUMPDEST DUP2 MLOAD DUP2 DUP2 GT ISZERO PUSH2 0xC8B JUMPI PUSH2 0xC8B PUSH2 0xB5E JUMP JUMPDEST DUP1 PUSH1 0x5 SHL PUSH1 0x40 MLOAD PUSH1 0x1F NOT PUSH1 0x3F DUP4 ADD AND DUP2 ADD DUP2 DUP2 LT DUP6 DUP3 GT OR ISZERO PUSH2 0xCB0 JUMPI PUSH2 0xCB0 PUSH2 0xB5E JUMP JUMPDEST PUSH1 0x40 MSTORE SWAP2 DUP3 MSTORE DUP5 DUP3 ADD SWAP3 POP DUP4 DUP2 ADD DUP6 ADD SWAP2 DUP10 DUP4 GT ISZERO PUSH2 0xCCE JUMPI PUSH1 0x0 DUP1 REVERT JUMPDEST SWAP4 DUP6 ADD SWAP4 JUMPDEST DUP3 DUP6 LT ISZERO PUSH2 0xCF3 JUMPI PUSH2 0xCE4 DUP6 PUSH2 0xC20 JUMP JUMPDEST DUP5 MSTORE SWAP4 DUP6 ADD SWAP4 SWAP3 DUP6 ADD SWAP3 PUSH2 0xCD3 JUMP JUMPDEST DUP1 SWAP7 POP POP POP POP POP POP POP SWAP3 POP SWAP3 SWAP1 POP JUMP INVALID LOG2 PUSH5 0x6970667358 0x22 SLT KECCAK256 PUSH8 0x1490AEDC1D0D7C2A EXTCODECOPY 0xE5 MSTORE8 LOG3 ADDMOD 0xBE JUMP DUP1 XOR PUSH31 0x3D622CC468705C1946AB3CE7CE64736F6C6343000814003300000000000000 "},"methodIdentifiers":{"STAKE_FEE_BPS()":"74a5ffc4","platformCore()":"bfa5020c","stakeTokens(uint256)":"7547c7a3"}}}}}