{"contracts/SecurityModule.sol":{"SecurityModule":{"abi":[{"inputs":[{"internalType":"address","name":"_platformCore","type":"address"}],"stateMutability":"nonpayable","type":"constructor"},{"anonymous":false,"inputs":[{"indexed":true,"internalType":"address","name":"tokenAddress","type":"address"},{"indexed":false,"internalType":"uint256","name":"amount","type":"uint256"}],"name":"AssetsRecovered","type":"event"},{"anonymous":false,"inputs":[{"indexed":true,"internalType":"address","name":"reporter","type":"address"},{"indexed":false,"internalType":"string","name":"description","type":"string"}],"name":"SecurityAlert","type":"event"},{"inputs":[],"name":"emergencyResume","outputs":[],"stateMutability":"nonpayable","type":"function"},{"inputs":[],"name":"emergencyStop","outputs":[],"stateMutability":"nonpayable","type":"function"},{"inputs":[],"name":"platformCore","outputs":[{"internalType":"contract IQuantumPlatformCore","name":"","type":"address"}],"stateMutability":"view","type":"function"},{"inputs":[{"internalType":"address","name":"tokenAddress","type":"address"},{"internalType":"uint256","name":"amount","type":"uint256"}],"name":"recoverAssets","outputs":[],"stateMutability":"nonpayable","type":"function"},{"inputs":[{"internalType":"string","name":"description","type":"string"}],"name":"reportSecurityAlert","outputs":[],"stateMutability":"nonpayable","type":"function"}],"evm":{"bytecode":{"linkReferences":{},"object":"608060405234801561001057600080fd5b5060405161094638038061094683398101604081905261002f916100c4565b6001600160a01b03811661009f5760405162461bcd60e51b815260206004820152602d60248201527f53656375726974794d6f64756c653a20706c6174666f726d20636f726520616460448201526c6472657373206973207a65726f60981b606482015260840160405180910390fd5b600080546001600160a01b0319166001600160a01b03929092169190911790556100f4565b6000602082840312156100d657600080fd5b81516001600160a01b03811681146100ed57600080fd5b9392505050565b610843806101036000396000f3fe608060405234801561001057600080fd5b50600436106100575760003560e01c806350ab3e931461005c57806363a599a4146100715780637e84adcb1461007957806393c87f031461008c578063bfa5020c14610094575b600080fd5b61006f61006a36600461069e565b6100c3565b005b61006f6103ca565b61006f6100873660046106ca565b6104ad565b61006f6105bd565b6000546100a7906001600160a01b031681565b6040516001600160a01b03909116815260200160405180910390f35b6000546040516317aa5fb760e11b81523360048201526001600160a01b0390911690632f54bf6e90602401602060405180830381865afa15801561010b573d6000803e3d6000fd5b505050506040513d601f19601f8201168201806040525081019061012f919061073c565b6101545760405162461bcd60e51b815260040161014b90610765565b60405180910390fd5b6001600160a01b0382166101b85760405162461bcd60e51b815260206004820152602560248201527f53656375726974794d6f64756c653a20696e76616c696420746f6b656e206164604482015264647265737360d81b606482015260840161014b565b600081116102215760405162461bcd60e51b815260206004820152603060248201527f53656375726974794d6f64756c653a20616d6f756e74206d757374206265206760448201526f726561746572207468616e207a65726f60801b606482015260840161014b565b60008060009054906101000a90046001600160a01b03166001600160a01b03166379137f9d6040518163ffffffff1660e01b8152600401602060405180830381865afa158015610275573d6000803e3d6000fd5b505050506040513d601f19601f8201168201806040525081019061029991906107a8565b60405163eca3691760e01b81526001600160a01b038581166004830152306024830152336044830152600785900b606483015291925060009183169063eca36917906084016020604051808303816000875af11580156102fd573d6000803e3d6000fd5b505050506040513d601f19601f8201168201806040525081019061032191906107c5565b9050601681146103815760405162461bcd60e51b815260206004820152602560248201527f53656375726974794d6f64756c653a206173736574207265636f766572792066604482015264185a5b195960da1b606482015260840161014b565b836001600160a01b03167f2efdc42bcf9bb8d3709fdf256a816377b073979f10f42a4b05ccdbf694db6da7846040516103bc91815260200190565b60405180910390a250505050565b6000546040516317aa5fb760e11b81523360048201526001600160a01b0390911690632f54bf6e90602401602060405180830381865afa158015610412573d6000803e3d6000fd5b505050506040513d601f19601f82011682018060405250810190610436919061073c565b6104525760405162461bcd60e51b815260040161014b90610765565b60008054604080516318e9666960e21b815290516001600160a01b03909216926363a599a49260048084019382900301818387803b15801561049357600080fd5b505af11580156104a7573d6000803e3d6000fd5b50505050565b6000546040516381a2445960e01b81523360048201526001600160a01b03909116906381a2445990602401602060405180830381865afa1580156104f5573d6000803e3d6000fd5b505050506040513d601f19601f82011682018060405250810190610519919061073c565b6105765760405162461bcd60e51b815260206004820152602860248201527f53656375726974794d6f64756c653a2063616c6c6572206973206e6f742073756044820152673832b93b34b9b7b960c11b606482015260840161014b565b336001600160a01b03167f5e07955a4663dd687d80320bdf1226865057ff5fdb70a3afa18734d7e370c70383836040516105b19291906107de565b60405180910390a25050565b6000546040516317aa5fb760e11b81523360048201526001600160a01b0390911690632f54bf6e90602401602060405180830381865afa158015610605573d6000803e3d6000fd5b505050506040513d601f19601f82011682018060405250810190610629919061073c565b6106455760405162461bcd60e51b815260040161014b90610765565b60008054604080516393c87f0360e01b815290516001600160a01b03909216926393c87f039260048084019382900301818387803b15801561049357600080fd5b6001600160a01b038116811461069b57600080fd5b50565b600080604083850312156106b157600080fd5b82356106bc81610686565b946020939093013593505050565b600080602083850312156106dd57600080fd5b823567ffffffffffffffff808211156106f557600080fd5b818501915085601f83011261070957600080fd5b81358181111561071857600080fd5b86602082850101111561072a57600080fd5b60209290920196919550909350505050565b60006020828403121561074e57600080fd5b8151801515811461075e57600080fd5b9392505050565b60208082526023908201527f53656375726974794d6f64756c653a2063616c6c6572206973206e6f74206f776040820152623732b960e91b606082015260800190565b6000602082840312156107ba57600080fd5b815161075e81610686565b6000602082840312156107d757600080fd5b5051919050565b60208152816020820152818360408301376000818301604090810191909152601f909201601f1916010191905056fea2646970667358221220777d23037e47626f7ca83509d42729631068a339247246e959e0fb4fce28096a64736f6c63430008140033","opcodes":"PUSH1 0x80 PUSH1 0x40 MSTORE CALLVALUE DUP1 ISZERO PUSH2 0x10 JUMPI PUSH1 0x0 DUP1 REVERT JUMPDEST POP PUSH1 0x40 MLOAD PUSH2 0x946 CODESIZE SUB DUP1 PUSH2 0x946 DUP4 CODECOPY DUP2 ADD PUSH1 0x40 DUP2 SWAP1 MSTORE PUSH2 0x2F SWAP2 PUSH2 0xC4 JUMP JUMPDEST PUSH1 0x1 PUSH1 0x1 PUSH1 0xA0 SHL SUB DUP2 AND PUSH2 0x9F JUMPI PUSH1 0x40 MLOAD PUSH3 0x461BCD PUSH1 0xE5 SHL DUP2 MSTORE PUSH1 0x20 PUSH1 0x4 DUP3 ADD MSTORE PUSH1 0x2D PUSH1 0x24 DUP3 ADD MSTORE PUSH32 0x53656375726974794D6F64756C653A20706C6174666F726D20636F7265206164 PUSH1 0x44 DUP3 ADD MSTORE PUSH13 0x6472657373206973207A65726F PUSH1 0x98 SHL PUSH1 0x64 DUP3 ADD MSTORE PUSH1 0x84 ADD PUSH1 0x40 MLOAD DUP1 SWAP2 SUB SWAP1 REVERT JUMPDEST PUSH1 0x0 DUP1 SLOAD PUSH1 0x1 PUSH1 0x1 PUSH1 0xA0 SHL SUB NOT AND PUSH1 0x1 PUSH1 0x1 PUSH1 0xA0 SHL SUB SWAP3 SWAP1 SWAP3 AND SWAP2 SWAP1 SWAP2 OR SWAP1 SSTORE PUSH2 0xF4 JUMP JUMPDEST PUSH1 0x0 PUSH1 0x20 DUP3 DUP5 SUB SLT ISZERO PUSH2 0xD6 JUMPI PUSH1 0x0 DUP1 REVERT JUMPDEST DUP2 MLOAD PUSH1 0x1 PUSH1 0x1 PUSH1 0xA0 SHL SUB DUP2 AND DUP2 EQ PUSH2 0xED JUMPI PUSH1 0x0 DUP1 REVERT JUMPDEST SWAP4 SWAP3 POP POP POP JUMP JUMPDEST PUSH2 0x843 DUP1 PUSH2 0x103 PUSH1 0x0 CODECOPY PUSH1 0x0 RETURN INVALID PUSH1 0x80 PUSH1 0x40 MSTORE CALLVALUE DUP1 ISZERO PUSH2 0x10 JUMPI PUSH1 0x0 DUP1 REVERT JUMPDEST POP PUSH1 0x4 CALLDATASIZE LT PUSH2 0x57 JUMPI PUSH1 0x0 CALLDATALOAD PUSH1 0xE0 SHR DUP1 PUSH4 0x50AB3E93 EQ PUSH2 0x5C JUMPI DUP1 PUSH4 0x63A599A4 EQ PUSH2 0x71 JUMPI DUP1 PUSH4 0x7E84ADCB EQ PUSH2 0x79 JUMPI DUP1 PUSH4 0x93C87F03 EQ PUSH2 0x8C JUMPI DUP1 PUSH4 0xBFA5020C EQ PUSH2 0x94 JUMPI JUMPDEST PUSH1 0x0 DUP1 REVERT JUMPDEST PUSH2 0x6F PUSH2 0x6A CALLDATASIZE PUSH1 0x4 PUSH2 0x69E JUMP JUMPDEST PUSH2 0xC3 JUMP JUMPDEST STOP JUMPDEST PUSH2 0x6F PUSH2 0x3CA JUMP JUMPDEST PUSH2 0x6F PUSH2 0x87 CALLDATASIZE PUSH1 0x4 PUSH2 0x6CA JUMP JUMPDEST PUSH2 0x4AD JUMP JUMPDEST PUSH2 0x6F PUSH2 0x5BD JUMP JUMPDEST PUSH1 0x0 SLOAD PUSH2 0xA7 SWAP1 PUSH1 0x1 PUSH1 0x1 PUSH1 0xA0 SHL SUB AND DUP2 JUMP JUMPDEST PUSH1 0x40 MLOAD PUSH1 0x1 PUSH1 0x1 PUSH1 0xA0 SHL SUB SWAP1 SWAP2 AND DUP2 MSTORE PUSH1 0x20 ADD PUSH1 0x40 MLOAD DUP1 SWAP2 SUB SWAP1 RETURN JUMPDEST PUSH1 0x0 SLOAD PUSH1 0x40 MLOAD PUSH4 0x17AA5FB7 PUSH1 0xE1 SHL DUP2 MSTORE CALLER PUSH1 0x4 DUP3 ADD MSTORE PUSH1 0x1 PUSH1 0x1 PUSH1 0xA0 SHL SUB SWAP1 SWAP2 AND SWAP1 PUSH4 0x2F54BF6E SWAP1 PUSH1 0x24 ADD PUSH1 0x20 PUSH1 0x40 MLOAD DUP1 DUP4 SUB DUP2 DUP7 GAS STATICCALL ISZERO DUP1 ISZERO PUSH2 0x10B JUMPI RETURNDATASIZE PUSH1 0x0 DUP1 RETURNDATACOPY RETURNDATASIZE PUSH1 0x0 REVERT JUMPDEST POP POP POP POP PUSH1 0x40 MLOAD RETURNDATASIZE PUSH1 0x1F NOT PUSH1 0x1F DUP3 ADD AND DUP3 ADD DUP1 PUSH1 0x40 MSTORE POP DUP2 ADD SWAP1 PUSH2 0x12F SWAP2 SWAP1 PUSH2 0x73C JUMP JUMPDEST PUSH2 0x154 JUMPI PUSH1 0x40 MLOAD PUSH3 0x461BCD PUSH1 0xE5 SHL DUP2 MSTORE PUSH1 0x4 ADD PUSH2 0x14B SWAP1 PUSH2 0x765 JUMP JUMPDEST PUSH1 0x40 MLOAD DUP1 SWAP2 SUB SWAP1 REVERT JUMPDEST PUSH1 0x1 PUSH1 0x1 PUSH1 0xA0 SHL SUB DUP3 AND PUSH2 0x1B8 JUMPI PUSH1 0x40 MLOAD PUSH3 0x461BCD PUSH1 0xE5 SHL DUP2 MSTORE PUSH1 0x20 PUSH1 0x4 DUP3 ADD MSTORE PUSH1 0x25 PUSH1 0x24 DUP3 ADD MSTORE PUSH32 0x53656375726974794D6F64756C653A20696E76616C696420746F6B656E206164 PUSH1 0x44 DUP3 ADD MSTORE PUSH5 0x6472657373 PUSH1 0xD8 SHL PUSH1 0x64 DUP3 ADD MSTORE PUSH1 0x84 ADD PUSH2 0x14B JUMP JUMPDEST PUSH1 0x0 DUP2 GT PUSH2 0x221 JUMPI PUSH1 0x40 MLOAD PUSH3 0x461BCD PUSH1 0xE5 SHL DUP2 MSTORE PUSH1 0x20 PUSH1 0x4 DUP3 ADD MSTORE PUSH1 0x30 PUSH1 0x24 DUP3 ADD MSTORE PUSH32 0x53656375726974794D6F64756C653A20616D6F756E74206D7573742062652067 PUSH1 0x44 DUP3 ADD MSTORE PUSH16 0x726561746572207468616E207A65726F PUSH1 0x80 SHL PUSH1 0x64 DUP3 ADD MSTORE PUSH1 0x84 ADD PUSH2 0x14B JUMP JUMPDEST PUSH1 0x0 DUP1 PUSH1 0x0 SWAP1 SLOAD SWAP1 PUSH2 0x100 EXP SWAP1 DIV PUSH1 0x1 PUSH1 0x1 PUSH1 0xA0 SHL SUB AND PUSH1 0x1 PUSH1 0x1 PUSH1 0xA0 SHL SUB AND PUSH4 0x79137F9D PUSH1 0x40 MLOAD DUP2 PUSH4 0xFFFFFFFF AND PUSH1 0xE0 SHL DUP2 MSTORE PUSH1 0x4 ADD PUSH1 0x20 PUSH1 0x40 MLOAD DUP1 DUP4 SUB DUP2 DUP7 GAS STATICCALL ISZERO DUP1 ISZERO PUSH2 0x275 JUMPI RETURNDATASIZE PUSH1 0x0 DUP1 RETURNDATACOPY RETURNDATASIZE PUSH1 0x0 REVERT JUMPDEST POP POP POP POP PUSH1 0x40 MLOAD RETURNDATASIZE PUSH1 0x1F NOT PUSH1 0x1F DUP3 ADD AND DUP3 ADD DUP1 PUSH1 0x40 MSTORE POP DUP2 ADD SWAP1 PUSH2 0x299 SWAP2 SWAP1 PUSH2 0x7A8 JUMP JUMPDEST PUSH1 0x40 MLOAD PUSH4 0xECA36917 PUSH1 0xE0 SHL DUP2 MSTORE PUSH1 0x1 PUSH1 0x1 PUSH1 0xA0 SHL SUB DUP6 DUP2 AND PUSH1 0x4 DUP4 ADD MSTORE ADDRESS PUSH1 0x24 DUP4 ADD MSTORE CALLER PUSH1 0x44 DUP4 ADD MSTORE PUSH1 0x7 DUP6 SWAP1 SIGNEXTEND PUSH1 0x64 DUP4 ADD MSTORE SWAP2 SWAP3 POP PUSH1 0x0 SWAP2 DUP4 AND SWAP1 PUSH4 0xECA36917 SWAP1 PUSH1 0x84 ADD PUSH1 0x20 PUSH1 0x40 MLOAD DUP1 DUP4 SUB DUP2 PUSH1 0x0 DUP8 GAS CALL ISZERO DUP1 ISZERO PUSH2 0x2FD JUMPI RETURNDATASIZE PUSH1 0x0 DUP1 RETURNDATACOPY RETURNDATASIZE PUSH1 0x0 REVERT JUMPDEST POP POP POP POP PUSH1 0x40 MLOAD RETURNDATASIZE PUSH1 0x1F NOT PUSH1 0x1F DUP3 ADD AND DUP3 ADD DUP1 PUSH1 0x40 MSTORE POP DUP2 ADD SWAP1 PUSH2 0x321 SWAP2 SWAP1 PUSH2 0x7C5 JUMP JUMPDEST SWAP1 POP PUSH1 0x16 DUP2 EQ PUSH2 0x381 JUMPI PUSH1 0x40 MLOAD PUSH3 0x461BCD PUSH1 0xE5 SHL DUP2 MSTORE PUSH1 0x20 PUSH1 0x4 DUP3 ADD MSTORE PUSH1 0x25 PUSH1 0x24 DUP3 ADD MSTORE PUSH32 0x53656375726974794D6F64756C653A206173736574207265636F766572792066 PUSH1 0x44 DUP3 ADD MSTORE PUSH5 0x185A5B1959 PUSH1 0xDA SHL PUSH1 0x64 DUP3 ADD MSTORE PUSH1 0x84 ADD PUSH2 0x14B JUMP JUMPDEST DUP4 PUSH1 0x1 PUSH1 0x1 PUSH1 0xA0 SHL SUB AND PUSH32 0x2EFDC42BCF9BB8D3709FDF256A816377B073979F10F42A4B05CCDBF694DB6DA7 DUP5 PUSH1 0x40 MLOAD PUSH2 0x3BC SWAP2 DUP2 MSTORE PUSH1 0x20 ADD SWAP1 JUMP JUMPDEST PUSH1 0x40 MLOAD DUP1 SWAP2 SUB SWAP1 LOG2 POP POP POP POP JUMP JUMPDEST PUSH1 0x0 SLOAD PUSH1 0x40 MLOAD PUSH4 0x17AA5FB7 PUSH1 0xE1 SHL DUP2 MSTORE CALLER PUSH1 0x4 DUP3 ADD MSTORE PUSH1 0x1 PUSH1 0x1 PUSH1 0xA0 SHL SUB SWAP1 SWAP2 AND SWAP1 PUSH4 0x2F54BF6E SWAP1 PUSH1 0x24 ADD PUSH1 0x20 PUSH1 0x40 MLOAD DUP1 DUP4 SUB DUP2 DUP7 GAS STATICCALL ISZERO DUP1 ISZERO PUSH2 0x412 JUMPI RETURNDATASIZE PUSH1 0x0 DUP1 RETURNDATACOPY RETURNDATASIZE PUSH1 0x0 REVERT JUMPDEST POP POP POP POP PUSH1 0x40 MLOAD RETURNDATASIZE PUSH1 0x1F NOT PUSH1 0x1F DUP3 ADD AND DUP3 ADD DUP1 PUSH1 0x40 MSTORE POP DUP2 ADD SWAP1 PUSH2 0x436 SWAP2 SWAP1 PUSH2 0x73C JUMP JUMPDEST PUSH2 0x452 JUMPI PUSH1 0x40 MLOAD PUSH3 0x461BCD PUSH1 0xE5 SHL DUP2 MSTORE PUSH1 0x4 ADD PUSH2 0x14B SWAP1 PUSH2 0x765 JUMP JUMPDEST PUSH1 0x0 DUP1 SLOAD PUSH1 0x40 DUP1 MLOAD PUSH4 0x18E96669 PUSH1 0xE2 SHL DUP2 MSTORE SWAP1 MLOAD PUSH1 0x1 PUSH1 0x1 PUSH1 0xA0 SHL SUB SWAP1 SWAP3 AND SWAP3 PUSH4 0x63A599A4 SWAP3 PUSH1 0x4 DUP1 DUP5 ADD SWAP4 DUP3 SWAP1 SUB ADD DUP2 DUP4 DUP8 DUP1 EXTCODESIZE ISZERO DUP1 ISZERO PUSH2 0x493 JUMPI PUSH1 0x0 DUP1 REVERT JUMPDEST POP GAS CALL ISZERO DUP1 ISZERO PUSH2 0x4A7 JUMPI RETURNDATASIZE PUSH1 0x0 DUP1 RETURNDATACOPY RETURNDATASIZE PUSH1 0x0 REVERT JUMPDEST POP POP POP POP JUMP JUMPDEST PUSH1 0x0 SLOAD PUSH1 0x40 MLOAD PUSH4 0x81A24459 PUSH1 0xE0 SHL DUP2 MSTORE CALLER PUSH1 0x4 DUP3 ADD MSTORE PUSH1 0x1 PUSH1 0x1 PUSH1 0xA0 SHL SUB SWAP1 SWAP2 AND SWAP1 PUSH4 0x81A24459 SWAP1 PUSH1 0x24 ADD PUSH1 0x20 PUSH1 0x40 MLOAD DUP1 DUP4 SUB DUP2 DUP7 GAS STATICCALL ISZERO DUP1 ISZERO PUSH2 0x4F5 JUMPI RETURNDATASIZE PUSH1 0x0 DUP1 RETURNDATACOPY RETURNDATASIZE PUSH1 0x0 REVERT JUMPDEST POP POP POP POP PUSH1 0x40 MLOAD RETURNDATASIZE PUSH1 0x1F NOT PUSH1 0x1F DUP3 ADD AND DUP3 ADD DUP1 PUSH1 0x40 MSTORE POP DUP2 ADD SWAP1 PUSH2 0x519 SWAP2 SWAP1 PUSH2 0x73C JUMP JUMPDEST PUSH2 0x576 JUMPI PUSH1 0x40 MLOAD PUSH3 0x461BCD PUSH1 0xE5 SHL DUP2 MSTORE PUSH1 0x20 PUSH1 0x4 DUP3 ADD MSTORE PUSH1 0x28 PUSH1 0x24 DUP3 ADD MSTORE PUSH32 0x53656375726974794D6F64756C653A2063616C6C6572206973206E6F74207375 PUSH1 0x44 DUP3 ADD MSTORE PUSH8 0x3832B93B34B9B7B9 PUSH1 0xC1 SHL PUSH1 0x64 DUP3 ADD MSTORE PUSH1 0x84 ADD PUSH2 0x14B JUMP JUMPDEST CALLER PUSH1 0x1 PUSH1 0x1 PUSH1 0xA0 SHL SUB AND PUSH32 0x5E07955A4663DD687D80320BDF1226865057FF5FDB70A3AFA18734D7E370C703 DUP4 DUP4 PUSH1 0x40 MLOAD PUSH2 0x5B1 SWAP3 SWAP2 SWAP1 PUSH2 0x7DE JUMP JUMPDEST PUSH1 0x40 MLOAD DUP1 SWAP2 SUB SWAP1 LOG2 POP POP JUMP JUMPDEST PUSH1 0x0 SLOAD PUSH1 0x40 MLOAD PUSH4 0x17AA5FB7 PUSH1 0xE1 SHL DUP2 MSTORE CALLER PUSH1 0x4 DUP3 ADD MSTORE PUSH1 0x1 PUSH1 0x1 PUSH1 0xA0 SHL SUB SWAP1 SWAP2 AND SWAP1 PUSH4 0x2F54BF6E SWAP1 PUSH1 0x24 ADD PUSH1 0x20 PUSH1 0x40 MLOAD DUP1 DUP4 SUB DUP2 DUP7 GAS STATICCALL ISZERO DUP1 ISZERO PUSH2 0x605 JUMPI RETURNDATASIZE PUSH1 0x0 DUP1 RETURNDATACOPY RETURNDATASIZE PUSH1 0x0 REVERT JUMPDEST POP POP POP POP PUSH1 0x40 MLOAD RETURNDATASIZE PUSH1 0x1F NOT PUSH1 0x1F DUP3 ADD AND DUP3 ADD DUP1 PUSH1 0x40 MSTORE POP DUP2 ADD SWAP1 PUSH2 0x629 SWAP2 SWAP1 PUSH2 0x73C JUMP JUMPDEST PUSH2 0x645 JUMPI PUSH1 0x40 MLOAD PUSH3 0x461BCD PUSH1 0xE5 SHL DUP2 MSTORE PUSH1 0x4 ADD PUSH2 0x14B SWAP1 PUSH2 0x765 JUMP JUMPDEST PUSH1 0x0 DUP1 SLOAD PUSH1 0x40 DUP1 MLOAD PUSH4 0x93C87F03 PUSH1 0xE0 SHL DUP2 MSTORE SWAP1 MLOAD PUSH1 0x1 PUSH1 0x1 PUSH1 0xA0 SHL SUB SWAP1 SWAP3 AND SWAP3 PUSH4 0x93C87F03 SWAP3 PUSH1 0x4 DUP1 DUP5 ADD SWAP4 DUP3 SWAP1 SUB ADD DUP2 DUP4 DUP8 DUP1 EXTCODESIZE ISZERO DUP1 ISZERO PUSH2 0x493 JUMPI PUSH1 0x0 DUP1 REVERT JUMPDEST PUSH1 0x1 PUSH1 0x1 PUSH1 0xA0 SHL SUB DUP2 AND DUP2 EQ PUSH2 0x69B JUMPI PUSH1 0x0 DUP1 REVERT JUMPDEST POP JUMP JUMPDEST PUSH1 0x0 DUP1 PUSH1 0x40 DUP4 DUP6 SUB SLT ISZERO PUSH2 0x6B1 JUMPI PUSH1 0x0 DUP1 REVERT JUMPDEST DUP3 CALLDATALOAD PUSH2 0x6BC DUP2 PUSH2 0x686 JUMP JUMPDEST SWAP5 PUSH1 0x20 SWAP4 SWAP1 SWAP4 ADD CALLDATALOAD SWAP4 POP POP POP JUMP JUMPDEST PUSH1 0x0 DUP1 PUSH1 0x20 DUP4 DUP6 SUB SLT ISZERO PUSH2 0x6DD JUMPI PUSH1 0x0 DUP1 REVERT JUMPDEST DUP3 CALLDATALOAD PUSH8 0xFFFFFFFFFFFFFFFF DUP1 DUP3 GT ISZERO PUSH2 0x6F5 JUMPI PUSH1 0x0 DUP1 REVERT JUMPDEST DUP2 DUP6 ADD SWAP2 POP DUP6 PUSH1 0x1F DUP4 ADD SLT PUSH2 0x709 JUMPI PUSH1 0x0 DUP1 REVERT JUMPDEST DUP2 CALLDATALOAD DUP2 DUP2 GT ISZERO PUSH2 0x718 JUMPI PUSH1 0x0 DUP1 REVERT JUMPDEST DUP7 PUSH1 0x20 DUP3 DUP6 ADD ADD GT ISZERO PUSH2 0x72A JUMPI PUSH1 0x0 DUP1 REVERT JUMPDEST PUSH1 0x20 SWAP3 SWAP1 SWAP3 ADD SWAP7 SWAP2 SWAP6 POP SWAP1 SWAP4 POP POP POP POP JUMP JUMPDEST PUSH1 0x0 PUSH1 0x20 DUP3 DUP5 SUB SLT ISZERO PUSH2 0x74E JUMPI PUSH1 0x0 DUP1 REVERT JUMPDEST DUP2 MLOAD DUP1 ISZERO ISZERO DUP2 EQ PUSH2 0x75E JUMPI PUSH1 0x0 DUP1 REVERT JUMPDEST SWAP4 SWAP3 POP POP POP JUMP JUMPDEST PUSH1 0x20 DUP1 DUP3 MSTORE PUSH1 0x23 SWAP1 DUP3 ADD MSTORE PUSH32 0x53656375726974794D6F64756C653A2063616C6C6572206973206E6F74206F77 PUSH1 0x40 DUP3 ADD MSTORE PUSH3 0x3732B9 PUSH1 0xE9 SHL PUSH1 0x60 DUP3 ADD MSTORE PUSH1 0x80 ADD SWAP1 JUMP JUMPDEST PUSH1 0x0 PUSH1 0x20 DUP3 DUP5 SUB SLT ISZERO PUSH2 0x7BA JUMPI PUSH1 0x0 DUP1 REVERT JUMPDEST DUP2 MLOAD PUSH2 0x75E DUP2 PUSH2 0x686 JUMP JUMPDEST PUSH1 0x0 PUSH1 0x20 DUP3 DUP5 SUB SLT ISZERO PUSH2 0x7D7 JUMPI PUSH1 0x0 DUP1 REVERT JUMPDEST POP MLOAD SWAP2 SWAP1 POP JUMP JUMPDEST PUSH1 0x20 DUP2 MSTORE DUP2 PUSH1 0x20 DUP3 ADD MSTORE DUP2 DUP4 PUSH1 0x40 DUP4 ADD CALLDATACOPY PUSH1 0x0 DUP2 DUP4 ADD PUSH1 0x40 SWAP1 DUP2 ADD SWAP2 SWAP1 SWAP2 MSTORE PUSH1 0x1F SWAP1 SWAP3 ADD PUSH1 0x1F NOT AND ADD ADD SWAP2 SWAP1 POP JUMP INVALID LOG2 PUSH5 0x6970667358 0x22 SLT KECCAK256 PUSH24 0x7D23037E47626F7CA83509D42729631068A339247246E959 0xE0 0xFB 0x4F 0xCE 0x28 MULMOD PUSH11 0x64736F6C63430008140033 "},"methodIdentifiers":{"emergencyResume()":"93c87f03","emergencyStop()":"63a599a4","platformCore()":"bfa5020c","recoverAssets(address,uint256)":"50ab3e93","reportSecurityAlert(string)":"7e84adcb"}}}}}