{"contracts/SystemOrchestrator.sol":{"SystemOrchestrator":{"abi":[{"inputs":[],"stateMutability":"nonpayable","type":"constructor"},{"anonymous":false,"inputs":[{"indexed":true,"internalType":"address","name":"platformCore","type":"address"},{"indexed":true,"internalType":"address","name":"gateway","type":"address"},{"indexed":false,"internalType":"address","name":"serviceManager","type":"address"},{"indexed":false,"internalType":"address","name":"assetManager","type":"address"},{"indexed":false,"internalType":"address","name":"stakeManager","type":"address"},{"indexed":false,"internalType":"address","name":"creatorTokenManager","type":"address"},{"indexed":false,"internalType":"address","name":"securityModule","type":"address"}],"name":"PlatformConfigured","type":"event"},{"inputs":[{"internalType":"address","name":"_platformCore","type":"address"},{"internalType":"address","name":"_gateway","type":"address"},{"internalType":"address","name":"_serviceManager","type":"address"},{"internalType":"address","name":"_assetManager","type":"address"},{"internalType":"address","name":"_stakeManager","type":"address"},{"internalType":"address","name":"_creatorTokenManager","type":"address"},{"internalType":"address","name":"_securityModule","type":"address"}],"name":"configurePlatform","outputs":[],"stateMutability":"nonpayable","type":"function"},{"inputs":[],"name":"getPlatformAddresses","outputs":[{"components":[{"internalType":"address","name":"platformCore","type":"address"},{"internalType":"address","name":"gateway","type":"address"},{"internalType":"address","name":"serviceManager","type":"address"},{"internalType":"address","name":"assetManager","type":"address"},{"internalType":"address","name":"stakeManager","type":"address"},{"internalType":"address","name":"creatorTokenManager","type":"address"},{"internalType":"address","name":"securityModule","type":"address"}],"internalType":"struct SystemOrchestrator.PlatformAddresses","name":"","type":"tuple"}],"stateMutability":"view","type":"function"},{"inputs":[],"name":"owner","outputs":[{"internalType":"address","name":"","type":"address"}],"stateMutability":"view","type":"function"},{"inputs":[],"name":"platformAddresses","outputs":[{"internalType":"address","name":"platformCore","type":"address"},{"internalType":"address","name":"gateway","type":"address"},{"internalType":"address","name":"serviceManager","type":"address"},{"internalType":"address","name":"assetManager","type":"address"},{"internalType":"address","name":"stakeManager","type":"address"},{"internalType":"address","name":"creatorTokenManager","type":"address"},{"internalType":"address","name":"securityModule","type":"address"}],"stateMutability":"view","type":"function"}],"evm":{"bytecode":{"linkReferences":{},"object":"608060405234801561001057600080fd5b50600080546001600160a01b031916331790556104f1806100326000396000f3fe608060405234801561001057600080fd5b506004361061004c5760003560e01c80634617ef5c146100515780638bfcec10146100665780638da5cb5b146100ec578063cca3e97f14610117575b600080fd5b61006461005f366004610435565b610217565b005b60015460025460035460045460055460065460075461009e966001600160a01b03908116968116958116948116938116928116911687565b604080516001600160a01b039889168152968816602088015294871694860194909452918516606085015284166080840152831660a083015290911660c082015260e0015b60405180910390f35b6000546100ff906001600160a01b031681565b6040516001600160a01b0390911681526020016100e3565b6101b06040805160e081018252600080825260208201819052918101829052606081018290526080810182905260a0810182905260c0810191909152506040805160e0810182526001546001600160a01b039081168252600254811660208301526003548116928201929092526004548216606082015260055482166080820152600654821660a082015260075490911660c082015290565b6040516100e3919081516001600160a01b03908116825260208084015182169083015260408084015182169083015260608084015182169083015260808084015182169083015260a08381015182169083015260c092830151169181019190915260e00190565b6000546001600160a01b031633146102865760405162461bcd60e51b815260206004820152602760248201527f53797374656d4f7263686573747261746f723a2063616c6c6572206973206e6f6044820152663a1037bbb732b960c91b60648201526084015b60405180910390fd5b6001600160a01b0387166102d45760405162461bcd60e51b8152602060048201526015602482015274496e76616c696420706c6174666f726d20636f726560581b604482015260640161027d565b6001600160a01b03861661031c5760405162461bcd60e51b815260206004820152600f60248201526e496e76616c6964206761746577617960881b604482015260640161027d565b6040805160e0810182526001600160a01b0389811680835289821660208085018290528a84168587018190528a851660608088018290528b87166080808a018290528c891660a0808c01829052998d1660c0909b018b9052600180546001600160a01b03199081168b179091556002805482168a17905560038054821688179055600480548216871790556005805482168517905560068054821683179055600780549091168c1790558b5195865295850193909352838a015282019290925290810194909452935190927fb2d72a63026e06e8471fb37e8d2e06cbaa869e5e8b90cb2d63171632ae5d83f292908290030190a350505050505050565b80356001600160a01b038116811461043057600080fd5b919050565b600080600080600080600060e0888a03121561045057600080fd5b61045988610419565b965061046760208901610419565b955061047560408901610419565b945061048360608901610419565b935061049160808901610419565b925061049f60a08901610419565b91506104ad60c08901610419565b90509295989194975092955056fea264697066735822122080703d1efbc5a15e55a91bb0378b0a4dcc421d3dceae146e29ba2a8758bc3ba564736f6c63430008140033","opcodes":"PUSH1 0x80 PUSH1 0x40 MSTORE CALLVALUE DUP1 ISZERO PUSH2 0x10 JUMPI PUSH1 0x0 DUP1 REVERT JUMPDEST POP PUSH1 0x0 DUP1 SLOAD PUSH1 0x1 PUSH1 0x1 PUSH1 0xA0 SHL SUB NOT AND CALLER OR SWAP1 SSTORE PUSH2 0x4F1 DUP1 PUSH2 0x32 PUSH1 0x0 CODECOPY PUSH1 0x0 RETURN INVALID PUSH1 0x80 PUSH1 0x40 MSTORE CALLVALUE DUP1 ISZERO PUSH2 0x10 JUMPI PUSH1 0x0 DUP1 REVERT JUMPDEST POP PUSH1 0x4 CALLDATASIZE LT PUSH2 0x4C JUMPI PUSH1 0x0 CALLDATALOAD PUSH1 0xE0 SHR DUP1 PUSH4 0x4617EF5C EQ PUSH2 0x51 JUMPI DUP1 PUSH4 0x8BFCEC10 EQ PUSH2 0x66 JUMPI DUP1 PUSH4 0x8DA5CB5B EQ PUSH2 0xEC JUMPI DUP1 PUSH4 0xCCA3E97F EQ PUSH2 0x117 JUMPI JUMPDEST PUSH1 0x0 DUP1 REVERT JUMPDEST PUSH2 0x64 PUSH2 0x5F CALLDATASIZE PUSH1 0x4 PUSH2 0x435 JUMP JUMPDEST PUSH2 0x217 JUMP JUMPDEST STOP JUMPDEST PUSH1 0x1 SLOAD PUSH1 0x2 SLOAD PUSH1 0x3 SLOAD PUSH1 0x4 SLOAD PUSH1 0x5 SLOAD PUSH1 0x6 SLOAD PUSH1 0x7 SLOAD PUSH2 0x9E SWAP7 PUSH1 0x1 PUSH1 0x1 PUSH1 0xA0 SHL SUB SWAP1 DUP2 AND SWAP7 DUP2 AND SWAP6 DUP2 AND SWAP5 DUP2 AND SWAP4 DUP2 AND SWAP3 DUP2 AND SWAP2 AND DUP8 JUMP JUMPDEST PUSH1 0x40 DUP1 MLOAD PUSH1 0x1 PUSH1 0x1 PUSH1 0xA0 SHL SUB SWAP9 DUP10 AND DUP2 MSTORE SWAP7 DUP9 AND PUSH1 0x20 DUP9 ADD MSTORE SWAP5 DUP8 AND SWAP5 DUP7 ADD SWAP5 SWAP1 SWAP5 MSTORE SWAP2 DUP6 AND PUSH1 0x60 DUP6 ADD MSTORE DUP5 AND PUSH1 0x80 DUP5 ADD MSTORE DUP4 AND PUSH1 0xA0 DUP4 ADD MSTORE SWAP1 SWAP2 AND PUSH1 0xC0 DUP3 ADD MSTORE PUSH1 0xE0 ADD JUMPDEST PUSH1 0x40 MLOAD DUP1 SWAP2 SUB SWAP1 RETURN JUMPDEST PUSH1 0x0 SLOAD PUSH2 0xFF SWAP1 PUSH1 0x1 PUSH1 0x1 PUSH1 0xA0 SHL SUB AND DUP2 JUMP JUMPDEST PUSH1 0x40 MLOAD PUSH1 0x1 PUSH1 0x1 PUSH1 0xA0 SHL SUB SWAP1 SWAP2 AND DUP2 MSTORE PUSH1 0x20 ADD PUSH2 0xE3 JUMP JUMPDEST PUSH2 0x1B0 PUSH1 0x40 DUP1 MLOAD PUSH1 0xE0 DUP2 ADD DUP3 MSTORE PUSH1 0x0 DUP1 DUP3 MSTORE PUSH1 0x20 DUP3 ADD DUP2 SWAP1 MSTORE SWAP2 DUP2 ADD DUP3 SWAP1 MSTORE PUSH1 0x60 DUP2 ADD DUP3 SWAP1 MSTORE PUSH1 0x80 DUP2 ADD DUP3 SWAP1 MSTORE PUSH1 0xA0 DUP2 ADD DUP3 SWAP1 MSTORE PUSH1 0xC0 DUP2 ADD SWAP2 SWAP1 SWAP2 MSTORE POP PUSH1 0x40 DUP1 MLOAD PUSH1 0xE0 DUP2 ADD DUP3 MSTORE PUSH1 0x1 SLOAD PUSH1 0x1 PUSH1 0x1 PUSH1 0xA0 SHL SUB SWAP1 DUP2 AND DUP3 MSTORE PUSH1 0x2 SLOAD DUP2 AND PUSH1 0x20 DUP4 ADD MSTORE PUSH1 0x3 SLOAD DUP2 AND SWAP3 DUP3 ADD SWAP3 SWAP1 SWAP3 MSTORE PUSH1 0x4 SLOAD DUP3 AND PUSH1 0x60 DUP3 ADD MSTORE PUSH1 0x5 SLOAD DUP3 AND PUSH1 0x80 DUP3 ADD MSTORE PUSH1 0x6 SLOAD DUP3 AND PUSH1 0xA0 DUP3 ADD MSTORE PUSH1 0x7 SLOAD SWAP1 SWAP2 AND PUSH1 0xC0 DUP3 ADD MSTORE SWAP1 JUMP JUMPDEST PUSH1 0x40 MLOAD PUSH2 0xE3 SWAP2 SWAP1 DUP2 MLOAD PUSH1 0x1 PUSH1 0x1 PUSH1 0xA0 SHL SUB SWAP1 DUP2 AND DUP3 MSTORE PUSH1 0x20 DUP1 DUP5 ADD MLOAD DUP3 AND SWAP1 DUP4 ADD MSTORE PUSH1 0x40 DUP1 DUP5 ADD MLOAD DUP3 AND SWAP1 DUP4 ADD MSTORE PUSH1 0x60 DUP1 DUP5 ADD MLOAD DUP3 AND SWAP1 DUP4 ADD MSTORE PUSH1 0x80 DUP1 DUP5 ADD MLOAD DUP3 AND SWAP1 DUP4 ADD MSTORE PUSH1 0xA0 DUP4 DUP2 ADD MLOAD DUP3 AND SWAP1 DUP4 ADD MSTORE PUSH1 0xC0 SWAP3 DUP4 ADD MLOAD AND SWAP2 DUP2 ADD SWAP2 SWAP1 SWAP2 MSTORE PUSH1 0xE0 ADD SWAP1 JUMP JUMPDEST PUSH1 0x0 SLOAD PUSH1 0x1 PUSH1 0x1 PUSH1 0xA0 SHL SUB AND CALLER EQ PUSH2 0x286 JUMPI PUSH1 0x40 MLOAD PUSH3 0x461BCD PUSH1 0xE5 SHL DUP2 MSTORE PUSH1 0x20 PUSH1 0x4 DUP3 ADD MSTORE PUSH1 0x27 PUSH1 0x24 DUP3 ADD MSTORE PUSH32 0x53797374656D4F7263686573747261746F723A2063616C6C6572206973206E6F PUSH1 0x44 DUP3 ADD MSTORE PUSH7 0x3A1037BBB732B9 PUSH1 0xC9 SHL PUSH1 0x64 DUP3 ADD MSTORE PUSH1 0x84 ADD JUMPDEST PUSH1 0x40 MLOAD DUP1 SWAP2 SUB SWAP1 REVERT JUMPDEST PUSH1 0x1 PUSH1 0x1 PUSH1 0xA0 SHL SUB DUP8 AND PUSH2 0x2D4 JUMPI PUSH1 0x40 MLOAD PUSH3 0x461BCD PUSH1 0xE5 SHL DUP2 MSTORE PUSH1 0x20 PUSH1 0x4 DUP3 ADD MSTORE PUSH1 0x15 PUSH1 0x24 DUP3 ADD MSTORE PUSH21 0x496E76616C696420706C6174666F726D20636F7265 PUSH1 0x58 SHL PUSH1 0x44 DUP3 ADD MSTORE PUSH1 0x64 ADD PUSH2 0x27D JUMP JUMPDEST PUSH1 0x1 PUSH1 0x1 PUSH1 0xA0 SHL SUB DUP7 AND PUSH2 0x31C JUMPI PUSH1 0x40 MLOAD PUSH3 0x461BCD PUSH1 0xE5 SHL DUP2 MSTORE PUSH1 0x20 PUSH1 0x4 DUP3 ADD MSTORE PUSH1 0xF PUSH1 0x24 DUP3 ADD MSTORE PUSH15 0x496E76616C69642067617465776179 PUSH1 0x88 SHL PUSH1 0x44 DUP3 ADD MSTORE PUSH1 0x64 ADD PUSH2 0x27D JUMP JUMPDEST PUSH1 0x40 DUP1 MLOAD PUSH1 0xE0 DUP2 ADD DUP3 MSTORE PUSH1 0x1 PUSH1 0x1 PUSH1 0xA0 SHL SUB DUP10 DUP2 AND DUP1 DUP4 MSTORE DUP10 DUP3 AND PUSH1 0x20 DUP1 DUP6 ADD DUP3 SWAP1 MSTORE DUP11 DUP5 AND DUP6 DUP8 ADD DUP2 SWAP1 MSTORE DUP11 DUP6 AND PUSH1 0x60 DUP1 DUP9 ADD DUP3 SWAP1 MSTORE DUP12 DUP8 AND PUSH1 0x80 DUP1 DUP11 ADD DUP3 SWAP1 MSTORE DUP13 DUP10 AND PUSH1 0xA0 DUP1 DUP13 ADD DUP3 SWAP1 MSTORE SWAP10 DUP14 AND PUSH1 0xC0 SWAP1 SWAP12 ADD DUP12 SWAP1 MSTORE PUSH1 0x1 DUP1 SLOAD PUSH1 0x1 PUSH1 0x1 PUSH1 0xA0 SHL SUB NOT SWAP1 DUP2 AND DUP12 OR SWAP1 SWAP2 SSTORE PUSH1 0x2 DUP1 SLOAD DUP3 AND DUP11 OR SWAP1 SSTORE PUSH1 0x3 DUP1 SLOAD DUP3 AND DUP9 OR SWAP1 SSTORE PUSH1 0x4 DUP1 SLOAD DUP3 AND DUP8 OR SWAP1 SSTORE PUSH1 0x5 DUP1 SLOAD DUP3 AND DUP6 OR SWAP1 SSTORE PUSH1 0x6 DUP1 SLOAD DUP3 AND DUP4 OR SWAP1 SSTORE PUSH1 0x7 DUP1 SLOAD SWAP1 SWAP2 AND DUP13 OR SWAP1 SSTORE DUP12 MLOAD SWAP6 DUP7 MSTORE SWAP6 DUP6 ADD SWAP4 SWAP1 SWAP4 MSTORE DUP4 DUP11 ADD MSTORE DUP3 ADD SWAP3 SWAP1 SWAP3 MSTORE SWAP1 DUP2 ADD SWAP5 SWAP1 SWAP5 MSTORE SWAP4 MLOAD SWAP1 SWAP3 PUSH32 0xB2D72A63026E06E8471FB37E8D2E06CBAA869E5E8B90CB2D63171632AE5D83F2 SWAP3 SWAP1 DUP3 SWAP1 SUB ADD SWAP1 LOG3 POP POP POP POP POP POP POP JUMP JUMPDEST DUP1 CALLDATALOAD PUSH1 0x1 PUSH1 0x1 PUSH1 0xA0 SHL SUB DUP2 AND DUP2 EQ PUSH2 0x430 JUMPI PUSH1 0x0 DUP1 REVERT JUMPDEST SWAP2 SWAP1 POP JUMP JUMPDEST PUSH1 0x0 DUP1 PUSH1 0x0 DUP1 PUSH1 0x0 DUP1 PUSH1 0x0 PUSH1 0xE0 DUP9 DUP11 SUB SLT ISZERO PUSH2 0x450 JUMPI PUSH1 0x0 DUP1 REVERT JUMPDEST PUSH2 0x459 DUP9 PUSH2 0x419 JUMP JUMPDEST SWAP7 POP PUSH2 0x467 PUSH1 0x20 DUP10 ADD PUSH2 0x419 JUMP JUMPDEST SWAP6 POP PUSH2 0x475 PUSH1 0x40 DUP10 ADD PUSH2 0x419 JUMP JUMPDEST SWAP5 POP PUSH2 0x483 PUSH1 0x60 DUP10 ADD PUSH2 0x419 JUMP JUMPDEST SWAP4 POP PUSH2 0x491 PUSH1 0x80 DUP10 ADD PUSH2 0x419 JUMP JUMPDEST SWAP3 POP PUSH2 0x49F PUSH1 0xA0 DUP10 ADD PUSH2 0x419 JUMP JUMPDEST SWAP2 POP PUSH2 0x4AD PUSH1 0xC0 DUP10 ADD PUSH2 0x419 JUMP JUMPDEST SWAP1 POP SWAP3 SWAP6 SWAP9 SWAP2 SWAP5 SWAP8 POP SWAP3 SWAP6 POP JUMP INVALID LOG2 PUSH5 0x6970667358 0x22 SLT KECCAK256 DUP1 PUSH17 0x3D1EFBC5A15E55A91BB0378B0A4DCC421D RETURNDATASIZE 0xCE 0xAE EQ PUSH15 0x29BA2A8758BC3BA564736F6C634300 ADDMOD EQ STOP CALLER "},"methodIdentifiers":{"configurePlatform(address,address,address,address,address,address,address)":"4617ef5c","getPlatformAddresses()":"cca3e97f","owner()":"8da5cb5b","platformAddresses()":"8bfcec10"}}}}}