{"contracts/PlatformGateway.sol":{"PlatformGateway":{"abi":[{"inputs":[{"internalType":"address","name":"_platformCore","type":"address"}],"stateMutability":"nonpayable","type":"constructor"},{"anonymous":false,"inputs":[{"indexed":true,"internalType":"address","name":"platformCore","type":"address"}],"name":"GatewayDeployed","type":"event"},{"anonymous":false,"inputs":[{"indexed":false,"internalType":"address","name":"serviceManager","type":"address"},{"indexed":false,"internalType":"address","name":"assetManager","type":"address"},{"indexed":false,"internalType":"address","name":"stakeManager","type":"address"},{"indexed":false,"internalType":"address","name":"creatorTokenManager","type":"address"},{"indexed":false,"internalType":"address","name":"securityModule","type":"address"}],"name":"ModulesLinked","type":"event"},{"inputs":[{"internalType":"address","name":"supervisor","type":"address"}],"name":"addSupervisor","outputs":[],"stateMutability":"nonpayable","type":"function"},{"inputs":[],"name":"assetManager","outputs":[{"internalType":"address","name":"","type":"address"}],"stateMutability":"view","type":"function"},{"inputs":[{"internalType":"address","name":"newController","type":"address"}],"name":"changeController","outputs":[],"stateMutability":"nonpayable","type":"function"},{"inputs":[{"internalType":"address","name":"newOwner","type":"address"}],"name":"changeOwner","outputs":[],"stateMutability":"nonpayable","type":"function"},{"inputs":[],"name":"creatorTokenManager","outputs":[{"internalType":"address","name":"","type":"address"}],"stateMutability":"view","type":"function"},{"inputs":[],"name":"emergencyResume","outputs":[],"stateMutability":"nonpayable","type":"function"},{"inputs":[],"name":"emergencyStop","outputs":[],"stateMutability":"nonpayable","type":"function"},{"inputs":[],"name":"getController","outputs":[{"internalType":"address","name":"","type":"address"}],"stateMutability":"view","type":"function"},{"inputs":[{"internalType":"address","name":"_serviceManager","type":"address"},{"internalType":"address","name":"_assetManager","type":"address"},{"internalType":"address","name":"_stakeManager","type":"address"},{"internalType":"address","name":"_creatorTokenManager","type":"address"},{"internalType":"address","name":"_securityModule","type":"address"}],"name":"linkModules","outputs":[],"stateMutability":"nonpayable","type":"function"},{"inputs":[],"name":"platformCore","outputs":[{"internalType":"contract IQuantumPlatformCore","name":"","type":"address"}],"stateMutability":"view","type":"function"},{"inputs":[],"name":"securityModule","outputs":[{"internalType":"address","name":"","type":"address"}],"stateMutability":"view","type":"function"},{"inputs":[],"name":"serviceManager","outputs":[{"internalType":"address","name":"","type":"address"}],"stateMutability":"view","type":"function"},{"inputs":[],"name":"stakeManager","outputs":[{"internalType":"address","name":"","type":"address"}],"stateMutability":"view","type":"function"}],"evm":{"bytecode":{"linkReferences":{},"object":"608060405234801561001057600080fd5b50604051610a8e380380610a8e83398101604081905261002f91610132565b6001600160a01b0381166100a05760405162461bcd60e51b815260206004820152602e60248201527f506c6174666f726d476174657761793a20706c6174666f726d20636f7265206160448201526d646472657373206973207a65726f60901b606482015260840160405180910390fd5b600080546001600160a01b0319166001600160a01b0383161790556100c4336100fe565b6040516001600160a01b038216907fd99ac2fd385313ac20e8ac829f3132d44d8d73640e80390b2084f421c874e67790600090a250610189565b600061012b60017f1df41701f902ce3da6e2994536874193ca9cfb87b69b3d79cdd3c74499a15638610162565b9190915550565b60006020828403121561014457600080fd5b81516001600160a01b038116811461015b57600080fd5b9392505050565b8181038181111561018357634e487b7160e01b600052601160045260246000fd5b92915050565b6108f6806101986000396000f3fe608060405234801561001057600080fd5b50600436106100cf5760003560e01c806363a599a41161008c57806393c87f031161006657806393c87f031461018757806394217ad11461018f578063a6f9dae1146101a2578063bfa5020c146101b557600080fd5b806363a599a4146101595780637542ff9514610161578063813047ab1461017457600080fd5b806329d10b6e146100d45780632e10c86c146100e95780633018205f146100fc578063380ef3fe146101205780633998fdd3146101335780633cebb82314610146575b600080fd5b6100e76100e23660046107a3565b6101c8565b005b6100e76100f73660046107c5565b61026c565b6101046104f3565b6040516001600160a01b03909116815260200160405180910390f35b600554610104906001600160a01b031681565b600154610104906001600160a01b031681565b6100e76101543660046107a3565b610502565b6100e76105a8565b600354610104906001600160a01b031681565b600454610104906001600160a01b031681565b6100e761063b565b600254610104906001600160a01b031681565b6100e76101b03660046107a3565b6106b4565b600054610104906001600160a01b031681565b6101d061071e565b6001600160a01b0316336001600160a01b0316146102095760405162461bcd60e51b81526004016102009061082a565b60405180910390fd5b6000546040516314e885b760e11b81526001600160a01b038381166004830152909116906329d10b6e906024015b600060405180830381600087803b15801561025157600080fd5b505af1158015610265573d6000803e3d6000fd5b5050505050565b61027461071e565b6001600160a01b0316336001600160a01b0316146102a45760405162461bcd60e51b815260040161020090610850565b6001600160a01b0385166102fa5760405162461bcd60e51b815260206004820152601760248201527f496e76616c69642073657276696365206d616e616765720000000000000000006044820152606401610200565b6001600160a01b0384166103485760405162461bcd60e51b815260206004820152601560248201527424b73b30b634b21030b9b9b2ba1036b0b730b3b2b960591b6044820152606401610200565b6001600160a01b0383166103965760405162461bcd60e51b815260206004820152601560248201527424b73b30b634b21039ba30b5b29036b0b730b3b2b960591b6044820152606401610200565b6001600160a01b0382166103ec5760405162461bcd60e51b815260206004820152601d60248201527f496e76616c69642063726561746f7220746f6b656e206d616e616765720000006044820152606401610200565b6001600160a01b0381166104425760405162461bcd60e51b815260206004820152601760248201527f496e76616c6964207365637572697479206d6f64756c650000000000000000006044820152606401610200565b600180546001600160a01b038781166001600160a01b031992831681179093556002805488831690841681179091556003805488841690851681179091556004805488851690861681179091556005805494881694909516841790945560408051958652602086019290925290840152606083019190915260808201527f9b47e54d9b3abe46f0a97a08368148dcc1f8f0fd97118650d8350c5cf967f1689060a00160405180910390a15050505050565b60006104fd61071e565b905090565b61050a61071e565b6001600160a01b0316336001600160a01b03161461053a5760405162461bcd60e51b815260040161020090610850565b6001600160a01b03811661059c5760405162461bcd60e51b815260206004820152602360248201527f506c6174666f726d476174657761793a20696e76616c696420636f6e74726f6c6044820152623632b960e91b6064820152608401610200565b6105a581610753565b50565b6105b061071e565b6001600160a01b0316336001600160a01b0316146105e05760405162461bcd60e51b81526004016102009061082a565b60008054604080516318e9666960e21b815290516001600160a01b03909216926363a599a49260048084019382900301818387803b15801561062157600080fd5b505af1158015610635573d6000803e3d6000fd5b50505050565b61064361071e565b6001600160a01b0316336001600160a01b0316146106735760405162461bcd60e51b81526004016102009061082a565b60008054604080516393c87f0360e01b815290516001600160a01b03909216926393c87f039260048084019382900301818387803b15801561062157600080fd5b6106bc61071e565b6001600160a01b0316336001600160a01b0316146106ec5760405162461bcd60e51b81526004016102009061082a565b60005460405163a6f9dae160e01b81526001600160a01b0383811660048301529091169063a6f9dae190602401610237565b60008061074c60017f1df41701f902ce3da6e2994536874193ca9cfb87b69b3d79cdd3c74499a15638610899565b5492915050565b600061078060017f1df41701f902ce3da6e2994536874193ca9cfb87b69b3d79cdd3c74499a15638610899565b9190915550565b80356001600160a01b038116811461079e57600080fd5b919050565b6000602082840312156107b557600080fd5b6107be82610787565b9392505050565b600080600080600060a086880312156107dd57600080fd5b6107e686610787565b94506107f460208701610787565b935061080260408701610787565b925061081060608701610787565b915061081e60808701610787565b90509295509295909350565b6020808252600c908201526b155b985d5d1a1bdc9a5e995960a21b604082015260600190565b60208082526029908201527f506c6174666f726d476174657761793a2063616c6c6572206973206e6f74206360408201526837b73a3937b63632b960b91b606082015260800190565b818103818111156108ba57634e487b7160e01b600052601160045260246000fd5b9291505056fea2646970667358221220beea402f54bbab20a32588cb72267a015341a26c6fd6df385d9be13fa003244864736f6c63430008140033","opcodes":"PUSH1 0x80 PUSH1 0x40 MSTORE CALLVALUE DUP1 ISZERO PUSH2 0x10 JUMPI PUSH1 0x0 DUP1 REVERT JUMPDEST POP PUSH1 0x40 MLOAD PUSH2 0xA8E CODESIZE SUB DUP1 PUSH2 0xA8E DUP4 CODECOPY DUP2 ADD PUSH1 0x40 DUP2 SWAP1 MSTORE PUSH2 0x2F SWAP2 PUSH2 0x132 JUMP JUMPDEST PUSH1 0x1 PUSH1 0x1 PUSH1 0xA0 SHL SUB DUP2 AND PUSH2 0xA0 JUMPI PUSH1 0x40 MLOAD PUSH3 0x461BCD PUSH1 0xE5 SHL DUP2 MSTORE PUSH1 0x20 PUSH1 0x4 DUP3 ADD MSTORE PUSH1 0x2E PUSH1 0x24 DUP3 ADD MSTORE PUSH32 0x506C6174666F726D476174657761793A20706C6174666F726D20636F72652061 PUSH1 0x44 DUP3 ADD MSTORE PUSH14 0x646472657373206973207A65726F PUSH1 0x90 SHL PUSH1 0x64 DUP3 ADD MSTORE PUSH1 0x84 ADD PUSH1 0x40 MLOAD DUP1 SWAP2 SUB SWAP1 REVERT JUMPDEST PUSH1 0x0 DUP1 SLOAD PUSH1 0x1 PUSH1 0x1 PUSH1 0xA0 SHL SUB NOT AND PUSH1 0x1 PUSH1 0x1 PUSH1 0xA0 SHL SUB DUP4 AND OR SWAP1 SSTORE PUSH2 0xC4 CALLER PUSH2 0xFE JUMP JUMPDEST PUSH1 0x40 MLOAD PUSH1 0x1 PUSH1 0x1 PUSH1 0xA0 SHL SUB DUP3 AND SWAP1 PUSH32 0xD99AC2FD385313AC20E8AC829F3132D44D8D73640E80390B2084F421C874E677 SWAP1 PUSH1 0x0 SWAP1 LOG2 POP PUSH2 0x189 JUMP JUMPDEST PUSH1 0x0 PUSH2 0x12B PUSH1 0x1 PUSH32 0x1DF41701F902CE3DA6E2994536874193CA9CFB87B69B3D79CDD3C74499A15638 PUSH2 0x162 JUMP JUMPDEST SWAP2 SWAP1 SWAP2 SSTORE POP JUMP JUMPDEST PUSH1 0x0 PUSH1 0x20 DUP3 DUP5 SUB SLT ISZERO PUSH2 0x144 JUMPI PUSH1 0x0 DUP1 REVERT JUMPDEST DUP2 MLOAD PUSH1 0x1 PUSH1 0x1 PUSH1 0xA0 SHL SUB DUP2 AND DUP2 EQ PUSH2 0x15B JUMPI PUSH1 0x0 DUP1 REVERT JUMPDEST SWAP4 SWAP3 POP POP POP JUMP JUMPDEST DUP2 DUP2 SUB DUP2 DUP2 GT ISZERO PUSH2 0x183 JUMPI PUSH4 0x4E487B71 PUSH1 0xE0 SHL PUSH1 0x0 MSTORE PUSH1 0x11 PUSH1 0x4 MSTORE PUSH1 0x24 PUSH1 0x0 REVERT JUMPDEST SWAP3 SWAP2 POP POP JUMP JUMPDEST PUSH2 0x8F6 DUP1 PUSH2 0x198 PUSH1 0x0 CODECOPY PUSH1 0x0 RETURN INVALID PUSH1 0x80 PUSH1 0x40 MSTORE CALLVALUE DUP1 ISZERO PUSH2 0x10 JUMPI PUSH1 0x0 DUP1 REVERT JUMPDEST POP PUSH1 0x4 CALLDATASIZE LT PUSH2 0xCF JUMPI PUSH1 0x0 CALLDATALOAD PUSH1 0xE0 SHR DUP1 PUSH4 0x63A599A4 GT PUSH2 0x8C JUMPI DUP1 PUSH4 0x93C87F03 GT PUSH2 0x66 JUMPI DUP1 PUSH4 0x93C87F03 EQ PUSH2 0x187 JUMPI DUP1 PUSH4 0x94217AD1 EQ PUSH2 0x18F JUMPI DUP1 PUSH4 0xA6F9DAE1 EQ PUSH2 0x1A2 JUMPI DUP1 PUSH4 0xBFA5020C EQ PUSH2 0x1B5 JUMPI PUSH1 0x0 DUP1 REVERT JUMPDEST DUP1 PUSH4 0x63A599A4 EQ PUSH2 0x159 JUMPI DUP1 PUSH4 0x7542FF95 EQ PUSH2 0x161 JUMPI DUP1 PUSH4 0x813047AB EQ PUSH2 0x174 JUMPI PUSH1 0x0 DUP1 REVERT JUMPDEST DUP1 PUSH4 0x29D10B6E EQ PUSH2 0xD4 JUMPI DUP1 PUSH4 0x2E10C86C EQ PUSH2 0xE9 JUMPI DUP1 PUSH4 0x3018205F EQ PUSH2 0xFC JUMPI DUP1 PUSH4 0x380EF3FE EQ PUSH2 0x120 JUMPI DUP1 PUSH4 0x3998FDD3 EQ PUSH2 0x133 JUMPI DUP1 PUSH4 0x3CEBB823 EQ PUSH2 0x146 JUMPI JUMPDEST PUSH1 0x0 DUP1 REVERT JUMPDEST PUSH2 0xE7 PUSH2 0xE2 CALLDATASIZE PUSH1 0x4 PUSH2 0x7A3 JUMP JUMPDEST PUSH2 0x1C8 JUMP JUMPDEST STOP JUMPDEST PUSH2 0xE7 PUSH2 0xF7 CALLDATASIZE PUSH1 0x4 PUSH2 0x7C5 JUMP JUMPDEST PUSH2 0x26C JUMP JUMPDEST PUSH2 0x104 PUSH2 0x4F3 JUMP JUMPDEST PUSH1 0x40 MLOAD PUSH1 0x1 PUSH1 0x1 PUSH1 0xA0 SHL SUB SWAP1 SWAP2 AND DUP2 MSTORE PUSH1 0x20 ADD PUSH1 0x40 MLOAD DUP1 SWAP2 SUB SWAP1 RETURN JUMPDEST PUSH1 0x5 SLOAD PUSH2 0x104 SWAP1 PUSH1 0x1 PUSH1 0x1 PUSH1 0xA0 SHL SUB AND DUP2 JUMP JUMPDEST PUSH1 0x1 SLOAD PUSH2 0x104 SWAP1 PUSH1 0x1 PUSH1 0x1 PUSH1 0xA0 SHL SUB AND DUP2 JUMP JUMPDEST PUSH2 0xE7 PUSH2 0x154 CALLDATASIZE PUSH1 0x4 PUSH2 0x7A3 JUMP JUMPDEST PUSH2 0x502 JUMP JUMPDEST PUSH2 0xE7 PUSH2 0x5A8 JUMP JUMPDEST PUSH1 0x3 SLOAD PUSH2 0x104 SWAP1 PUSH1 0x1 PUSH1 0x1 PUSH1 0xA0 SHL SUB AND DUP2 JUMP JUMPDEST PUSH1 0x4 SLOAD PUSH2 0x104 SWAP1 PUSH1 0x1 PUSH1 0x1 PUSH1 0xA0 SHL SUB AND DUP2 JUMP JUMPDEST PUSH2 0xE7 PUSH2 0x63B JUMP JUMPDEST PUSH1 0x2 SLOAD PUSH2 0x104 SWAP1 PUSH1 0x1 PUSH1 0x1 PUSH1 0xA0 SHL SUB AND DUP2 JUMP JUMPDEST PUSH2 0xE7 PUSH2 0x1B0 CALLDATASIZE PUSH1 0x4 PUSH2 0x7A3 JUMP JUMPDEST PUSH2 0x6B4 JUMP JUMPDEST PUSH1 0x0 SLOAD PUSH2 0x104 SWAP1 PUSH1 0x1 PUSH1 0x1 PUSH1 0xA0 SHL SUB AND DUP2 JUMP JUMPDEST PUSH2 0x1D0 PUSH2 0x71E JUMP JUMPDEST PUSH1 0x1 PUSH1 0x1 PUSH1 0xA0 SHL SUB AND CALLER PUSH1 0x1 PUSH1 0x1 PUSH1 0xA0 SHL SUB AND EQ PUSH2 0x209 JUMPI PUSH1 0x40 MLOAD PUSH3 0x461BCD PUSH1 0xE5 SHL DUP2 MSTORE PUSH1 0x4 ADD PUSH2 0x200 SWAP1 PUSH2 0x82A JUMP JUMPDEST PUSH1 0x40 MLOAD DUP1 SWAP2 SUB SWAP1 REVERT JUMPDEST PUSH1 0x0 SLOAD PUSH1 0x40 MLOAD PUSH4 0x14E885B7 PUSH1 0xE1 SHL DUP2 MSTORE PUSH1 0x1 PUSH1 0x1 PUSH1 0xA0 SHL SUB DUP4 DUP2 AND PUSH1 0x4 DUP4 ADD MSTORE SWAP1 SWAP2 AND SWAP1 PUSH4 0x29D10B6E SWAP1 PUSH1 0x24 ADD JUMPDEST PUSH1 0x0 PUSH1 0x40 MLOAD DUP1 DUP4 SUB DUP2 PUSH1 0x0 DUP8 DUP1 EXTCODESIZE ISZERO DUP1 ISZERO PUSH2 0x251 JUMPI PUSH1 0x0 DUP1 REVERT JUMPDEST POP GAS CALL ISZERO DUP1 ISZERO PUSH2 0x265 JUMPI RETURNDATASIZE PUSH1 0x0 DUP1 RETURNDATACOPY RETURNDATASIZE PUSH1 0x0 REVERT JUMPDEST POP POP POP POP POP JUMP JUMPDEST PUSH2 0x274 PUSH2 0x71E JUMP JUMPDEST PUSH1 0x1 PUSH1 0x1 PUSH1 0xA0 SHL SUB AND CALLER PUSH1 0x1 PUSH1 0x1 PUSH1 0xA0 SHL SUB AND EQ PUSH2 0x2A4 JUMPI PUSH1 0x40 MLOAD PUSH3 0x461BCD PUSH1 0xE5 SHL DUP2 MSTORE PUSH1 0x4 ADD PUSH2 0x200 SWAP1 PUSH2 0x850 JUMP JUMPDEST PUSH1 0x1 PUSH1 0x1 PUSH1 0xA0 SHL SUB DUP6 AND PUSH2 0x2FA JUMPI PUSH1 0x40 MLOAD PUSH3 0x461BCD PUSH1 0xE5 SHL DUP2 MSTORE PUSH1 0x20 PUSH1 0x4 DUP3 ADD MSTORE PUSH1 0x17 PUSH1 0x24 DUP3 ADD MSTORE PUSH32 0x496E76616C69642073657276696365206D616E61676572000000000000000000 PUSH1 0x44 DUP3 ADD MSTORE PUSH1 0x64 ADD PUSH2 0x200 JUMP JUMPDEST PUSH1 0x1 PUSH1 0x1 PUSH1 0xA0 SHL SUB DUP5 AND PUSH2 0x348 JUMPI PUSH1 0x40 MLOAD PUSH3 0x461BCD PUSH1 0xE5 SHL DUP2 MSTORE PUSH1 0x20 PUSH1 0x4 DUP3 ADD MSTORE PUSH1 0x15 PUSH1 0x24 DUP3 ADD MSTORE PUSH21 0x24B73B30B634B21030B9B9B2BA1036B0B730B3B2B9 PUSH1 0x59 SHL PUSH1 0x44 DUP3 ADD MSTORE PUSH1 0x64 ADD PUSH2 0x200 JUMP JUMPDEST PUSH1 0x1 PUSH1 0x1 PUSH1 0xA0 SHL SUB DUP4 AND PUSH2 0x396 JUMPI PUSH1 0x40 MLOAD PUSH3 0x461BCD PUSH1 0xE5 SHL DUP2 MSTORE PUSH1 0x20 PUSH1 0x4 DUP3 ADD MSTORE PUSH1 0x15 PUSH1 0x24 DUP3 ADD MSTORE PUSH21 0x24B73B30B634B21039BA30B5B29036B0B730B3B2B9 PUSH1 0x59 SHL PUSH1 0x44 DUP3 ADD MSTORE PUSH1 0x64 ADD PUSH2 0x200 JUMP JUMPDEST PUSH1 0x1 PUSH1 0x1 PUSH1 0xA0 SHL SUB DUP3 AND PUSH2 0x3EC JUMPI PUSH1 0x40 MLOAD PUSH3 0x461BCD PUSH1 0xE5 SHL DUP2 MSTORE PUSH1 0x20 PUSH1 0x4 DUP3 ADD MSTORE PUSH1 0x1D PUSH1 0x24 DUP3 ADD MSTORE PUSH32 0x496E76616C69642063726561746F7220746F6B656E206D616E61676572000000 PUSH1 0x44 DUP3 ADD MSTORE PUSH1 0x64 ADD PUSH2 0x200 JUMP JUMPDEST PUSH1 0x1 PUSH1 0x1 PUSH1 0xA0 SHL SUB DUP2 AND PUSH2 0x442 JUMPI PUSH1 0x40 MLOAD PUSH3 0x461BCD PUSH1 0xE5 SHL DUP2 MSTORE PUSH1 0x20 PUSH1 0x4 DUP3 ADD MSTORE PUSH1 0x17 PUSH1 0x24 DUP3 ADD MSTORE PUSH32 0x496E76616C6964207365637572697479206D6F64756C65000000000000000000 PUSH1 0x44 DUP3 ADD MSTORE PUSH1 0x64 ADD PUSH2 0x200 JUMP JUMPDEST PUSH1 0x1 DUP1 SLOAD PUSH1 0x1 PUSH1 0x1 PUSH1 0xA0 SHL SUB DUP8 DUP2 AND PUSH1 0x1 PUSH1 0x1 PUSH1 0xA0 SHL SUB NOT SWAP3 DUP4 AND DUP2 OR SWAP1 SWAP4 SSTORE PUSH1 0x2 DUP1 SLOAD DUP9 DUP4 AND SWAP1 DUP5 AND DUP2 OR SWAP1 SWAP2 SSTORE PUSH1 0x3 DUP1 SLOAD DUP9 DUP5 AND SWAP1 DUP6 AND DUP2 OR SWAP1 SWAP2 SSTORE PUSH1 0x4 DUP1 SLOAD DUP9 DUP6 AND SWAP1 DUP7 AND DUP2 OR SWAP1 SWAP2 SSTORE PUSH1 0x5 DUP1 SLOAD SWAP5 DUP9 AND SWAP5 SWAP1 SWAP6 AND DUP5 OR SWAP1 SWAP5 SSTORE PUSH1 0x40 DUP1 MLOAD SWAP6 DUP7 MSTORE PUSH1 0x20 DUP7 ADD SWAP3 SWAP1 SWAP3 MSTORE SWAP1 DUP5 ADD MSTORE PUSH1 0x60 DUP4 ADD SWAP2 SWAP1 SWAP2 MSTORE PUSH1 0x80 DUP3 ADD MSTORE PUSH32 0x9B47E54D9B3ABE46F0A97A08368148DCC1F8F0FD97118650D8350C5CF967F168 SWAP1 PUSH1 0xA0 ADD PUSH1 0x40 MLOAD DUP1 SWAP2 SUB SWAP1 LOG1 POP POP POP POP POP JUMP JUMPDEST PUSH1 0x0 PUSH2 0x4FD PUSH2 0x71E JUMP JUMPDEST SWAP1 POP SWAP1 JUMP JUMPDEST PUSH2 0x50A PUSH2 0x71E JUMP JUMPDEST PUSH1 0x1 PUSH1 0x1 PUSH1 0xA0 SHL SUB AND CALLER PUSH1 0x1 PUSH1 0x1 PUSH1 0xA0 SHL SUB AND EQ PUSH2 0x53A JUMPI PUSH1 0x40 MLOAD PUSH3 0x461BCD PUSH1 0xE5 SHL DUP2 MSTORE PUSH1 0x4 ADD PUSH2 0x200 SWAP1 PUSH2 0x850 JUMP JUMPDEST PUSH1 0x1 PUSH1 0x1 PUSH1 0xA0 SHL SUB DUP2 AND PUSH2 0x59C JUMPI PUSH1 0x40 MLOAD PUSH3 0x461BCD PUSH1 0xE5 SHL DUP2 MSTORE PUSH1 0x20 PUSH1 0x4 DUP3 ADD MSTORE PUSH1 0x23 PUSH1 0x24 DUP3 ADD MSTORE PUSH32 0x506C6174666F726D476174657761793A20696E76616C696420636F6E74726F6C PUSH1 0x44 DUP3 ADD MSTORE PUSH3 0x3632B9 PUSH1 0xE9 SHL PUSH1 0x64 DUP3 ADD MSTORE PUSH1 0x84 ADD PUSH2 0x200 JUMP JUMPDEST PUSH2 0x5A5 DUP2 PUSH2 0x753 JUMP JUMPDEST POP JUMP JUMPDEST PUSH2 0x5B0 PUSH2 0x71E JUMP JUMPDEST PUSH1 0x1 PUSH1 0x1 PUSH1 0xA0 SHL SUB AND CALLER PUSH1 0x1 PUSH1 0x1 PUSH1 0xA0 SHL SUB AND EQ PUSH2 0x5E0 JUMPI PUSH1 0x40 MLOAD PUSH3 0x461BCD PUSH1 0xE5 SHL DUP2 MSTORE PUSH1 0x4 ADD PUSH2 0x200 SWAP1 PUSH2 0x82A JUMP JUMPDEST PUSH1 0x0 DUP1 SLOAD PUSH1 0x40 DUP1 MLOAD PUSH4 0x18E96669 PUSH1 0xE2 SHL DUP2 MSTORE SWAP1 MLOAD PUSH1 0x1 PUSH1 0x1 PUSH1 0xA0 SHL SUB SWAP1 SWAP3 AND SWAP3 PUSH4 0x63A599A4 SWAP3 PUSH1 0x4 DUP1 DUP5 ADD SWAP4 DUP3 SWAP1 SUB ADD DUP2 DUP4 DUP8 DUP1 EXTCODESIZE ISZERO DUP1 ISZERO PUSH2 0x621 JUMPI PUSH1 0x0 DUP1 REVERT JUMPDEST POP GAS CALL ISZERO DUP1 ISZERO PUSH2 0x635 JUMPI RETURNDATASIZE PUSH1 0x0 DUP1 RETURNDATACOPY RETURNDATASIZE PUSH1 0x0 REVERT JUMPDEST POP POP POP POP JUMP JUMPDEST PUSH2 0x643 PUSH2 0x71E JUMP JUMPDEST PUSH1 0x1 PUSH1 0x1 PUSH1 0xA0 SHL SUB AND CALLER PUSH1 0x1 PUSH1 0x1 PUSH1 0xA0 SHL SUB AND EQ PUSH2 0x673 JUMPI PUSH1 0x40 MLOAD PUSH3 0x461BCD PUSH1 0xE5 SHL DUP2 MSTORE PUSH1 0x4 ADD PUSH2 0x200 SWAP1 PUSH2 0x82A JUMP JUMPDEST PUSH1 0x0 DUP1 SLOAD PUSH1 0x40 DUP1 MLOAD PUSH4 0x93C87F03 PUSH1 0xE0 SHL DUP2 MSTORE SWAP1 MLOAD PUSH1 0x1 PUSH1 0x1 PUSH1 0xA0 SHL SUB SWAP1 SWAP3 AND SWAP3 PUSH4 0x93C87F03 SWAP3 PUSH1 0x4 DUP1 DUP5 ADD SWAP4 DUP3 SWAP1 SUB ADD DUP2 DUP4 DUP8 DUP1 EXTCODESIZE ISZERO DUP1 ISZERO PUSH2 0x621 JUMPI PUSH1 0x0 DUP1 REVERT JUMPDEST PUSH2 0x6BC PUSH2 0x71E JUMP JUMPDEST PUSH1 0x1 PUSH1 0x1 PUSH1 0xA0 SHL SUB AND CALLER PUSH1 0x1 PUSH1 0x1 PUSH1 0xA0 SHL SUB AND EQ PUSH2 0x6EC JUMPI PUSH1 0x40 MLOAD PUSH3 0x461BCD PUSH1 0xE5 SHL DUP2 MSTORE PUSH1 0x4 ADD PUSH2 0x200 SWAP1 PUSH2 0x82A JUMP JUMPDEST PUSH1 0x0 SLOAD PUSH1 0x40 MLOAD PUSH4 0xA6F9DAE1 PUSH1 0xE0 SHL DUP2 MSTORE PUSH1 0x1 PUSH1 0x1 PUSH1 0xA0 SHL SUB DUP4 DUP2 AND PUSH1 0x4 DUP4 ADD MSTORE SWAP1 SWAP2 AND SWAP1 PUSH4 0xA6F9DAE1 SWAP1 PUSH1 0x24 ADD PUSH2 0x237 JUMP JUMPDEST PUSH1 0x0 DUP1 PUSH2 0x74C PUSH1 0x1 PUSH32 0x1DF41701F902CE3DA6E2994536874193CA9CFB87B69B3D79CDD3C74499A15638 PUSH2 0x899 JUMP JUMPDEST SLOAD SWAP3 SWAP2 POP POP JUMP JUMPDEST PUSH1 0x0 PUSH2 0x780 PUSH1 0x1 PUSH32 0x1DF41701F902CE3DA6E2994536874193CA9CFB87B69B3D79CDD3C74499A15638 PUSH2 0x899 JUMP JUMPDEST SWAP2 SWAP1 SWAP2 SSTORE POP JUMP JUMPDEST DUP1 CALLDATALOAD PUSH1 0x1 PUSH1 0x1 PUSH1 0xA0 SHL SUB DUP2 AND DUP2 EQ PUSH2 0x79E JUMPI PUSH1 0x0 DUP1 REVERT JUMPDEST SWAP2 SWAP1 POP JUMP JUMPDEST PUSH1 0x0 PUSH1 0x20 DUP3 DUP5 SUB SLT ISZERO PUSH2 0x7B5 JUMPI PUSH1 0x0 DUP1 REVERT JUMPDEST PUSH2 0x7BE DUP3 PUSH2 0x787 JUMP JUMPDEST SWAP4 SWAP3 POP POP POP JUMP JUMPDEST PUSH1 0x0 DUP1 PUSH1 0x0 DUP1 PUSH1 0x0 PUSH1 0xA0 DUP7 DUP9 SUB SLT ISZERO PUSH2 0x7DD JUMPI PUSH1 0x0 DUP1 REVERT JUMPDEST PUSH2 0x7E6 DUP7 PUSH2 0x787 JUMP JUMPDEST SWAP5 POP PUSH2 0x7F4 PUSH1 0x20 DUP8 ADD PUSH2 0x787 JUMP JUMPDEST SWAP4 POP PUSH2 0x802 PUSH1 0x40 DUP8 ADD PUSH2 0x787 JUMP JUMPDEST SWAP3 POP PUSH2 0x810 PUSH1 0x60 DUP8 ADD PUSH2 0x787 JUMP JUMPDEST SWAP2 POP PUSH2 0x81E PUSH1 0x80 DUP8 ADD PUSH2 0x787 JUMP JUMPDEST SWAP1 POP SWAP3 SWAP6 POP SWAP3 SWAP6 SWAP1 SWAP4 POP JUMP JUMPDEST PUSH1 0x20 DUP1 DUP3 MSTORE PUSH1 0xC SWAP1 DUP3 ADD MSTORE PUSH12 0x155B985D5D1A1BDC9A5E9959 PUSH1 0xA2 SHL PUSH1 0x40 DUP3 ADD MSTORE PUSH1 0x60 ADD SWAP1 JUMP JUMPDEST PUSH1 0x20 DUP1 DUP3 MSTORE PUSH1 0x29 SWAP1 DUP3 ADD MSTORE PUSH32 0x506C6174666F726D476174657761793A2063616C6C6572206973206E6F742063 PUSH1 0x40 DUP3 ADD MSTORE PUSH9 0x37B73A3937B63632B9 PUSH1 0xB9 SHL PUSH1 0x60 DUP3 ADD MSTORE PUSH1 0x80 ADD SWAP1 JUMP JUMPDEST DUP2 DUP2 SUB DUP2 DUP2 GT ISZERO PUSH2 0x8BA JUMPI PUSH4 0x4E487B71 PUSH1 0xE0 SHL PUSH1 0x0 MSTORE PUSH1 0x11 PUSH1 0x4 MSTORE PUSH1 0x24 PUSH1 0x0 REVERT JUMPDEST SWAP3 SWAP2 POP POP JUMP INVALID LOG2 PUSH5 0x6970667358 0x22 SLT KECCAK256 0xBE 0xEA BLOCKHASH 0x2F SLOAD 0xBB 0xAB KECCAK256 LOG3 0x25 DUP9 0xCB PUSH19 0x267A015341A26C6FD6DF385D9BE13FA0032448 PUSH5 0x736F6C6343 STOP ADDMOD EQ STOP CALLER "},"methodIdentifiers":{"addSupervisor(address)":"29d10b6e","assetManager()":"94217ad1","changeController(address)":"3cebb823","changeOwner(address)":"a6f9dae1","creatorTokenManager()":"813047ab","emergencyResume()":"93c87f03","emergencyStop()":"63a599a4","getController()":"3018205f","linkModules(address,address,address,address,address)":"2e10c86c","platformCore()":"bfa5020c","securityModule()":"380ef3fe","serviceManager()":"3998fdd3","stakeManager()":"7542ff95"}}}}}