{
  "_format": "hh-sol-artifact-1",
  "contractName": "SecurityManager",
  "sourceName": "contracts/SecurityManager.sol",
  "abi": [
    {
      "inputs": [
        {
          "internalType": "address",
          "name": "_ecosystemCore",
          "type": "address"
        }
      ],
      "stateMutability": "nonpayable",
      "type": "constructor"
    },
    {
      "anonymous": false,
      "inputs": [
        {
          "indexed": true,
          "internalType": "address",
          "name": "tokenAddress",
          "type": "address"
        },
        {
          "indexed": false,
          "internalType": "uint256",
          "name": "amount",
          "type": "uint256"
        }
      ],
      "name": "AssetsRecovered",
      "type": "event"
    },
    {
      "anonymous": false,
      "inputs": [
        {
          "indexed": true,
          "internalType": "address",
          "name": "reporter",
          "type": "address"
        },
        {
          "indexed": false,
          "internalType": "string",
          "name": "description",
          "type": "string"
        }
      ],
      "name": "SecurityIncident",
      "type": "event"
    },
    {
      "inputs": [],
      "name": "ecosystemCore",
      "outputs": [
        {
          "internalType": "contract INexusEcosystemCore",
          "name": "",
          "type": "address"
        }
      ],
      "stateMutability": "view",
      "type": "function"
    },
    {
      "inputs": [],
      "name": "pauseSystem",
      "outputs": [],
      "stateMutability": "nonpayable",
      "type": "function"
    },
    {
      "inputs": [
        {
          "internalType": "address",
          "name": "tokenAddress",
          "type": "address"
        },
        {
          "internalType": "uint256",
          "name": "recoveryAmount",
          "type": "uint256"
        }
      ],
      "name": "recoverAssets",
      "outputs": [],
      "stateMutability": "nonpayable",
      "type": "function"
    },
    {
      "inputs": [
        {
          "internalType": "string",
          "name": "description",
          "type": "string"
        }
      ],
      "name": "reportIncident",
      "outputs": [],
      "stateMutability": "nonpayable",
      "type": "function"
    },
    {
      "inputs": [],
      "name": "resumeSystem",
      "outputs": [],
      "stateMutability": "nonpayable",
      "type": "function"
    }
  ],
  "bytecode": "0x608060405234801561001057600080fd5b506040516108f83803806108f883398101604081905261002f916100c6565b6001600160a01b0381166100a15760405162461bcd60e51b815260206004820152602f60248201527f53656375726974794d616e616765723a2065636f73797374656d20636f72652060448201526e61646472657373206973207a65726f60881b606482015260840160405180910390fd5b600080546001600160a01b0319166001600160a01b03929092169190911790556100f6565b6000602082840312156100d857600080fd5b81516001600160a01b03811681146100ef57600080fd5b9392505050565b6107f3806101056000396000f3fe608060405234801561001057600080fd5b50600436106100575760003560e01c8063088c37dc1461005c578063157c51d31461008b5780631c4077d91461009557806350ab3e93146100a8578063dc1d4fb7146100bb575b600080fd5b60005461006f906001600160a01b031681565b6040516001600160a01b03909116815260200160405180910390f35b6100936100c3565b005b6100936100a3366004610631565b6101af565b6100936100b63660046106bb565b6102c0565b610093610568565b6000546040516317aa5fb760e11b81523360048201526001600160a01b0390911690632f54bf6e90602401602060405180830381865afa15801561010b573d6000803e3d6000fd5b505050506040513d601f19601f8201168201806040525081019061012f91906106e7565b6101545760405162461bcd60e51b815260040161014b90610710565b60405180910390fd5b600080546040805163157c51d360e01b815290516001600160a01b039092169263157c51d39260048084019382900301818387803b15801561019557600080fd5b505af11580156101a9573d6000803e3d6000fd5b50505050565b60005460405163f3ae241560e01b81523360048201526001600160a01b039091169063f3ae241590602401602060405180830381865afa1580156101f7573d6000803e3d6000fd5b505050506040513d601f19601f8201168201806040525081019061021b91906106e7565b6102795760405162461bcd60e51b815260206004820152602960248201527f53656375726974794d616e616765723a2063616c6c6572206973206e6f7420616044820152681d5d1a1bdc9a5e995960ba1b606482015260840161014b565b336001600160a01b03167fcd702c70a753b6e027bb529ec6a8f3d9267c8ea87a77d97f1fd31319d1a9184783836040516102b4929190610758565b60405180910390a25050565b6000546040516317aa5fb760e11b81523360048201526001600160a01b0390911690632f54bf6e90602401602060405180830381865afa158015610308573d6000803e3d6000fd5b505050506040513d601f19601f8201168201806040525081019061032c91906106e7565b6103485760405162461bcd60e51b815260040161014b90610710565b600081116103be5760405162461bcd60e51b815260206004820152603a60248201527f53656375726974794d616e616765723a207265636f7665727920616d6f756e7460448201527f206d7573742062652067726561746572207468616e207a65726f000000000000606482015260840161014b565b60008060009054906101000a90046001600160a01b03166001600160a01b031663580d164e6040518163ffffffff1660e01b8152600401602060405180830381865afa158015610412573d6000803e3d6000fd5b505050506040513d601f19601f820116820180604052508101906104369190610787565b60405163eca3691760e01b81526001600160a01b038581166004830152306024830152336044830152600785900b606483015291925060009183169063eca36917906084016020604051808303816000875af115801561049a573d6000803e3d6000fd5b505050506040513d601f19601f820116820180604052508101906104be91906107a4565b90506016811461051f5760405162461bcd60e51b815260206004820152602660248201527f53656375726974794d616e616765723a206173736574207265636f766572792060448201526519985a5b195960d21b606482015260840161014b565b836001600160a01b03167f2efdc42bcf9bb8d3709fdf256a816377b073979f10f42a4b05ccdbf694db6da78460405161055a91815260200190565b60405180910390a250505050565b6000546040516317aa5fb760e11b81523360048201526001600160a01b0390911690632f54bf6e90602401602060405180830381865afa1580156105b0573d6000803e3d6000fd5b505050506040513d601f19601f820116820180604052508101906105d491906106e7565b6105f05760405162461bcd60e51b815260040161014b90610710565b600080546040805163dc1d4fb760e01b815290516001600160a01b039092169263dc1d4fb79260048084019382900301818387803b15801561019557600080fd5b6000806020838503121561064457600080fd5b823567ffffffffffffffff8082111561065c57600080fd5b818501915085601f83011261067057600080fd5b81358181111561067f57600080fd5b86602082850101111561069157600080fd5b60209290920196919550909350505050565b6001600160a01b03811681146106b857600080fd5b50565b600080604083850312156106ce57600080fd5b82356106d9816106a3565b946020939093013593505050565b6000602082840312156106f957600080fd5b8151801515811461070957600080fd5b9392505050565b60208082526028908201527f53656375726974794d616e616765723a2063616c6c6572206973206e6f74207460408201526734329037bbb732b960c11b606082015260800190565b60208152816020820152818360408301376000818301604090810191909152601f909201601f19160101919050565b60006020828403121561079957600080fd5b8151610709816106a3565b6000602082840312156107b657600080fd5b505191905056fea26469706673582212206968fb12c8792566c1888f20ce21705df9f42bb80aec2086089be0dc968190bf64736f6c63430008140033",
  "linkReferences": {},
  "deployedLinkReferences": {}
}