{
  "_format": "hh-sol-artifact-1",
  "contractName": "StakeManager",
  "sourceName": "contracts/StakeManager.sol",
  "abi": [
    {
      "inputs": [
        {
          "internalType": "address",
          "name": "_platformCore",
          "type": "address"
        }
      ],
      "stateMutability": "nonpayable",
      "type": "constructor"
    },
    {
      "anonymous": false,
      "inputs": [
        {
          "indexed": true,
          "internalType": "address",
          "name": "staker",
          "type": "address"
        },
        {
          "indexed": false,
          "internalType": "uint256",
          "name": "baseTokenAmount",
          "type": "uint256"
        },
        {
          "indexed": false,
          "internalType": "uint256",
          "name": "utilityTokenAmount",
          "type": "uint256"
        }
      ],
      "name": "TokensStaked",
      "type": "event"
    },
    {
      "inputs": [],
      "name": "STAKE_FEE_BPS",
      "outputs": [
        {
          "internalType": "uint256",
          "name": "",
          "type": "uint256"
        }
      ],
      "stateMutability": "view",
      "type": "function"
    },
    {
      "inputs": [],
      "name": "platformCore",
      "outputs": [
        {
          "internalType": "contract IQuantumPlatformCore",
          "name": "",
          "type": "address"
        }
      ],
      "stateMutability": "view",
      "type": "function"
    },
    {
      "inputs": [
        {
          "internalType": "uint256",
          "name": "baseTokenAmount",
          "type": "uint256"
        }
      ],
      "name": "stakeTokens",
      "outputs": [
        {
          "internalType": "uint256",
          "name": "",
          "type": "uint256"
        }
      ],
      "stateMutability": "nonpayable",
      "type": "function"
    }
  ],
  "bytecode": "0x608060405234801561001057600080fd5b50604051610e3a380380610e3a83398101604081905261002f916100c2565b6001600160a01b03811661009d5760405162461bcd60e51b815260206004820152602b60248201527f5374616b654d616e616765723a20706c6174666f726d20636f7265206164647260448201526a657373206973207a65726f60a81b606482015260840160405180910390fd5b600080546001600160a01b0319166001600160a01b03929092169190911790556100f2565b6000602082840312156100d457600080fd5b81516001600160a01b03811681146100eb57600080fd5b9392505050565b610d39806101016000396000f3fe608060405234801561001057600080fd5b50600436106100415760003560e01c806374a5ffc4146100465780637547c7a314610061578063bfa5020c14610074575b600080fd5b61004e60c881565b6040519081526020015b60405180910390f35b61004e61006f366004610a39565b61009f565b600054610087906001600160a01b031681565b6040516001600160a01b039091168152602001610058565b60008060009054906101000a90046001600160a01b03166001600160a01b031663351662266040518163ffffffff1660e01b8152600401602060405180830381865afa1580156100f3573d6000803e3d6000fd5b505050506040513d601f19601f820116820180604052508101906101179190610a52565b6101735760405162461bcd60e51b815260206004820152602260248201527f5374616b654d616e616765723a2073797374656d206973206e6f742061637469604482015261766560f01b60648201526084015b60405180910390fd5b600082116101da5760405162461bcd60e51b815260206004820152602e60248201527f5374616b654d616e616765723a20616d6f756e74206d7573742062652067726560448201526d61746572207468616e207a65726f60901b606482015260840161016a565b600054604051621e1d0560e61b8152336004820152602481018490526001600160a01b03909116906307874140906044016020604051808303816000875af115801561022a573d6000803e3d6000fd5b505050506040513d601f19601f8201168201806040525081019061024e9190610a52565b6102ab5760405162461bcd60e51b815260206004820152602860248201527f5374616b654d616e616765723a2065786365656473207472616e73616374696f6044820152676e206c696d69747360c01b606482015260840161016a565b600054604051634d218dd160e01b8152336004820152602481018490526001600160a01b0390911690634d218dd190604401600060405180830381600087803b1580156102f757600080fd5b505af115801561030b573d6000803e3d6000fd5b5050505060006101f483620f42406103239190610a91565b61032d9190610aae565b90506000811161037f5760405162461bcd60e51b815260206004820152601e60248201527f5374616b654d616e616765723a20616d6f756e7420746f6f20736d616c6c0000604482015260640161016a565b600061271061038f60c886610a91565b6103999190610aae565b905060006103a78286610ad0565b905060008060009054906101000a90046001600160a01b03166001600160a01b03166379137f9d6040518163ffffffff1660e01b8152600401602060405180830381865afa1580156103fd573d6000803e3d6000fd5b505050506040513d601f19601f820116820180604052508101906104219190610afb565b905060008060009054906101000a90046001600160a01b03166001600160a01b03166398acd7a66040518163ffffffff1660e01b8152600401602060405180830381865afa158015610477573d6000803e3d6000fd5b505050506040513d601f19601f8201168201806040525081019061049b9190610afb565b905060008060009054906101000a90046001600160a01b03166001600160a01b0316626266796040518163ffffffff1660e01b8152600401602060405180830381865afa1580156104f0573d6000803e3d6000fd5b505050506040513d601f19601f820116820180604052508101906105149190610afb565b905060008060009054906101000a90046001600160a01b03166001600160a01b0316632c035b746040518163ffffffff1660e01b8152600401602060405180830381865afa15801561056a573d6000803e3d6000fd5b505050506040513d601f19601f8201168201806040525081019061058e9190610afb565b90506000846001600160a01b031663eca369178533308e6040518563ffffffff1660e01b81526004016105c49493929190610b18565b6020604051808303816000875af11580156105e3573d6000803e3d6000fd5b505050506040513d601f19601f820116820180604052508101906106079190610b45565b90506016811461066a5760405162461bcd60e51b815260206004820152602860248201527f5374616b654d616e616765723a206261736520746f6b656e207472616e7366656044820152671c8819985a5b195960c21b606482015260840161016a565b60405163eca3691760e01b81526001600160a01b0386169063eca369179061069c908790309087908d90600401610b18565b6020604051808303816000875af11580156106bb573d6000803e3d6000fd5b505050506040513d601f19601f820116820180604052508101906106df9190610b45565b90506016811461073b5760405162461bcd60e51b815260206004820152602160248201527f5374616b654d616e616765723a20666565207472616e73666572206661696c656044820152601960fa1b606482015260840161016a565b604051631bdc8dff60e21b81526001600160a01b038581166004830152306024830152600788900b6044830152861690636f7237fc906064016020604051808303816000875af1158015610793573d6000803e3d6000fd5b505050506040513d601f19601f820116820180604052508101906107b79190610b45565b9050601681146108095760405162461bcd60e51b815260206004820152601f60248201527f5374616b654d616e616765723a20746f6b656e206275726e206661696c656400604482015260640161016a565b6040805160008082526020820190925281610834565b606081526020019060019003908161081f5790505b5060405163707a02cd60e11b81529091506001600160a01b0387169063e0f4059a906108689087908d908690600401610b74565b6000604051808303816000875af1158015610887573d6000803e3d6000fd5b505050506040513d6000823e601f3d908101601f191682016040526108af9190810190610c32565b509150601682146109125760405162461bcd60e51b815260206004820152602760248201527f5374616b654d616e616765723a207574696c69747920746f6b656e206d696e746044820152660819985a5b195960ca1b606482015260840161016a565b60405163eca3691760e01b81526001600160a01b0387169063eca3691790610944908790309033908f90600401610b18565b6020604051808303816000875af1158015610963573d6000803e3d6000fd5b505050506040513d601f19601f820116820180604052508101906109879190610b45565b9150601682146109ed5760405162461bcd60e51b815260206004820152602b60248201527f5374616b654d616e616765723a207574696c69747920746f6b656e207472616e60448201526a1cd9995c8819985a5b195960aa1b606482015260840161016a565b604080518c8152602081018b905233917fdd2a19c3bdd089cbe77c04f5655f83de0504d6140d12c8667646f55d0557c4dc910160405180910390a250969750505050505050505b919050565b600060208284031215610a4b57600080fd5b5035919050565b600060208284031215610a6457600080fd5b81518015158114610a7457600080fd5b9392505050565b634e487b7160e01b600052601160045260246000fd5b8082028115828204841417610aa857610aa8610a7b565b92915050565b600082610acb57634e487b7160e01b600052601260045260246000fd5b500490565b81810381811115610aa857610aa8610a7b565b6001600160a01b0381168114610af857600080fd5b50565b600060208284031215610b0d57600080fd5b8151610a7481610ae3565b6001600160a01b03948516815292841660208401529216604082015260079190910b606082015260800190565b600060208284031215610b5757600080fd5b5051919050565b634e487b7160e01b600052604160045260246000fd5b60006060820160018060a01b038616835260208560070b818501526060604085015281855180845260808601915060808160051b87010193508287016000805b83811015610c1057888703607f1901855282518051808952835b81811015610be9578281018901518a82018a01528801610bce565b508881018801849052601f01601f1916909701860196509385019391850191600101610bb4565b50949a9950505050505050505050565b8051600781900b8114610a3457600080fd5b60008060408385031215610c4557600080fd5b8251915060208084015167ffffffffffffffff80821115610c6557600080fd5b818601915086601f830112610c7957600080fd5b815181811115610c8b57610c8b610b5e565b8060051b604051601f19603f83011681018181108582111715610cb057610cb0610b5e565b604052918252848201925083810185019189831115610cce57600080fd5b938501935b82851015610cf357610ce485610c20565b84529385019392850192610cd3565b809650505050505050925092905056fea2646970667358221220671490aedc1d0d7c2a3ce553a308be5680187e3d622cc468705c1946ab3ce7ce64736f6c63430008140033",
  "linkReferences": {},
  "deployedLinkReferences": {}
}