{
  "_format": "hh-sol-artifact-1",
  "contractName": "CreatorTokenManager",
  "sourceName": "contracts/CreatorTokenManager.sol",
  "abi": [
    {
      "inputs": [
        {
          "internalType": "address",
          "name": "_platformCore",
          "type": "address"
        }
      ],
      "stateMutability": "nonpayable",
      "type": "constructor"
    },
    {
      "anonymous": false,
      "inputs": [
        {
          "indexed": true,
          "internalType": "address",
          "name": "creator",
          "type": "address"
        },
        {
          "indexed": true,
          "internalType": "address",
          "name": "tokenContract",
          "type": "address"
        },
        {
          "indexed": false,
          "internalType": "uint256",
          "name": "totalSupply",
          "type": "uint256"
        },
        {
          "indexed": false,
          "internalType": "uint256",
          "name": "tokenPrice",
          "type": "uint256"
        }
      ],
      "name": "CreatorTokenDeployed",
      "type": "event"
    },
    {
      "anonymous": false,
      "inputs": [
        {
          "indexed": true,
          "internalType": "address",
          "name": "buyer",
          "type": "address"
        },
        {
          "indexed": true,
          "internalType": "address",
          "name": "creator",
          "type": "address"
        },
        {
          "indexed": false,
          "internalType": "uint256",
          "name": "baseTokenSpent",
          "type": "uint256"
        },
        {
          "indexed": false,
          "internalType": "uint256",
          "name": "tokensReceived",
          "type": "uint256"
        }
      ],
      "name": "CreatorTokenPurchased",
      "type": "event"
    },
    {
      "inputs": [],
      "name": "CREATOR_FEE_BPS",
      "outputs": [
        {
          "internalType": "uint256",
          "name": "",
          "type": "uint256"
        }
      ],
      "stateMutability": "view",
      "type": "function"
    },
    {
      "inputs": [
        {
          "internalType": "address",
          "name": "creator",
          "type": "address"
        },
        {
          "internalType": "uint256",
          "name": "baseTokenAmount",
          "type": "uint256"
        }
      ],
      "name": "buyCreatorToken",
      "outputs": [
        {
          "internalType": "uint256",
          "name": "",
          "type": "uint256"
        }
      ],
      "stateMutability": "nonpayable",
      "type": "function"
    },
    {
      "inputs": [
        {
          "internalType": "address",
          "name": "tokenContract",
          "type": "address"
        },
        {
          "internalType": "uint256",
          "name": "totalSupply",
          "type": "uint256"
        },
        {
          "internalType": "uint256",
          "name": "tokenPrice",
          "type": "uint256"
        }
      ],
      "name": "deployCreatorToken",
      "outputs": [],
      "stateMutability": "nonpayable",
      "type": "function"
    },
    {
      "inputs": [
        {
          "internalType": "address",
          "name": "creator",
          "type": "address"
        }
      ],
      "name": "getCreatorTokenContract",
      "outputs": [
        {
          "internalType": "address",
          "name": "",
          "type": "address"
        }
      ],
      "stateMutability": "view",
      "type": "function"
    },
    {
      "inputs": [
        {
          "internalType": "address",
          "name": "creator",
          "type": "address"
        }
      ],
      "name": "getCreatorTokenInfo",
      "outputs": [
        {
          "internalType": "address",
          "name": "",
          "type": "address"
        },
        {
          "internalType": "uint256",
          "name": "",
          "type": "uint256"
        },
        {
          "internalType": "uint256",
          "name": "",
          "type": "uint256"
        },
        {
          "internalType": "uint256",
          "name": "",
          "type": "uint256"
        }
      ],
      "stateMutability": "view",
      "type": "function"
    },
    {
      "inputs": [],
      "name": "platformCore",
      "outputs": [
        {
          "internalType": "contract IQuantumPlatformCore",
          "name": "",
          "type": "address"
        }
      ],
      "stateMutability": "view",
      "type": "function"
    }
  ],
  "bytecode": "0x608060405234801561001057600080fd5b5060405161105338038061105383398101604081905261002f916100c9565b6001600160a01b0381166100a45760405162461bcd60e51b815260206004820152603260248201527f43726561746f72546f6b656e4d616e616765723a20706c6174666f726d20636f60448201527172652061646472657373206973207a65726f60701b606482015260840160405180910390fd5b600080546001600160a01b0319166001600160a01b03929092169190911790556100f9565b6000602082840312156100db57600080fd5b81516001600160a01b03811681146100f257600080fd5b9392505050565b610f4b806101086000396000f3fe608060405234801561001057600080fd5b50600436106100625760003560e01c806337f0eaa414610067578063a018a578146100a9578063a2ea2a6b146100ca578063bfa5020c1461010e578063cc3cbd2a14610121578063d5c2bf1b1461012a575b600080fd5b61007a610075366004610d0e565b61013f565b604080516001600160a01b03909516855260208501939093529183015260608201526080015b60405180910390f35b6100bc6100b7366004610d32565b6101c5565b6040519081526020016100a0565b6100f66100d8366004610d0e565b6001600160a01b039081166000908152600160205260409020541690565b6040516001600160a01b0390911681526020016100a0565b6000546100f6906001600160a01b031681565b6100bc6101f481565b61013d610138366004610d5e565b610a4e565b005b6001600160a01b0380821660009081526001602052604081205490918291829182918691166101895760405162461bcd60e51b815260040161018090610d93565b60405180910390fd5b505050506001600160a01b0391821660009081526002602081905260409091208054600182015492820154600390920154941694919390925090565b60008060009054906101000a90046001600160a01b03166001600160a01b031663351662266040518163ffffffff1660e01b8152600401602060405180830381865afa158015610219573d6000803e3d6000fd5b505050506040513d601f19601f8201168201806040525081019061023d9190610ddf565b6102595760405162461bcd60e51b815260040161018090610e01565b6001600160a01b038084166000908152600160205260409020548491166102925760405162461bcd60e51b815260040161018090610d93565b600083116103005760405162461bcd60e51b815260206004820152603560248201527f43726561746f72546f6b656e4d616e616765723a20616d6f756e74206d7573746044820152742062652067726561746572207468616e207a65726f60581b6064820152608401610180565b600054604051621e1d0560e61b8152336004820152602481018590526001600160a01b03909116906307874140906044016020604051808303816000875af1158015610350573d6000803e3d6000fd5b505050506040513d601f19601f820116820180604052508101906103749190610ddf565b6103d85760405162461bcd60e51b815260206004820152602f60248201527f43726561746f72546f6b656e4d616e616765723a20657863656564732074726160448201526e6e73616374696f6e206c696d69747360881b6064820152608401610180565b600054604051634d218dd160e01b8152336004820152602481018590526001600160a01b0390911690634d218dd190604401600060405180830381600087803b15801561042457600080fd5b505af1158015610438573d6000803e3d6000fd5b5050506001600160a01b038516600090815260026020819052604082209081015490925061046986620f4240610e60565b6104739190610e7d565b9050600081116104d35760405162461bcd60e51b815260206004820152602560248201527f43726561746f72546f6b656e4d616e616765723a20616d6f756e7420746f6f206044820152641cdb585b1b60da1b6064820152608401610180565b60006127106104e46101f488610e60565b6104ee9190610e7d565b905060006104fc8288610e9f565b905060008060009054906101000a90046001600160a01b03166001600160a01b03166379137f9d6040518163ffffffff1660e01b8152600401602060405180830381865afa158015610552573d6000803e3d6000fd5b505050506040513d601f19601f820116820180604052508101906105769190610eb2565b905060008060009054906101000a90046001600160a01b03166001600160a01b03166398acd7a66040518163ffffffff1660e01b8152600401602060405180830381865afa1580156105cc573d6000803e3d6000fd5b505050506040513d601f19601f820116820180604052508101906105f09190610eb2565b905060008060009054906101000a90046001600160a01b03166001600160a01b0316632c035b746040518163ffffffff1660e01b8152600401602060405180830381865afa158015610646573d6000803e3d6000fd5b505050506040513d601f19601f8201168201806040525081019061066a9190610eb2565b90506000836001600160a01b031663eca369178433308f6040518563ffffffff1660e01b81526004016106a09493929190610ecf565b6020604051808303816000875af11580156106bf573d6000803e3d6000fd5b505050506040513d601f19601f820116820180604052508101906106e39190610efc565b90506016811461074d5760405162461bcd60e51b815260206004820152602f60248201527f43726561746f72546f6b656e4d616e616765723a206261736520746f6b656e2060448201526e1d1c985b9cd9995c8819985a5b1959608a1b6064820152608401610180565b836001600160a01b031663eca3691784308f896040518563ffffffff1660e01b815260040161077f9493929190610ecf565b6020604051808303816000875af115801561079e573d6000803e3d6000fd5b505050506040513d601f19601f820116820180604052508101906107c29190610efc565b9050601681146108285760405162461bcd60e51b815260206004820152602b60248201527f43726561746f72546f6b656e4d616e616765723a2063726561746f722070617960448201526a1b595b9d0819985a5b195960aa1b6064820152608401610180565b60405163eca3691760e01b81526001600160a01b0385169063eca369179061085a908690309087908c90600401610ecf565b6020604051808303816000875af1158015610879573d6000803e3d6000fd5b505050506040513d601f19601f8201168201806040525081019061089d9190610efc565b9050601681146108ff5760405162461bcd60e51b815260206004820152602760248201527f43726561746f72546f6b656e4d616e616765723a20666565207061796d656e746044820152660819985a5b195960ca1b6064820152608401610180565b836001600160a01b031663eca369178960000160009054906101000a90046001600160a01b03168e338b6040518563ffffffff1660e01b81526004016109489493929190610ecf565b6020604051808303816000875af1158015610967573d6000803e3d6000fd5b505050506040513d601f19601f8201168201806040525081019061098b9190610efc565b9050601681146109f85760405162461bcd60e51b815260206004820152603260248201527f43726561746f72546f6b656e4d616e616765723a2063726561746f7220746f6b604482015271195b881d1c985b9cd9995c8819985a5b195960721b6064820152608401610180565b604080518c8152602081018990526001600160a01b038e169133917f7dc2311af61314f8790a9578d6c48fdb6c5586966980e72cca7438adf62b2531910160405180910390a350949a9950505050505050505050565b60008054906101000a90046001600160a01b03166001600160a01b031663351662266040518163ffffffff1660e01b8152600401602060405180830381865afa158015610a9f573d6000803e3d6000fd5b505050506040513d601f19601f82011682018060405250810190610ac39190610ddf565b610adf5760405162461bcd60e51b815260040161018090610e01565b6001600160a01b038316610b495760405162461bcd60e51b815260206004820152602b60248201527f43726561746f72546f6b656e4d616e616765723a20696e76616c696420746f6b60448201526a195b8818dbdb9d1c9858dd60aa1b6064820152608401610180565b336000908152600160205260409020546001600160a01b031615610bc65760405162461bcd60e51b815260206004820152602e60248201527f43726561746f72546f6b656e4d616e616765723a2063726561746f7220616c7260448201526d32b0b23c903430b9903a37b5b2b760911b6064820152608401610180565b600082118015610bd65750600081115b610c325760405162461bcd60e51b815260206004820152602760248201527f43726561746f72546f6b656e4d616e616765723a20696e76616c696420706172604482015266616d657465727360c81b6064820152608401610180565b33600081815260016020818152604080842080546001600160a01b038a81166001600160a01b0319928316811790935583516080810185528381528086018b81528186018b815242606084019081528b8b526002808a529a8890209351845495169490951693909317825551968101969096555195850195909555935160039093019290925581518681529081018590529192917fd9e012f902138af3abd104bd4f4bf48ec89a4976860b67ec6656e6e14cd5c1e2910160405180910390a3505050565b6001600160a01b0381168114610d0b57600080fd5b50565b600060208284031215610d2057600080fd5b8135610d2b81610cf6565b9392505050565b60008060408385031215610d4557600080fd5b8235610d5081610cf6565b946020939093013593505050565b600080600060608486031215610d7357600080fd5b8335610d7e81610cf6565b95602085013595506040909401359392505050565b6020808252602c908201527f43726561746f72546f6b656e4d616e616765723a2063726561746f7220746f6b60408201526b195b881b9bdd08199bdd5b9960a21b606082015260800190565b600060208284031215610df157600080fd5b81518015158114610d2b57600080fd5b60208082526029908201527f43726561746f72546f6b656e4d616e616765723a2073797374656d206973206e6040820152686f742061637469766560b81b606082015260800190565b634e487b7160e01b600052601160045260246000fd5b8082028115828204841417610e7757610e77610e4a565b92915050565b600082610e9a57634e487b7160e01b600052601260045260246000fd5b500490565b81810381811115610e7757610e77610e4a565b600060208284031215610ec457600080fd5b8151610d2b81610cf6565b6001600160a01b03948516815292841660208401529216604082015260079190910b606082015260800190565b600060208284031215610f0e57600080fd5b505191905056fea2646970667358221220e63ed6324b90e98e03f43abb74206a2874f75c2f1326831a95e55f03f173dc1664736f6c63430008140033",
  "linkReferences": {},
  "deployedLinkReferences": {}
}