{
  "_format": "hh-sol-artifact-1",
  "contractName": "ServiceManager",
  "sourceName": "contracts/ServiceManager.sol",
  "abi": [
    {
      "inputs": [
        {
          "internalType": "address",
          "name": "_platformCore",
          "type": "address"
        }
      ],
      "stateMutability": "nonpayable",
      "type": "constructor"
    },
    {
      "anonymous": false,
      "inputs": [
        {
          "indexed": true,
          "internalType": "uint256",
          "name": "serviceId",
          "type": "uint256"
        },
        {
          "indexed": true,
          "internalType": "address",
          "name": "client",
          "type": "address"
        },
        {
          "indexed": true,
          "internalType": "address",
          "name": "provider",
          "type": "address"
        },
        {
          "indexed": false,
          "internalType": "uint256",
          "name": "totalAmount",
          "type": "uint256"
        }
      ],
      "name": "ServiceCompleted",
      "type": "event"
    },
    {
      "anonymous": false,
      "inputs": [
        {
          "indexed": true,
          "internalType": "uint256",
          "name": "serviceId",
          "type": "uint256"
        },
        {
          "indexed": true,
          "internalType": "address",
          "name": "provider",
          "type": "address"
        },
        {
          "indexed": false,
          "internalType": "uint256",
          "name": "rate",
          "type": "uint256"
        }
      ],
      "name": "ServiceCreated",
      "type": "event"
    },
    {
      "inputs": [],
      "name": "SERVICE_FEE_BPS",
      "outputs": [
        {
          "internalType": "uint256",
          "name": "",
          "type": "uint256"
        }
      ],
      "stateMutability": "view",
      "type": "function"
    },
    {
      "inputs": [
        {
          "internalType": "uint256",
          "name": "rate",
          "type": "uint256"
        },
        {
          "internalType": "string",
          "name": "serviceDescription",
          "type": "string"
        }
      ],
      "name": "createService",
      "outputs": [
        {
          "internalType": "uint256",
          "name": "",
          "type": "uint256"
        }
      ],
      "stateMutability": "nonpayable",
      "type": "function"
    },
    {
      "inputs": [
        {
          "internalType": "uint256",
          "name": "serviceId",
          "type": "uint256"
        }
      ],
      "name": "getServiceDetails",
      "outputs": [
        {
          "components": [
            {
              "internalType": "address",
              "name": "serviceProvider",
              "type": "address"
            },
            {
              "internalType": "uint256",
              "name": "serviceRate",
              "type": "uint256"
            },
            {
              "internalType": "bool",
              "name": "isCompleted",
              "type": "bool"
            },
            {
              "internalType": "string",
              "name": "serviceDescription",
              "type": "string"
            },
            {
              "internalType": "address",
              "name": "serviceClient",
              "type": "address"
            },
            {
              "internalType": "uint256",
              "name": "createdAt",
              "type": "uint256"
            }
          ],
          "internalType": "struct ServiceManager.ServiceListing",
          "name": "",
          "type": "tuple"
        }
      ],
      "stateMutability": "view",
      "type": "function"
    },
    {
      "inputs": [],
      "name": "platformCore",
      "outputs": [
        {
          "internalType": "contract IQuantumPlatformCore",
          "name": "",
          "type": "address"
        }
      ],
      "stateMutability": "view",
      "type": "function"
    },
    {
      "inputs": [
        {
          "internalType": "uint256",
          "name": "serviceId",
          "type": "uint256"
        }
      ],
      "name": "purchaseService",
      "outputs": [],
      "stateMutability": "nonpayable",
      "type": "function"
    },
    {
      "inputs": [],
      "name": "serviceCounter",
      "outputs": [
        {
          "internalType": "uint256",
          "name": "",
          "type": "uint256"
        }
      ],
      "stateMutability": "view",
      "type": "function"
    }
  ],
  "bytecode": "0x608060405234801561001057600080fd5b5060405161122c38038061122c83398101604081905261002f916100c4565b6001600160a01b03811661009f5760405162461bcd60e51b815260206004820152602d60248201527f536572766963654d616e616765723a20706c6174666f726d20636f726520616460448201526c6472657373206973207a65726f60981b606482015260840160405180910390fd5b600080546001600160a01b0319166001600160a01b03929092169190911790556100f4565b6000602082840312156100d657600080fd5b81516001600160a01b03811681146100ed57600080fd5b9392505050565b611129806101036000396000f3fe608060405234801561001057600080fd5b50600436106100625760003560e01c806360c34ae6146100675780637defdd731461007c578063bdfdeb8714610098578063bfa5020c146100ab578063c2698c84146100d6578063ef7d87a3146100f6575b600080fd5b61007a610075366004610cac565b6100ff565b005b61008560025481565b6040519081526020015b60405180910390f35b6100856100a6366004610cc5565b61089d565b6000546100be906001600160a01b031681565b6040516001600160a01b03909116815260200161008f565b6100e96100e4366004610cac565b610b46565b60405161008f9190610d41565b6100856101f481565b60008054906101000a90046001600160a01b03166001600160a01b031663351662266040518163ffffffff1660e01b8152600401602060405180830381865afa158015610150573d6000803e3d6000fd5b505050506040513d601f19601f820116820180604052508101906101749190610dea565b6101995760405162461bcd60e51b815260040161019090610e13565b60405180910390fd5b600081815260016020526040902080546001600160a01b03166101ce5760405162461bcd60e51b815260040161019090610e57565b600281015460ff16156102355760405162461bcd60e51b815260206004820152602960248201527f536572766963654d616e616765723a207365727669636520616c72656164792060448201526818dbdb5c1b195d195960ba1b6064820152608401610190565b80546001600160a01b031633036102ab5760405162461bcd60e51b815260206004820152603460248201527f536572766963654d616e616765723a2070726f76696465722063616e6e6f74206044820152737075726368617365206f776e207365727669636560601b6064820152608401610190565b6000546001820154604051621e1d0560e61b815233600482015260248101919091526001600160a01b03909116906307874140906044016020604051808303816000875af1158015610301573d6000803e3d6000fd5b505050506040513d601f19601f820116820180604052508101906103259190610dea565b6103845760405162461bcd60e51b815260206004820152602a60248201527f536572766963654d616e616765723a2065786365656473207472616e73616374604482015269696f6e206c696d69747360b01b6064820152608401610190565b6000546001820154604051634d218dd160e01b815233600482015260248101919091526001600160a01b0390911690634d218dd190604401600060405180830381600087803b1580156103d657600080fd5b505af11580156103ea573d6000803e3d6000fd5b5050505060006127106101f483600101546104059190610eae565b61040f9190610ecb565b905060008183600101546104239190610eed565b905060008060009054906101000a90046001600160a01b03166001600160a01b03166379137f9d6040518163ffffffff1660e01b8152600401602060405180830381865afa158015610479573d6000803e3d6000fd5b505050506040513d601f19601f8201168201806040525081019061049d9190610f18565b905060008060009054906101000a90046001600160a01b03166001600160a01b03166398acd7a66040518163ffffffff1660e01b8152600401602060405180830381865afa1580156104f3573d6000803e3d6000fd5b505050506040513d601f19601f820116820180604052508101906105179190610f18565b905060008060009054906101000a90046001600160a01b03166001600160a01b0316632c035b746040518163ffffffff1660e01b8152600401602060405180830381865afa15801561056d573d6000803e3d6000fd5b505050506040513d601f19601f820116820180604052508101906105919190610f18565b600187015460405163eca3691760e01b81529192506000916001600160a01b0386169163eca36917916105cc91879133913091600401610f35565b6020604051808303816000875af11580156105eb573d6000803e3d6000fd5b505050506040513d601f19601f8201168201806040525081019061060f9190610f62565b90506016811461066f5760405162461bcd60e51b815260206004820152602560248201527f536572766963654d616e616765723a20746f6b656e207472616e736665722066604482015264185a5b195960da1b6064820152608401610190565b865460405163eca3691760e01b81526001600160a01b038087169263eca36917926106a592889230929116908b90600401610f35565b6020604051808303816000875af11580156106c4573d6000803e3d6000fd5b505050506040513d601f19601f820116820180604052508101906106e89190610f62565b90506016811461074a5760405162461bcd60e51b815260206004820152602760248201527f536572766963654d616e616765723a2070726f7669646572207061796d656e746044820152660819985a5b195960ca1b6064820152608401610190565b60405163eca3691760e01b81526001600160a01b0385169063eca369179061077c908690309087908c90600401610f35565b6020604051808303816000875af115801561079b573d6000803e3d6000fd5b505050506040513d601f19601f820116820180604052508101906107bf9190610f62565b90506016811461081c5760405162461bcd60e51b815260206004820152602260248201527f536572766963654d616e616765723a20666565207061796d656e74206661696c604482015261195960f21b6064820152608401610190565b60028701805460ff191660019081179091556004880180546001600160a01b031916339081179091558854918901546040516001600160a01b0393909316928b917f0d4a7936f89e13722727311f269700437c769fba2cf442558c53a0f53a322dfa9161088b91815260200190565b60405180910390a45050505050505050565b60008060009054906101000a90046001600160a01b03166001600160a01b031663351662266040518163ffffffff1660e01b8152600401602060405180830381865afa1580156108f1573d6000803e3d6000fd5b505050506040513d601f19601f820116820180604052508101906109159190610dea565b6109315760405162461bcd60e51b815260040161019090610e13565b600084116109985760405162461bcd60e51b815260206004820152602e60248201527f536572766963654d616e616765723a2072617465206d7573742062652067726560448201526d61746572207468616e207a65726f60901b6064820152608401610190565b816109ef5760405162461bcd60e51b815260206004820152602160248201527f536572766963654d616e616765723a20656d707479206465736372697074696f6044820152603760f91b6064820152608401610190565b6002805460009182610a0083610f7b565b9190505590506040518060c00160405280336001600160a01b0316815260200186815260200160001515815260200185858080601f0160208091040260200160405190810160405280939291908181526020018383808284376000920182905250938552505050602080830182905242604093840152848252600180825291839020845181546001600160a01b0319166001600160a01b0390911617815590840151918101919091559082015160028201805460ff191691151591909117905560608201516003820190610ad49082611033565b5060808201516004820180546001600160a01b0319166001600160a01b0390921691909117905560a090910151600590910155604051858152339082907fee09418e2c452193e2b5ab05d5443259213934d900e8152e09caa7d6dbb68b379060200160405180910390a3949350505050565b6040805160c0810182526000808252602082018190529181018290526060808201526080810182905260a08101919091526000828152600160205260409020546001600160a01b0316610bab5760405162461bcd60e51b815260040161019090610e57565b600082815260016020818152604092839020835160c08101855281546001600160a01b031681529281015491830191909152600281015460ff16151592820192909252600382018054919291606084019190610c0690610faa565b80601f0160208091040260200160405190810160405280929190818152602001828054610c3290610faa565b8015610c7f5780601f10610c5457610100808354040283529160200191610c7f565b820191906000526020600020905b815481529060010190602001808311610c6257829003601f168201915b505050918352505060048201546001600160a01b0316602082015260059091015460409091015292915050565b600060208284031215610cbe57600080fd5b5035919050565b600080600060408486031215610cda57600080fd5b83359250602084013567ffffffffffffffff80821115610cf957600080fd5b818601915086601f830112610d0d57600080fd5b813581811115610d1c57600080fd5b876020828501011115610d2e57600080fd5b6020830194508093505050509250925092565b6000602080835260018060a01b0384511681840152808401516040840152604084015115156060840152606084015160c0608085015280518060e086015260005b81811015610d9f5782810184015186820161010001528301610d82565b506101009250600083828701015260808601519150610dc960a08601836001600160a01b03169052565b60a086015160c086015282601f19601f830116860101935050505092915050565b600060208284031215610dfc57600080fd5b81518015158114610e0c57600080fd5b9392505050565b60208082526024908201527f536572766963654d616e616765723a2073797374656d206973206e6f742061636040820152637469766560e01b606082015260800190565b60208082526021908201527f536572766963654d616e616765723a2073657276696365206e6f7420666f756e6040820152601960fa1b606082015260800190565b634e487b7160e01b600052601160045260246000fd5b8082028115828204841417610ec557610ec5610e98565b92915050565b600082610ee857634e487b7160e01b600052601260045260246000fd5b500490565b81810381811115610ec557610ec5610e98565b6001600160a01b0381168114610f1557600080fd5b50565b600060208284031215610f2a57600080fd5b8151610e0c81610f00565b6001600160a01b03948516815292841660208401529216604082015260079190910b606082015260800190565b600060208284031215610f7457600080fd5b5051919050565b600060018201610f8d57610f8d610e98565b5060010190565b634e487b7160e01b600052604160045260246000fd5b600181811c90821680610fbe57607f821691505b602082108103610fde57634e487b7160e01b600052602260045260246000fd5b50919050565b601f82111561102e57600081815260208120601f850160051c8101602086101561100b5750805b601f850160051c820191505b8181101561102a57828155600101611017565b5050505b505050565b815167ffffffffffffffff81111561104d5761104d610f94565b6110618161105b8454610faa565b84610fe4565b602080601f831160018114611096576000841561107e5750858301515b600019600386901b1c1916600185901b17855561102a565b600085815260208120601f198616915b828110156110c5578886015182559484019460019091019084016110a6565b50858210156110e35787850151600019600388901b60f8161c191681555b5050505050600190811b0190555056fea264697066735822122055ea7c2b03b1fce5057f8fa94cbaa09fe71adc78d0eb294bb3452ee6e789cb5964736f6c63430008140033",
  "linkReferences": {},
  "deployedLinkReferences": {}
}