{
  "_format": "hh-sol-artifact-1",
  "contractName": "SecurityModule",
  "sourceName": "contracts/SecurityModule.sol",
  "abi": [
    {
      "inputs": [
        {
          "internalType": "address",
          "name": "_platformCore",
          "type": "address"
        }
      ],
      "stateMutability": "nonpayable",
      "type": "constructor"
    },
    {
      "anonymous": false,
      "inputs": [
        {
          "indexed": true,
          "internalType": "address",
          "name": "tokenAddress",
          "type": "address"
        },
        {
          "indexed": false,
          "internalType": "uint256",
          "name": "amount",
          "type": "uint256"
        }
      ],
      "name": "AssetsRecovered",
      "type": "event"
    },
    {
      "anonymous": false,
      "inputs": [
        {
          "indexed": true,
          "internalType": "address",
          "name": "reporter",
          "type": "address"
        },
        {
          "indexed": false,
          "internalType": "string",
          "name": "description",
          "type": "string"
        }
      ],
      "name": "SecurityAlert",
      "type": "event"
    },
    {
      "inputs": [],
      "name": "emergencyResume",
      "outputs": [],
      "stateMutability": "nonpayable",
      "type": "function"
    },
    {
      "inputs": [],
      "name": "emergencyStop",
      "outputs": [],
      "stateMutability": "nonpayable",
      "type": "function"
    },
    {
      "inputs": [],
      "name": "platformCore",
      "outputs": [
        {
          "internalType": "contract IQuantumPlatformCore",
          "name": "",
          "type": "address"
        }
      ],
      "stateMutability": "view",
      "type": "function"
    },
    {
      "inputs": [
        {
          "internalType": "address",
          "name": "tokenAddress",
          "type": "address"
        },
        {
          "internalType": "uint256",
          "name": "amount",
          "type": "uint256"
        }
      ],
      "name": "recoverAssets",
      "outputs": [],
      "stateMutability": "nonpayable",
      "type": "function"
    },
    {
      "inputs": [
        {
          "internalType": "string",
          "name": "description",
          "type": "string"
        }
      ],
      "name": "reportSecurityAlert",
      "outputs": [],
      "stateMutability": "nonpayable",
      "type": "function"
    }
  ],
  "bytecode": "0x608060405234801561001057600080fd5b5060405161094638038061094683398101604081905261002f916100c4565b6001600160a01b03811661009f5760405162461bcd60e51b815260206004820152602d60248201527f53656375726974794d6f64756c653a20706c6174666f726d20636f726520616460448201526c6472657373206973207a65726f60981b606482015260840160405180910390fd5b600080546001600160a01b0319166001600160a01b03929092169190911790556100f4565b6000602082840312156100d657600080fd5b81516001600160a01b03811681146100ed57600080fd5b9392505050565b610843806101036000396000f3fe608060405234801561001057600080fd5b50600436106100575760003560e01c806350ab3e931461005c57806363a599a4146100715780637e84adcb1461007957806393c87f031461008c578063bfa5020c14610094575b600080fd5b61006f61006a36600461069e565b6100c3565b005b61006f6103ca565b61006f6100873660046106ca565b6104ad565b61006f6105bd565b6000546100a7906001600160a01b031681565b6040516001600160a01b03909116815260200160405180910390f35b6000546040516317aa5fb760e11b81523360048201526001600160a01b0390911690632f54bf6e90602401602060405180830381865afa15801561010b573d6000803e3d6000fd5b505050506040513d601f19601f8201168201806040525081019061012f919061073c565b6101545760405162461bcd60e51b815260040161014b90610765565b60405180910390fd5b6001600160a01b0382166101b85760405162461bcd60e51b815260206004820152602560248201527f53656375726974794d6f64756c653a20696e76616c696420746f6b656e206164604482015264647265737360d81b606482015260840161014b565b600081116102215760405162461bcd60e51b815260206004820152603060248201527f53656375726974794d6f64756c653a20616d6f756e74206d757374206265206760448201526f726561746572207468616e207a65726f60801b606482015260840161014b565b60008060009054906101000a90046001600160a01b03166001600160a01b03166379137f9d6040518163ffffffff1660e01b8152600401602060405180830381865afa158015610275573d6000803e3d6000fd5b505050506040513d601f19601f8201168201806040525081019061029991906107a8565b60405163eca3691760e01b81526001600160a01b038581166004830152306024830152336044830152600785900b606483015291925060009183169063eca36917906084016020604051808303816000875af11580156102fd573d6000803e3d6000fd5b505050506040513d601f19601f8201168201806040525081019061032191906107c5565b9050601681146103815760405162461bcd60e51b815260206004820152602560248201527f53656375726974794d6f64756c653a206173736574207265636f766572792066604482015264185a5b195960da1b606482015260840161014b565b836001600160a01b03167f2efdc42bcf9bb8d3709fdf256a816377b073979f10f42a4b05ccdbf694db6da7846040516103bc91815260200190565b60405180910390a250505050565b6000546040516317aa5fb760e11b81523360048201526001600160a01b0390911690632f54bf6e90602401602060405180830381865afa158015610412573d6000803e3d6000fd5b505050506040513d601f19601f82011682018060405250810190610436919061073c565b6104525760405162461bcd60e51b815260040161014b90610765565b60008054604080516318e9666960e21b815290516001600160a01b03909216926363a599a49260048084019382900301818387803b15801561049357600080fd5b505af11580156104a7573d6000803e3d6000fd5b50505050565b6000546040516381a2445960e01b81523360048201526001600160a01b03909116906381a2445990602401602060405180830381865afa1580156104f5573d6000803e3d6000fd5b505050506040513d601f19601f82011682018060405250810190610519919061073c565b6105765760405162461bcd60e51b815260206004820152602860248201527f53656375726974794d6f64756c653a2063616c6c6572206973206e6f742073756044820152673832b93b34b9b7b960c11b606482015260840161014b565b336001600160a01b03167f5e07955a4663dd687d80320bdf1226865057ff5fdb70a3afa18734d7e370c70383836040516105b19291906107de565b60405180910390a25050565b6000546040516317aa5fb760e11b81523360048201526001600160a01b0390911690632f54bf6e90602401602060405180830381865afa158015610605573d6000803e3d6000fd5b505050506040513d601f19601f82011682018060405250810190610629919061073c565b6106455760405162461bcd60e51b815260040161014b90610765565b60008054604080516393c87f0360e01b815290516001600160a01b03909216926393c87f039260048084019382900301818387803b15801561049357600080fd5b6001600160a01b038116811461069b57600080fd5b50565b600080604083850312156106b157600080fd5b82356106bc81610686565b946020939093013593505050565b600080602083850312156106dd57600080fd5b823567ffffffffffffffff808211156106f557600080fd5b818501915085601f83011261070957600080fd5b81358181111561071857600080fd5b86602082850101111561072a57600080fd5b60209290920196919550909350505050565b60006020828403121561074e57600080fd5b8151801515811461075e57600080fd5b9392505050565b60208082526023908201527f53656375726974794d6f64756c653a2063616c6c6572206973206e6f74206f776040820152623732b960e91b606082015260800190565b6000602082840312156107ba57600080fd5b815161075e81610686565b6000602082840312156107d757600080fd5b5051919050565b60208152816020820152818360408301376000818301604090810191909152601f909201601f1916010191905056fea2646970667358221220777d23037e47626f7ca83509d42729631068a339247246e959e0fb4fce28096a64736f6c63430008140033",
  "linkReferences": {},
  "deployedLinkReferences": {}
}